:020000042000DA
:1000000000980020A9040020B1040020C9040020A9
:1000100000000000000000000000000000000000E0
:10002000000000000000000000000000E1040020CB
:100030000000000000000000F9040020FB04002084
:1000400077380020053103000D310300FD38002012
:10005000093900208D3103005F3900206739002005
:1000600057250020FD0400207F390020AD3103001A
:10007000AB240020FD0400204B1B02004B1B0200A0
:100080004B1B0200FD0400204B1B0200A12300209B
:10009000A5230020C1230020C5230020C923002060
:020000042000DA
:100160003200000037080020BF210020953A00200F
:10017000000000000000000063800200BD8002005B
:100180000B200020FB800200198102003581020053
:100190005D81020049380020FF050020DB1F0020A0
:1001A000F31F002000000000000000003F000000DE
:1001B000F48B002000040000740B080048010000CC
:1001C0006807080000040000C80C080020050000B3
:1001D000000000002000000048000000580000005F
:1001E0006800000004010000160100002801000062
:1001F0002E010000202A00008E2E000001000000C9
:100200008813000049220020E9600200FD930200EB
:10021000FB2D002019280300A5740200493400209A
:1002200003000000D5200200A53A002004000000D1
:10023000D74902000F490200831D020063910200AA
:10024000B7910200BF910200078202007182020092
:10025000006B0020AD830200938402004185020000
:1002600015860200378602005F860200758602004E
:10027000F9870200258902005D8A0200D38C020002
:10028000098D02000F900200438D0200278E0200AC
:10029000F98E0200478F02004D1F0020D58F02000B
:1002A00049510200775102002F5202001000000055
:1002B00020030000803E000000000000000000005D
:020000042000DA
:1002C000504600030003983A6400F401B80B000C98
:1002D000B80B120030003000CD009A01120024004B
:1002E00030006400B0001800280012001200D0078F
:1002F0000000FFFF00000000000000000000000000
:100300001F000002444131343538302D30310000B7
:1003100000000000000000000000000000000000DD
:0403200000000000D9
:020000042000DA
:10034000FFFF010000C201000000000000000000EB
:100350000000F4010100011B0A051AFFD20002157A
:10036000585CDE931B0142CC9A1325009BEDC65EC0
:1003700000000000C5000000000009FF00605257A7
:100380002D424C450000000000000000000000006D
:10039000000000000000000000004D31305F31001F
:1003A000000000000000000000000000000000004D
:1003B000000000000000000000000000000000003D
:1003C000000000000000000000000000000000002D
:1003D0000000000000000000000000000000D00746
:0403E000064064323D
:020000042000DA
:100440000348854605F0C2FD00480047C72002006A
:100450000098002010B5114906200880FF2010499F
:10046000013008600F4988683E2290432E30886032
:100470000021052000070180028A0F231B021A4376
:1004800002820122D204032308461B038418216040
:10049000001D9842FADB62B610BD00000034005027
:1004A00080E100E0003300501548804715480047C0
:1004B00004207146084203D0EFF30980124908472F
:1004C000EFF308801049084704207146084203D022
:1004D000EFF309800D490847EFF308800B490847FF
:1004E00004207146084203D0EFF309800849084709
:1004F000EFF3088006490847FEE7FEE7FEE7000045
:100500005504002041040020991600201505002004
:100510008705002005221207518A80231943518242
:10052000114903680B6043684B6083688B60C36844
:10053000CB6003690B6143694B6183698B61C0695F
:10054000C8610A48836A0B62C36A4B62036B8B62A1
:10055000C36BCB62436B0B63806B4863908A8006EE
:1005600001D500BE7047FEE70018080000ED00E06E
:1005700002890889FF49101A80B2884201D90120F6
:1005800070470020704781692039897F082904D28B
:10059000F94A8900515881617047FEE7F848F749E8
:1005A0000161F8494161F8498161F849C161F8493F
:1005B0000162F8494162F8498162F849C162F8492B
:1005C0000163F8494163F8498163F849C163F64919
:1005D000EB485C3140300160F5494160F54981608C
:1005E000F549C1600120F549C0060860F449CA69AF
:1005F0001202120ACA61F14980390860704710B5C9
:10060000F0490020086001F08DFC01208007016B9B
:1006100049004908016310BD70B50221084606F083
:10062000E3F800250126E84C00280BD0E570E08AAD
:10063000E649884210D2E08A00280DD0E0780028F0
:1006400005D009E0E08A401CE082E670EFE7A67280
:10065000E582DFA001F0EEFEE08AE349884201D99D
:10066000E672E582E07B052801D9A673E57370BDCB
:10067000F8B5FFF7D1FFD448D34E807A183600245E
:100680000127012835D1D048D84D847268780028D8
:100690002FD1022028710146012006F015F9D44817
:1006A0000470D4A001F0C6FE14223221D84803F011
:1006B000C1FE0721022006F007F9142001F054F8CA
:1006C00001F0D0FA0721022006F020F9D148D449E0
:1006D0000480D1480780D14804800320C870AC70E2
:1006E0006F70B9480221047334807480012006F0D1
:1006F0000DF9B54DE87A01283ED1BC48EC7240783E
:10070000012861D0C748AC7404800221012006F0A2
:10071000DBF8B748142204703221BD4803F08AFE8A
:100720000721022006F0D0F8142001F01DF801F096
:1007300099FA1920400101F017F8FF20913001F0DB
:1007400013F801F08FFA0721022006F0DFF8A7481E
:1007500002210171AF490C80B0490C80B2490C8074
:10076000BB21817147702C732F7284703480748028
:100770000221012006F0CAF8A87B012823D1AC731E
:100780000721022006F0A0F8142000F0EDFF01F090
:1007900069FA23242401204600F0E6FF01F062FA02
:1007A000204600F0E1FF01F05DFA0721022006F08B
:1007B000ADF801F0A8FA2F74204600F0D5FF022111
:1007C000012006F081F8F8BD98A001F033FE022167
:1007D000012006F079F80721022006F075F81420B0
:1007E00000F0C2FF01F03EFA4B20000100F0BCFF18
:1007F00001F038FA0721022006F088F8E87B7B49EF
:10080000401CE8738748048087480480AC74BB2090
:1008100088712F72AAE710B56B4C85B003210020B8
:100820006B461C34625C5A54491C5040C9B21329AF
:10083000F8D905B010BD96B000200F900E908948F1
:1008400001240470884908200F26088005F0D0FB99
:1008500006F0A2F801F0B9F90021022006F034F800
:10086000594804700078012802D1032106F02CF8C1
:100870000721022006F028F802F075F905460C461B
:100880007AA001F0D7FD270E384601F0DDFD200CDF
:100890000B90C0B201F0D8FD200A0990C0B201F05F
:1008A000D3FDE0B201F0D0FD2102280E08430A90EA
:1008B000C0B201F0C9FD2104280C08431190C0B258
:1008C00001F0C2FD2106280A08431090C0B201F0D1
:1008D000BBFDE8B201F0B8FD684607700B980D97B4
:1008E000C1B26846417009980C91C1B268468170E6
:1008F0000991E1B2C1700A980B91C1B268460171C9
:1009000011980A91C1B26846417110981191C1B213
:10091000684681711091E9B2C17101910F210622DF
:1009200009035A4802F085F8002503222B461202DB
:1009300029462846009505F0FBFD55490868002822
:1009400001D0681E00E00120524A08601368C117F8
:10095000546818432143106051600A2000F004FFDE
:1009600001F080F90C2000F0FFFE01F07BF90C2073
:1009700092E0000030750000E06A00209427030038
:100980000084004062B600DF28A30200704701DF48
:100990001CCA0200F8BD02DF40CB0200F5E703DF0E
:1009A00084D4020004DF89B0BC330200F8BD05DF47
:1009B000F8BD06DFEC0C030070BD07DF80E100E04E
:1009C00000ED00E08C03080020900020B80B000030
:1009D0000A0D6A69616E2063652064616F20647529
:1009E000616E20616E0A0D00AC0D0000B86F002032
:1009F000218000200A206475616E20616E20204DE8
:100A00004F544F525F524553455420202000000060
:100A100005C80000769100207C910020789100208C
:100A20008C9100207A910020649000200A20636855
:100A3000616E6720616E2C4D6F746F724F6E203D3A
:100A40003D20312C6469616E206A692073686920D9
:100A500066616E67207A6875616E672074616920CF
:100A60002000000022800020003300500A5350492B
:100A700020666C61736820556E6971756520494404
:100A8000204E756D6265722069732000D8030020C6
:100A9000709000206890002000F066FE01F0E2F8FF
:100AA0000C2000F061FE01F0DDF80C2000F05CFE8F
:100AB00001F0D8F80C2000F057FE01F0D3F80C201C
:100AC00000F052FE01F0CEF801F010F900210220F2
:100AD00005F01CFF0721022005F018FFFA4802214B
:100AE0000171FA4801780170F9480178017001201C
:100AF00005F084FAFF2401340D202146800105F021
:100B000083FA02F0B5FD01F0C3FA01F05BF90420AD
:100B100000F0FBFC072000F0F8FC0A2000F0F5FCD8
:100B2000062000F0F2FC0B2000F0EFFC012000F0AA
:100B3000ECFC022000F0E9FC002000F0E6FCE548B7
:100B4000006805F067FAA00501682143016000F024
:100B50001BFDE1480068AA2805D1142001F0A0F986
:100B6000142001F0ABF903F031FCFFF748FDA2219E
:100B700005200007C182D9484188E0229143A03175
:100B80004180012005F04CFA05F050FA022803D00C
:100B900005F04CFA01280BD1D1480821018005202D
:100BA0000007818A8906FCD4418A802291434182D0
:100BB00003F07BFF14223221CA4803F03BFCCA4CED
:100BC0004B202188C000814205D114223221C54822
:100BD00003F030FC258005242407208900061FD55A
:100BE000A000006B00041BD405F026FAC00717D143
:100BF000042005F027FA074605F02AFA002F0FD047
:100C0000B54800950068AA2802D1142001F056F9D1
:100C10000421684605F022FA002801D001F0A4F969
:100C200072B602F04DFD69460877042806D0022806
:100C30000AD0032808D0012872D072E0AB480078AF
:100C400001280DD003200877208A0427384320820A
:100C5000A748C0690128087F19D9032802D012E0EB
:100C60000220F0E705F000FA00280CD005F002FAA7
:100C7000002808D0032005F003FA002803D09D497E
:100C8000022008700CE002206946087708E003287B
:100C9000F9D105F0F5F90028F5D096480121017049
:100CA00095490A69042002430A61608A2022904320
:100CB0006082228A0220024322826846007F022844
:100CC00024D0608A0422104360827F2320889B0105
:100CD0008022104320800020401CC0B20A28FBD391
:100CE000608A10273843608284485B1E43612088F5
:100CF0009043208079484288FF2301339A43428001
:100D000030BF08690422904308610AE0628A042027
:100D100002436282608A102290436082EAE7FFE722
:100D200030BF62B6684C2078002809D10321012029
:100D300005F0ECFD0221012005F0E8FD704805708A
:100D4000FFF796FC00F0ECFF0521022005F04CFDBA
:100D5000002803D06A490120887020706848817893
:100D600001290AD167490988012903D06649098800
:100D700007291ED2857065490D80634909880729B6
:100D800017D2817C002914D18178012911D05F4AC2
:100D900011880B463C3B142B07D8CC22A271C90703
:100DA00011D15B4A0321D1700DE0502901D9158082
:100DB0002570A179BB2906D153490988032902D896
:100DC0000121417000E045704D488078012802D132
:100DD0006078012806D0102E03D94E4F38880D2890
:100DE00071D0DDE00120A0704A4805804448807C35
:100DF000EE2819D144480088062815D9464F0E21FF
:100E0000388805F043F900290ED10721022005F0AA
:100E10005BFD142000F0A8FC00F024FF0721022055
:100E200005F074FD012038803C48142100880746F5
:100E300005F02CF9002910D13148DD218174AA2157
:100E4000A171E1790F914B2149018F4200D92570A1
:100E5000417B002901D10121C1712948C0790128B4
:100E60001DD12748407B002819D12D4887420CD23C
:100E70000721022005F028FD142000F075FC00F089
:100E8000F1FE0721022005F041FD0621E07905F081
:100E9000FDF81D490A8880180880AA2060711D4845
:100EA0000088B04248D318480088062844D9144F17
:100EB000387B002803D116491820C870A570A07887
:100EC000002839D12EE038E0B86F0020000008007B
:100ED000202A0800049000202C80002020000050D0
:100EE0000033005002C80000809100205402080026
:100EF000E0010020C406080000ED00E00080004092
:100F00002090002062900020649000207A910020C0
:100F10008C91002076910020749100207C9100201B
:100F200056090000F7A001F085FA03F0A1FC0120AA
:100F3000A0703873FD480580A3E0FD4800880628AE
:100F40002ED90721022005F0BFFC142000F00CFC74
:100F500000F088FE4B20C00000F006FC00F082FE8E
:100F60001920400100F000FCFF20913000F0FCFB54
:100F700000F078FE4B20C00000F0F6FB00F072FE9F
:100F8000ECA001F057FA0721022005F0BFFCF14860
:100F900033218174AA206071E44805800E203880D6
:100FA000ED480088B0426CD3E1480088062868D933
:100FB000E848007B002803D1E8491820C870A570D4
:100FC000A07800280AD1CFA001F034FA03F050FC39
:100FD0000120A070DF490873D4480580DD4F183721
:100FE0003888002802D114203880788038887988A1
:100FF000421F914205D0921F914202D01138814286
:101000000CD10721022005F05FFC142000F0ACFB9E
:1010100000F04AFE0721022005F078FCC348008852
:10102000C10704D1152802D2CC490320C870CA4890
:1010300039880088401A142105F02EF8002902D0C2
:101040002079002813D0C348817A01290FD0C34AE0
:101050000321D17055218174AA21A17100210F9122
:101060000121C171BE4805702079401E2071607851
:10107000002806D1BB48BC490088801B884200DD9F
:101080002570BA4F388801287ED1B9A001F0D2F975
:101090003D80B04FA6483D7400883C2807D8022107
:1010A000012005F011FC4B20C00000F05DFBA948B9
:1010B0004078002801D1AA20A071A748A94905803D
:1010C00001200880B248B349058011200870A44867
:1010D00005210570022005F087FB00280ED09448FA
:1010E0000088062802D99B48EE218174AA4801880D
:1010F000FF20D730814204D2FF2006E09548857456
:10110000F4E7A64804F0C2FF80B2C7B20E98401CB4
:10111000C1B202A80E914754684687738D48417941
:10112000012900D181710E99052903D100210E9169
:10113000012141718748407901286846417A807AC7
:1011400036D009186846C27A007B1018091868461C
:10115000407B08180E9904F099FF0F906846417A79
:10116000807A09186846C27A007B10180918684608
:10117000407B0818C01BC117890F08188005000E96
:10118000E0710F99002900E06BE024D0FF2922D8FC
:10119000704B0A46597A521A052A03DA0F9A891AAD
:1011A000052910DB012119716C4918220A7112E01E
:1011B00009186846C27A007B101809186846407BF7
:1011C00008180521C7E7654A1179052903D20121CD
:1011D00019711821117101460B39BD2913D85449D1
:1011E000098806290FD904F05DFF02460B4600204E
:1011F0006B4904F0B5FD00226A4B04F059FF04F07E
:1012000043FEC6B20CE00A2807D8002808D0484997
:101210000988062901D9B42602E0C82800D9072682
:101220004C48857042490A88052A01D2012303717E
:10123000022A07D2E278012A04D10D80E5700571F7
:1012400000210E910179012907D105710F99417291
:10125000407B00280DD0552060710221012005F04F
:1012600055FB3C48817C332905D04178012902D0C7
:1012700008E0AA20F0E72D490A88152A02D1AA22FF
:1012800062710D803549C978022902D1417B00295C
:1012900006D06179AA2905D0017A012902D0E5E0BA
:1012A000AA2161712B48007C01287FD000F02BFD22
:1012B0001920400100F058FA27480088B04206D3B0
:1012C000002002A90D54401CC0B20528FAD3184FC3
:1012D00038883C2803D90221012005F0F5FAA068DE
:1012E00031490170090A4170A1791A4B8170998ABC
:1012F000C170090A017139884171090A817114218B
:10130000C17154E00A2053554F2053492061707039
:101310005F74696D65725F736574284D4F544F52E9
:101320005F54494D4552292000000000789100206B
:10133000649000200A20446F6E6720546169204247
:10134000616F204A696E6720342062696269626950
:101350006269200020900020769100208C9100206E
:10136000008000207C910020650900006290002030
:101370000A204465746563747320612064726F7021
:101380002044726F70494E543D3D312000000000F2
:101390007A910020C46F002060900020C0D401002A
:1013A00000004E4000003E401B0300005EE05A4932
:1013B000097801720F994172997C81720D99C172FD
:1013C0000C990173099941730B9981730A99C1733F
:1013D000119901741099417401998174FFF71BFAF6
:1013E000A168C8743C2000F0BFF900270A2000F073
:1013F000BBF94A48C05D01F017F8022000F0B4F9CB
:101400007F1CFFB2142FF1D3444801271C384774C6
:1014100043480621417143480078012812D142A077
:1014200001F008F84C483D4A40891421801D80B2E3
:1014300004F044FE484800214089801D82B246489D
:1014400002F0F2FA3548454A1C38818A491C89B2B3
:101450008182914200D98782C57102214173552151
:10146000617105720221012005F050FA3C480078B4
:10147000002801D0FFF7A3FB022001F0EBF801F0F8
:10148000F7F8384A384913785F00C8535B1CDFB25D
:10149000177008884A88898880184018032104F04A
:1014A000F5FD3249032F088001D12E4805703048E0
:1014B000008850280DD92A4901200870657007213D
:1014C000022005F023FA0021084605F01FFA2948FA
:1014D00005702648018811204001814202D3264828
:1014E00001210180254800883C28C3D91C490120DE
:1014F000087065700721022005F008FA00210846EF
:1015000005F004FA1B480570B4E7C106C90E0120B6
:1015100088401B4908607047BF9100203C90002024
:101520008C910020208000200A20424C45207365C9
:101530006E6420646174652032302C202875696ED9
:1015400074385F742A292628747842756666657235
:101550005B305D292000000096910020FEFF000016
:10156000CA910020C9910020DA910020CE9100207C
:1015700084910020C3910020869100207E9100205C
:1015800080E200E0704700003E480178002902D068
:101590008021417070473C49002008703B49C87069
:1015A000704738480178002902D081214170704786
:1015B0003549012008703549C870704731480178B5
:1015C000002902D08221417070472F490220087003
:1015D0002E490120C87070472A488178002904D01C
:1015E000491E0906090E817017D142780021002A90
:1015F00004D09207920F0270417004E00278002A32
:1016000001D0521E02701206120E017005D0012A7E
:1016100002D0022A01D1D1E7C3E7704710B5194CB7
:10162000A078401CA0702078002805D104F0FEFCB2
:10163000421CFFF7A9FF227010BD12490120C8709B
:10164000704710490020C87070470E48C078704736
:101650000020EFF31081012282F310880522120787
:101660001289120605D40A48028901231A4302810D
:101670001846002900D0012181F3108870470548E1
:10168000007870472380002054020800C606080036
:10169000003300504280002005221207118A0423E3
:1016A00019431182118A022319431182118940239F
:1016B00019431181174B01211960174B082119801B
:1016C000518A802319435182144903680B6143688E
:1016D0004B6183688B61C368CB6103690B624369AB
:1016E0004B6283698B62C069C8620D48836A0B6371
:1016F000C36A4B63036B8B63C36BCB63436B074959
:1017000040310B60806B4860908A800601D500BE36
:101710007047FEE780E200E0003300504018080008
:1017200000ED00E010B5012005F09CF9032005F064
:101730008DF900221146012000F0DEFE2A2201214F
:10174000002000F05BFF142005F0B8F9002005F040
:10175000BBF900221146642000F0EDFE00F0F0FE1F
:1017600005F08CF910BD70475021484380B2014606
:10177000401E80B20029FAD1704700227D23DB0091
:1017800006E00021491C89B29942FBD3521C92B257
:101790008242F6D3704770B5FA4900200A6BC04305
:1017A000002A01D0034600E00123DA179C0B9204C3
:1017B0002243F54C0B6325689B0466682B43324338
:1017C000236062608A6D002A01D0024600E0012297
:1017D0008A6523689200656823602A436260CA6D47
:1017E000002A01D0024600E00122CA652368D20027
:1017F000656823602A4362600A6E002A01D00246AF
:1018000000E001220A6623681201656823602A430A
:1018100062600A68002A01D0024600E001220A60E4
:101820002568D31766682A433343226063608A6958
:10183000002A01D0034600E00123DA179D0E920131
:101840002A438B6125689B0166682B4332432360E2
:101850006260CA68002A01D0034600E00123DA175B
:101860005D0FD2002A43CB602568DB0066682B43FE
:101870003243236062604A69002A01D0034600E0D7
:101880000123DA17DD0E52012A434B6125685B0103
:1018900066682B433243236062604A68002A01D0A5
:1018A000034600E001234B60DA17DB18256852413C
:1018B00066682B433243236062608A68002A01D045
:1018C000034600E00123DA179D0F92002A438B6044
:1018D00025689B0066682B43324323606260CA69B7
:1018E000002A01D0034600E00123DA175D0ED20181
:1018F0002A43CB612568DB0166682B4332432360B2
:1019000062600A69002A01D0034600E00123DA1769
:101910001D0F12012A430B6125681B0166682B43CA
:101920003243236062608A6A002A01D0034600E0E5
:101930000123DA171D0C12042A438B6225681B044D
:1019400066682B43324323606260CA6A002A01D072
:10195000034600E00123DA17DD0B52042A43CB6271
:1019600025685B0466682B433243236062604A6BE0
:10197000002A01D0034600E00123DA175D0BD204F0
:101980002A434B632568DB0466682B43324323609C
:1019900062600A6D002A01D0024600E001220A6559
:1019A0002368656823602A4362604A6D002A01D07B
:1019B000024600E001224A65236852006568236000
:1019C0002A4362604A6E002A01D0024600E00122EA
:1019D0004A6623685201656823602A4362608A6E02
:1019E000002A01D0024600E001228A6623689201A3
:1019F000656823602A436260CA6E002A01D00246ED
:101A000000E00122CA662368D201656823602A4388
:101A100062600A6F002A01D0024600E001220A67D4
:101A200023681202656823602A4362604A6F002AB5
:101A300000D101204867216840026268216010439C
:101A4000606070BDF8B501250326360200233246DA
:101A500002212846009504F06BFD00240221234654
:101A600022460846009404F063FD00210723324615
:101A70000846009404F05CFD062332461946002017
:101A8000009404F055FD0823324603210020009500
:101A900004F04EFD0523002219461046009504F07F
:101AA00047FD0223324603211846009404F040FD0E
:101AB0000123002204210220009404F039FD0023B8
:101AC000324604211846009504F032FD00220F230F
:101AD00001211046009404F02BFD00220F23022167
:101AE0001046009404F024FD1723324607210020FD
:101AF000009504F01DFD0023324619460120009494
:101B000004F016FD0121002332460846009404F03B
:101B10000FFD0023324603210120009404F008FD4C
:101B20000023324619460220009404F001FD0023F0
:101B30001A4601210220009404F0FAFC00231A4600
:101B400005210220009404F0F3FC00233246062114
:101B50000220009404F0ECFC00233246072102200E
:101B6000009404F0E5FC0023324608210220009591
:101B700004F0DEFC0023324609210220009504F027
:101B8000D7FCF8BD709000206890002038B582A086
:101B90000068824C009060896A46801D80B20321F3
:101BA00004F08CFA60890021801D82B2204601F089
:101BB0003BFF00210822084601F074FF0122322178
:101BC000774802F037FC38BD70473EB5052424073E
:101BD000208A022188432082A08A0007FCD5FEF7D4
:101BE000DDFCFFF72FFF00F08DFD00F0F5FBFFF7A8
:101BF00099FD0520FFF7B8FD002201201146C00223
:101C000000F01AFD012000F025FD142101200A46F4
:101C10000191009001460023022004F0B3FC6149C9
:101C2000032048700020087000900190034602468F
:101C3000014602905B4800F0A1FD00F06EFE59499C
:101C4000091F4870401C04D1FF210131880200F0B7
:101C50002BFE00F085FD00F08AFD608A20210843FC
:101C600060823EBD10B500240621022004F02CFE47
:101C70000520FFF779FD0621022004F047FE05202C
:101C8000FFF772FD641CC82CEEDB10BD034610B5D7
:101C90000020024602E09C5C2018521C8A42FADBBB
:101CA00004F0FAF9C0B210BD10B53F4C20782228DC
:101CB00005D0442803D0662801D0882801D1FFF739
:101CC000D1FF3A488178002906D12178882904D0AB
:101CD000052282701131217010BD642181701120A4
:101CE000207030490120091F087010BD10B508216F
:101CF000022004F00BFE2420FFF736FD082102200D
:101D000004F0E2FD10BD10B50921022004F0FEFD33
:101D10002420FFF729FD0921022004F0D5FD10BD84
:101D200070B523480178012934D100260670214975
:101D30001C48CA78801ED12A02D0DA2A28D112E0A3
:101D40001C49194D20310A7A0270497A6D1C417084
:101D50002A7169710024285D00F066FB641CE4B2FE
:101D6000092CF8D314E0097A002911D10E4D01781D
:101D70000A352971407868710024285D00F054FB11
:101D8000641CE4B2092CF8D37D20C000FFF7F5FCF9
:101D90000948067070BD0000A1A2A3009691002022
:101DA0000338000004800020C46F00208C910020C4
:101DB000249100202691002025910020A449002094
:101DC0004860704770B505210907088930229043A3
:101DD00008810889802210430881088980088000D2
:101DE000401C088108890823184308819948048801
:101DF000144304804C8A9C434C820D894024254323
:101E00000D810D8A0426B5430D828D8AAD07FCD560
:101E10008F4E00257560058801263543058045896C
:101E2000AE058D4D068801D52E4300E0AE430680F9
:101E300005887826B543283505800588062635436C
:101E400005804D8A1D434D820388934303800A8990
:101E5000A2430A814089800503D57E49052060316F
:101E600088800120800701688215914301607B48CA
:101E700001683F22520291434214891801600168AF
:101E800002031143016070BD03217548090281817D
:101E9000082242800021491C9629FCD38280704789
:101EA000704948800888032210430880088804226B
:101EB0001043088066490120087070477CB5644C67
:101EC000217800292DD067490A885207FCD4CA8896
:101ED0000092898801911104019A89180091624940
:101EE0004843009904F0D2F8009000202070009838
:101EF000A060009803F0ACFF054629465B4803F05C
:101F000032FE0A2103F06DFE03F0A9FFE0602846CF
:101F100003F0D8FF564A574B04F0CAF803F0E6FF27
:101F200020617CBD10B54A484168AA2905D07C20B3
:101F30005149081804F0C8F810BDC06819210903F8
:101F4000884200D900BEFF20EB30F1E770B5414C6C
:101F50006088C006050F04F0BDF861881E22914319
:101F60006A001143618070BD10B544490120C86307
:101F7000C86B0028FCD101208007C1694048026875
:101F8000914201D20022026019238A1ADB019A428F
:101F900012D3016004F0A4F83A4A1188884201D9AA
:101FA000411A00E0091A89B2182905D310800120CE
:101FB00004F09CF804F0A0F810BD08B52449896825
:101FC0004843314904F062F8009008BD08B5204943
:101FD000C9684843800A009008BD08B51C49496893
:101FE000002903D0FFF7E9FF009008BD04F08AF84C
:101FF000FAE708B516494968002903D0FFF7E6FF5C
:10200000009008BD04F084F8FAE708B51F490120E4
:102010004A695206D20F13D04A699206D20F0FD0E6
:1020200000220A610092FF225F32009B5B1C00933A
:102030009342FAD34969C907C90F02D004F06EF878
:10204000002008BD40183721C00009014018704722
:1020500028800020200000500010000000020040F6
:1020600020300050001600500024F4000024744971
:102070007B14AE47E17A443F01120000C0000040EB
:102080007C0408007804080040420F000010005053
:1020900030B58D4A8D49D005048880231C430480C7
:1020A0008B4C65892D0701D4521EFAD2894C01222E
:1020B0002260894C0A882280884A498811800188D8
:1020C0009943018030BD00207047704770477047CA
:1020D0000020704701218907086B0722104308631D
:1020E0007047704710B57F497D4808607E494C2095
:1020F00008807D4B7D4A203B1A827E497C4848807F
:102100007E487D4901807C491931418022214181ED
:102110008121890001827A4941827A490183784983
:1021200011314183754978482031888041217748B1
:10213000090181807649C180754C1034C4810182C7
:102140004182891C8182611FC182FF214631018346
:10215000704941837049592008806F486F4C203086
:102160000480432444806E4C4C82D5218180FF2121
:10217000D33101816B4941816B4981816C496B4845
:10218000088059486B4960384180C1881024214338
:10219000C18062490A390181534C6749403C6180E2
:1021A0005A82082141814D485B49008840390882A4
:1021B000494862490088088010BD4008704700B552
:1021C0008BB05F4A42625F4A82625F4A42615F4A05
:1021D000C2625F4A02605F4A02625F4A42605F4ACF
:1021E000C261404A3E48002110603E484038026BC0
:1021F00003129A430263426B1F231B049A43032377
:102200001B04D218426356480268C3129A43026004
:10221000026803139A43026068464154491CC9B2DC
:102220002829FAD3014628224E4803F07DFFFFF704
:1022300059FF03F055FF4C490880002003F056FF7A
:1022400003F05AFF0BB000BD10B5264A0F212448F9
:102250000902106023484038426B1F231B049A4335
:1022600003231B04D218426300060268D208D2007E
:10227000026005200007028992089200521C028128
:10228000028908231A430281028A0A4302823748DC
:102290000068002808D10E484189890504D50188C5
:1022A0007822914308310180FFF71CFF3048006F0E
:1022B0000078002804D02F4800880B496039C88076
:1022C000012003F0ADFE10BDA0860100087F0400D0
:1022D0002000005000800040560208004A03080019
:1022E0004C05540780000040602C00507F7F0000A8
:1022F000AC29000000220050090900000024005011
:102300002204000030D00000EE1100000025005033
:102310002E02000044200000402800500D950000CF
:1023200002420000E4DC000010920000537800003C
:10233000002A00508B1000009DD5000000260050A0
:10234000C7200020CB200020D1200020D520002055
:10235000CD200020E3200020CF200020BB21002042
:102360000002004020000800780408002C800020B3
:10237000E00100205204080010B5044604F058FAA9
:102380001249A00040188038406B002801D08047D7
:1023900010BDE106C90E012088400D49086010BD3E
:1023A0001320E9E70B4909480A88B0380280002267
:1023B0000A80012141808188491C81801420DBE74B
:1023C0001520D9E71620D7E71720D5E71091002070
:1023D00080E200E0729100200520000782888021C1
:1023E0000A43828040488181002181800921018047
:1023F00003218181028A40218A43028201220281D3
:1024000083881343838039480268120A12020A4300
:10241000026088013649086070473348818AC907DD
:10242000FCD00088C0B270472F498A8A9206FCD53A
:102430000880704700B5034602E0FFF7F5FF5B1C1C
:1024400018780028F9D100BD0346000600B5000F3A
:102450000A2801D2302100E037210818FFF7E4FFF5
:102460001807000F0A2801D2302100E03721081890
:10247000FFF7DAFF00BD10B50446000AFFF7E4FFDE
:10248000E0B2FFF7E1FF10BD10B50446000EFFF704
:10249000DBFF2002000EFFF7D7FF2004000EFFF73E
:1024A000D3FFE0B2FFF7D0FF10BD10B50E48018991
:1024B0000907090F042910D103880E4A901E41789C
:1024C0005354491CC9B24170D47800220123D12C45
:1024D00004D0DA2C01D1092902D010BD4A29FCD13F
:1024E0000370427010BD0000001000500CE400E0CA
:1024F00000E100E02691002030B5484B1C6808251B
:10250000C907AC43090F0C431C6019680424D207A7
:10251000A143520F1143196019680222C007914369
:10252000800F014319603E4801688022090A0902B0
:102530001143016030BD3B4B58809980DA80704771
:10254000FF203949013008607047FF2036490130CB
:10255000803108607047354800224188491C41801D
:102560000178491CCBB201461C310370142B14D3E3
:1025700002700B785B1C0B70838A5B1C83828B79E7
:102580005B1C8B718B78002B01D05B1E8B70C38A18
:10259000012B02D1C3895B1CC3810B78322B2CD158
:1025A000038A5B1C038283885B1C83800A70828998
:1025B000521C8281C288521CC2800289521C028134
:1025C0004289521C4281CA78521ECA700A79012A75
:1025D00001D9521E0A71164B5A88022A01D9521E7D
:1025E0005A80144A1378002B01D05B1E13704A796D
:1025F000521E4A71418A491C4182704770B5054696
:1026000014460E46012004F041FA284604F04AFA26
:10261000304604F059FA0348C48170BD00340050BC
:1026200008E400E00034005000E100E07091002078
:10263000389000202D900020084301218903034693
:102640000B4343490B80434B184308800920024346
:102650004A8070473E490A880F239B0100079A432E
:10266000800D02430A807047394900200880704776
:1026700037483949028802231A430280491E02D38F
:1026800002889207FAD400210181408970470AE04C
:1026900000BF00BF00BF00BF00BF00BF00BF00BF42
:1026A00000BF00BF00BF401EF2D2704770B50121CD
:1026B000890204464E0000223046FFF7BDFF142079
:1026C000FFF7E5FF002C01D0092000E00720FFF70D
:1026D000C1FFFFF7CDFF05460120FFF7D8FF00221D
:1026E00011463046FFF7A8FF002C01D0092000E07A
:1026F0000720FFF7AFFFFFF7BBFF4019144A002187
:10270000118070BDF0B5124C144820801420FFF7E2
:10271000BEFF01256D02A580E5802088E900084301
:10272000208020888E10B0432080FFF7A1FF07464D
:10273000208830432080FFF79BFF024678007142DB
:102740004018281A52005118691AA080E180F0BD83
:102750000015005001400000A08601000148000063
:1027600010B54F484178007804F0D0F810BD10B58E
:102770004B484178007804F0A7F810BDF8B50E4634
:10278000154647490278079F0A7040781C464870F2
:10279000FFF7EDFF0520000781880122D2021143D7
:1027A0008180404801884908490001800188FF2252
:1027B00081329143F201114301800188402291430B
:1027C000AA0111430180018804229143A200114310
:1027D0000180018802229143069A52001143018030
:1027E0000188012292039143BA03114301800188B9
:1027F00018229143089AD2001143018001880122D6
:1028000011430180F8BD27490A88520852000A8006
:102810000A88FF2381339A43C00102430A80088853
:10282000012210430880704710B51E4801884908EE
:10283000490001800520000781880122D2029143CE
:10284000818017484178007804F03EF810BD1548A3
:102850000188490849000180704710B511490023DB
:102860000A88D205920F012A01D9040C8C80488075
:1028700008888004FCD50120C880012A01D98888F5
:1028800003044888C01810BD10B50446FFF768FF60
:102890002046FFF7E2FF0446FFF769FF204610BD20
:1028A0000680002000120050F94AD1609060704705
:1028B00010B50120FFF7A7FF05200002FFF7E4FF96
:1028C000C0B210BD70B50024F24DFFF7F1FFC00794
:1028D00004D0641CAC42F8D30020C04370BD70B576
:1028E000FFF7F0FF002817D1FFF78DFFFFF738FF44
:1028F0009F20FFF7B2FF0020FFF7AFFF0504002085
:10290000FFF7ABFF04022C430020FFF7A6FF204394
:102910000546FFF72CFF284670BD70B5FFF7DFFFB7
:10292000DB4CDD4A002114234B43D5589B185B68D0
:102930001D4003409D420ED1142308B24B4320801A
:102940009B189D68A560DB68E360142358438018DA
:10295000606048B270BD491C89B20429E3D30020ED
:102960006060401E70BD70B5FFF7ACFF002815D148
:10297000FFF749FFC74E00250620FFF785FF00241B
:10298000FFF796FFC10703D1800701D5002070BD76
:10299000641CB442F4D36D1C322DEDD30020C0432F
:1029A00070BD70B5FFF78EFF002815D1FFF72BFF24
:1029B000B84E00255020FFF767FF0024FFF778FF8F
:1029C000C10703D1800701D5002070BD641CB4424B
:1029D000F4D36D1C322DEDD30020C04370BD70B513
:1029E000FFF770FF002811D1FFF70DFFA94E00255A
:1029F0000420FFF749FF0024FFF75AFF800707D0A4
:102A0000641CB442F8D36D1C322DF1D30020C043B6
:102A100070BD10B50446FFF755FF002808D101200E
:102A2000FFF7F1FEE01DF930FFF72EFFFFF74AFF39
:102A300010BD70B5064696480D4680685119814212
:102A400001D9441B00E01446FFF73CFF00281AD1CF
:102A50000220FFF7D8FEFFF783FE03212846090670
:102A60000843FFF7FAFE0020FFF7CDFE002505E042
:102A70000020FFF7F2FE30706D1C761CA542F7D3E4
:102A8000FFF775FE204670BD70B5054680480E46BE
:102A9000C0681446824200D984B2FFF713FF0028B1
:102AA0001ED1FFF760FF00281AD10220FFF7ABFE0E
:102AB000FFF756FE0121304649060843FFF7CDFED9
:102AC0000020FFF7A0FE05E028786D1CFFF7C5FE8B
:102AD000641EA4B2002CF7D1FFF749FEFFF7F2FE07
:102AE00070BD70B50D460446FFF73DFF002802D0CB
:102AF0000020C04370BD0220FFF785FE280620435A
:102B0000FFF7C2FEFFF7DEFE70BD10B5FFF72BFF2B
:102B1000002802D00020C04310BD0020FFF773FE44
:102B2000C720FFF7B1FEFFF7CDFE40B210BD002079
:102B3000C043704710B5FFF7C5FE002812D1012031
:102B4000FFF761FEFFF70CFE09200003FFF785FE8B
:102B50000020FFF782FE0020FFF77FFE0446FFF70C
:102B600006FE20B210BD70B5FFF7ACFE002801D004
:102B7000C11770BD0020FFF746FEFFF7F1FD4B20A7
:102B8000FFF76BFE0220FFF73EFE0020FFF765FE19
:102B90000020FFF762FE002504462846FFF75DFE91
:102BA00006462E43FFF7E3FD3046214670BDF7B5DC
:102BB00082B0374F0E460091F96814460D463046F4
:102BC00003F064FA401C6843451E0020FFF71BFE1B
:102BD000B868801BA04200D204462646002719E0B0
:102BE00000988019A84202D900982E1A761C0298E3
:102BF000B2B2C0190099FFF747FF002803D00020A8
:102C0000C04305B0F0BD681C00902148BF19C068E2
:102C10002D18E61BA742E3D33846F2E710B5FFF7BD
:102C200051FE002805D1FFF7EEFDB920FFF72CFE7D
:102C3000002010BD10B50020FFF7E5FDAB20FFF729
:102C400023FE002010BD70B5114C054660680028B9
:102C500006D0FFF788FE002805D00020C04370BDD5
:102C60000520C04370BDFFF723FE6168097C8843DF
:102C700029400843FFF7CDFE70BD10B504484068F9
:102C8000407CFFF7E0FF002808D040B210BD0000F4
:102C900008800020400D0300206B0020FFF735FF67
:102CA000F4E770B505462F480E46C06814468242C8
:102CB00000D984B2FFF706FE00281DD1FFF753FEAE
:102CC000002819D10220FFF79EFDFFF749FD0121E1
:102CD000304649060843FFF7C0FD0020FFF793FD8B
:102CE00004E02846FFF7B9FD641EA4B2002CF8D119
:102CF000FFF73DFDFFF7E6FD70BDF7B582B0194F58
:102D00000E460091F96814460D46304603F0BEF9B0
:102D1000401C6843451E0020FFF775FDB868801B06
:102D2000A04200D204462646002717E000988019EA
:102D3000A84202D900982E1A761CB2B200990298C5
:102D4000FFF7AFFF002802D00020C04359E7681CFE
:102D500000900448BF19C0682D18E61BA742E5D3B0
:102D600038464EE70880002070B5EFF3108501204B
:102D700080F31088264803F0DDF90446002D1DD0AD
:102D8000012080F31088002C23D020462038C08BEF
:102D9000204988421DD16189208903F0D1F90500BD
:102DA0000ED021461031A38962892089A8470028C6
:102DB00006D001280DD002280BD105E00020E0E765
:102DC000204603F0C3F904E0114821460C3003F01B
:102DD000C3F9EFF31084012080F310880C480068D9
:102DE000002802D1012003F0BDF9002C03D00120FE
:102DF00080F3108870BD0020FAE710B5BC210648AA
:102E000003F0B6F90549012003F0B8F910BD000040
:102E1000A80508003883000004060800692D00207A
:102E2000F8B50D46064681002B48EA884458521CE6
:102E300020686B89018F294F514300910146403131
:102E40004A89C989511A8AB2991A89B2B94214D2E7
:102E50009A4212D0294603F097F92D89204900980B
:102E600003F014F92818801C4034E0823002401C22
:102E700080B2042103F08EF9F8BD2821304603F01A
:102E80008FF9F8BDF8B50546870013480C46C059C0
:102E9000C9880068114E024640325389D2899A1A75
:102EA00092B28B1A9BB2B34211D20B4E8A420ED011
:102EB00003F07CF9F05905225F30611C03F034F90E
:102EC0002802401C80B2052103F064F9F8BD2821D6
:102ED000284603F065F9F8BD4C030800FF7F0000A9
:102EE0001027000070B516460D46104603F064F931
:102EF000002869D0340A304603F05EF9012812D068
:102F0000A87A1E2811D029460A310E2845D019DC8E
:102F1000801E030003F056F90B255829582D58310F
:102F20005839583D5800022070BD3146274803F0FB
:102F30004FF90021204603F051F90221304603F0F9
:102F400029F941E018283CD006DC102819D01228B5
:102F50002BD0162838D130E0522822D0D22833D1B5
:102F600027E0204603F040F92EE0204603F042F926
:102F70002AE0204603F044F926E0204603F046F913
:102F800022E0204603F048F91EE0204603F04AF90B
:102F90001AE0204603F04CF916E0204603F04EF903
:102FA00012E0204603F050F90EE0204603F052F9FB
:102FB0000AE0204603F054F906E0204603F056F9F3
:102FC00002E0204603F058F9002070BD01280000FF
:102FD000F3B581B001980C460102CA1D0E310223DF
:102FE000344803F04FF9047001990546022732482E
:102FF0008E00002C06D0042C16D0062C10D0072CE6
:103000003FD108E0815905224968897C11406970E7
:103010008059C77335E0084603F03AF9687030E02C
:1030200080590F21C1732CE0044680594068417CCF
:10303000012902D1007E01280FD0019803F02EF95A
:1030400001210028A0590BD04268D07D00281CD057
:1030500001281AD004280DD00FE0002068700DE080
:103060004068C27D022A01D0042A06D1007C0228D1
:103070000BD102E0107C022807D06F70A159032009
:10308000C873284603F010F9FEBD6970F6E70146E3
:103090000A780120042A01D9002070474A78002AC2
:1030A00001D0012AF8D10A79082AF5D849790829E6
:1030B000F2D87047021C000028050800FFB589B04F
:1030C0000D4600206946059008720B98000A009092
:1030D00003F0E4F807460B9803F06EF800287DD063
:1030E0000B982978000A8400764E01295ED00429C5
:1030F00004D0062943D0072963D120E0687800284E
:103100001BD0305910224068A91C03F00DF8002F85
:1031100006D03159C87B032807D0042808D050E0D6
:103120003059C07B032803D04BE00B20C87348E024
:103130000521009803F0BEF843E00120B6E03059C5
:10314000C07B0E283DD1009803F0A2F8002103E0D7
:103150002A18401C9170C0B21028F9D3688A6946B9
:103160000883294606A808221431023002F0DCFF49
:1031700006ABAA1C3946009803F0A2F821E03059AA
:10318000C07B0F281DD1AA1C0A21009803F09EF8CD
:10319000002F04D03946009803F09EF811E0002378
:1031A0001A463946009803F09DF80AE0012F08D12D
:1031B0000B9803F001F801281CD0002801D0022050
:1031C00005906846007A002811D002AA05210098CF
:1031D00003F07CF86846027A602000E007E00243D2
:1031E0006846027201233946009803F07BF805987F
:1031F0000DB0F0BD3059C07B0228E2D168780028BC
:1032000051D002210B9802F0C5FF305907224068C7
:10321000A91C173002F088FFE878002804D1305943
:103220004068407C01283AD0009803F061F80028FB
:1032300037D0297A009803F061F8002833D000983D
:1032400003F062F80121009803F064F800282CD004
:1032500030594068417E00292BD0042929D0C17EF5
:10326000027D1140C17630594068017F427D114096
:1032700001776846007A0028A7D1305902214268B8
:103280000098173203F022F8305941684031897BA9
:10329000002913D004210098FFF79AFE91E702203D
:1032A00004E0062002E0082000E0032069460872DE
:1032B0008BE70021C17630594068D9E70B21C173F3
:1032C0007FE700002805080070B504460078002557
:1032D0000D2801D00A2200E002225A494B7A002B25
:1032E00006D00D2804D0637C032B01D0432551E088
:1032F000097A8A4339D10D2809D00E2802D00F2827
:1033000003D134E0607C032804D3402542E0607C94
:103310000328FAD8A07C0428F7D20A2908D0607CB8
:10332000012822D0022820D06078032809D811E093
:1033300002F0F6FF012806D16078032803D00028A8
:1033400001D0492526E002F0EBFF002802D1607889
:103350000228F6D83020035D22462046E17C313237
:10336000143000F019F8054614E0422512E002F08E
:10337000D7FF012807D16078052804D1A01D02F0ED
:10338000D5FF0028DDD002F0CBFF002802D1607805
:103390000228D6D8284670BDFFB5002086B001218E
:1033A0006A461170044605910021002C06D0089D44
:1033B000099A1F239A4234D9402032E01C23069DEB
:1033C000079AF7E76B185E78330002F0FBFE1D26C4
:1033D0001010101010101010102626262626262653
:1033E0002626262626261010101010102600059BD3
:1033F00003E06F46FF5CB74204D05B1E5BB2002B5C
:10340000F7DA03E0002B01DB4A2006E0059B6F465C
:10341000FE54059B5B1CDBB205936B5C491C591881
:10342000C9B2914201D20028CCD0914202D04A20A8
:103430000AB0F0BD641CE4B2022CF9D20028B3D06B
:10344000F6E7000098050800F8B50C4695491646C1
:1034500009680125002702228B1C312873D012DC59
:103460000C2874D008DC012821D0022840D007287D
:103470004FD00B2869D156E010287FD0112876D084
:103480001228F7D18EE00123412871D008DC3228C0
:103490006FD035286ED036286DD04028EAD1B3E001
:1034A000422869D0432868D04428E3D1D1E00622DD
:1034B0007D497E4802F040FF002808D006227B4963
:1034C000304602F031FE062020700020F8BD75481D
:1034D00001680878C00738D02078062801D2277004
:1034E000C4E006223046983102F01EFE06200EE0AF
:1034F0000A786C48920728D522783E2AEFD30546F1
:103500004A7E30465A3102F00FFE2868407E207015
:10351000A9E00878400718D520780228DFD3887CF6
:103520003070587C7AE00A785E4812070DD5227810
:10353000202AD4D30546CA7D30461A3102F0F4FD64
:103540002868C07DE3E736E001E079E016E00A781C
:103550005448D20674D52278202AC0D305460A7E64
:103560003046983102F0E0FD2868007ECFE70FE09A
:1035700056E02AE036E03DE05AE062E00878800656
:1035800072D520780428AAD304223046091D25E0EC
:103590000878400668D52078002867D0087D08E0C4
:1035A000227060E0087800065ED5207800285DD0A3
:1035B000487D3070F4E70888C00555D52078042888
:1035C0008DD3042230460C3108E0088880054BD5A5
:1035D0002078042883D304223046083102F0A4FD69
:1035E000042094E7088840053ED5207800283DD087
:1035F000887D36E00888000536D5207802288DD3EE
:10360000087C3070487C09E00888C0042CD52078FC
:1036100002288ED38231087F3070487F7070BFE7F8
:103620000888800420D5207800281FD0A03117E01A
:103630000888400418D52078002817D0A1310FE061
:1036400012E0088800040FD5207800280ED0A2319F
:1036500006E00868C00307D52078002806D0A3310B
:1036600008783070237000252846F8BD0425FBE754
:1036700070B50F480F49C405228880252A4322804F
:103680000D4A53891B0701D4401EFAD20B4A012070
:1036900010600622054802F047FD2088A8432080DC
:1036A00070BD0000C0060800383E03003C800020CA
:1036B000A0860100D47F040020000050008000405C
:1036C000F0B5564D85B00026686D37460190FDF780
:1036D000BCFF0021524C002802D12079022800D1E1
:1036E0000191504802685048002A0FD10278002A00
:1036F0000DD04E4B0122DA63DA6B002AFCD1012295
:103700009207D2691923DB019A420ED3017002F0AD
:1037100019FE00287ED0E078012600287AD0052006
:103720000007808AC00701D0042673E002F084FC01
:1037300000286FD13E4800683F2804D12079002836
:1037400001D1286D0190A17801A802F001FE0028A6
:1037500060D0A17801A802F081FC00285AD034483A
:1037600000683F2803D102F0F9FD002852D02D480F
:103770000068AA281DD0972007210125AD07EA6B14
:10378000920A92027F1C3A43EA63EA6B294B800259
:103790001A400243EA63E86BC002C00A49050843C5
:1037A000E863204804260068002807D0AA280FD024
:1037B0001DE02148FEF711FC0321DEE7019864219A
:1037C000C00202F063FC2179401E0CE001210CE0F4
:1037D000019802F03DFB1949096802F087F902F0EF
:1037E0003EFB009021790029F0D102F0BDFD144884
:1037F000C06A8047286B0004C00FFBD011480168E5
:10380000C905FCD502F0B6FD05200007018980221C
:1038100091430181304605B0F0BD000060020020F8
:10382000C60608002C80002022800020C000004036
:1038300060010020FF03E0FF01120000388000203B
:103840001C0708000002004010B50124A407A06B6B
:10385000FEF7CFFB5F4902F019FC27221201511A33
:1038600000D101215C4A50601160206B082188431F
:103870000843206310BD38B5002000905749082048
:1038800008800524240721883020014321802188D5
:1038900003221143218002E000BF00BF00BFA18AC4
:1038A0000906F9D561898908890061814C494A88EE
:1038B000520852004A802188814321802088800854
:1038C00080002080A08A400701D5FEF77EF920897C
:1038D000802108432081208A042188432082A08AF5
:1038E0008007FCD53F4841050268D20202D40A692C
:1038F000520702D4009A002AF6D038BD10B502F063
:103900003FFD02F043FD10BD10B502F045FD05205E
:103910000007418A80229143418230480189490849
:1039200049000181304800683F2801D102F03AFD8A
:1039300001208007816904221143816102F038FD72
:1039400002F03CFD02F040FD28480068AA2802D1A0
:103950001420FEF7A5FA26490020087010BD10B506
:1039600002F038FD10BD10B501208007008A000765
:1039700004D502F035FD1E490320087010BD70B556
:103980001C48008885061748AD0E446816488030EC
:10399000006F0078002802D1284602F027FD164863
:1039A0000089134EC00507D520060BD5E00709D0C6
:1039B000284602F021FD03E0200603D5E00701D0F0
:1039C00002203070200403D5E00501D501203070BD
:1039D00070BD000071020000400000400033005044
:1039E0002000005000020040600100202C800020D8
:1039F0004280002000200050002C0050F8B51446F2
:103A00000F461E460546428801880623204602F0DE
:103A100039FC0446287902F0F5FC20802771668085
:103A2000204602F041FCF8BD70B51446428800798A
:103A30000D460102042338480C3102F023FC002D0E
:103A400001D0132100E012210170448002F02CFC0F
:103A500070BD0A880270120A42708A788270CA7831
:103A6000C2700A7902714A7942718979817107209D
:103A700070474278037812021A430A8082788A706B
:103A8000C278CA7002790A7142794A718079887164
:103A90000720704710B500F047FC00F04FF800F029
:103AA00087FB10BD70B5064615460C46372002F060
:103AB00083FB022805D1E2B237232946304602F0C3
:103AC000A7FC362002F078FB022805D1E2B23623AB
:103AD0002946304602F09CFC1C2002F06DFB0228B7
:103AE00005D1E2B21C232946304602F091FC0BA01E
:103AF000FEF7A0FC4F20FEF797FC4B20FEF794FC4E
:103B0000FD20FEF791FC0B490020087014223221A1
:103B1000094800F08FFC70BD0D3000000A0D64757F
:103B2000616E206B6169206C69616E206A69650A4B
:103B3000000000002080002001C8000010B52821EE
:103B4000054802F06BFC0549372002F06DFC0021AE
:103B5000372002F01FFB10BD96910020706B0020F3
:103B60003EB50020C043704C0290E380088860811D
:103B70006E480190009220460023092202A90A30D3
:103B800002F058FC05466089002102F059FC002D26
:103B900003D10121372002F0FDFAE1880123372209
:103BA000634802F06FFB057002F07EFB00203EBD13
:103BB000F8B5002568465C4C058062802380E38070
:103BC0000E46488802F042FC207170882081E58111
:103BD000A581258260896A46801C80B2022102F09C
:103BE0006DFA60896A46C01D80B2022102F066FA51
:103BF0006089012102F024FC0221372002F0CAFA78
:103C00000020F8BD10B50121372002F0C3FA0020D2
:103C100010BDF0B587B00C46142101A802F0A8FA37
:103C200023460833A288618820881D4602F014FCD0
:103C30003D48218842898A1A022A04D0062A70D077
:103C4000072A6ED169E0007A002202F00BFC62883C
:103C5000294601A802F068FA68460079AA2860D1CE
:103C600068464079BB285CD1694632488979417100
:103C70006946C97901716946097AC1706946497A0C
:103C800081706946897A41706946C97A017000205D
:103C90000322072312020146009002F049FC264D40
:103CA00000242868E443002801D0204600E00120D9
:103CB000224E28603268C117736810431943306080
:103CC00071600F273F0320213846FEF70AFF0622C6
:103CD00039461848FEF7D8FE16490120491E0870DB
:103CE00014223221164800F0A5FB16A0FEF7A2FB15
:103CF00000200322034612020146009002F018FC45
:103D00002868002800D101242C603268E01771680F
:103D1000144308433460706003E0007A002202F02C
:103D2000A1FB002007B0F0BD96910020AC6B0020F5
:103D300006DC0000198000207090002068900020B0
:103D400001C8000073746F726167655F6F6B0A0D65
:103D500000000000FFB58BB00521C90268468182D2
:103D6000C91C0182FA490183FA4C3621618006217F
:103D7000992500910822002301953621A01D02F00B
:103D800077FB05007ED1A01D012500950190022240
:103D9000E08805AB114602F071FBE088EE4A022193
:103DA00002F08CF903AE01960095E08804AB022284
:103DB000132102F063FB02AF092001970090E08815
:103DC000E64B1022042102F059FBE5496846007ACF
:103DD00048706846407A88700A4668461321808990
:103DE00002F06CF901960095E08804AB02221321E1
:103DF00002F044FB092001970090E088D94B102283
:103E0000042102F03BFBD8496846007A48706846B6
:103E1000407A88700A4668461321808902F04EF97C
:103E200001960095E08804AB0222132102F026FBE4
:103E300001970095E088CD4B1022042102F01EFB73
:103E4000CB496846007A48706846407A88700A46CE
:103E500068461321808902F031F901960095E088C7
:103E600004AB0222132102F009FB09200197009004
:103E7000E088C04B1022022102F000FB6846BE49D8
:103E8000007A00E058E048706846407A88700A4638
:103E900068461321808902F011F901960095E088A7
:103EA00004AB0222132102F0E9FA092001970090E5
:103EB000E088B24B1022142102F0E0FAB0496846C3
:103EC000007A48706846407A88700A46684613212E
:103ED000808902F0F3F8AB4D01960095E08804ABC1
:103EE0000222132102F0CAFA01970095E088A64B3E
:103EF0001022012102F0C2FAA4496846007A4870F3
:103F00006846407A88700A4668461321808902F024
:103F1000D5F809A90920019100900222E08806AB9A
:103F2000114602F0ABFA0546E088002102F088FA5B
:103F30000121362002F02EF90123362294480E99F1
:103F400002F0A0F9057002F0AFF900200FB0F0BD4B
:103F50003EB5804C0D46E08802AA0C3080B269461E
:103F600002F092FAE08801AA0D3080B2694602F0B0
:103F70008BFAE088AA1C0C3080B2012102F09EF876
:103F800001980088002806D0E08800210C3082B219
:103F90002046FFF749FD00203EBD10B56D480A469A
:103FA000C0880421801D80B202F088F8002010BD76
:103FB00038B50D4600206946664C08802380288865
:103FC00002F044FA2071FF2817D0E0886A460D30CD
:103FD00080B2022102F072F8E0886A460C3080B2AA
:103FE000012102F06BF8A978E08802F029FA022199
:103FF000362002F0CFF8002038BD654A1B23DB02D3
:10400000521C89215348FFF7F9FCF4E7F8B5514DEC
:104010000C4629798022180A88427DD1E9882088B7
:1040200026468B1C0027083698420ED101210091AC
:104030006188324602F042F8E079002875D0544891
:10404000082336222988C01F10E00B1D984229D171
:10405000022100916188324602F030F8E0790028B0
:1040600063D04B48298808233622801F02F00AF9C2
:104070000646287902F0C6F930807760E07A0106BA
:104080007160A07A000401437160607A000201430C
:104090007160207A014371600098B070304602F080
:1040A00003F942E00B460A3398421BD104200090EA
:1040B000E079002839D03648298818233622001F95
:1040C00002F0E0F80746287902F09CF9388062880F
:1040D0003146381D02F028F8A078F8700098B870C2
:1040E0003846DCE70B460833984220D10321009183
:1040F0006188324601F0E2FFE079002815D02448BB
:10410000298806233622401F02F0BCF8064628798B
:1041100002F078F9308000E018E0B780607A0102A0
:10412000B180207A0143B180B6E7002207E00D316B
:10413000884204D16188324601F0C0FFF5E7A079DA
:10414000012803D12188287902F08CF90020F8BDDC
:104150000229000044800020A86C0020AA6C0020E6
:10416000D76F0020BA6C0020EA6F0020CA6C0020D4
:10417000FD6F0020DA6C002010700020EA6C002037
:104180002370002001020000FA6C0020367000202D
:1041900009D8000010B5054A180A1279904202D1D8
:1041A000088800F026F8002010BD000044800020A0
:1041B00010B508211A4802F031F91A49362002F0E8
:1041C00033F90021362001F0E5FF10BD70B5144D24
:1041D0000646298818233622134802F053F804466D
:1041E000287902F00FF92080A670204602F05CF8D2
:1041F00070BD70B50A4D0446E888002102F020F930
:104200000948298804233622001F02F03BF8048065
:1042100002F04AF80121362001F0BCFF70BD000019
:10422000448000200C6D002005D80000FEB53B4EF8
:104230001C2070801D4617463446088800F082F81E
:1042400002903748334601900833132202A90097A1
:10425000A01D02F0EFF8040008D1F088002102F060
:10426000EFF8044601211C2001F094FF01231C22D9
:1042700029462C4802F006F8047002F015F80020D8
:10428000FEBD70B50C4625490B802078082814D84F
:10429000CA880831415C51188DB2822D0BD06178EB
:1042A00000F063F8010009D16D1C6178A8B2A21C6E
:1042B00001F004FF08E0822100E08121194B17483A
:1042C0005B1CDA1CFFF79AFB002070BD70B51D4621
:1042D0000C46088802F0BAF8104AFF2810711580C1
:1042E00009D0A178D08802F0ABF802211C2001F09F
:1042F00051FF002070BD0B4B89219B1C9A1C074865
:10430000FFF77CFBF5E710B5044A180A12799042D2
:1043100002D1088800F03EF8002010BD4E80002039
:104320005C6D00200170000010B51221244802F0DD
:1043300075F824491C2002F077F800211C2001F0B8
:1043400029FF10BD30B503460120002103241A4681
:10435000CA40D20704D04D0022466D1CAA4010432B
:10436000491CC9B20929F2D330BD024600201229E6
:1043700001D98D207047062A06D0072A07D0082ABF
:10438000F8D10729F5D170470829F2D170470629DD
:10439000EFD3704770B50A4C0546218802231C22D2
:1043A000094801F06FFF058001F07EFFE0880021E1
:1043B00002F046F801211C2001F0ECFE70BD000067
:1043C0004E800020706E00200470000038B501247B
:1043D000684604700C21534802F020F8514D69469C
:1043E000EC702A1D352002F055F8002800D02C7101
:1043F00000F0E1FB4C49322002F016F80021322097
:1044000001F0C8FE00F0DAF838BD10B500F0C3FCCA
:1044100010BD10B543480223807832220102434880
:104420000E3101F02FFF012101701321417001F0C5
:104430003BFF10BD3E4B10B59A4201D91A4602E02F
:10444000002A00D1012202F02BF810BD10B504465D
:1044500034482C2380783222010234480E31801EE9
:1044600001F010FF0146203004720022427208461B
:1044700001F01AFF2FA0FDF7DDFF3649012008707B
:104480004F20FDF7D1FF4B20FDF7CEFFFC20FDF7BD
:10449000CBFF142232213048FFF7CCFF10BD10B5FE
:1044A000502332220D212D4801F0ECFE044600F08D
:1044B000A6FB204601F0F8FE0221322001F06AFE40
:1044C00010BD264810B5012332220D210B3801F012
:1044D000D9FE0221017001F0E7FE10BD10B500F019
:1044E00079FC10BDF8B506461C4815460F46252335
:1044F00032220D21C01C01F0C5FE044601202077A8
:104500002046062239461D3001F00EFE23200655B6
:1045100065822582204600F07EFC204601F0C4FE24
:10452000F8BD000060800020806E0020043800008C
:10453000307500000A0D20424C452073746172747E
:1045400020636F6E6E656374206C69616E206A69AA
:10455000650A00002080002001C800000E34000021
:1045600010B501F0A3FF254901F096FD2448081875
:1045700010BDF8B5234D0646A876002401F096FF3D
:104580002919641CE4B20874082CF7D300241027FE
:10459000381BB04201DD002007E001F087FFC117A2
:1045A000090E0918090A0902401A2855641CE4B2C8
:1045B000102CEDD301F07AFF2883F8BD10B524212B
:1045C000104801F02BFF00F0FCFA10BD10B50E48AA
:1045D00002238078322201020C480E3101F052FE93
:1045E0000D210170074920318978417001F05CFE8E
:1045F0000321322001F0CEFD10BD0000A0BB0D0054
:10460000A08601006C800020608000201A38000025
:1046100010B5084609781C460B0001F0D3FD0805CB
:1046200020202008181B1E2000F0F8FB17E041781E
:10463000012904D0002902D0022903D00FE000F0A4
:10464000EEFB0CE01146204600F0F2FB07E000F024
:10465000E7FB04E000F0E5FB01E000F0E3FB0020F5
:1046600010BD10B50878304C801E030001F0AAFD83
:10467000020214188878A070C0070AD02B492A4A71
:104680004879203AD07628480622001F891D01F07B
:104690004BFD00F0C8FB03E0FFF7BBFE0020A0705D
:1046A000002010BDF8B518460D46014612232048DB
:1046B00001F0E8FD0446284600F0B6FB002700287C
:1046C00021D0194EB078C0071DD030460822A91C51
:1046D000103801F031FE002815D130462038018B0A
:1046E0002A8891420FD101212170807E6074314669
:1046F00010222039601C01F017FDB078FFF7A6FEEC
:1047000000F095FB00E02770204601F0CDFD2078F9
:10471000002801D1FFF77DFE0020F8BD10B500F0A4
:1047200085FB002010BD00008C80002060800020F0
:104730001838000010B5104601F03EFD002809D1E0
:10474000012332220D21484801F09CFD0121017016
:1047500001F0AAFD002010BD70B5087815460F289D
:104760002DD008DC01280DD002282CD003281CD025
:104770000E2830D11FE0102825D0112823D0122870
:1047800029D123E04878002825D137482223322236
:104790000D21801C01F076FD04460146284600F0FC
:1047A0001AFB204601F080FD15E04878002812D160
:1047B00000F01CFB0FE0487800F026FB0BE0487887
:1047C00000F023FB07E000F025FB04E048784428D4
:1047D00001D100F022FB002070BD70B51C461046D0
:1047E0000D4601F0E9FC022805D12049200A887015
:1047F000284600F0E7F9002070BD70B5087815462E
:104800000C460A2810D1104601F0D6FC04280BD122
:104810006078002802D000F0F5FA05E0052128466E
:1048200001F0B8FC00F0EFFA002070BD10B51046A2
:1048300000F09CFA002010BD10B510460C4601F0A7
:10484000BBFC012808D12078002805D1FFF7DDFD49
:10485000002801D000F0DAFA002010BD10B508469B
:1048600000F0DAFA002010BD023400006080002061
:1048700010B50121084602F049F80021012002F09C
:1048800023F80721022002F01FF80021084602F059
:104890001BF8FF4900200880FE4A114610821C3197
:1048A000088048808880C8800881FB49D0720880D1
:1048B000FA490880107310BDF8B50120FDF7CAFE53
:1048C000FDF7D6FE85B2F64E0027F24C002D18D02B
:1048D0006079012815D0F3480078012811D02846C6
:1048E00001F0E0FB0022F04B01F02CFA0022EF4B2C
:1048F00001F036FA0022EE4B01F0DAFB01F0C4FAC7
:104900003070284601F0CEFB0022E74B01F01AFA86
:104910000022134601F0D0FD02D8002D00D03770E0
:10492000DC4AE078317812321154401CC1B2E17097
:104930001046FDF7ABF96070E17801250A2902D332
:10494000A5706571E770642802D9642060702CE05E
:1049500014282AD8D74803210088064601F096FB80
:10496000002907D00021022001F0D0FFE0790128C2
:104970000AD00BE00621304601F088FB0029F5D172
:10498000022001F0A1FFF1E7CB4807706078002812
:104990000BD1CA4E3078002807D17D200001FCF7EA
:1049A000ECFEFFF765FFA57135706179C4480129F8
:1049B00005D014223221FFF73DFD0020F8BD322141
:1049C00001F006FCF9E710B5B248017ABC48401C7A
:1049D000002904D064223221FFF72CFD02E03221AD
:1049E00001F0F6FB002010BDF8B50121084601F0EA
:1049F0008DFF0021012001F067FF0721022001F057
:104A000063FF0021084601F05FFFA14900270F80E6
:104A1000A04CA14A204627821C300780478087800F
:104A2000C7800781E7729D4B17801F803D46277323
:104A30000220FDF70FFEFDF71BFEE27A95495300B9
:104A40001C31521CC852D6B2E67208884A8889883E
:104A500080184018032101F019FB80B22082032E38
:104A600000D1E7728A490988502900D9012511210E
:104A70004901884202D38948012101808648008883
:104A80003C2801D8002DD3D08E4807700721022082
:104A900001F03CFF0021084601F038FF88486771AB
:104AA0003221801C01F094FBF8BD70B5002101207B
:104AB00001F02CFF0121084601F006FF0021084605
:104AC00001F002FF0721022001F0FEFE7E4E0024CD
:104AD0003480704D6C7330880328FCD379490120F1
:104AE00008700721022001F011FF0021084601F0A3
:104AF0000DFF68481C30048044808480C480048199
:104B00002C82EC726C712C71348070BDF8B502206F
:104B1000FDF7A0FDFDF7ACFD5E4EF17A34464A008C
:104B20001C34491CA052CFB2F7722088618840180B
:104B3000A1884018032101F0A9FA00253082032F33
:104B400000D1F5720021012001F0E0FE01210846AC
:104B500001F0BAFE0021084601F0B6FE072102204E
:104B600001F0B2FE308A0127962817D35548077006
:104B70000721022001F0CAFE0021084601F0C6FE0E
:104B800025806580A580E580258135824C48F572B9
:104B900075713221C01C01F01BFB06E0484832222F
:104BA0001146C01CFFF746FC77710020F8BD0020BD
:104BB00070470020704710B500F078FF00F080FAD1
:104BC00010BD704710B5414CA078FF2814D03C4868
:104BD0003221801D01F0FCFA0521322001F0DAFAC1
:104BE000208800F071FF00F089FA00F091F9384850
:104BF0008078FFF72BFC10BDFFF751FC10BDF0B51E
:104C0000044693B033A0FDF715FC142232212C4842
:104C1000FFF710FC1F48012101700E2020700027B3
:104C200067709620A081E0810720207461741C20A9
:104C3000E074254622461F2020351432287416467B
:104C4000511E0B2001F026FC002805D00A22E27438
:104C50002CA1304601F068FA22463132511E0C2058
:104C6000119201F017FC002805D02F743A4628A1B4
:104C7000119801F059FAE07C1A21081A45B2002D6A
:104C800072DD3E206946087001AA022042E0000061
:104C900084910020BE9100207E910020869100200A
:104CA00049700020319000200018834000006140CE
:104CB0000000594078910020B86F0020BA6F0020A2
:104CC00002C80000B96F002082910020608000209F
:104CD0008C8000200A206170705F6164765F667569
:104CE0006E6328292D2D2D2D6170705F74696D659F
:104CF000725F736574284D4F544F525F5245534550
:104D0000542000000903031802180418F5FE0000DF
:104D100002FF000001F0BEFB002806D00D2268460D
:104D2000027066A101A801F0CDFB6846007800285A
:104D30001AD0A84200D2054669460D70E07C6D1C71
:104D40008555E27C2046092115301154E17C401C38
:104D5000081869460A7801A901F0E6F96946087859
:104D6000E27C801C1018E07413B0F0BD10B504464E
:104D700056A0FDF75FFB204601F01EFA032803D082
:104D8000052801D0042805D10221322001F002FAC1
:104D9000FFF785FB10BD70B50024524904208873CD
:104DA000514DE878042812D2012807D0022802D0F9
:104DB000032808D105E000F09FF804E000F077FE3A
:104DC00001E000F08FF9E878401CE87000E0012471
:104DD000204670BD7047032008700A2048700020EC
:104DE0004882087548751720C882704710B50121A0
:104DF000322001F0CFF9FFF708FB002801D0FFF7C0
:104E00004EFB10BD704770477047704710B5FFF7F5
:104E100046FB10BD7047704770477047704770473A
:104E20007047704770477047012070477047704760
:104E3000704710B5322001F0BFF910BDF8B5294C0C
:104E40000025607A294F2A4E052827D2A17A002909
:104E500012D02849A5720978002901D0C00717D1BE
:104E60003878012814D00221012001F04FFD0021E3
:104E7000022001F04BFD0BE00120A072022101F0A5
:104E800023FD0021022001F01FFD607A401C6072AA
:104E9000142232213046FFF7CDFA0DE00221012025
:104EA00001F034FD0021022001F030FD65723D70FB
:104EB0003221304601F08CF90020F8BD44413134F4
:104EC0003538302054454D504C0000000D206170A5
:104ED000705F646973636F6E6E6563745F66756E31
:104EE000630A0D00BE910020608000201880002021
:104EF00001C800002080002010B502233222372193
:104F00000B4801F0BFF90021018001F0CDF910BD7F
:104F100010B5372104233222880201F0B3F932217F
:104F2000018004490988418001F0BEF910BD0000EC
:104F300005DC00006080002010B510460C4601F032
:104F40003BF9012809D1322201231146900201F0D8
:104F500099F92178017001F0A7F9002010BD000037
:104F600010B510460C4601F027F9012809D132226C
:104F700001231146900201F085F92178017001F0BA
:104F800093F9002010BD70B54A4C0D4620781428C6
:104F90003DD2A97800293CD0E168002933D0C00671
:104FA00018D4207CEA78811850292ED8424940181C
:104FB000291D01F0B9F8207CE9784018C0B22074AE
:104FC000E168814201D100F034FA207C18E000F061
:104FD000A7F81EE0EA786069FF238118013399423F
:104FE00013D836494018291D01F09EF8E978606908
:104FF00040186061E168814201D100F0D8FB60692E
:10500000E168884205D90520E1E70720DFE70820AD
:10501000DDE7002070BD08B58878002806D0486814
:10502000694600F0BEF8009800F021F9002008BDA4
:1050300010B5887800280ED01E4A49689160107813
:1050400002280AD0032808D0122804D0132802D03E
:10505000082000F065F8002010BD526800061043DB
:1050600001F036FA00F003F9F5E770B588780D46DF
:1050700000281DD0A888002805D00E4C2178CA062B
:1050800003D4820701D005200EE0142910D2C906EE
:1050900005D4502807D800F01FF8A88807E0FF21A2
:1050A0000131884203D9072000F03AF800E0E060BF
:1050B000002070BD948000204C7000209C70002067
:1050C000FD480021017441618161C160FB4A0177A3
:1050D0001165142101707047F74800210174416186
:1050E000C160704710B5012332223621F44801F027
:1050F000C9F80021017001F0D7F810BD10B53621B4
:1051000010233222880201F0BDF8EE49098801809F
:105110000121817000214160816001F0C5F810BD5E
:1051200010B50446E84804230288E5483621401EAD
:1051300001F0A8F8E34909880180847001F0B4F80F
:1051400010BD10B5DC4C2078032801D1FDF76CFBB5
:105150001420207010BD08B5AA2069460870D648F2
:10516000017813290AD1416801226846891CFDF79C
:105170001EFD40B2012801D0062008BD022008BD56
:1051800010B5CD4C2078C00601D4012000E01020DD
:10519000FFF7C6FF002020746061A061E060207707
:1051A00010BDF8B50F460021060EC34C35463960D8
:1051B000142E17D2257080B26060002D01D0012D11
:1051C00007D1C249280608436160002101F080F937
:1051D00038602078122801D0132803D16068022893
:1051E0000BD86074112E26D00EDC022E20D006DCE7
:1051F000002E1DD0012E13D11AE0112022E0032E23
:1052000016D0102E0CD116E0FD2E2CD004DC122E60
:105210000ED0132E04D10BE0FE2E16D0FF2E0CD094
:105220000820FFF77DFF1420207000203860F8BDB3
:10523000FFF7A6FFF8BD082004E0FFF782FFFFF7A5
:105240004BFF0320FFF76CFFF8BD207F002801D043
:10525000042001E0FFF77FFFFFF762FFFFF771FF18
:10526000FFF73AFFF8BD002001F038F9F8BD10B59E
:10527000044695480423028891483621801E01F097
:1052800001F8046001F010F810BDFEB506460020DC
:105290000124240400900190034602460146029036
:1052A00025123046FDF76AFAFDF744FC884980B2C2
:1052B000401802D0012805D102E00124640401E075
:1052C0000124A40429462046FDF7EEFAFEBDF8B5F8
:1052D000044679487F4E017A00270906090FA1711B
:1052E000027AFF4313071B0FE37102891204120FA6
:1052F000227002891205120F627082681202120F68
:10530000A27082681203120FE2708268120F22717B
:1053100080680001000F6071282041438A199900BC
:105320005058002801D0384600E001205050A5799F
:10533000E279C11701F0D8F82A0101F0D5F8664AE0
:10534000136855681843294310605160A0782821DC
:1053500048438219E07881005058002801D038462F
:1053600000E001205050A578E278C11701F0BCF8A8
:105370002A0101F0B9F8584D2A686B6810431943A7
:10538000286069602079282148438219607981006A
:105390005058002801D0384600E0012050502679AE
:1053A0006279C11701F0A0F8320101F09DF82A6876
:1053B0006B681043194328606960207828214843AE
:1053C00044494118607880000A58002A00D101271A
:1053D0000F50384626786278F91701F085F83201C7
:1053E00001F082F82B686A681843114328606960ED
:1053F0000120009003263602617820780823324687
:1054000001F096F800250095E179A079072332464E
:1054100001F08EF80095E178A0780623324601F07D
:1054200087F80095617920790523002201F080F842
:10543000F8BDFEB5204C02252078EE01002805D0ED
:10544000012803D0032828D0082566E01F4F000656
:105450003843002101F03CF88004217C000C0A183C
:10546000B24227D8301A154A401A121F891880B242
:105470005432101805E00A6804C0227C121F2274FE
:10548000091F227C002AF6D120780021000638432B
:1054900001F01EF8FFF7EBFE3BE003206168000619
:1054A0000843A16801F014F88004070C207CC0199F
:1054B000B04213D9072530E0948000204C700020C2
:1054C00008D80000608000204480002098710020EF
:1054D000F010FFFF70900020689000206846FFF7F2
:1054E000F6FE6846FFF7D1FE6068227CC119FE48CF
:1054F000FDF75DFB217C814200D0062520786168A4
:1055000000060843A16800F0E3FFFFF7B0FE022D9C
:1055100003D1FFF716FEFFF7DFFD2846FFF700FE79
:10552000FEBD70B502460020160BC04336030C0BBF
:10553000090500D0641C002C01D000250BE00124DB
:10554000002520213046FDF7CCFA01210903761809
:10555000002802D16D1CA542F3D370BD0021FF28A5
:1055600002D0401CC0B2704708467047FF2802D0E6
:10557000FF2905D006E0FF2908D0002906D001E068
:10558000002801D0884201D90220704701207047CD
:1055900010B5D64C034600202478C043132C02D10A
:1055A0001846FDF746FA10BDF7B598B000271A98CF
:1055B0000C463E46402805D32078702802D16078FA
:1055C000512802D012201BB0F0BD6568C74928469B
:1055D000403008621F210C2209036846FFF7D8FFFC
:1055E0000C2847D168460078702803D16846407877
:1055F000522801D01420E6E70198119002981290E9
:10560000002D03D01199401AA84201D21320DAE7E5
:10561000684640221090FFF7BBFF40282AD1684619
:10562000C07814906846817803A8169020460C3004
:105630001590AA2907D168460078702803D16846DA
:105640004078512803D00127002014900BE010224D
:105650001699159800F070FE002804D1E0690799AA
:10566000884200D10227402212991098FFF790FF3C
:10567000402801D01620A6E76846C07813906846F7
:105680008078AA2807D168460078702803D1684638
:105690004078512803D00126002013900BE01022FF
:1056A0001699159800F048FE002804D1E069079982
:1056B000884200D102261898002801D0022807D974
:1056C000012F11D0012E1CD013991498FFF74EFF13
:1056D0001590FF224021684600F00CFF1598022823
:1056E00015D0022F24D004E0FF224021684600F0AC
:1056F00001FF7E4911984860002E1BD0022E19D060
:105700000EE0FF224021684600F0F4FE01E0022E88
:105710000ED0764912984860002F07D0022F05D08E
:105720000126724F3878132809D00FE0149802E050
:10573000152048E71398FFF711FF0646F1E74035BB
:10574000A9B27868FFF7EDFE00282CD16846C67034
:1057500060680190A068029020460C300EC8A069D5
:10576000069003A80EC0E069079021786846017092
:10577000617841702020015D08A8017038781328F5
:1057800013D11A9A7968403A204615464030403184
:10579000FDF70DFAA84206D1402279681098FDF76E
:1057A00006FA402801D006200DE700200BE77CB563
:1057B0004E4C4D4A022600205032616904E0237F9E
:1057C000155C6B402377401C8142F8D82078132861
:1057D00004D00826F0B2FFF7A3FC7CBD6846FFF7B3
:1057E00076FD6846FFF751FD6269002A02D0A06984
:1057F000002818D0A169206A8A18431C9A4220D830
:10580000824201D9401A60616068254641183648D5
:1058100062695030FDF7CBF96969814211D1A869FD
:105820004018A8610EE03049607C5031FFF7BCFEA3
:10583000002801D086B205E06269A1698918A161DA
:1058400000E0062600206061A069FFF710FDC1E7B7
:1058500070B5274C274D2146284600F039FE01043B
:10586000090C06D0204A83B250322146284600F067
:1058700047FE70BDF8B504461C481F4F017A00254D
:105880000906090FA170017AED430907090FE170BC
:1058900001890904090F217002891205130F637031
:1058A0008068000C606028204143CA199900505854
:1058B000002801D0284600E0012050502678627868
:1058C000C11700F011FE320100F00EFE0B4E3268DF
:1058D00073681043194330607160A07828214843F1
:1058E000C119E07880000BE04C700020948000200B
:1058F0000003060500280003709000206890002037
:105900000A58002A00D101250D502846A778E278D0
:10591000E91700F0E9FD3A0100F0E6FD336872682E
:10592000184311433060716000250095617820783C
:1059300009232A4600F0FCFD0095E178A0780A23AF
:10594000002200F0F5FDF8BDFEB510460D4600F052
:1059500033FC01287ED12878002879D10E23322209
:105960001C21434800F08EFC0446002020700B27C9
:1059700067703A463FA1A01C00F0D6FB204600F01D
:1059800093FC0A2332221C21394800F07BFC044698
:105990000120207007206070024639A1A01C00F091
:1059A000C3FB204600F080FC0B2332221C21304830
:1059B00000F068FC04460620207008266670324617
:1059C00031A1A01C00F0B0FB204600F06DFC0E23BE
:1059D00032221C21264800F055FC04460520207088
:1059E00067703A462BA1A01C00F09EFB204600F0F9
:1059F0005BFC0A270D2332221C211D4800F042FCCB
:105A000004460420207067703A4625A1A01C00F0CF
:105A10008BFB204600F048FC0A2332221C2114484C
:105A200000F030FC04460670072060700120A07072
:105A3000D221684601800B21C9014180710181801A
:105A400006226946E01C00F06FFB204600F02CFCAB
:105A5000012300E008E032221146900200F012FC1F
:105A60002978017000F020FC0020FEBD0020704766
:105A7000027000004469616C6F672053656D6900B6
:105A80004441313435383000123456FFFE9ABCDEC2
:105A900000000000765F332E35302E312E35340075
:105AA000765F332E302E362E32350000704710B51B
:105AB0001C2102233222880200F0E4FBFF21743112
:105AC000018000F0F1FB10BD10B504460423322222
:105AD0001C21054800F0D6FB0480012181700021C3
:105AE000C17000F0E1FB10BD03700000024670B50C
:105AF0004A40D30FDB0740002DD04A002AD0010EC8
:105B0000140E000212020919400A520A8418E50113
:105B100004465443000A120A2E045043A4194219A1
:105B2000200CC543AA18120C0125AD03521C5219B2
:105B300012047F39240400D0521C104301D44000C9
:105B4000491EC2B20C06C0092018401C4008802A19
:105B500002D003E0002070BD40084000002900DAB8
:105B60000020184370BD70B502464A40D50F400072
:105B70004A00ED0740085208002814D0002A12D02D
:105B8000C40DD30D41020120C0055202490A520A38
:105B9000E41A091812187D34914201D3641C00E004
:105BA0004900002C01DA002070BD0023914201D38E
:105BB000891A0343400849000028F7D100290AD078
:105BC000914202D10121C90705E0914201D2012190
:105BD00001E00121C943E005C018401900F0B5F902
:105BE00070BD420005D04200120E52428A4201DBD3
