:020000042000DA
:1000000000980020A9040020B1040020C9040020A9
:1000100000000000000000000000000000000000E0
:10002000000000000000000000000000E1040020CB
:100030000000000000000000F9040020FB04002084
:10004000DF350020053103000D3103006536002047
:10005000713600208D310300C7360020CF360020D6
:10006000BF220020FD040020E7360020AD31030050
:1000700013220020FD0400204B1B02004B1B02003A
:100080004B1B0200FD0400204B1B02000921002035
:100090000D210020292100202D21002031210020C8
:020000042000DA
:100160003200000027120020271F0020FD3700204A
:10017000000000000000000063800200BD8002005B
:10018000731D0020FB8002001981020035810200EE
:100190005D810200B1350020FF050020431D0020D5
:1001A0005B1D002000000000000000003F00000078
:1001B000F48B002000040000740B080048010000CC
:1001C0006807080000040000C80C080020050000B3
:1001D000000000002000000048000000580000005F
:1001E0006800000004010000160100002801000062
:1001F0002E010000202A00008E2E000001000000C9
:1002000088130000B11F0020E9600200FD93020086
:10021000632B002019280300A5740200B1310020CF
:1002200003000000D52002000D380020040000006B
:10023000D74902000F490200831D020063910200AA
:10024000B7910200BF910200078202007182020092
:100250008C670020AD830200938402004185020078
:1002600015860200378602005F860200758602004E
:10027000F9870200258902005D8A0200D38C020002
:10028000098D02000F900200438D0200278E0200AC
:10029000F98E0200478F0200B51C0020D58F0200A6
:1002A00049510200775102002F5202001000000055
:1002B00020030000803E000000000000000000005D
:020000042000DA
:1002C000504600030003983A6400F401B80B000C98
:1002D000B80B120030003000CD009A01120024004B
:1002E00030006400B0001800280012001200D0078F
:1002F0000000FFFF00000000000000000000000000
:100300001F000002444131343538302D30310000B7
:1003100000000000000000000000000000000000DD
:0403200000000000D9
:020000042000DA
:10034000FFFF010000C201000000000000000000EB
:100350000000F4010100011B0A071AFFD200021578
:10036000585CDE931B0142CC9A1325009BEDC65EC0
:1003700000000000C5000000000009FF00605257A7
:100380002D424C450000000000000000000000006D
:100390000000000000000000000044413134353806
:1003A000330000000000000000000000000000001A
:1003B000000000000000000000000000000000003D
:1003C000000000000000000000000000000000002D
:1003D0000000000000000000000000000000D00746
:0403E000064064323D
:020000042000DA
:100440000348854605F008FC00480047C720020025
:100450000098002010B5114906200880FF2010499F
:10046000013008600F4988683E2290432E30886032
:100470000021052000070180028A0F231B021A4376
:1004800002820122D204032308461B038418216040
:10049000001D9842FADB62B610BD00000034005027
:1004A00080E100E0003300501548804715480047C0
:1004B00004207146084203D0EFF30980124908472F
:1004C000EFF308801049084704207146084203D022
:1004D000EFF309800D490847EFF308800B490847FF
:1004E00004207146084203D0EFF309800849084709
:1004F000EFF3088006490847FEE7FEE7FEE7000045
:10050000550400204104002001140020150500209E
:100510008705002005221207518A80231943518242
:10052000114903680B6043684B6083688B60C36844
:10053000CB6003690B6143694B6183698B61C0695F
:10054000C8610A48836A0B62C36A4B62036B8B62A1
:10055000C36BCB62436B0B63806B4863908A8006EE
:1005600001D500BE7047FEE70018080000ED00E06E
:1005700002890889FE49101A80B2884201D90120F7
:1005800070470020704781692039897F082904D28B
:10059000F84A8900515881617047FEE7F748F649EB
:1005A0000161F7494161F7498161F749C161F74943
:1005B0000162F7494162F7498162F749C162F7492F
:1005C0000163F7494163F7498163F749C163F5491D
:1005D000EA485C3140300160F4494160F44981608F
:1005E000F449C1600120F449C0060860F349CA69B2
:1005F0001202120ACA61F04980390860704710B5CA
:10060000EF490020086001F041FB01208007016BE9
:1006100049004908016310BD10B50221084605F0E4
:1006200029FF00220123E74900280BD0CA70C88A9D
:10063000E54CA0420DD2C88A00280AD0C87800280C
:1006400005D006E0C88A401CC882CB70EFE74B7229
:10065000CA82C88ADD4CA04201D98B72CA82887BCB
:10066000052801D94B738A7310BDF8B5FFF7D4FF85
:10067000D44DD74E687A0024012701282ED16C7200
:10068000707801282AD1022030710146012005F03E
:1006900061FF32221146CF4803F072FD072102208C
:1006A00005F058FF142000F013FF01F08FF9072127
:1006B000022005F071FFC848CA490480C748078076
:1006C000C74804800320C87077702846EC721E303B
:1006D000048044800221012005F05EFFA87A0128F1
:1006E0003BD1AC72707801285FD0BF486C74048035
:1006F0000221012005F02EFF32221146B54803F0F9
:100700003FFD0721022005F025FF142000F0E0FE48
:1007100001F05CF91920400100F0DAFEFF20913071
:1007200000F0D6FE01F052F90721022005F034FF57
:1007300002203071A8480480A9480480AB48048096
:10074000BB20B0717770EC72EF719E4802211E30B1
:1007500004804480012005F01FFF687B012823D11D
:100760006C730721022005F0F5FE142000F0B0FEA6
:1007700001F02CF923242401204600F0A9FE01F009
:1007800025F9204600F0A4FE01F020F907210220FF
:1007900005F002FF01F06BF9EF73204600F098FEC0
:1007A0000221012005F0D6FEF8BD0221012005F04E
:1007B000D1FE0721022005F0CDFE142000F088FEB6
:1007C00001F004F94B20000100F082FE01F0FEF878
:1007D0000721022005F0E0FEA87B401CA873824898
:1007E0000480824804806C74BB20B071ACE710B503
:1007F0007F490820088005F041FA05F013FF01F059
:1008000098F810BD10B501F091F9042000F065FDD5
:10081000072000F062FD0A2000F05FFD062000F0D6
:100820005CFD0B2000F059FD012000F056FD022078
:1008300000F053FD002000F050FD6E48006805F008
:1008400023FA01208007016882151143016010BD61
:1008500038B50021022005F07DFE5A4C01202070A1
:100860002078012802D1032105F074FE072102201F
:1008700005F070FE02F02BF8524AE162A0620B0E06
:10088000303213700B0C53700B0A93700C02030E72
:100890002343D17013710C04030C234353710B06D3
:1008A000010A19439171D0710F21062209035248A0
:1008B00001F073FF0020032203461202014600905C
:1008C00005F07CFC4D490868002802D00020C04398
:1008D00000E001204A4A08601468C11753682043A9
:1008E0001943106051600A2000F0F2FD01F06EF82B
:1008F0000C2000F0EDFD01F069F80C2000F0E8FD9F
:1009000001F064F80C2000F0E3FD01F05FF80C202A
:1009100000F0DEFD01F05AF80C2000F0D9FD01F0E6
:1009200055F80C2000F0D4FD01F050F801F092F8D9
:100930000021022005F030FE0721022005F02CFEE8
:100940002349022008712F48017801702E48017850
:100950000170012005F09EF9FF210D200131800179
:1009600005F09EF902F038FD01F046FA38BD0000AE
:10097000307500006C67002094270300008400405D
:1009800062B600DF28A30200704701DF1CCA020024
:10099000F8BD02DF40CB0200F5E703DF84D402009C
:1009A00004DF89B0BC330200F8BD05DFF8BD06DF07
:1009B000EC0C030070BD07DF80E100E000ED00E01B
:1009C0008C03080020900020B80B0000AC0D000044
:1009D000446C002005C800000E8000201480002018
:1009E00010800020208000201280002094900020A1
:1009F0000033005004900020D8030020A090002075
:100A00009890002000000800202A080010B500F08F
:100A10006FFCFE480068AA2805D1142001F0F4F804
:100A2000142001F0FFF810BD10B503F075FBFFF7BF
:100A3000E6FDA22005242407E082F5484188E02253
:100A40009143A0314180012005F030F905F034F9DF
:100A5000022803D005F030F9012809D1ED4908201A
:100A60000880A08A8006FCD4608A80218843608246
:100A700010BD7047F8B505240546240720890006F7
:100A800020D5A000006B00041CD405F01BF9C007A2
:100A900018D1042005F01CF9064605F01FF9002EB8
:100AA00010D000200090D9480068AA2802D1142054
:100AB00001F0B8F80421684605F016F9002801D0C5
:100AC00001F006F972B602F0AFFC02272870042884
:100AD00006D002280CD003280AD001286BD06BE086
:100AE000CD480078012802D00320287000E02F7044
:100AF000208A042630432082C848C069012828780B
:100B000013D903280FD105F0F5F800280BD005F014
:100B1000F7F8002807D0032005F0F8F8002802D0E5
:100B2000BF4807700AE02F700DE00328FBD105F0E5
:100B3000EDF80028F7D0BA48012101702878022882
:100B400001D0032825D1B748016931430161608A8A
:100B5000202188436082208A38432082287810210F
:100B60000228608A21D0304360827F22208892014F
:100B70008023184320800020401CC0B20A28FBD3E9
:100B8000608A08436082A848521E426120889843C8
:100B900020809F484188FF2201329143418030BF2D
:100BA000A0480169B143016106E030436082608A78
:100BB00088436082EDE730BF62B60020F8BD10B513
:100BC000FFF753FD00F060FF0521022005F052FC05
:100BD0009649002804D0012088709549087010BDFE
:100BE0000020887010BD10B50321012005F0D4FC51
:100BF0000221012005F0D0FC8C490020087010BDB6
:100C0000F8B58A4CA2788B4F894E39888A480025DE
:100C1000012A07D1894A1288012A01D007291BD24B
:100C2000A5700580072917D2617C002914D1A1780D
:100C3000002911D101880A463C3A142A07D8CC2051
:100C4000B071C80711D17E490320C8700DE050294A
:100C500002D90580FFF7C7FFB079BB2805D13888D6
:100C6000032802D801206070F8BD6570F8BDF8B5A2
:100C70006F4D0126AE70734900206C4C0880607C7B
:100C8000EE2818D16B480088062814D96E4F0E2123
:100C9000388805F041F800290DD10721022005F020
:100CA00059FC142000F014FC00F090FE07210220F3
:100CB00005F072FC3E80654814210088009005F024
:100CC0002BF8AA2700290FD1DD206074AF71E879D5
:100CD000A0834B2100984901884201D9FFF783FF87
:100CE000207B002800D1A671A07901281DD1207B8E
:100CF00000281AD155485649008888420CD207214D
:100D0000022005F027FC142000F0E2FB00F05EFE5C
:100D10000721022005F040FC0621E87904F0FCFFE1
:100D200044490A88801808806F71F8BDF8B5404CB6
:100D3000444D20890026474F102831D928880D2896
:100D40002ED13C48008806282AD90721022005F028
:100D500001FC142000F0BCFB00F038FE4B20C0006A
:100D600000F0B6FB00F032FE1920400100F0B0FBAD
:100D7000FF20913000F0ACFB00F028FE4B20C000BB
:100D800000F0A6FB00F022FE0721022005F004FC83
:100D9000264833214174AA2060713E800E202880AD
:100DA00028482189008888427ED322480088062866
:100DB0007AD91E4DE87A002803D121481821C17044
:100DC000A670A078002808D132221146224803F0EC
:100DD000D7F90120A070E8723E8014481E300188C7
:100DE000002902D114210180418010481E30418821
:100DF0000088421F914205D0921F914202D01138C3
:100E0000814236D10721022028E0000050800020D6
:100E1000200000500033005054020800E001002080
:100E2000C406080000ED00E0008000402090002093
:100E3000446C0020949000201280002092900020AA
:100E4000208000200E8000200C80002014800020D4
:100E5000560900001080002004C8000005F07AFB4D
:100E6000142000F035FB00F0D3FD0721022005F02F
:100E700093FB38880327C107002903D1152801D225
:100E8000FE48C770FE480188FE480088401A1421B9
:100E900004F048FF002902D02079002812D0687A97
:100EA00001280FD0F54800E018E0C770552068749D
:100EB000AA20A071AE830120A871F34806702079A2
:100EC000401E20716078002808D1F04821890088F0
:100ED000401AEF49884201DDFFF785FEF8BDF8B5FD
:100EE000EC480025E64C05801E3CEB48E573008885
:100EF0003C2807D80221012005F02CFB4B20C00024
:100F000000F0E6FA6078002802D1E449AA2088714E
:100F1000DC48DE49058001200880E148E149058080
:100F200011200870D84805210570022005F0A2FAAA
:100F300000280ED0D8480088062801D9EE20607419
:100F4000D9480188FF20D7302183814203D2FF2076
:100F500004E06574F4E7D54804F0DEFE6083A07C0D
:100F6000C74E401CC0B2A77E3A36A0743754B77142
:100F7000052802D1A574012060716079B17801283B
:100F8000707847D04018F178327989184018717913
:100F90004018A17C04F0C0FEA0837078B17832794B
:100FA0004018F178891840187179BC4E4018C01B60
:100FB000C117890F08188005000EF071A78B002F4C
:100FC00010D0FF2F0ED8227AAC49BB1A052B05DAB8
:100FD000D21B052A02DA0A79052A03D201222271DC
:100FE00018220A7101460B39BD291CD8AA49098863
:100FF000062918D904F09CFE02460B460020AC4995
:1010000004F0F4FC0022AB4B04F098FE04F082FDE7
:10101000C0B215E04018F17832798918401871791A
:1010200040180521B6E70A2807D8002809D09A49B0
:101030000988062901D9B42002E0C82801D907206F
:10104000308195480188052901D2012222710229A7
:1010500006D2F178012903D10580F5702571A574B8
:101060002079012806D125712772207B002806D01F
:10107000552070710221012005F08EFAF8BDAA20DA
:10108000F7E710B57E4C85B0032100206B461A347B
:10109000625C5A54491C5040C9B21329F8D905B0B2
:1010A00010BDF8B5764CAA201E3C617C7B4D002615
:1010B000332902D06178012905D17F490A88152A90
:1010C00001D168710E806D4FF978022902D1217B20
:1010D000002974D06879AA2872D00020E17901290A
:1010E00000D00021084369D0E07B012866D000F0E1
:1010F000BEFC1920400100F0EBF962482989008804
:10110000884209D35E49E6743A31E07C0E54401CB3
:10111000C0B2E0740528F8D35F4800883C2803D9A2
:101120000221012005F016FAE86864490170090AF5
:101130004170A9798170A28AC270120A564902715F
:101140000A884271120A82711421C1715C490978BE
:101150000172217F4172617C8172494912310A78A2
:10116000C2724A7802738A784273CA7882730A79A3
:10117000C2734A7902748A794274C9798174FFF71B
:1011800080FFE968C8743C2000F0A2F9E6743C488E
:10119000E17C1A30405C00F0FBFFE07C401CC0B2F8
:1011A000E0741428F3D30120207406207871454898
:1011B0000078012806D016E001E001E026E0687121
:1011C00001208BE740482E4A40891A32801D80B2A8
:1011D000142104F0B9FD3C4800214089801D82B2F1
:1011E000394802F0D5FAA08A3849401C80B2A08262
:1011F000884201D90120A082A671022020735520C7
:101200006871E6710221012005F0C6F9207C0128F1
:1012100008D1E07B012805D07879052802D200F0BA
:1012200019FC2674F8BD08B5294901200870FFF79C
:10123000DEFAFFF70DFBFFF7E5FAFFF7E7FBFFF735
:10124000F3FB0F4D134C154E1E3D6846FFF712FC85
:101250000128FAD0FFF7B3FC2088012801D1FFF75D
:101260003EFEFFF7CDFCA878012802D17078012856
:1012700030D0FFF75BFDFFF714FFE6E7208000208A
:101280003E9000200E80002000800020148000206E
:10129000650900009290002094900020446C00208A
:1012A00012800020546C002090900020C0D40100D7
:1012B00000004E4000003E40108000201B03000054
:1012C000C991002044800020A0910020FEFF000072
:1012D00045800020FFF7CBFCCDE7C106C90E0120F9
:1012E000884001490860704780E200E070470000D4
:1012F0003E480178002902D08021417070473C4966
:10130000002008703B49C8707047384801780029B0
:1013100002D081214170704735490120087035495C
:10132000C870704731480178002902D0822141708D
:1013300070472F49022008702E490120C87070475D
:101340002A488178002904D0491E0906090E8170B7
:1013500017D142780021002A04D09207920F027020
:10136000417004E00278002A01D0521E0270120679
:10137000120E017005D0012A02D0022A01D1D1E754
:10138000C3E7704710B5194CA078401CA0702078B6
:10139000002805D104F090FC421CFFF7A9FF227041
:1013A00010BD12490120C870704710490020C87054
:1013B00070470E48C07870470020EFF3108101227B
:1013C00082F31088052212071289120605D40A48F2
:1013D000028901231A4302811846002900D0012105
:1013E00081F31088704705480078704746800020D8
:1013F00054020800C6060800003300506680002032
:1014000005221207118A042319431182118A02232B
:10141000194311821189402319431181174B01216E
:101420001960174B08211980518A80231943518272
:10143000144903680B6143684B6183688B61C3681F
:10144000CB6103690B6243694B6283698B62C0693C
:10145000C8620D48836A0B63C36A4B63036B8B637B
:10146000C36BCB63436B074940310B60806B4860B3
:10147000908A800601D500BE7047FEE780E200E05A
:10148000003300504018080000ED00E010B50120C6
:1014900005F02EF9032005F01FF900221146012066
:1014A00000F0DEFE2A220121002000F05AFF142065
:1014B00005F04AF9002005F04DF90022114664209C
:1014C00000F0EDFE00F0F0FE05F01EF910BD7047D3
:1014D0005021484380B20146401E80B20029FAD113
:1014E000704700227D23DB0006E00021491C89B201
:1014F0009942FBD3521C92B28242F6D3704770B528
:10150000FA4900200A6BC043002A01D0034600E0DC
:101510000123DA179C0B92042243F54C0B632568D8
:101520009B0466682B433243236062608A6D002A05
:1015300001D0024600E001228A65236892006568B6
:1015400023602A436260CA6D002A01D0024600E08F
:101550000122CA652368D200656823602A4362605D
:101560000A6E002A01D0024600E001220A662368C2
:101570001201656823602A4362600A68002A01D06C
:10158000024600E001220A602568D31766682A43F4
:101590003343226063608A69002A01D0034600E079
:1015A0000123DA179D0E92012A438B6125689B0166
:1015B00066682B43324323606260CA68002A01D008
:1015C000034600E00123DA175D0FD2002A43CB6007
:1015D0002568DB0066682B433243236062604A69FA
:1015E000002A01D0034600E00123DA17DD0E520184
:1015F0002A434B6125685B0166682B4332432360B5
:1016000062604A68002A01D0034600E001234B6073
:10161000DA17DB182568524166682B433243236092
:1016200062608A68002A01D0034600E00123DA17CD
:101630009D0F92002A438B6025689B0066682B43B0
:10164000324323606260CA69002A01D0034600E089
:101650000123DA175D0ED2012A43CB612568DB0135
:1016600066682B433243236062600A69002A01D016
:10167000034600E00123DA171D0F12012A430B6114
:1016800025681B0166682B433243236062608A6AC7
:10169000002A01D0034600E00123DA171D0C1204D2
:1016A0002A438B6225681B0466682B433243236000
:1016B0006260CA6A002A01D0034600E00123DA17FB
:1016C000DD0B52042A43CB6225685B0466682B431A
:1016D0003243236062604A6B002A01D0034600E077
:1016E0000123DA175D0BD2042A434B632568DB0420
:1016F00066682B433243236062600A6D002A01D082
:10170000024600E001220A652368656823602A43D7
:1017100062604A6D002A01D0024600E001224A655B
:1017200023685200656823602A4362604A6E002A7B
:1017300001D0024600E001224A6623685201656832
:1017400023602A4362608A6E002A01D0024600E0CC
:1017500001228A6623689201656823602A436260D9
:10176000CA6E002A01D0024600E00122CA66236840
:10177000D201656823602A4362600A6F002A01D0A3
:10178000024600E001220A672368120265682360AE
:101790002A4362604A6F002A00D10120486721680D
:1017A0004002626821601043606070BDF8B5012599
:1017B000032636020023324602212846009504F013
:1017C000FDFC00240221234622460846009404F032
:1017D000F5FC0021072332460846009404F0EEFC95
:1017E0000623324619460020009404F0E7FC082343
:1017F000324603210020009504F0E0FC052300227E
:1018000019461046009504F0D9FC02233246032104
:101810001846009404F0D2FC012300220421022087
:10182000009404F0CBFC00233246042118460095B6
:1018300004F0C4FC00220F2301211046009404F0A0
:10184000BDFC00220F2302211046009404F0B6FCD8
:101850001723324607210020009504F0AFFC002337
:10186000324619460120009404F0A8FC012100230F
:1018700032460846009404F0A1FC002332460321BE
:101880000120009404F09AFC0023324619460220FD
:10189000009404F093FC00231A46012102200094D6
:1018A00004F08CFC00231A4605210220009404F069
:1018B00085FC0023324606210220009404F07EFCC1
:1018C0000023324607210220009404F077FC002315
:1018D000324608210220009504F070FC00233246B5
:1018E00009210220009504F069FCF8BDA0900020B9
:1018F0009890002038B582A00068824C00906089E2
:101900006A46801D80B2032104F01EFA608900211E
:10191000801D82B2204601F03BFF002108220846CC
:1019200001F074FF01223221774802F029FC38BD12
:1019300070473EB505242407208A0221884320826F
:10194000A08A0007FCD5FEF729FEFFF72FFF00F065
:101950008DFD00F0F5FBFFF799FD0520FFF7B8FDC1
:10196000002201201146C00200F01AFD012000F003
:1019700025FD142101200A46019100900146002313
:10198000022004F045FC61490320487000200870E3
:101990000090019003460246014602905B4800F029
:1019A000A1FD00F06EFE5949091F4870401C04D18A
:1019B000FF210131880200F02BFE00F085FD00F0D0
:1019C0008AFD608A2021084360823EBD10B5002454
:1019D0000621022004F0BEFD0520FFF779FD062157
:1019E000022004F0D9FD0520FFF772FD641CC82C0D
:1019F000EEDB10BD034610B50020024602E09C5C01
:101A00002018521C8A42FADB04F08CF9C0B210BDD7
:101A100010B53F4C2078222805D0442803D06628F2
:101A200001D0882801D1FFF7D1FF3A4881780029F9
:101A300006D12178882904D00522827011312170C5
:101A400010BD642181701120207030490120091FD0
:101A5000087010BD10B50821022004F09DFD24205F
:101A6000FFF736FD0821022004F074FD10BD10B50B
:101A70000921022004F090FD2420FFF729FD09210F
:101A8000022004F067FD10BD70B5234801780129DC
:101A900034D10026067021491C48CA78801ED12AFC
:101AA00002D0DA2A28D112E01C49194D20310A7AD5
:101AB0000270497A6D1C41702A7169710024285D99
:101AC00000F066FB641CE4B2092CF8D314E0097A38
:101AD000002911D10E4D01780A35297140786871BD
:101AE0000024285D00F054FB641CE4B2092CF8D3F8
:101AF0007D20C000FFF7F5FC0948067070BD0000AE
:101B0000A1A2A300A09100200338000004800020BF
:101B1000546C002020800020549100205691002019
:101B200055910020A44900204860704770B50521F8
:101B300009070889302290430881088980221043D0
:101B40000881088980088000401C088108890823D2
:101B50001843088199480488144304804C8A9C43A4
:101B60004C820D89402425430D810D8A0426B543FE
:101B70000D828D8AAD07FCD58F4E002575600588D6
:101B80000126354305804589AE058D4D068801D572
:101B90002E4300E0AE43068005887826B5432835FD
:101BA000058005880626354305804D8A1D434D82F4
:101BB0000388934303800A89A2430A8140898005F0
:101BC00003D57E49052060318880012080070168A7
:101BD0008215914301607B4801683F225202914384
:101BE000421489180160016802031143016070BD4D
:101BF0000321754809028181082242800021491C85
:101C00009629FCD382807047704948800888032257
:101C10001043088008880422104308806649012088
:101C2000087070477CB5644C217800292DD0674935
:101C30000A885207FCD4CA8800928988019111044D
:101C4000019A8918009162494843009904F064F8A8
:101C50000090002020700098A060009803F03EFFE4
:101C6000054629465B4803F0C4FD0A2103F0FFFD49
:101C700003F03BFFE060284603F06AFF564A574BEB
:101C800004F05CF803F078FF20617CBD10B54A4891
:101C90004168AA2905D07C205149081804F05AF857
:101CA00010BDC06819210903884200D900BEFF2079
:101CB000EB30F1E770B5414C6088C006050F04F0C9
:101CC0004FF861881E2291436A001143618070BD04
:101CD00010B544490120C863C86B0028FCD101201D
:101CE0008007C16940480268914201D20022026027
:101CF00019238A1ADB019A4212D3016004F036F8E4
:101D00003A4A1188884201D9411A00E0091A89B279
:101D1000182905D31080012004F02EF804F032F8C1
:101D200010BD08B5244989684843314903F0F4FFE0
:101D3000009008BD08B52049C9684843800A009052
:101D400008BD08B51C494968002903D0FFF7E9FF21
:101D5000009008BD04F01CF8FAE708B51649496878
:101D6000002903D0FFF7E6FF009008BD04F016F845
:101D7000FAE708B51F4901204A695206D20F13D06D
:101D80004A699206D20F0FD000220A610092FF2208
:101D90005F32009B5B1C00939342FAD34969C907E9
:101DA000C90F02D004F000F8002008BD4018372108
:101DB000C0000901401870474C80002020000050EE
:101DC00000100000000200402030005000160050BB
:101DD0000024F400002474497B14AE47E17A443FA8
:101DE00001120000C00000407C04080078040800D4
:101DF00040420F000010005030B58D4A8D49D0058B
:101E0000048880231C4304808B4C65892D0701D4F2
:101E1000521EFAD2894C01222260894C0A88228003
:101E2000884A4988118001889943018030BD00208B
:101E3000704770477047704700207047012189073D
:101E4000086B0722104308637047704710B57F493D
:101E50007D4808607E494C2008807D4B7D4A203BB0
:101E60001A827E497C4848807E487D4901807C49B1
:101E700019314180222141818121890001827A49E1
:101E800041827A4901837849113141837549784803
:101E90002031888041217748090181807649C180BD
:101EA000754C1034C48101824182891C8182611F7A
:101EB000C182FF2146310183704941837049592015
:101EC00008806F486F4C20300480432444806E4C5F
:101ED0004C82D5218180FF21D33101816B49418121
:101EE0006B4981816C496B48088059486B4960385F
:101EF0004180C18810242143C18062490A3901818F
:101F0000534C6749403C61805A82082141814D48C9
:101F10005B49008840390882494862490088088046
:101F200010BD4008704700B58BB05F4A42625F4AFF
:101F300082625F4A42615F4AC2625F4A02605F4AF0
:101F400002625F4A42605F4AC261404A3E480021E5
:101F500010603E484038026B03129A430263426BA2
:101F60001F231B049A4303231B04D21842635648C1
:101F70000268C3129A430260026803139A43026024
:101F800068464154491CC9B22829FAD3014628227F
:101F90004E4803F00FFFFFF759FF03F0E7FE4C49EF
:101FA0000880002003F0E8FE03F0ECFE0BB000BD5B
:101FB00010B5264A0F2124480902106023484038F2
:101FC000426B1F231B049A4303231B04D218426352
:101FD00000060268D208D2000260052000070289CC
:101FE00092089200521C0281028908231A4302813E
:101FF000028A0A43028237480068002808D10E4846
:102000004189890504D501887822914308310180EE
:10201000FFF71CFF3048006F0078002804D02F48DD
:1020200000880B496039C880012003F03FFE10BDD5
:10203000A0860100087F04002000005000800040BE
:10204000560208004A0308004C055407800000406F
:10205000602C00507F7F0000AC290000002200505F
:1020600009090000002400502204000030D00000C4
:10207000EE110000002500502E0200004420000058
:10208000402800500D95000002420000E4DC0000F2
:102090001092000053780000002A00508B100000BE
:1020A0009DD50000002600502F1E0020331E00206A
:1020B000391E00203D1E0020351E00204B1E002032
:1020C000371E0020231F00200002004020000800CF
:1020D0007804080050800020E0010020520408002D
:1020E00010B5044604F0EAF91249A00040188038FF
:1020F000406B002801D0804710BDE106C90E0120C9
:1021000088400D49086010BD1320E9E70B490948D4
:102110000A88B038028000220A800121418081882B
:10212000491C81801420DBE71520D9E71620D7E76A
:102130001720D5E74091002080E200E00A800020CF
:1021400005200007828880210A43828040488181DF
:10215000002181800921018003218181028A40219F
:102160008A43028201220281838813438380394893
:102170000268120A12020A430260880136490860A6
:1021800070473348818AC907FCD00088C0B27047C5
:102190002F498A8A9206FCD50880704700B503460D
:1021A00002E0FFF7F5FF5B1C18780028F9D100BDAD
:1021B0000346000600B5000F0A2801D2302100E0D6
:1021C00037210818FFF7E4FF1807000F0A2801D28B
:1021D000302100E037210818FFF7DAFF00BD10B505
:1021E0000446000AFFF7E4FFE0B2FFF7E1FF10BD8D
:1021F00010B50446000EFFF7DBFF2002000EFFF7CC
:10220000D7FF2004000EFFF7D3FFE0B2FFF7D0FFA7
:1022100010BD10B50E4801890907090F042910D116
:1022200003880E4A901E41785354491CC9B241702C
:10223000D47800220123D12C04D0DA2C01D1092931
:1022400002D010BD4A29FCD10370427010BD0000BD
:10225000001000500CE400E000E100E05691002086
:1022600030B5484B1C680825C907AC43090F0C431F
:102270001C6019680424D207A143520F114319604E
:1022800019680222C0079143800F014319603E483C
:1022900001688022090A09021143016030BD3B4BED
:1022A00058809980DA807047FF20394901300860F2
:1022B0007047FF203649013080310860704710B503
:1022C000344800224188491C41800178491CCBB226
:1022D000014618310370142B11D302700B785B1C6C
:1022E0000B708B795B1C8B718B78002B01D05B1E84
:1022F0008B70438A012B02D1038A5B1C03820B780B
:10230000322B26D183885B1C83800A7083895B1CF7
:102310008381C3885B1CC38003895B1C0381438961
:102320005B1C4381CB785B1ECB700B79012B01D9F1
:102330005B1E0B71184C6388022B01D95B1E6380F6
:10234000164C2378002B01D05B1E23704B795B1E4B
:102350004B718B793C2B03D18A71C189491CC18196
:1023600010BD70B5054614460E46012004F0D4F9A0
:10237000284604F0DDF9304604F0ECF90348C48146
:1023800070BD00000034005008E400E0003400504C
:1023900000E100E0088000203E9000202C9000200A
:1023A00008430121890303460B4343490B80434BF8
:1023B00018430880092002434A8070473E490A8832
:1023C0000F239B0100079A43800D02430A80704748
:1023D000394900200880704737483949028802236C
:1023E0001A430280491E02D302889207FAD40021C0
:1023F0000181408970470AE000BF00BF00BF00BFF5
:1024000000BF00BF00BF00BF00BF00BF00BF401E35
:10241000F2D2704770B50121890204464E000022B5
:102420003046FFF7BDFF1420FFF7E5FF002C01D079
:10243000092000E00720FFF7C1FFFFF7CDFF0546A9
:102440000120FFF7D8FF002211463046FFF7A8FF12
:10245000002C01D0092000E00720FFF7AFFFFFF7B5
:10246000BBFF4019144A0021118070BDF0B5124C19
:10247000144820801420FFF7BEFF01256D02A580BF
:10248000E5802088E9000843208020888E10B04332
:102490002080FFF7A1FF0746208830432080FFF708
:1024A0009BFF0246780071424018281A52005118CA
:1024B000691AA080E180F0BD0015005001400000C5
:1024C000A08601000148000010B54F48417800780F
:1024D00004F062F810BD10B54B484178007804F064
:1024E00039F810BDF8B50E46154647490278079FE2
:1024F0000A7040781C464870FFF7EDFF0520000782
:1025000081880122D2021143818040480188490814
:10251000490001800188FF2281329143F201114379
:102520000180018840229143AA0111430180018862
:1025300004229143A20011430180018802229143A9
:10254000069A5200114301800188012292039143AF
:10255000BA0311430180018818229143089AD200DE
:10256000114301800188012211430180F8BD2749F0
:102570000A88520852000A800A88FF2381339A434E
:10258000C00102430A800888012210430880704776
:1025900010B51E4801884908490001800520000740
:1025A00081880122D20291438180174841780078C6
:1025B00003F0D0FF10BD154801884908490001808B
:1025C000704710B5114900230A88D205920F012ADD
:1025D00001D9040C8C80488008888004FCD5012037
:1025E000C880012A01D9888803044888C01810BD12
:1025F00010B50446FFF768FF2046FFF7E2FF0446E8
:10260000FFF769FF204610BD2A800020001200500D
:10261000F94AD1609060704710B50120FFF7A7FF1D
:1026200005200002FFF7E4FFC0B210BD70B5002422
:10263000F24DFFF7F1FFC00704D0641CAC42F8D3A1
:102640000020C04370BD70B5FFF7F0FF002817D120
:10265000FFF78DFFFFF738FF9F20FFF7B2FF002045
:10266000FFF7AFFF05040020FFF7ABFF04022C4388
:102670000020FFF7A6FF20430546FFF72CFF284662
:1026800070BD70B5FFF7DFFFDB4CDD4A002114237E
:102690004B43D5589B185B681D4003409D420ED1AB
:1026A000142308B24B4320809B189D68A560DB680B
:1026B000E360142358438018606048B270BD491C21
:1026C00089B20429E3D300206060401E70BD70B55C
:1026D000FFF7ACFF002815D1FFF749FFC74E0025D3
:1026E0000620FFF785FF0024FFF796FFC10703D1FF
:1026F000800701D5002070BD641CB442F4D36D1C6A
:10270000322DEDD30020C04370BD70B5FFF78EFFB2
:10271000002815D1FFF72BFFB84E00255020FFF7FA
:1027200067FF0024FFF778FFC10703D1800701D5B9
:10273000002070BD641CB442F4D36D1C322DEDD367
:102740000020C04370BD70B5FFF770FF002811D1A5
:10275000FFF70DFFA94E00250420FFF749FF0024D5
:10276000FFF75AFF800707D0641CB442F8D36D1CF2
:10277000322DF1D30020C04370BD10B50446FFF7E1
:1027800055FF002808D10120FFF7F1FEE01DF930C8
:10279000FFF72EFFFFF74AFF10BD70B506469648BB
:1027A0000D4680685119814201D9441B00E014464E
:1027B000FFF73CFF00281AD10220FFF7D8FEFFF7F1
:1027C00083FE0321284609060843FFF7FAFE00208E
:1027D000FFF7CDFE002505E00020FFF7F2FE307088
:1027E0006D1C761CA542F7D3FFF775FE204670BD21
:1027F00070B5054680480E46C0681446824200D92E
:1028000084B2FFF713FF00281ED1FFF760FF0028F6
:102810001AD10220FFF7ABFEFFF756FE012130462A
:1028200049060843FFF7CDFE0020FFF7A0FE05E0B4
:1028300028786D1CFFF7C5FE641EA4B2002CF7D1EA
:10284000FFF749FEFFF7F2FE70BD70B50D46044676
:10285000FFF73DFF002802D00020C04370BD0220DA
:10286000FFF785FE28062043FFF7C2FEFFF7DEFED6
:1028700070BD10B5FFF72BFF002802D00020C04329
:1028800010BD0020FFF773FEC720FFF7B1FEFFF772
:10289000CDFE40B210BD0020C043704710B5FFF719
:1028A000C5FE002812D10120FFF761FEFFF70CFEE4
:1028B00009200003FFF785FE0020FFF782FE0020BD
:1028C000FFF77FFE0446FFF706FE20B210BD70B58D
:1028D000FFF7ACFE002801D0C11770BD0020FFF744
:1028E00046FEFFF7F1FD4B20FFF76BFE0220FFF7DE
:1028F0003EFE0020FFF765FE0020FFF762FE002588
:1029000004462846FFF75DFE06462E43FFF7E3FD2B
:102910003046214670BDF7B582B0374F0E46009164
:10292000F96814460D46304603F0F6F9401C68433A
:10293000451E0020FFF71BFEB868801BA04200D296
:1029400004462646002719E000988019A84202D9BB
:1029500000982E1A761C0298B2B2C0190099FFF79F
:1029600047FF002803D00020C04305B0F0BD681C1D
:1029700000902148BF19C0682D18E61BA742E3D379
:102980003846F2E710B5FFF751FE002805D1FFF7F2
:10299000EEFDB920FFF72CFE002010BD10B5002081
:1029A000FFF7E5FDAB20FFF723FE002010BD70B55B
:1029B000114C05466068002806D0FFF788FE002805
:1029C00005D00020C04370BD0520C04370BDFFF797
:1029D00023FE6168097C884329400843FFF7CDFE48
:1029E00070BD10B504484068407CFFF7E0FF002848
:1029F00008D040B210BD00002C800020400D030024
:102A0000AC670020FFF735FFF4E770B505462F48A7
:102A10000E46C0681446824200D984B2FFF706FE13
:102A200000281DD1FFF753FE002819D10220FFF71F
:102A30009EFDFFF749FD0121304649060843FFF797
:102A4000C0FD0020FFF793FD04E02846FFF7B9FD25
:102A5000641EA4B2002CF8D1FFF73DFDFFF7E6FDA0
:102A600070BDF7B582B0194F0E460091F968144653
:102A70000D46304603F050F9401C6843451E0020C7
:102A8000FFF775FDB868801BA04200D204462646B9
:102A9000002717E000988019A84202D900982E1A42
:102AA000761CB2B200990298FFF7AFFF002802D05F
:102AB0000020C04359E7681C00900448BF19C06853
:102AC0002D18E61BA742E5D338464EE72C800020A0
:102AD00070B5EFF31085012080F31088264803F0CD
:102AE0006FF90446002D1DD0012080F31088002CC2
:102AF00023D020462038C08B204988421DD16189CF
:102B0000208903F063F905000ED021461031A38916
:102B100062892089A847002806D001280DD0022804
:102B20000BD105E00020E0E7204603F055F904E072
:102B3000114821460C3003F055F9EFF310840120C1
:102B400080F310880C480068002802D1012003F0AF
:102B50004FF9002C03D0012080F3108870BD0020B5
:102B6000FAE710B5BC21064803F048F905490120F1
:102B700003F04AF910BD0000A805080038830000E2
:102B800004060800D12A0020F8B50D46064681004B
:102B90002B48EA884458521C20686B89018F294FC2
:102BA00051430091014640314A89C989511A8AB27C
:102BB000991A89B2B94214D29A4212D0294603F026
:102BC00029F92D892049009803F0A6F82818801CBF
:102BD0004034E0823002401C80B2042103F020F92E
:102BE000F8BD2821304603F021F9F8BDF8B50546B7
:102BF000870013480C46C059C9880068114E024628
:102C000040325389D2899A1A92B28B1A9BB2B3423C
:102C100011D20B4E8A420ED003F00EF9F059052264
:102C20005F30611C03F0C6F82802401C80B2052109
:102C300003F0F6F8F8BD2821284603F0F7F8F8BDB0
:102C40004C030800FF7F00001027000070B51646F7
:102C50000D46104603F0F6F8002869D0340A3046D5
:102C600003F0F0F8012812D0A87A1E2811D02946C6
:102C70000A310E2845D019DC801E030003F0E8F865
:102C80000B255829582D58315839583D58000220E5
:102C900070BD3146274803F0E1F80021204603F0DB
:102CA000E3F80221304603F0BBF841E018283CD09D
:102CB00006DC102819D012282BD0162838D130E085
:102CC000522822D0D22833D127E0204603F0D2F870
:102CD0002EE0204603F0D4F82AE0204603F0D6F890
:102CE00026E0204603F0D8F822E0204603F0DAF888
:102CF0001EE0204603F0DCF81AE0204603F0DEF880
:102D000016E0204603F0E0F812E0204603F0E2F877
:102D10000EE0204603F0E4F80AE0204603F0E6F86F
:102D200006E0204603F0E8F802E0204603F0EAF867
:102D3000002070BD01280000F3B581B001980C4659
:102D40000102CA1D0E310223344803F0E1F8047079
:102D500001990546022732488E00002C06D0042C2B
:102D600016D0062C10D0072C3FD108E0815905223F
:102D70004968897C114069708059C77335E00846FD
:102D800003F0CCF8687030E080590F21C1732CE05B
:102D9000044680594068417C012902D1007E012807
:102DA0000FD0019803F0C0F801210028A0590BD0E2
:102DB0004268D07D00281CD001281AD004280DD0EC
:102DC0000FE0002068700DE04068C27D022A01D04B
:102DD000042A06D1007C02280BD102E0107C0228D4
:102DE00007D06F70A1590320C873284603F0A2F8DA
:102DF000FEBD6970F6E701460A780120042A01D970
:102E0000002070474A78002A01D0012AF8D10A79B7
:102E1000082AF5D849790829F2D87047021C000021
:102E200028050800FFB589B00D46002069460590C9
:102E300008720B98000A009003F076F807460B988A
:102E400003F000F800287DD00B982978000A840050
:102E5000764E01295ED0042904D0062943D00729E3
:102E600063D120E0687800281BD0305910224068D8
:102E7000A91C02F09FFF002F06D03159C87B032800
:102E800007D0042808D050E03059C07B032803D075
:102E90004BE00B20C87348E00521009803F050F880
:102EA00043E00120B6E03059C07B0E283DD10098A8
:102EB00003F034F8002103E02A18401C9170C0B2DE
:102EC0001028F9D3688A69460883294606A808228B
:102ED0001431023002F06EFF06ABAA1C394600988E
:102EE00003F034F821E03059C07B0F281DD1AA1C13
:102EF0000A21009803F030F8002F04D039460098DA
:102F000003F030F811E000231A463946009803F028
:102F10002FF80AE0012F08D10B9802F093FF012847
:102F20001CD0002801D0022005906846007A0028B5
:102F300011D002AA0521009803F00EF86846027A23
:102F4000602000E007E00243684602720123394630
:102F5000009803F00DF805980DB0F0BD3059C07B16
:102F60000228E2D16878002851D002210B9802F0A3
:102F700057FF305907224068A91C173002F01AFF8A
:102F8000E878002804D130594068407C01283AD0C4
:102F9000009802F0F3FF002837D0297A009802F059
:102FA000F3FF002833D0009802F0F4FF01210098CD
:102FB00002F0F6FF00282CD030594068417E0029ED
:102FC0002BD0042929D0C17E027D1140C176305911
:102FD0004068017F427D114001776846007A0028F1
:102FE000A7D13059022142680098173202F0B4FF8D
:102FF000305941684031897B002913D00421009861
:10300000FFF79AFE91E7022004E0062002E0082084
:1030100000E00320694608728BE70021C176305931
:103020004068D9E70B21C1737FE70000280508003D
:1030300070B50446007800250D2801D00A2200E072
:1030400002225A494B7A002B06D00D2804D0637C0B
:10305000032B01D0432551E0097A8A4339D10D2849
:1030600009D00E2802D00F2803D134E0607C032859
:1030700004D3402542E0607C0328FAD8A07C0428D1
:10308000F7D20A2908D0607C012822D0022820D05B
:103090006078032809D811E002F088FF012806D1E2
:1030A0006078032803D0002801D0492526E002F0EB
:1030B0007DFF002802D160780228F6D83020035D19
:1030C00022462046E17C3132143000F019F80546E2
:1030D00014E0422512E002F069FF012807D1607870
:1030E000052804D1A01D02F067FF0028DDD002F002
:1030F0005DFF002802D160780228D6D8284670BD2E
:10310000FFB5002086B001216A4611700446059182
:103110000021002C06D0089D099A1F239A4234D919
:10312000402032E01C23069D079AF7E76B185E7873
:10313000330002F08DFE1D2610101010101010101C
:103140001026262626262626262626262626101061
:10315000101010102600059B03E06F46FF5CB7427D
:1031600004D05B1E5BB2002BF7DA03E0002B01DB1F
:103170004A2006E0059B6F46FE54059B5B1CDBB2B4
:1031800005936B5C491C5918C9B2914201D20028C1
:10319000CCD0914202D04A200AB0F0BD641CE4B207
:1031A000022CF9D20028B3D0F6E7000098050800F9
:1031B000F8B50C46954916460968012500270222F4
:1031C0008B1C312873D012DC0C2874D008DC012849
:1031D00021D0022840D007284FD00B2869D156E0D3
:1031E00010287FD0112876D01228F7D18EE0012345
:1031F000412871D008DC32286FD035286ED03628AF
:103200006DD04028EAD1B3E0422869D0432868D085
:103210004428E3D1D1E006227D497E4802F0D2FE67
:10322000002808D006227B49304602F0C3FD062064
:1032300020700020F8BD754801680878C00738D0B4
:103240002078062801D22770C4E006223046983143
:1032500002F0B0FD06200EE00A786C48920728D5EF
:1032600022783E2AEFD305464A7E30465A3102F094
:10327000A1FD2868407E2070A9E00878400718D595
:1032800020780228DFD3887C3070587C7AE00A7876
:103290005E4812070DD52278202AD4D30546CA7D70
:1032A00030461A3102F086FD2868C07DE3E736E03B
:1032B00001E079E016E00A785448D20674D5227805
:1032C000202AC0D305460A7E3046983102F072FDAE
:1032D0002868007ECFE70FE056E02AE036E03DE0C8
:1032E0005AE062E00878800672D520780428AAD3D4
:1032F00004223046091D25E00878400668D520786C
:10330000002867D0087D08E0227060E00878000699
:103310005ED5207800285DD0487D3070F4E70888BD
:10332000C00555D5207804288DD3042230460C31B1
:1033300008E0088880054BD52078042883D3042230
:103340003046083102F036FD042094E70888400535
:103350003ED5207800283DD0887D36E008880005DD
:1033600036D5207802288DD3087C3070487C09E05F
:103370000888C0042CD5207802288ED38231087F9B
:103380003070487F7070BFE70888800420D52078AF
:1033900000281FD0A03117E00888400418D52078F5
:1033A000002817D0A1310FE012E0088800040FD5E3
:1033B000207800280ED0A23106E00868C00307D5A7
:1033C0002078002806D0A3310878307023700025BB
:1033D0002846F8BD0425FBE770B50F480F49C40522
:1033E000228880252A4322800D4A53891B0701D455
:1033F000401EFAD20B4A012010600622054802F056
:10340000D9FC2088A843208070BD0000C0060800B9
:10341000383E030060800020A0860100D47F0400B5
:103420002000005000800040F0B5564D85B00026C9
:10343000686D37460190FDF7BCFF0021524C002813
:1034400002D12079022800D10191504802685048E9
:10345000002A0FD10278002A0DD04E4B0122DA63E8
:10346000DA6B002AFCD101229207D2691923DB0111
:103470009A420ED3017002F0ABFD00287ED0E078B6
:10348000012600287AD005200007808AC00701D0D5
:10349000042673E002F016FC00286FD13E48006855
:1034A0003F2804D12079002801D1286D0190A1780E
:1034B00001A802F093FD002860D0A17801A802F0D5
:1034C00013FC00285AD0344800683F2803D102F08A
:1034D0008BFD002852D02D480068AA281DD09720C7
:1034E00007210125AD07EA6B920A92027F1C3A433D
:1034F000EA63EA6B294B80021A400243EA63E86BF5
:10350000C002C00A49050843E86320480426006851
:10351000002807D0AA280FD01DE02148FEF711FC93
:103520000321DEE701986421C00202F0F5FB217956
:10353000401E0CE001210CE0019802F0CFFA19497D
:10354000096802F019F902F0D0FA009021790029F7
:10355000F0D102F04FFD1448C06A8047286B000488
:10356000C00FFBD011480168C905FCD502F048FD29
:10357000052000070189802291430181304605B072
:10358000F0BD000060020020C60608005080002048
:1035900045800020C000004060010020FF03E0FFE4
:1035A000011200005C8000201C070800000200409F
:1035B00010B50124A407A06BFEF7CFFB5F4902F012
:1035C000ABFB27221201511A00D101215C4A506045
:1035D0001160206B082188430843206310BD38B573
:1035E00000200090574908200880052424072188DE
:1035F000302001432180218803221143218002E0F1
:1036000000BF00BF00BFA18A0906F9D561898908FA
:10361000890061814C494A88520852004A802188B9
:10362000814321802088800880002080A08A400774
:1036300001D5FEF77EF92089802108432081208A68
:10364000042188432082A08A8007FCD53F48410599
:103650000268D20202D40A69520702D4009A002AF0
:10366000F6D038BD10B502F0D1FC02F0D5FC10BD8B
:1036700010B502F0D7FC05200007418A8022914353
:103680004182304801894908490001813048006879
:103690003F2801D102F0CCFC01208007816904227F
:1036A0001143816102F0CAFC02F0CEFC02F0D2FCB0
:1036B00028480068AA2802D11420FEF7A5FA264956
:1036C0000020087010BD10B502F0CAFC10BD10B586
:1036D00001208007008A000704D502F0C7FC1E49BC
:1036E0000320087010BD70B51C4800888506174877
:1036F000AD0E446816488030006F0078002802D173
:10370000284602F0B9FC16480089134EC00507D5BB
:1037100020060BD5E00709D0284602F0B3FC03E0F1
:10372000200603D5E00701D002203070200403D525
:10373000E00501D50120307070BD0000710200006D
:1037400040000040003300502000005000020040C4
:103750006001002050800020668000200020005082
:10376000002C0050F8B514460F461E460546428808
:1037700001880623204602F0CBFB0446287902F09C
:1037800087FC208027716680204602F0D3FBF8BDBD
:1037900070B51446428800790D460102042337486B
:1037A0000C3102F0B5FB002D01D0132100E01221F5
:1037B0000170448002F0BEFB70BD0A880270120ADC
:1037C00042708A788270CA78C2700A7902714A7926
:1037D000427189798171072070474278037812021B
:1037E0001A430A8082788A70C278CA7002790A7194
:1037F00042794A71807988710720704710B500F0CE
:1038000039FC00F041F800F079FB10BD70B50646B8
:1038100015460C46372002F015FB022805D1E2B20E
:1038200037232946304602F039FC362002F00AFBE5
:10383000022805D1E2B236232946304602F02EFC9A
:103840001C2002F0FFFA022805D1E2B21C2329460F
:10385000304602F023FC4F20FEF79AFC4B20FEF787
:1038600097FCFD20FEF794FC054900200870142207
:103870003221044800F084FC70BD00000D300000CF
:103880004480002001C8000010B52821054802F03E
:103890000BFC0549372002F00DFC0021372002F017
:1038A000BFFA10BDA0910020FC6700203EB50020AB
:1038B000C043704C0290E380088860816E4801909C
:1038C000009220460023092202A90A3002F0F8FBE8
:1038D00005466089002102F0F9FB002D03D101218A
:1038E000372002F09DFAE18801233722634802F075
:1038F0000FFB057002F01EFB00203EBDF8B5002551
:1039000068465C4C058062802380E3800E464888D0
:1039100002F0E2FB207170882081E581A58125827B
:1039200060896A46801C80B2022102F00DFA60892B
:103930006A46C01D80B2022102F006FA60890121A8
:1039400002F0C4FB0221372002F06AFA0020F8BD21
:1039500010B50121372002F063FA002010BDF0B548
:1039600087B00C46142101A802F048FA2346083318
:10397000A288618820881D4602F0B4FB3D4821885A
:1039800042898A1A022A04D0062A70D0072A6ED1E8
:1039900069E0007A002202F0ABFB6288294601A8A8
:1039A00002F008FA68460079AA2860D16846407992
:1039B000BB285CD169463248897941716946C97929
:1039C00001716946097AC1706946497A8170694610
:1039D000897A41706946C97A017000200322072361
:1039E00012020146009002F0E9FB264D00242868EF
:1039F000E443002801D0204600E00120224E286048
:103A00003268C117736810431943306071600F2723
:103A10003F0320213846FEF718FF06223946184892
:103A2000FEF7E6FE16490120491E087014223221D5
:103A3000164800F0A5FB16A0FEF7B0FB00200322FD
:103A4000034612020146009002F0B8FB28680028E5
:103A500000D101242C603268E017716814430843D8
:103A60003460706003E0007A002202F041FB002025
:103A700007B0F0BDA09100203868002006DC0000EF
:103A80003D800020A09000209890002001C80000F8
:103A900073746F726167655F6F6B0A0D00000000E1
:103AA000FFB58BB00521C90268468182C91C01821D
:103AB000FA490183FA4C362161800621992500914B
:103AC0000822002301953621A01D02F017FB0500F6
:103AD0007ED1A01D0125009501900222E08805AB52
:103AE000114602F011FBE088EE4A022102F02CF9A7
:103AF00003AE01960095E08804AB0222132102F088
:103B000003FB02AF092001970090E088E64B1022EA
:103B1000042102F0F9FAE5496846007A48706846DF
:103B2000407A88700A4668461321808902F00CF9B1
:103B300001960095E08804AB0222132102F0E4FA1A
:103B4000092001970090E088D94B1022042102F04F
:103B5000DBFAD8496846007A48706846407A88702F
:103B60000A4668461321808902F0EEF80196009516
:103B7000E08804AB0222132102F0C6FA01970095F7
:103B8000E088CD4B1022042102F0BEFACB496846F2
:103B9000007A48706846407A88700A466846132161
:103BA000808902F0D1F801960095E08804AB0222EA
:103BB000132102F0A9FA092001970090E088C04B78
:103BC0001022022102F0A0FA6846BE49007A00E005
:103BD00058E048706846407A88700A466846132163
:103BE000808902F0B1F801960095E08804AB0222CA
:103BF000132102F089FA092001970090E088B24B66
:103C00001022142102F080FAB0496846007A487008
:103C10006846407A88700A4668461321808902F017
:103C200093F8AB4D01960095E08804AB0222132176
:103C300002F06AFA01970095E088A64B1022012154
:103C400002F062FAA4496846007A48706846407AF1
:103C500088700A4668461321808902F075F809A920
:103C60000920019100900222E08806AB114602F083
:103C70004BFA0546E088002102F028FA012136209F
:103C800002F0CEF80123362294480E9902F040F952
:103C9000057002F04FF900200FB0F0BD3EB5804C2A
:103CA0000D46E08802AA0C3080B2694602F032FA72
:103CB000E08801AA0D3080B2694602F02BFAE08854
:103CC000AA1C0C3080B2012102F03EF80198008855
:103CD000002806D0E08800210C3082B22046FFF791
:103CE00057FD00203EBD10B56D480A46C08804212E
:103CF000801D80B202F028F8002010BD38B50D46B6
:103D000000206946664C08802380288802F0E4F988
:103D10002071FF2817D0E0886A460D3080B202215A
:103D200002F012F8E0886A460C3080B2012102F0FD
:103D30000BF8A978E08802F0C9F90221362002F0D8
:103D40006FF8002038BD654A1B23DB02521C892115
:103D50005348FFF707FDF4E7F8B5514D0C462979B4
:103D60008022180A88427DD1E988208826468B1C4B
:103D70000027083698420ED1012100916188324611
:103D800001F0E2FFE079002875D05448082336227C
:103D90002988C01F10E00B1D984229D102210091F3
:103DA0006188324601F0D0FFE079002863D04B48AB
:103DB000298808233622801F02F0AAF806462879AF
:103DC00002F066F930807760E07A01067160A07ACF
:103DD000000401437160607A000201437160207A3F
:103DE000014371600098B070304602F0A3F842E0E1
:103DF0000B460A3398421BD104200090E07900283A
:103E000039D03648298818233622001F02F080F85E
:103E10000746287902F03CF9388062883146381D1F
:103E200001F0C8FFA078F8700098B8703846DCE759
:103E30000B460833984220D1032100916188324615
:103E400001F082FFE079002815D024482988062354
:103E50003622401F02F05CF80646287902F018F975
:103E6000308000E018E0B780607A0102B180207AEB
:103E70000143B180B6E7002207E00D31884204D14A
:103E80006188324601F060FFF5E7A079012803D18F
:103E90002188287902F02CF90020F8BD02290000C1
:103EA000688000203469002036690020676C00209B
:103EB000466900207A6C0020566900208D6C002035
:103EC00066690020A06C002076690020B36C002099
:103ED0000102000086690020C66C002009D800009D
:103EE00010B5054A180A1279904202D1088800F0EC
:103EF00026F8002010BD00006880002010B50821C1
:103F00001A4802F0D1F81A49362002F0D3F80021FD
:103F1000362001F085FF10BD70B5144D0646298886
:103F200018233622134801F0F3FF0446287902F0E3
:103F3000AFF82080A670204601F0FCFF70BD70B580
:103F40000A4D0446E888002102F0C0F80948298893
:103F500004233622001F01F0DBFF048001F0EAFF9A
:103F60000121362001F05CFF70BD00006880002058
:103F70009869002005D80000FEB53B4E1C207080DB
:103F80001D4617463446088800F082F802903748EC
:103F9000334601900833132202A90097A01D02F0B6
:103FA0008FF8040008D1F088002102F08FF8044651
:103FB00001211C2001F034FF01231C2229462C483A
:103FC00001F0A6FF047001F0B5FF0020FEBD70B542
:103FD0000C4625490B802078082814D8CA88083157
:103FE000415C51188DB2822D0BD0617800F063F8DE
:103FF000010009D16D1C6178A8B2A21C01F0A4FED9
:1040000008E0822100E08121194B17485B1CDA1C73
:10401000FFF7A8FB002070BD70B51D460C46088850
:1040200002F05AF8104AFF281071158009D0A178C3
:10403000D08802F04BF802211C2001F0F1FE002094
:1040400070BD0B4B89219B1C9A1C0748FFF78AFB0C
:10405000F5E710B5044A180A1279904202D108888F
:1040600000F03EF8002010BD72800020E8690020BA
:104070000170000010B51221244802F015F82449FF
:104080001C2002F017F800211C2001F0C9FE10BD11
:1040900030B503460120002103241A46CA40D20746
:1040A00004D04D0022466D1CAA401043491CC9B2E1
:1040B0000929F2D330BD02460020122901D98D20F2
:1040C0007047062A06D0072A07D0082AF8D1072900
:1040D000F5D170470829F2D170470629EFD3704710
:1040E00070B50A4C0546218802231C22094801F0BC
:1040F0000FFF058001F01EFFE088002101F0E6FFC0
:1041000001211C2001F08CFE70BD00007280002097
:10411000FC6A00200470000038B501246846047071
:104120000C21514801F0C0FF4F4D6946EC702A1D2B
:10413000352001F0F5FF002800D02C7100F099FB2C
:104140004A49322001F0B6FF0021322001F068FE1A
:1041500000F0C6F838BD10B500F06AFC10BD10B50F
:104160004148022380783222010241480E3101F099
:10417000CFFE012101701321417001F0DBFE10BD63
:104180003C4B10B59A4201D91A4602E0002A00D1F0
:10419000012201F0CBFF10BD10B5044632482C239C
:1041A00080783222010232480E31801E01F0B0FECA
:1041B00001462030047200224272084601F0BAFE25
:1041C0002D49012008704F20FDF7E2FF4B20FDF73D
:1041D000DFFFFC20FDF7DCFF142232212748FFF728
:1041E000CFFF10BD10B5502332220D21244801F01D
:1041F0008FFE044600F061FB204601F09BFE022189
:10420000322001F00DFE10BD1D4810B501233222F1
:104210000D210B3801F07CFE0221017001F08AFEB5
:1042200010BD10B500F023FC10BDF8B506461448CB
:1042300015460F46252332220D21C01C01F068FED1
:104240000446012020772046062239461D3001F021
:10425000B1FD2320065565822582204600F028FC0A
:10426000204601F067FEF8BD848000200C6B002022
:1042700004380000307500004480002001C80000B0
:104280000E34000010B501F057FF254901F04AFD3A
:104290002448081810BDF8B5234D0646A87600241A
:1042A00001F04AFF2919641CE4B20874082CF7D302
:1042B00000241027381BB04201DD002007E001F088
:1042C0003BFFC117090E0918090A0902401A2855AF
:1042D000641CE4B2102CEDD301F02EFF2883F8BD4E
:1042E00010B52421104801F0DFFE00F0C8FA10BD1F
:1042F00010B50E4802238078322201020C480E319C
:1043000001F006FE0D2101700749203189784170C6
:1043100001F010FE0321322001F082FD10BD0000EB
:10432000A0BB0D00A08601009080002084800020AA
:104330001A38000010B5084609781C460B0001F039
:1043400087FD080520202008181B1E2000F0B3FB65
:1043500017E04178012904D0002902D0022903D0B6
:104360000FE000F0A9FB0CE01146204600F0ADFB89
:1043700007E000F0A2FB04E000F0A0FB01E000F089
:104380009EFB002010BD10B50878304C801E030045
:1043900001F05EFD020214188878A070C0070AD0F0
:1043A0002B492A4A4879203AD07628480622001F0D
:1043B000891D01F0FFFC00F083FB03E0FFF7CFFE57
:1043C0000020A070002010BDF8B518460D4601462B
:1043D0001223204801F09CFD0446284600F071FBA2
:1043E0000027002821D0194EB078C0071DD03046D4
:1043F0000822A91C103801F0E5FD002815D130462F
:104400002038018B2A8891420FD101212170807EB2
:104410006074314610222039601C01F0CBFCB0786A
:10442000FFF7BAFE00F050FB00E02770204601F0D5
:1044300081FD2078002801D1FFF791FE0020F8BD12
:1044400010B500F040FB002010BD0000B08000203F
:10445000848000201838000010B5104601F0F2FCEE
:10446000002809D1012332220D21484801F050FDD6
:104470000121017001F05EFD002010BD70B50878CB
:1044800015460F282DD008DC01280DD002282CD08D
:1044900003281CD00E2830D11FE0102825D0112869
:1044A00023D0122829D123E04878002825D1374885
:1044B000222332220D21801C01F02AFD04460146F0
:1044C000284600F0D5FA204601F034FD15E0487882
:1044D000002812D100F0D7FA0FE0487800F0E1FA96
:1044E0000BE0487800F0DEFA07E000F0E0FA04E0C4
:1044F0004878442801D100F0DDFA002070BD70B585
:104500001C4610460D4601F09DFC022805D12049AD
:10451000200A8870284600F0B3F9002070BD70B5FD
:10452000087815460C460A2810D1104601F08AFC7E
:1045300004280BD16078002802D000F0B0FA05E022
:104540000521284601F06CFC00F0AAFA002070BD9D
:1045500010B5104600F057FA002010BD10B51046F7
:104560000C4601F06FFC012808D12078002805D105
:10457000FFF7F1FD002801D000F095FA002010BDF2
:1045800010B5084600F095FA002010BD0234000076
:1045900084800020F8B50120FDF710FFFDF71CFF17
:1045A00085B2FE4E0027FE4C002D18D06079012800
:1045B00015D0FC480078012811D0284601F0B8FB3E
:1045C0000022F94B01F004FA0022F84B01F00EFA38
:1045D0000022F74B01F0B2FB01F09CFA3070284644
:1045E00001F0A6FB0022F04B01F0F2F90022134685
:1045F00001F0A8FD02D8002D00D03770E849E0781E
:10460000327810310A54401CC0B2E070A278002AFF
:1046100006D1402202E00A54401CC0B20A28FAD354
:10462000DF480A211030FDF7E5F96070E0780125D8
:104630000A2801D3A570E7706078642802D9642045
:10464000607026E0142824D8DA4803210088064642
:1046500001F062FB002907D00021022001F09CFF3D
:10466000A07901280AD00BE00621304601F054FB66
:104670000029F5D1022001F06DFFF1E7CE48077067
:104680006078002805D114223221CC48FFF778FD4C
:10469000E571CA486179801E012905D014223221B2
:1046A000FFF76EFD0020F8BD322101F0D7FBF9E7DE
:1046B00010B5BB48017AC148401E002904D06422CD
:1046C0003221FFF75DFD02E0322101F0C7FB00203F
:1046D00010BDF8B50220FDF771FEB14D0024287918
:1046E000B74F002802D13C8001202871FDF774FEED
:1046F000E97AAB4E4A001A36B052491CC8B2E87289
:104700000090308871884018B1884018032101F06A
:1047100003FBE8810098032800D1EC7201210846D0
:1047200001F03AFF0021012001F014FF07210220CF
:1047300001F010FF0021084601F00CFFEB89112267
:104740005201934202D23888012836D99D489E49A9
:1047500093422DD39D4B01221A800A88312A1ED9FB
:1047600004702C713C800C800721022001F014FFA2
:104770000021084601F010FF34807480B480F4807A
:104780003481EC818D48EC726C7114223221801ED0
:10479000FFF7F6FC3221894801F060FB06E0322287
:1047A00032218648FFF7ECFC012068710020F8BD3B
:1047B0002C713C800C800470D6E73C22F0E7F8B501
:1047C0000220FDF7FBFDFDF707FE754CE17A26465A
:1047D0004A001A36491CB052CFB2E772308871884D
:1047E0004018B1884018032101F096FA0025E081B5
:1047F000032F00D1E5720021012001F0CDFE01213F
:10480000084601F0A7FE0021084601F0A3FE07219B
:10481000022001F09FFE694FE0897F1C96281BD380
:10482000684805700721022001F0B6FE0021084605
:1048300001F0B2FE35807580B580F5803581E58167
:10484000E572657114223221F81EFFF799FC3221BE
:10485000384601F003FB06E0322211463846FFF7E6
:104860008FFC012060710020F8BD002070470020FF
:10487000704710B500F060FF00F068FA10BD704797
:1048800010B5534CA078FF2814D04C483221001D9D
:1048900001F0E4FA0521322001F0C2FA208800F08C
:1048A00059FF00F071FA00F079F94A488078FFF773
:1048B00073FC10BDFFF796FC10BDF0B504463F48F1
:1048C000322293B01146401CFFF75AFC3B48142299
:1048D0003221801EFFF754FC3148012101700E2067
:1048E0002070002767709620A081E0810720207447
:1048F00061741C20E074254622461F2020351432A6
:1049000028741646511E0B2001F00AFC002805D021
:104910000A22E27430A1304601F04CFA22463132CC
:10492000511E0C20119201F0FBFB002805D02F74C2
:104930003A462CA1119801F03DFAE07C1A21081AA0
:1049400045B2002D5DDD3E206946087001AA0220B7
:1049500001F0E6FB002806D00D226846027022A175
:1049600001A801F0F5FB68460078002849D0A8426C
:1049700000D2054669460D70E07C6D1C8555E27CD1
:104980002046092115301154E17C401C0818694665
:104990000A7801A901F00EFAE27C2DE0D96C002022
:1049A000C891002030900020001883400000614032
:1049B0000000594010800020446C002004C8000012
:1049C00016800020456C0020188000201A800020EE
:1049D00084800020B0800020090303180218041806
:1049E000F5FE000002FF000044413134353830202C
:1049F00054454D504C00000069460878801C101842
:104A0000E07413B0F0BD10B5044653A0FDF7C6FB2B
:104A1000204601F017FA032803D0052801D0042806
:104A200005D10221322001F0FBF9FFF7DBFB10BDBD
:104A300070B500244E49042008734E4DE8780428D0
:104A400012D2012807D0022802D0032808D105E09D
:104A500000F098F804E000F070FE01E000F088F942
:104A6000E878401CE87000E00124204670BD7047E3
:104A7000032008700A204870002048820875487595
:104A80001720C882704710B50121322001F0C8F903
:104A9000FFF761FB002801D0FFF7A4FB10BD7047B2
:104AA00070477047704710B5FFF79CFB10BD70470B
:104AB000704770477047704770477047704770473E
:104AC00070470120704770477047704710B532201B
:104AD00001F0B8F910BDF8B5254C0025607A264FD5
:104AE000264E052827D2A17A002912D02449A57282
:104AF0000978002901D0C00717D13878012814D0CF
:104B00000221012001F048FD0021022001F044FDB6
:104B10000BE00120A072022101F01CFD0021022007
:104B200001F018FD607A401C607214223221304678
:104B3000FFF726FB0DE00221012001F02DFD0021F1
:104B4000022001F029FD65723D703221304601F0EE
:104B500085F90020F8BD00006170705F64697363BF
:104B60006F6E6E6563745F66756E630A0D0000009C
:104B7000C8910020848000203C80002001C80000F3
:104B80004480002010B50223322237210B4801F067
:104B9000BFF90021018001F0CDF910BD10B537211A
:104BA00004233222880201F0B3F932210180044942
:104BB0000988418001F0BEF910BD000005DC00004D
:104BC0008480002010B510460C4601F03BF9012806
:104BD00009D1322201231146900201F099F921787E
:104BE000017001F0A7F9002010BD000010B51046BB
:104BF0000C4601F027F9012809D132220123114680
:104C0000900201F085F92178017001F093F90020FC
:104C100010BD70B54A4C0D46207814283DD2A978B5
:104C200000293CD0E168002933D0C00618D4207C8C
:104C3000EA78811850292ED842494018291D01F0E0
:104C4000B9F8207CE9784018C0B22074E16881424C
:104C500001D100F034FA207C18E000F0A7F81EE043
:104C6000EA786069FF2381180133994213D83649E5
:104C70004018291D01F09EF8E978606940186061CC
:104C8000E168814201D100F0D8FB6069E1688842A7
:104C900005D90520E1E70720DFE70820DDE7002050
:104CA00070BD08B58878002806D04868694600F0CD
:104CB000BEF8009800F021F9002008BD10B58878F2
:104CC00000280ED01E4A49689160107802280AD048
:104CD000032808D0122804D0132802D0082000F09E
:104CE00065F8002010BD52680006104301F036FA46
:104CF00000F003F9F5E770B588780D4600281DD05F
:104D0000A888002805D00E4C2178CA0603D4820753
:104D100001D005200EE0142910D2C90605D4502870
:104D200007D800F01FF8A88807E0FF21013188426A
:104D300003D9072000F03AF800E0E060002070BDE1
:104D4000B8800020DC6C00202C6D0020FD48002184
:104D5000017441618161C160FB4A017711651421D1
:104D600001707047F748002101744161C1607047CC
:104D700010B5012332223621F44801F0C9F8002190
:104D8000017001F0D7F810BD10B536211023322282
:104D9000880201F0BDF8EE49098801800121817087
:104DA00000214160816001F0C5F810BD10B50446D6
:104DB000E84804230288E5483621401E01F0A8F89F
:104DC000E34909880180847001F0B4F810BD10B582
:104DD000DC4C2078032801D1FDF7DAFB1420207089
:104DE00010BD08B5AA2069460870D6480178132975
:104DF0000AD1416801226846891CFDF78CFD40B24A
:104E0000012801D0062008BD022008BD10B5CD4CF8
:104E10002078C00601D4012000E01020FFF7C6FF73
:104E2000002020746061A061E060207710BDF8B5BB
:104E30000F460021060EC34C35463960142E17D29A
:104E4000257080B26060002D01D0012D07D1C249CC
:104E5000280608436160002101F080F9386020785D
:104E6000122801D0132803D1606802280BD860747F
:104E7000112E26D00EDC022E20D006DC002E1DD0F6
:104E8000012E13D11AE0112022E0032E16D0102E8D
:104E90000CD116E0FD2E2CD004DC122E0ED0132ED9
:104EA00004D10BE0FE2E16D0FF2E0CD00820FFF709
:104EB0007DFF1420207000203860F8BDFFF7A6FFAA
:104EC000F8BD082004E0FFF782FFFFF74BFF032047
:104ED000FFF76CFFF8BD207F002801D0042001E01F
:104EE000FFF77FFFFFF762FFFFF771FFFFF73AFF62
:104EF000F8BD002001F038F9F8BD10B5044695481A
:104F00000423028891483621801E01F001F80460D4
:104F100001F010F810BDFEB506460020012424045F
:104F20000090019003460246014602902512304649
:104F3000FDF7D8FAFDF7B2FC884980B2401802D0DC
:104F4000012805D102E00124640401E00124A40445
:104F500029462046FDF75CFBFEBDF8B504467948BE
:104F60007F4E017A00270906090FA171027AFF43DB
:104F700013071B0FE37102891204120F22700289BA
:104F80001205120F627082681202120FA2708268FC
:104F90001203120FE2708268120F22718068000102
:104FA000000F6071282041438A1999005058002849
:104FB00001D0384600E001205050A579E279C117B0
:104FC00001F0D8F82A0101F0D5F8664A136855684F
:104FD0001843294310605160A07828214843821962
:104FE000E07881005058002801D0384600E00120C8
:104FF0005050A578E278C11701F0BCF82A0101F001
:10500000B9F8584D2A686B681043194328606960E5
:10501000207928214843821960798100505800285E
:1050200001D0384600E00120505026796279C1173E
:1050300001F0A0F8320101F09DF82A686B68104376
:105040001943286069602078282148434449411861
:10505000607880000A58002A00D101270F50384696
:1050600026786278F91701F085F8320101F082F8AC
:105070002B686A681843114328606960012000901A
:1050800003263602617820780823324601F096F82C
:1050900000250095E179A0790723324601F08EF8CA
:1050A0000095E178A0780623324601F087F8009554
:1050B000617920790523002201F080F8F8BDFEB562
:1050C000204C02252078EE01002805D0012803D0CD
:1050D000032828D0082566E01F4F0006384300212A
:1050E00001F03CF88004217C000C0A18B24227D859
:1050F000301A154A401A121F891880B254321018FB
:1051000005E00A6804C0227C121F2274091F227C59
:10511000002AF6D1207800210006384301F01EF85D
:10512000FFF7EBFE3BE00320616800060843A1683F
:1051300001F014F88004070C207CC019B04213D988
:10514000072530E0B8800020DC6C002008D8000083
:105150008480002068800020286E0020F010FFFF6F
:10516000A0900020989000206846FFF7F6FE684661
:10517000FFF7D1FE6068227CC119FE48FDF7CBFB2A
:10518000217C814200D00625207861680006084312
:10519000A16800F0E3FFFFF7B0FE022D03D1FFF797
:1051A00016FEFFF7DFFD2846FFF700FEFEBD70B5D7
:1051B00002460020160BC04336030C0B090500D035
:1051C000641C002C01D000250BE0012400252021C7
:1051D0003046FDF73AFB012109037618002802D179
:1051E0006D1CA542F3D370BD0021FF2802D0401CE6
:1051F000C0B2704708467047FF2802D0FF2905D08B
:1052000006E0FF2908D0002906D001E0002801D0DF
:10521000884201D9022070470120704710B5D64C52
:10522000034600202478C043132C02D11846FDF712
:10523000B4FA10BDF7B598B000271A980C463E4650
:10524000402805D32078702802D16078512802D0F8
:1052500012201BB0F0BD6568C7492846403008627F
:105260001F210C2209036846FFF7D8FF0C2847D1FD
:1052700068460078702803D168464078522801D0EB
:105280001420E6E70198119002981290002D03D0A7
:105290001199401AA84201D21320DAE76846402249
:1052A0001090FFF7BBFF40282AD16846C0781490C1
:1052B0006846817803A8169020460C301590AA29DC
:1052C00007D168460078702803D168464078512895
:1052D00003D00127002014900BE010221699159896
:1052E00000F070FE002804D1E0690799884200D1DF
:1052F0000227402212991098FFF790FF402801D012
:105300001620A6E76846C078139068468078AA28D9
:1053100007D168460078702803D168464078512844
:1053200003D00126002013900BE010221699159847
:1053300000F048FE002804D1E0690799884200D1B6
:1053400002261898002801D0022807D9012F11D071
:10535000012E1CD013991498FFF74EFF1590FF22D1
:105360004021684600F00CFF1598022815D0022F46
:1053700024D004E0FF224021684600F001FF7E496E
:1053800011984860002E1BD0022E19D00EE0FF228B
:105390004021684600F0F4FE01E0022E0ED076496E
:1053A00012984860002F07D0022F05D00126724FB7
:1053B0003878132809D00FE0149802E0152048E748
:1053C0001398FFF711FF0646F1E74035A9B2786858
:1053D000FFF7EDFE00282CD16846C670606801908A
:1053E000A068029020460C300EC8A069069003A861
:1053F0000EC0E069079021786846017061784170BD
:105400002020015D08A801703878132813D11A9A5A
:105410007968403A2046154640304031FDF77BFA26
:10542000A84206D1402279681098FDF774FA402806
:1054300001D006200DE700200BE77CB54E4C4D4A0D
:10544000022600205032616904E0237F155C6B4026
:105450002377401C8142F8D82078132804D00826EE
:10546000F0B2FFF7A3FC7CBD6846FFF776FD684607
:10547000FFF751FD6269002A02D0A069002818D008
:10548000A169206A8A18431C9A4220D8824201D915
:10549000401A60616068254641183648626950309C
:1054A000FDF739FA6969814211D1A8694018A861EC
:1054B0000EE03049607C5031FFF7BCFE002801D07F
:1054C00086B205E06269A1698918A16100E006263B
:1054D00000206061A069FFF710FDC1E770B5274C9F
:1054E000274D2146284600F039FE0104090C06D05C
:1054F000204A83B250322146284600F047FE70BD54
:10550000F8B504461C481F4F017A00250906090F0B
:10551000A170017AED430907090FE17001890904BF
:10552000090F217002891205130F63708068000C47
:10553000606028204143CA1999005058002801D0C2
:10554000284600E00120505026786278C11700F00C
:1055500011FE320100F00EFE0B4E326873681043EC
:10556000194330607160A07828214843C119E07860
:1055700080000BE0DC6C0020B880002000030605F2
:1055800000280003A0900020989000200A58002ACC
:1055900000D101250D502846A778E278E91700F0E0
:1055A000E9FD3A0100F0E6FD3368726818431143E3
:1055B00030607160002500956178207809232A46C3
:1055C00000F0FCFD0095E178A0780A23002200F0AD
:1055D000F5FDF8BDFEB510460D4600F033FC012880
:1055E0007ED12878002879D10E2332221C2143480D
:1055F00000F08EFC0446002020700B2767703A46AE
:105600003FA1A01C00F0D6FB204600F093FC0A232B
:1056100032221C21394800F07BFC04460120207016
:1056200007206070024639A1A01C00F0C3FB204691
:1056300000F080FC0B2332221C21304800F068FC73
:1056400004460620207008266670324631A1A01C50
:1056500000F0B0FB204600F06DFC0E2332221C212E
:10566000264800F055FC04460520207067703A4635
:105670002BA1A01C00F09EFB204600F05BFC0A273B
:105680000D2332221C211D4800F042FC0446042058
:10569000207067703A4625A1A01C00F08BFB2046C5
:1056A00000F048FC0A2332221C21144800F030FC90
:1056B00004460670072060700120A070D221684661
:1056C00001800B21C9014180710181800622694658
:1056D000E01C00F06FFB204600F02CFC012300E0F2
:1056E00008E032221146900200F012FC2978017085
:1056F00000F020FC0020FEBD00207047027000007A
:105700004469616C6F672053656D690044413134B1
:1057100035383000123456FFFE9ABCDE000000001F
:10572000765F332E35302E312E353400765F332EB2
:10573000302E362E32350000704710B51C21022362
:105740003222880200F0E4FBFF217431018000F076
:10575000F1FB10BD10B50446042332221C2105487C
:1057600000F0D6FB0480012181700021C17000F09F
:10577000E1FB10BD03700000024670B54A40D30F34
:10578000DB0740002DD04A002AD0010E140E000283
:1057900012020919400A520A8418E50104465443CA
:1057A000000A120A2E045043A4194219200CC543C2
:1057B000AA18120C0125AD03521C521912047F398C
:1057C000240400D0521C104301D44000491EC2B230
:1057D0000C06C0092018401C4008802A02D003E0B3
:1057E000002070BD40084000002900DA0020184366
:1057F00070BD70B502464A40D50F40004A00ED0723
:1058000040085208002814D0002A12D0C40DD30D2D
:1058100041020120C0055202490A520AE41A09183D
:1058200012187D34914201D3641C00E04900002C21
:1058300001DA002070BD0023914201D3891A03438D
:10584000400849000028F7D100290AD0914202D12E
:105850000121C90705E0914201D2012101E00121A6
:10586000C943E005C018401900F0B5F970BD420009
:1058700005D04200120E52428A4201DB00207047DE
:10588000C905081870470000F0B50746084658409B
:1058900087B0C00F049048000E46590040084908E0
:1058A000BC1A884105D2384631461E4617460B467B
:1058B00002465800400810434CD0300D039040057C
:1058C0005900400D490D0590401A0290402872DAA7
:1058D00018030121000B0905084301900498009268
:1058E000002805D001995242002088410092019081
:1058F000029840210A1A0199009800F03BFC0546E5
:105900000C466B4607CB00F053F9C0197141039A5E
:105910000E0D0023D71756401A467A40164344D03E
:10592000049A002A2DD0029A012A039A15DC120546
:10593000C01A914101263605001C7141D20F059E07
:10594000D2070093019202962A46234600F024FCD7
:1059500007B0F0BD38463146FAE71605224A0F4631
:10596000B218C01AB74101210905001C4F410018A7
:105970007F41114618187941E20F10436D196441B7
:1059800013E0E2076D0815436408C2071443039A45
:1059900001261205C01A91413605001C7141CE073F
:1059A000400830434908C01851412A46234600F0B8
:1059B000F9FBCDE7FFE7049801224000C117121A56
:1059C00000238B4104983146C417381AA141EEE7F1
:1059D00030B40124E407634030BC55E730B40124FF
:1059E000E407614030BC4FE70000E0FFF0B50C4633
:1059F0005C4085B0E40FE40703944C000026640883
:105A000059009446490802460296224321D0624634
:105A10000A431ED06200570D4A000E032303550DA2
:105A2000012402462C492405781B1B0B360B401819
:105A300023432643614600901C46501AB44103D3C9
:105A40000098401C009002E0921800985B410028EA
:105A500003DA0020014605B0F0BD00200121090550
:105A60000746864611E064461D46141BB54106D321
:105A70006546521BB341744607430C43A646CD0707
:105A800040084908284392185B4105460D43EAD176
:105A90001046184313D060461946504071400843E1
:105AA00006D06046101AB34106D20122002306E058
:105AB00000220123DB0702E00122D24353100098A9
:105AC00074460105381C6141029C039D001969411F
:105AD00000F068FBBFE70000FD03000010B50022E6
:105AE0009623114600F07FF810BD410040020122CC
:105AF000400AD205090E80187F2901DA002070477C
:105B0000962903DC9622511AC8407047963988407E
:105B1000704700004A0009030123090B1B051943C4
:105B2000094B10B5520D9A4201DA002010BD064B08
:105B300034339A4203DC9A1A00F03AFB10BD034951
:105B40005118884010BD0000FF030000CDFBFFFF8F
:105B5000C20FD207400040080BD0C10D0723DB0164
:105B6000C91840020905400A1143C2084007114301
:105B70007047002001467047CB0FDB07490010B586
:105B8000490802460A4307D00A0D07240903E40125
:105B9000090B121B002A01DC002010BDC900440FB4
:105BA0000C43C100E018D205801800F014F810BDB5
:105BB00010B5202A06DBCB170846203A1041C11742
:105BC0000B4306E00B461341D0402024A21A91401B
:105BD0000843194610BD002904DA401C490001D1D0
:105BE00040084000704770B40024050C05D1102413
