:020000042000DA
:1000000000980020A9040020B1040020C9040020A9
:1000100000000000000000000000000000000000E0
:10002000000000000000000000000000E1040020CB
:100030000000000000000000F9040020FB04002084
:10004000C3370020053103000D310300493800207B
:10005000553800208D310300AB380020B338002024
:10006000A3240020FD040020CB380020AD31030084
:10007000F7230020FD0400204B1B02004B1B020055
:100080004B1B0200FD0400204B1B0200ED22002050
:10009000F12200200D230020112300201523002031
:020000042000DA
:1001600032000000230800200B210020E13900208C
:10017000000000000000000063800200BD8002005B
:10018000571F0020FB800200198102003581020008
:100190005D81020095370020FF050020271F002009
:1001A0003F1F002000000000000000003F00000092
:1001B000F48B002000040000740B080048010000CC
:1001C0006807080000040000C80C080020050000B3
:1001D000000000002000000048000000580000005F
:1001E0006800000004010000160100002801000062
:1001F0002E010000202A00008E2E000001000000C9
:100200008813000095210020E9600200FD930200A0
:10021000472D002019280300A57402009533002003
:1002200003000000D5200200F13900200400000086
:10023000D74902000F490200831D020063910200AA
:10024000B7910200BF910200078202007182020092
:10025000986A0020AD830200938402004185020069
:1002600015860200378602005F860200758602004E
:10027000F9870200258902005D8A0200D38C020002
:10028000098D02000F900200438D0200278E0200AC
:10029000F98E0200478F0200991E0020D58F0200C0
:1002A00049510200775102002F5202001000000055
:1002B00020030000803E000000000000000000005D
:020000042000DA
:1002C000504600030003983A6400F401B80B000C98
:1002D000B80B120030003000CD009A01120024004B
:1002E00030006400B0001800280012001200D0078F
:1002F0000000FFFF00000000000000000000000000
:100300001F000002444131343538302D30310000B7
:1003100000000000000000000000000000000000DD
:0403200000000000D9
:020000042000DA
:10034000FFFF010000C201000000000000000000EB
:100350000000F4010100011B0A051AFFD20002157A
:10036000585CDE931B0142CC9A1325009BEDC65EC0
:1003700000000000C5000000000009FF00605257A7
:100380002D424C450000000000000000000000006D
:10039000000000000000000000004D31305F31001F
:1003A000000000000000000000000000000000004D
:1003B000000000000000000000000000000000003D
:1003C000000000000000000000000000000000002D
:1003D0000000000000000000000000000000D00746
:0403E000064064323D
:020000042000DA
:100440000348854605F08EFD00480047C72002009E
:100450000098002010B5114906200880FF2010499F
:10046000013008600F4988683E2290432E30886032
:100470000021052000070180028A0F231B021A4376
:1004800002820122D204032308461B038418216040
:10049000001D9842FADB62B610BD00000034005027
:1004A00080E100E0003300501548804715480047C0
:1004B00004207146084203D0EFF30980124908472F
:1004C000EFF308801049084704207146084203D022
:1004D000EFF309800D490847EFF308800B490847FF
:1004E00004207146084203D0EFF309800849084709
:1004F000EFF3088006490847FEE7FEE7FEE7000045
:100500005504002041040020E515002015050020B9
:100510008705002005221207518A80231943518242
:10052000114903680B6043684B6083688B60C36844
:10053000CB6003690B6143694B6183698B61C0695F
:10054000C8610A48836A0B62C36A4B62036B8B62A1
:10055000C36BCB62436B0B63806B4863908A8006EE
:1005600001D500BE7047FEE70018080000ED00E06E
:1005700002890889FF49101A80B2884201D90120F6
:1005800070470020704781692039897F082904D28B
:10059000F94A8900515881617047FEE7F848F749E8
:1005A0000161F8494161F8498161F849C161F8493F
:1005B0000162F8494162F8498162F849C162F8492B
:1005C0000163F8494163F8498163F849C163F64919
:1005D000EB485C3140300160F5494160F54981608C
:1005E000F549C1600120F549C0060860F449CA69AF
:1005F0001202120ACA61F14980390860704710B5C9
:10060000F0490020086001F033FC01208007016BF5
:1006100049004908016310BD70B50221084606F083
:10062000AFF800250126E84C00280BD0E570E08AE1
:10063000E649884210D2E08A00280DD0E0780028F0
:1006400005D009E0E08A401CE082E670EFE7A67280
:10065000E582DFA001F094FEE08AE349884201D9F7
:10066000E672E582E07B052801D9A673E57370BDCB
:10067000F8B5FFF7D1FFD44DDC4EA87A002401274E
:10068000012831D1AC72707800282DD10220307150
:100690000146012006F0E4F8D5480470D5A001F029
:1006A0006FFE04F0DBF90721022006F0D9F81420D0
:1006B00001F000F801F07CFA0721022006F0F2F8C0
:1006C000D348D6490480D3480780D3480480032008
:1006D000C870B470777028462C731830048044803A
:1006E0000221012006F0DEF8E87A01283BD1EC7205
:1006F000707801285FD0CA48AC74048002210120C0
:1007000006F0AEF8BA48047004F0A8F907210220F8
:1007100006F0A6F8142000F0CDFF01F049FA1920E8
:10072000400100F0C7FFFF20913000F0C3FF01F04F
:100730003FFA0721022006F0B5F802203071B448D4
:100740000480B5480480B7480480BB20B07177703E
:100750002C732F72B4709C4802211830048044809E
:10076000012006F09FF8A87B012823D1AC73072154
:10077000022006F075F8142000F09CFF01F018FA32
:1007800023242401204600F095FF01F011FA2046B1
:1007900000F090FF01F00CFA0721022006F082F829
:1007A00001F057FA2F74204600F084FF0221012047
:1007B00006F056F8F8BD9CA001F0E2FD02210120F0
:1007C00006F04EF80721022006F04AF8142000F047
:1007D00071FF01F0EDF94B20000100F06BFF01F01B
:1007E000E7F90721022006F05DF8E87B401CE8737A
:1007F0008B4804808B480480AC74BB20B0712F728E
:10080000A9E710B5704C85B0032100206B461C345D
:10081000625C5A54491C5040C9B21329F8D905B03A
:1008200010BD96B000268E4801240D9604708D49A7
:1008300008200F27088005F0A7FB06F079F801F0E3
:100840006AF90021022006F00BF85F480470007876
:10085000012802D1032106F003F80721022005F048
:10086000FFFF02F026F905460C467FA001F088FD47
:10087000210E0846009101F08DFD200C0A90C0B2B7
:1008800001F088FD200A0990C0B201F083FDE0B2BA
:1008900001F080FD2102280E08431090C0B201F043
:1008A00079FD2104280C08430F90C0B201F072FDBD
:1008B0002106280A08430E90C0B201F06BFDE8B291
:1008C00001F068FD6846009901700A980B91C1B269
:1008D0006846417009980A91C1B2684681700991D1
:1008E000E1B2C17010981191C1B2684601710F98C0
:1008F0001291C1B2684641710E981491C1B2684616
:1009000081710F91E9B2C17110910F210622090383
:100910005D4802F034F800240322234612022146E7
:100920002046009405F0D0FD58490868002801D001
:10093000601E00E00120564A08601368C117556820
:1009400018432943106051600A2000F0B3FE01F003
:100950002FF90C2000F0AEFE01F02AF90C2000F077
:10096000A9FE01F025F90C2000F0A4FE01F020F909
:100970000C208FE030750000786A00209427030077
:100980000084004062B600DF28A30200704701DF48
:100990001CCA0200F8BD02DF40CB0200F5E703DF0E
:1009A00084D4020004DF89B0BC330200F8BD05DF47
:1009B000F8BD06DFEC0C030070BD07DF80E100E04E
:1009C00000ED00E08C03080020900020B80B000030
:1009D0000A0D6A69616E2063652064616F20647529
:1009E000616E20616E0A0D00AC0D0000506F00209A
:1009F000258000200A206475616E20616E20204DE4
:100A00004F544F525F524553455420202000000060
:100A1000769100207C910020789100208C9100201C
:100A20007A910020649000200A206368616E67203C
:100A3000616E2C4D6F746F724F6E203D3D20312CD6
:100A40006469616E206A69207368692066616E67F7
:100A5000207A6875616E672074616920200000004B
:100A600026800020003300500A53504920666C61F4
:100A7000736820556E69717565204944204E756D07
:100A80006265722069732000D803002070900020F6
:100A90006890002000F00EFE01F08AF80C2000F0B3
:100AA00009FE01F085F80C2000F004FE01F080F84A
:100AB00001F0C2F80021022005F0F4FE0721022017
:100AC00005F0F0FEFD4902200871FD480178017033
:100AD000FC4801780170012005F05CFAFF25013522
:100AE0000D202946800105F05BFA02F067FD01F058
:100AF00075FA01F00DF9042000F0BAFC072000F0AF
:100B0000B7FC0A2000F0B4FC062000F0B1FC0B207A
:100B100000F0AEFC012000F0ABFC022000F0A8FCCD
:100B2000002000F0A5FCE848006805F03FFAA805A1
:100B300001682943016000F0CDFCE4480068AA2860
:100B400005D1142001F052F9142001F05DF903F0F1
:100B5000E3FBFFF754FDA22105200007C182DC481A
:100B60004188E0229143A0314180012005F024FA20
:100B700005F028FA022803D005F024FA01280BD149
:100B8000D4490820088005200007818A8906FCD402
:100B9000418A80229143418203F060FF7D20C000A2
:100BA00000F088FD14223221CB4803F0E9FBCB4D45
:100BB0004B202988C000814205D114223221C64829
:100BC00003F0DEFB2C8005252D072889000620D5A3
:100BD000A800006B00041CD405F0FAF9C00718D176
:100BE000042005F0FBF9009005F0FEF900980028BC
:100BF0000FD0B64800940068AA2802D1142001F052
:100C000003F90421684605F0F5F9002801D001F048
:100C100051F972B602F0FAFC69460877042806D04A
:100C200002280AD0032808D0012870D070E0AC4810
:100C3000007801280ED003200877288A0421084371
:100C40002882A848C06901286846007F17D9032870
:100C500002D010E00220EFE705F0D2F900280AD018
:100C600005F0D4F9002806D0032005F0D5F90028B6
:100C700001D002200AE002206946087708E0032834
:100C8000F9D105F0C9F90028F5D00120964908707E
:100C9000964B1969042001431961698A2022914306
:100CA0006982298A0222114329826946097F022921
:100CB000698A24D0014369827F2189018C46298871
:100CC0008022114329800021491CC9B20A29FBD383
:100CD000698A10221143698262468549521E4A611F
:100CE000298880229143298079494A88FF25013546
:100CF000AA434A8030BF19698143196108E0014362
:100D00006982698A102291436982EDE7FFE730BF6B
:100D100062B66A4D2878002809D10321012005F028
:100D2000C1FD0221012005F0BDFD72480470FFF7EE
:100D30009FFC00F09BFF0521022005F021FD00280B
:100D400003D06C490120887028706A488178012995
:100D50000AD169490988012903D068490988072906
:100D60001ED2847066490C8064490988072917D20D
:100D7000817C002914D18178012911D0604A118821
:100D80000B463C3B142B07D8CC22AA71C90711D1C2
:100D90005C4A0321D1700DE0502901D914802C70D8
:100DA000A979BB2906D155490988032902D801210F
:100DB000417000E044704F488078012802D1687883
:100DC000012806D0102F03D94F4800880D2874D071
:100DD000E2E00120A8704C4804804648807CEE2860
:100DE0001AD146480088062816D948480E2100889E
:100DF00005F018F900290FD10721022005F030FD78
:100E0000142000F057FC00F0D3FE0721022005F06B
:100E100049FD3E49012008803D481421008800908A
:100E200005F000F9002911D1324ADD219174AA2080
:100E3000A8714B210098EE794901884200D92C70A5
:100E4000517B1046002901D10121C1712948C07987
:100E500001281ED12748407B00281AD12D4900982F
:100E600088420CD20721022005F0FAFC142000F081
:100E700021FC00F09DFE0721022005F013FD062154
:100E8000E87905F0CFF81D4A118840181080AA2093
:100E900068711D480088B84249D318480088062860
:100EA00045D91448007B002803D116491820C87082
:100EB000AC70A87800283AD12EE039E0506F0020BD
:100EC00000000800202A0800049000203080002044
:100ED000200000500033005002C800008091002024
:100EE00054020800E0010020C406080000ED00E004
:100EF000008000402090002062900020649000203C
:100F00007A9100208C91002076910020749100202D
:100F10007C91002056090000F7A001F031FA03F09F
:100F20004DFC0120A870FE490873FE480480AAE029
:100F3000FD48008806282FD90721022005F090FCE3
:100F4000142000F0B7FB00F033FE4B20C00000F08F
:100F5000B1FB00F02DFE1920400100F0ABFBFF209B
:100F6000913000F0A7FB00F023FE4B20C00000F002
:100F7000A1FB00F01DFEEDA001F002FA0721022006
:100F800005F090FCE64833218174AA206871E54899
:100F90000E210480ED480180EC480088B84272D3ED
:100FA000E148008806286ED9DD48007B002803D17F
:100FB000E7491820C870AC70A87800280DD1CEA0E1
:100FC00001F0DEF903F0FAFB642000F07CFB012065
:100FD000A870D3490873D3480480D14818300188D9
:100FE000002902D1142101804180CD481830418868
:100FF0000088421F914205D0921F914202D01138C1
:1010000081420CD10721022005F02AFC142000F0B7
:1010100051FB00F0EFFD0721022005F043FCC14821
:101020000188C80704D1152902D2C9480321C1701B
:10103000BB4818300188C5480088401A142104F0C4
:10104000F7FF002902D02879002812D0B448817A0D
:1010500001290ED0BE490322CA7055218174AA21EC
:10106000A97100260121C171BA4804702879401E77
:1010700028716878002806D1B748B8490088C01B95
:10108000884200DD2C70B648008801287ED1B5A0CA
:1010900001F076F9B248A24E0480A3483474008867
:1010A0003C2807D80221012005F0DAFB4B20C000C4
:1010B00000F000FB7078002801D1AA20A871A34895
:1010C00001210480A4480180AE4811210480AE486B
:1010D0000170A04805210470022005F051FB002892
:1010E0000DD091480088062801D9EE20B074A74899
:1010F0000188FF20D730814203D2FF2005E0B4747D
:10110000F5E7A34804F08EFF80B20D99C0B2491CE8
:10111000CAB202A90D928854694688730190707909
:10112000012800D1B0710D98052803D100200D9041
:10113000012070717A4840790128487A897A32D042
:1011400042186946CB7A087B497B1818101840185A
:101150000D9904F067FF06466846417A807A0918BF
:101160006846C27A007B101809186846407B091847
:101170000198081AC117890F08188005000EE87138
:10118000002E22D0FF2E20D8654900E063E04A7A85
:10119000B31A052B02DA921B052A0EDB01220A7113
:1011A00018216B4A10E042186946CB7A087B497BCC
:1011B0001818101840180521CBE7654A1379052B3C
:1011C00003D201230B711821117101460B39BD297E
:1011D00013D85549098806290FD904F02FFF024674
:1011E0000B4600206B4904F087FD00226A4B04F097
:1011F0002BFF04F015FEC7B20CE00A2807D8002820
:1012000008D049490988062901D9B42702E0C8282D
:1012100000D90727424B9C7043480188052901D219
:1012200001221A71022907D2E978012904D1048028
:10123000EC701C7100200D9019791846012906D117
:1012400004714672587B00280DD055206871022128
:10125000012005F027FB3248817C332905D04178F5
:10126000012902D008E0AA20F0E72E490A88152AB1
:1012700002D1AA226A710C803549C978022902D1AB
:10128000417B002936D06979AA2903D0017A012946
:1012900000D08CE42248007C0128FAD000F0D9FC70
:1012A0001920400100F006FA28480088B84206D309
:1012B000002002A90C54401CC0B20528FAD31A48D9
:1012C00000883C2803D90221012005F0C9FA344DD9
:1012D0003249A868124B0170090A4170A9798170DE
:1012E0009A8AC270120A1049027109884171090A6A
:1012F000817157E091E000000A2053554F20534977
:10130000206170705F74696D65725F736574284DDC
:101310004F544F525F54494D455229200000000060
:101320002090002078910020649000200A20446FD3
:101330006E67205461692042616F204A696E6720A0
:1013400034206269626962696269200076910020D6
:101350008C910020008000207C9100206509000015
:10136000629000200A2044657465637473206120D4
:1013700064726F702044726F70494E543D3D31204D
:10138000000000007A9100205C6F00206090002037
:10139000C0D4010000004E4000003E401B0300008E
:1013A000506F00201421C1713549097801724672CD
:1013B000997C81720B99C1720A99017309994173E1
:1013C000119981731299C173149901740F99417421
:1013D00010998174FFF715FA0146A868C1743C2082
:1013E00000F068F900250A2000F064F92548405D06
:1013F00000F0C0FF022000F05DF96D1CEDB2142D6D
:10140000F1D3204D01201C3D68741F49062048710E
:101410001E480078012803D015E0AA21697139E738
:101420001BA000F0ADFF2648164A40891421801DFC
:1014300080B204F00FFE224800214089801D82B254
:101440001F4802F097FAA88A1E49401C80B2A88261
:10145000884201D90120A882EC71022068731A49E0
:10146000552048712C720221012005F01BFA10E76B
:10147000C106C90E01208840144908607047000069
:10148000BF9100203C9000208C91002024800020FF
:101490000A20424C452073656E64206461746520A7
:1014A00032302C202875696E74385F742A292628FA
:1014B00074784275666665725B305D2920000000B5
:1014C00096910020FEFF0000506F002080E200E0B7
:1014D000704700003E480178002902D08021417009
:1014E00070473C49002008703B49C8707047384835
:1014F0000178002902D081214170704735490120CF
:1015000008703549C870704731480178002902D009
:101510008221417070472F49022008702E49012016
:10152000C87070472A488178002904D0491E0906EE
:10153000090E817017D142780021002A04D0920749
:10154000920F0270417004E00278002A01D0521E0E
:1015500002701206120E017005D0012A02D0022A72
:1015600001D1D1E7C3E7704710B5194CA078401CF2
:10157000A0702078002805D104F024FD421CFFF75C
:10158000A9FF227010BD12490120C8707047104990
:101590000020C87070470E48C07870470020EFF3F5
:1015A0001081012282F31088052212071289120687
:1015B00005D40A48028901231A43028118460029EA
:1015C00000D0012181F310887047054800787047EA
:1015D0002780002054020800C6060800003300508F
:1015E0004680002005221207118A04231943118224
:1015F000118A022319431182118940231943118151
:10160000174B01211960174B08211980518A80233B
:1016100019435182144903680B6143684B61836825
:101620008B61C368CB6103690B6243694B62836959
:101630008B62C069C8620D48836A0B63C36A4B63DF
:10164000036B8B63C36BCB63436B074940310B6008
:10165000806B4860908A800601D500BE7047FEE727
:1016600080E200E0003300504018080000ED00E088
:1016700010B5012005F0C2F9032005F0B3F90022EE
:101680001146012000F0DEFE2A220121002000F098
:101690005BFF142005F0DEF9002005F0E1F90022DF
:1016A0001146642000F0EDFE00F0F0FE05F0B2F906
:1016B00010BD70475021484380B20146401E80B2A1
:1016C0000029FAD1704700227D23DB0006E00021CB
:1016D000491C89B29942FBD3521C92B28242F6D382
:1016E000704770B5FA4900200A6BC043002A01D048
:1016F000034600E00123DA179C0B92042243F54CC9
:101700000B6325689B0466682B4332432360626049
:101710008A6D002A01D0024600E001228A65236812
:101720009200656823602A436260CA6D002A01D076
:10173000024600E00122CA652368D2006568236082
:101740002A4362600A6E002A01D0024600E00122AC
:101750000A6623681201656823602A4362600A688A
:10176000002A01D0024600E001220A602568D31752
:1017700066682A433343226063608A69002A01D085
:10178000034600E00123DA179D0E92012A438B6184
:1017900025689B0166682B43324323606260CA68F8
:1017A000002A01D0034600E00123DA175D0FD200C2
:1017B0002A43CB602568DB0066682B4332432360F5
:1017C00062604A69002A01D0034600E00123DA176B
:1017D000DD0E52012A434B6125685B0166682B438D
:1017E0003243236062604A68002A01D0034600E069
:1017F00001234B60DA17DB182568524166682B43DA
:101800003243236062608A68002A01D0034600E008
:101810000123DA179D0F92002A438B6025689B00F5
:1018200066682B43324323606260CA69002A01D094
:10183000034600E00123DA175D0ED2012A43CB6193
:101840002568DB0166682B433243236062600A69C6
:10185000002A01D0034600E00123DA171D0F120110
:101860002A430B6125681B0166682B4332432360C2
:1018700062608A6A002A01D0034600E00123DA1779
:101880001D0C12042A438B6225681B0466682B43D7
:10189000324323606260CA6A002A01D0034600E036
:1018A0000123DA17DD0B52042A43CB6225685B045F
:1018B00066682B433243236062604A6B002A01D082
:1018C000034600E00123DA175D0BD2042A434B6381
:1018D0002568DB0466682B433243236062600A6D2F
:1018E000002A01D0024600E001220A6523686568EB
:1018F00023602A4362604A6D002A01D0024600E05C
:1019000001224A6523685200656823602A436260A9
:101910004A6E002A01D0024600E001224A6623688E
:101920005201656823602A4362608A6E002A01D0F2
:10193000024600E001228A662368920165682360FE
:101940002A436260CA6E002A01D0024600E00122EA
:10195000CA662368D201656823602A4362600A6F01
:10196000002A01D0024600E001220A672368120221
:10197000656823602A4362604A6F002A00D1012013
:10198000486721684002626821601043606070BD52
:10199000F8B50125032636020023324602212846E7
:1019A000009504F091FD00240221234622460846BA
:1019B000009404F089FD0021072332460846009474
:1019C00004F082FD0623324619460020009404F0FC
:1019D0007BFD0823324603210020009504F074FDAE
:1019E0000523002219461046009504F06DFD0223E0
:1019F000324603211846009404F066FD01230022BC
:101A000004210220009404F05FFD002332460421EB
:101A10001846009504F058FD00220F2301211046BE
:101A2000009404F051FD00220F230221104600947F
:101A300004F04AFD1723324607210020009504F0E8
:101A400043FD0023324619460120009404F03CFD7A
:101A50000121002332460846009404F035FD00239E
:101A6000324603210120009404F02EFD002332466B
:101A700019460220009404F027FD00231A46012194
:101A80000220009404F020FD00231A4605210220C4
:101A9000009404F019FD0023324606210220009430
:101AA00004F012FD0023324607210220009404F0C6
:101AB0000BFD0023324608210220009504F004FDAE
:101AC0000023324609210220009504F0FDFCF8BDF8
:101AD000709000206890002038B582A00068824C89
:101AE000009060896A46801D80B2032104F0B2FA3A
:101AF00060890021801D82B2204601F03BFF002159
:101B00000822084601F074FF01223221774802F0D2
:101B100037FC38BD70473EB505242407208A0221D2
:101B200088432082A08A0007FCD5FEF737FDFFF727
:101B30002FFF00F08DFD00F0F5FBFFF799FD05206C
:101B4000FFF7B8FD002201201146C00200F01AFD87
:101B5000012000F025FD142101200A46019100908A
:101B600001460023022004F0D9FC6149032048709B
:101B70000020087000900190034602460146029042
:101B80005B4800F0A1FD00F06EFE5949091F487046
:101B9000401C04D1FF210131880200F02BFE00F02F
:101BA00085FD00F08AFD608A2021084360823EBDE9
:101BB00010B500240621022004F052FE0520FFF794
:101BC00079FD0621022004F06DFE0520FFF772FD6D
:101BD000641CC82CEEDB10BD034610B50020024685
:101BE00002E09C5C2018521C8A42FADB04F020FAC6
:101BF000C0B210BD10B53F4C2078222805D0442833
:101C000003D0662801D0882801D1FFF7D1FF3A48D8
:101C10008178002906D12178882904D00522827094
:101C20001131217010BD6421817011202070304964
:101C30000120091F087010BD10B50821022004F012
:101C400031FE2420FFF736FD0821022004F008FEB3
:101C500010BD10B50921022004F024FE2420FFF756
:101C600029FD0921022004F0FBFD10BD70B52348B9
:101C70000178012934D10026067021491C48CA7810
:101C8000801ED12A02D0DA2A28D112E01C49194D2F
:101C900020310A7A0270497A6D1C41702A7169718B
:101CA0000024285D00F066FB641CE4B2092CF8D324
:101CB00014E0097A002911D10E4D01780A352971F5
:101CC000407868710024285D00F054FB641CE4B285
:101CD000092CF8D37D20C000FFF7F5FC09480670F9
:101CE00070BD0000A1A2A30096910020033800005F
:101CF000048000205C6F00208C9100202491002043
:101D00002691002025910020A449002048607047BA
:101D100070B5052109070889302290430881088998
:101D2000802210430881088980088000401C0881B7
:101D300008890823184308819948048814430480BB
:101D40004C8A9C434C820D89402425430D810D8A89
:101D50000426B5430D828D8AAD07FCD58F4E002534
:101D6000756005880126354305804589AE058D4D92
:101D7000068801D52E4300E0AE430680058878260C
:101D8000B5432835058005880626354305804D8AEC
:101D90001D434D820388934303800A89A2430A812D
:101DA0004089800503D57E49052060318880012067
:101DB000800701688215914301607B4801683F22DA
:101DC00052029143421489180160016802031143D1
:101DD000016070BD0321754809028181082242809B
:101DE0000021491C9629FCD38280704770494880A5
:101DF00008880322104308800888042210430880C2
:101E000066490120087070477CB5644C2178002930
:101E10002DD067490A885207FCD4CA880092898865
:101E200001911104019A891800916249484300996F
:101E300004F0F8F80090002020700098A06000984E
:101E400003F0D2FF054629465B4803F058FE0A21FD
:101E500003F093FE03F0CFFFE060284603F0FEFF9F
:101E6000564A574B04F0F0F804F00CF820617CBDA2
:101E700010B54A484168AA2905D07C205149081864
:101E800004F0EEF810BDC06819210903884200D99A
:101E900000BEFF20EB30F1E770B5414C6088C00612
:101EA000050F04F0E3F861881E2291436A00114394
:101EB000618070BD10B544490120C863C86B00281B
:101EC000FCD101208007C16940480268914201D2DB
:101ED0000022026019238A1ADB019A4212D30160A0
:101EE00004F0CAF83A4A1188884201D9411A00E040
:101EF000091A89B2182905D31080012004F0C2F80C
:101F000004F0C6F810BD08B5244989684843314932
:101F100004F088F8009008BD08B52049C968484316
:101F2000800A009008BD08B51C494968002903D003
:101F3000FFF7E9FF009008BD04F0B0F8FAE708B534
:101F400016494968002903D0FFF7E6FF009008BD55
:101F500004F0AAF8FAE708B51F4901204A695206B9
:101F6000D20F13D04A699206D20F0FD000220A6115
:101F70000092FF225F32009B5B1C00939342FAD3D6
:101F80004969C907C90F02D004F094F8002008BDC0
:101F900040183721C0000901401870472C800020EC
:101FA00020000050001000000002004020300050CF
:101FB000001600500024F400002474497B14AE473E
:101FC000E17A443F01120000C00000407C04080098
:101FD0007804080040420F000010005030B58D4AD0
:101FE0008D49D005048880231C4304808B4C65896F
:101FF0002D0701D4521EFAD2894C01222260894C4D
:102000000A882280884A4988118001889943018082
:1020100030BD002070477047704770470020704700
:1020200001218907086B0722104308637047704736
:1020300010B57F497D4808607E494C2008807D4B63
:102040007D4A203B1A827E497C4848807E487D49F3
:1020500001807C49193141802221418181218900FF
:1020600001827A4941827A49018378491131418359
:10207000754978482031888041217748090181805D
:102080007649C180754C1034C48101824182891C1B
:102090008182611FC182FF214631018370494183E2
:1020A0007049592008806F486F4C203004804324C9
:1020B00044806E4C4C82D5218180FF21D331018137
:1020C0006B4941816B4981816C496B480880594853
:1020D0006B4960384180C18810242143C180624926
:1020E0000A390181534C6749403C61805A8208217A
:1020F00041814D485B49008840390882494862491E
:102100000088088010BD4008704700B58BB05F4A5A
:1021100042625F4A82625F4A42615F4AC2625F4ACC
:1021200002605F4A02625F4A42605F4AC261404A9F
:102130003E48002110603E484038026B03129A432B
:102140000263426B1F231B049A4303231B04D21810
:10215000426356480268C3129A430260026803133E
:102160009A43026068464154491CC9B22829FAD3EF
:10217000014628224E4803F0A3FFFFF759FF03F062
:102180007BFF4C490880002003F07CFF03F080FFB8
:102190000BB000BD10B5264A0F212448090210607B
:1021A00023484038426B1F231B049A4303231B041C
:1021B000D218426300060268D208D20002600520ED
:1021C0000007028992089200521C028102890823AA
:1021D0001A430281028A0A430282374800680028B3
:1021E00008D10E484189890504D501887822914398
:1021F00008310180FFF71CFF3048006F007800288D
:1022000004D02F4800880B496039C880012003F0B2
:10221000D3FE10BDA0860100087F040020000050FE
:1022200000800040560208004A0308004C0554078D
:1022300080000040602C00507F7F0000AC2900002F
:102240000022005009090000002400502204000070
:1022500030D00000EE110000002500502E020000DA
:1022600044200000402800500D950000024200006C
:10227000E4DC00001092000053780000002A0050B7
:102280008B1000009DD50000002600501320002078
:10229000172000201D2000202120002019200020D0
:1022A0002F2000201B2000200721002000020040DA
:1022B000200008007804080030800020E0010020A1
:1022C0005204080010B5044604F07EFA1249A0003A
:1022D00040188038406B002801D0804710BDE106CF
:1022E000C90E012088400D49086010BD1320E9E7A0
:1022F0000B4909480A88B038028000220A8001216F
:1023000041808188491C81801420DBE71520D9E7B2
:102310001620D7E71720D5E71091002080E200E0D3
:102320007291002005200007828880210A43828064
:102330004048818100218180092101800321818120
:10234000028A40218A430282012202818388134348
:10235000838039480268120A12020A430260880127
:102360003649086070473348818AC907FCD0008825
:10237000C0B270472F498A8A9206FCD50880704700
:1023800000B5034602E0FFF7F5FF5B1C1878002854
:10239000F9D100BD0346000600B5000F0A2801D29E
:1023A000302100E037210818FFF7E4FF1807000F7D
:1023B0000A2801D2302100E037210818FFF7DAFFA0
:1023C00000BD10B50446000AFFF7E4FFE0B2FFF7D6
:1023D000E1FF10BD10B50446000EFFF7DBFF200241
:1023E000000EFFF7D7FF2004000EFFF7D3FFE0B287
:1023F000FFF7D0FF10BD10B50E4801890907090F7E
:10240000042910D103880E4A901E41785354491C68
:10241000C9B24170D47800220123D12C04D0DA2C27
:1024200001D1092902D010BD4A29FCD103704270A4
:1024300010BD0000001000500CE400E000E100E0DE
:102440002691002030B5484B1C680825C907AC43CD
:10245000090F0C431C6019680424D207A143520FD2
:102460001143196019680222C0079143800F01438C
:1024700019603E4801688022090A0902114301607F
:1024800030BD3B4B58809980DA807047FF20394936
:10249000013008607047FF20364901308031086004
:1024A0007047354800224188491C41800178491C09
:1024B000CBB201461C310370142B14D302700B787D
:1024C0005B1C0B70838A5B1C83828B795B1C8B711A
:1024D0008B78002B01D05B1E8B70C38A012B02D13D
:1024E000C3895B1CC3810B78322B2CD1038A5B1C04
:1024F000038283885B1C83800A708289521C8281DC
:10250000C288521CC2800289521C02814289521C1C
:102510004281CA78521ECA700A79012A01D9521E14
:102520000A71164B5A88022A01D9521E5A80144A3F
:102530001378002B01D05B1E13704A79521E4A712A
:10254000418A491C4182704770B5054614460E46C3
:10255000012004F067FA284604F070FA304604F0CF
:102560007FFA0348C48170BD0034005008E400E0E5
:102570000034005000E100E070910020389000200D
:102580002D90002008430121890303460B43434952
:102590000B80434B18430880092002434A80704750
:1025A0003E490A880F239B0100079A43800D02438E
:1025B0000A807047394900200880704737483949F8
:1025C000028802231A430280491E02D3028892071E
:1025D000FAD400210181408970470AE000BF00BFA2
:1025E00000BF00BF00BF00BF00BF00BF00BF00BFF3
:1025F00000BF401EF2D2704770B501218902044627
:102600004E0000223046FFF7BDFF1420FFF7E5FF24
:10261000002C01D0092000E00720FFF7C1FFFFF7E1
:10262000CDFF05460120FFF7D8FF002211463046B6
:10263000FFF7A8FF002C01D0092000E00720FFF7DA
:10264000AFFFFFF7BBFF4019144A0021118070BD96
:10265000F0B5124C144820801420FFF7BEFF01256E
:102660006D02A580E5802088E9000843208020884D
:102670008E10B0432080FFF7A1FF0746208830432B
:102680002080FFF79BFF0246780071424018281A0D
:1026900052005118691AA080E180F0BD0015005069
:1026A00001400000A08601000148000010B54F481D
:1026B0004178007804F0F6F810BD10B54B48417829
:1026C000007804F0CDF810BDF8B50E461546474920
:1026D0000278079F0A7040781C464870FFF7EDFFAC
:1026E0000520000781880122D202114381804048E1
:1026F00001884908490001800188FF228132914305
:10270000F20111430180018840229143AA01114343
:102710000180018804229143A200114301800188B5
:1027200002229143069A520011430180018801223E
:1027300092039143BA031143018001881822914307
:10274000089AD200114301800188012211430180BF
:10275000F8BD27490A88520852000A800A88FF23D8
:1027600081339A43C00102430A8008880122104342
:102770000880704710B51E4801884908490001804B
:102780000520000781880122D202914381801748E9
:102790004178007804F064F810BD154801884908B4
:1027A00049000180704710B5114900230A88D205FD
:1027B000920F012A01D9040C8C804880088880047B
:1027C000FCD50120C880012A01D9888803044888E3
:1027D000C01810BD10B50446FFF768FF2046FFF78C
:1027E000E2FF0446FFF769FF204610BD0880002085
:1027F00000120050F94AD1609060704710B5012076
:10280000FFF7A7FF05200002FFF7E4FFC0B210BDED
:1028100070B50024F24DFFF7F1FFC00704D0641C2F
:10282000AC42F8D30020C04370BD70B5FFF7F0FF95
:10283000002817D1FFF78DFFFFF738FF9F20FFF724
:10284000B2FF0020FFF7AFFF05040020FFF7ABFF4A
:1028500004022C430020FFF7A6FF20430546FFF7A4
:102860002CFF284670BD70B5FFF7DFFFDB4CDD4A5B
:10287000002114234B43D5589B185B681D4003402F
:102880009D420ED1142308B24B4320809B189D68B3
:10289000A560DB68E360142358438018606048B289
:1028A00070BD491C89B20429E3D300206060401E3A
:1028B00070BD70B5FFF7ACFF002815D1FFF749FFD9
:1028C000C74E00250620FFF785FF0024FFF796FF7F
:1028D000C10703D1800701D5002070BD641CB4423C
:1028E000F4D36D1C322DEDD30020C04370BD70B504
:1028F000FFF78EFF002815D1FFF72BFFB84E0025FC
:102900005020FFF767FF0024FFF778FFC10703D1CE
:10291000800701D5002070BD641CB442F4D36D1C47
:10292000322DEDD30020C04370BD70B5FFF770FFAE
:10293000002811D1FFF70DFFA94E00250420FFF755
:1029400049FF0024FFF75AFF800707D0641CB442F8
:10295000F8D36D1C322DF1D30020C04370BD10B5EB
:102960000446FFF755FF002808D10120FFF7F1FECC
:10297000E01DF930FFF72EFFFFF74AFF10BD70B5DD
:10298000064696480D4680685119814201D9441B7C
:1029900000E01446FFF73CFF00281AD10220FFF7A1
:1029A000D8FEFFF783FE0321284609060843FFF7F8
:1029B000FAFE0020FFF7CDFE002505E00020FFF71E
:1029C000F2FE30706D1C761CA542F7D3FFF775FE42
:1029D000204670BD70B5054680480E46C068144656
:1029E000824200D984B2FFF713FF00281ED1FFF7FF
:1029F00060FF00281AD10220FFF7ABFEFFF756FE5A
:102A00000121304649060843FFF7CDFE0020FFF7BD
:102A1000A0FE05E028786D1CFFF7C5FE641EA4B279
:102A2000002CF7D1FFF749FEFFF7F2FE70BD70B53D
:102A30000D460446FFF73DFF002802D00020C043AA
:102A400070BD0220FFF785FE28062043FFF7C2FE77
:102A5000FFF7DEFE70BD10B5FFF72BFF002802D098
:102A60000020C04310BD0020FFF773FEC720FFF712
:102A7000B1FEFFF7CDFE40B210BD0020C04370474D
:102A800010B5FFF7C5FE002812D10120FFF761FE47
:102A9000FFF70CFE09200003FFF785FE0020FFF77B
:102AA00082FE0020FFF77FFE0446FFF706FE20B2FD
:102AB00010BD70B5FFF7ACFE002801D0C11770BD86
:102AC0000020FFF746FEFFF7F1FD4B20FFF76BFEFE
:102AD0000220FFF73EFE0020FFF765FE0020FFF713
:102AE00062FE002504462846FFF75DFE06462E439B
:102AF000FFF7E3FD3046214670BDF7B582B0374F92
:102B00000E460091F96814460D46304603F08AFAE5
:102B1000401C6843451E0020FFF71BFEB868801B61
:102B2000A04200D204462646002719E000988019EA
:102B3000A84202D900982E1A761C0298B2B2C01987
:102B40000099FFF747FF002803D00020C04305B0DD
:102B5000F0BD681C00902148BF19C0682D18E61B05
:102B6000A742E3D33846F2E710B5FFF751FE00283D
:102B700005D1FFF7EEFDB920FFF72CFE002010BDB8
:102B800010B50020FFF7E5FDAB20FFF723FE002086
:102B900010BD70B5114C05466068002806D0FFF7DF
:102BA00088FE002805D00020C04370BD0520C0432A
:102BB00070BDFFF723FE6168097C88432940084304
:102BC000FFF7CDFE70BD10B504484068407CFFF7AC
:102BD000E0FF002808D040B210BD00000C800020AB
:102BE000400D0300B86A0020FFF735FFF4E770B529
:102BF00005462F480E46C0681446824200D984B26A
:102C0000FFF706FE00281DD1FFF753FE002819D15B
:102C10000220FFF79EFDFFF749FD012130464906DE
:102C20000843FFF7C0FD0020FFF793FD04E02846AE
:102C3000FFF7B9FD641EA4B2002CF8D1FFF73DFDEB
:102C4000FFF7E6FD70BDF7B582B0194F0E46009153
:102C5000F96814460D46304603F0E4F9401C684319
:102C6000451E0020FFF775FDB868801BA04200D20A
:102C700004462646002717E000988019A84202D98A
:102C800000982E1A761CB2B200990298FFF7AFFF97
:102C9000002802D00020C04359E7681C0090044877
:102CA000BF19C0682D18E61BA742E5D338464EE78A
:102CB0000C80002070B5EFF31085012080F31088A0
:102CC000264803F003FA0446002D1DD0012080F3AE
:102CD0001088002C23D020462038C08B2049884201
:102CE0001DD16189208903F0F7F905000ED0214636
:102CF0001031A38962892089A847002806D00128BD
:102D00000DD002280BD105E00020E0E7204603F0BB
:102D1000E9F904E0114821460C3003F0E9F9EFF33A
:102D20001084012080F310880C480068002802D12C
:102D3000012003F0E3F9002C03D0012080F3108878
:102D400070BD0020FAE710B5BC21064803F0DCF99D
:102D50000549012003F0DEF910BD0000A8050800B8
:102D60003883000004060800B52C0020F8B50D4695
:102D7000064681002B48EA884458521C20686B891B
:102D8000018F294F51430091014640314A89C98939
:102D9000511A8AB2991A89B2B94214D29A4212D0FF
:102DA000294603F0BDF92D892049009803F03AF92E
:102DB0002818801C4034E0823002401C80B204217C
:102DC00003F0B4F9F8BD2821304603F0B5F9F8BD99
:102DD000F8B50546870013480C46C059C9880068F5
:102DE000114E024640325389D2899A1A92B28B1AF6
:102DF0009BB2B34211D20B4E8A420ED003F0A2F91D
:102E0000F05905225F30611C03F05AF92802401C7A
:102E100080B2052103F08AF9F8BD2821284603F085
:102E20008BF9F8BD4C030800FF7F0000102700005D
:102E300070B516460D46104603F08AF9002869D091
:102E4000340A304603F084F9012812D0A87A1E28EB
:102E500011D029460A310E2845D019DC801E030006
:102E600003F07CF90B255829582D58315839583D15
:102E70005800022070BD3146274803F075F9002143
:102E8000204603F077F90221304603F04FF941E084
:102E900018283CD006DC102819D012282BD0162870
:102EA00038D130E0522822D0D22833D127E0204632
:102EB00003F066F92EE0204603F068F92AE0204688
:102EC00003F06AF926E0204603F06CF922E0204680
:102ED00003F06EF91EE0204603F070F91AE0204678
:102EE00003F072F916E0204603F074F912E0204670
:102EF00003F076F90EE0204603F078F90AE0204668
:102F000003F07AF906E0204603F07CF902E020465F
:102F100003F07EF9002070BD01280000F3B581B0F8
:102F200001980C460102CA1D0E310223344803F0F9
:102F300075F9047001990546022732488E00002C6D
:102F400006D0042C16D0062C10D0072C3FD108E058
:102F5000815905224968897C114069708059C7737D
:102F600035E0084603F060F9687030E080590F21C1
:102F7000C1732CE0044680594068417C012902D18C
:102F8000007E01280FD0019803F054F90121002898
:102F9000A0590BD04268D07D00281CD001281AD03F
:102FA00004280DD00FE0002068700DE04068C27D5D
:102FB000022A01D0042A06D1007C02280BD102E0AB
:102FC000107C022807D06F70A1590320C8732846CF
:102FD00003F036F9FEBD6970F6E701460A78012074
:102FE000042A01D9002070474A78002A01D0012A1A
:102FF000F8D10A79082AF5D849790829F2D8704712
:10300000021C000028050800FFB589B00D4600200D
:103010006946059008720B98000A009003F00AF9BF
:1030200007460B9803F094F800287DD00B98297878
:10303000000A8400764E01295ED0042904D00629B6
:1030400043D0072963D120E0687800281BD030598D
:1030500010224068A91C03F033F8002F06D0315924
:10306000C87B032807D0042808D050E03059C07B23
:10307000032803D04BE00B20C87348E005210098DB
:1030800003F0E4F843E00120B6E03059C07B0E289D
:103090003DD1009803F0C8F8002103E02A18401C35
:1030A0009170C0B21028F9D3688A6946088329460E
:1030B00006A808221431023003F002F806ABAA1C5D
:1030C0003946009803F0C8F821E03059C07B0F283A
:1030D0001DD1AA1C0A21009803F0C4F8002F04D0C7
:1030E0003946009803F0C4F811E000231A46394627
:1030F000009803F0C3F80AE0012F08D10B9803F001
:1031000027F801281CD0002801D00220059068462D
:10311000007A002811D002AA0521009803F0A2F835
:103120006846027A602000E007E0024368460272C7
:1031300001233946009803F0A1F805980DB0F0BDC1
:103140003059C07B0228E2D16878002851D0022192
:103150000B9802F0EBFF305907224068A91C17308A
:1031600002F0AEFFE878002804D130594068407C76
:1031700001283AD0009803F087F8002837D0297A40
:10318000009803F087F8002833D0009803F088F8FF
:103190000121009803F08AF800282CD030594068AB
:1031A000417E00292BD0042929D0C17E027D114007
:1031B000C17630594068017F427D114001776846F1
:1031C000007A0028A7D130590221426800981732AE
:1031D00003F048F8305941684031897B002913D009
:1031E00004210098FFF79AFE91E7022004E00620F0
:1031F00002E0082000E00320694608728BE7002106
:10320000C17630594068D9E70B21C1737FE70000D0
:103210002805080070B50446007800250D2801D067
:103220000A2200E002225A494B7A002B06D00D28D0
:1032300004D0637C032B01D0432551E0097A8A43F3
:1032400039D10D2809D00E2802D00F2803D134E03F
:10325000607C032804D3402542E0607C0328FAD830
:10326000A07C0428F7D20A2908D0607C012822D04B
:10327000022820D06078032809D811E003F01CF858
:10328000012806D16078032803D0002801D0492501
:1032900026E003F011F8002802D160780228F6D861
:1032A0003020035D22462046E17C3132143000F0AC
:1032B00019F8054614E0422512E002F0FDFF01284E
:1032C00007D16078052804D1A01D02F0FBFF00287B
:1032D000DDD002F0F1FF002802D160780228D6D8B4
:1032E000284670BDFFB5002086B001216A461170E6
:1032F000044605910021002C06D0089D099A1F2341
:103300009A4234D9402032E01C23069D079AF7E701
:103310006B185E78330002F021FF1D26101010108C
:1033200010101010102626262626262626262626AB
:1033300026261010101010102600059B03E06F4683
:10334000FF5CB74204D05B1E5BB2002BF7DA03E0F0
:10335000002B01DB4A2006E0059B6F46FE54059BCF
:103360005B1CDBB205936B5C491C5918C9B29142D6
:1033700001D20028CCD0914202D04A200AB0F0BD40
:10338000641CE4B2022CF9D20028B3D0F6E70000A6
:1033900098050800F8B50C469549164609680125B8
:1033A000002702228B1C312873D012DC0C2874D029
:1033B00008DC012821D0022840D007284FD00B2854
:1033C00069D156E010287FD0112876D01228F7D185
:1033D0008EE00123412871D008DC32286FD03528D7
:1033E0006ED036286DD04028EAD1B3E0422869D0AB
:1033F000432868D04428E3D1D1E006227D497E48A5
:1034000002F066FF002808D006227B49304602F011
:1034100057FE062020700020F8BD75480168087826
:10342000C00738D02078062801D22770C4E00622D1
:103430003046983102F044FE06200EE00A786C48CF
:10344000920728D522783E2AEFD305464A7E304699
:103450005A3102F035FE2868407E2070A9E00878D5
:10346000400718D520780228DFD3887C3070587C3C
:103470007AE00A785E4812070DD52278202AD4D344
:103480000546CA7D30461A3102F01AFE2868C07D12
:10349000E3E736E001E079E016E00A785448D20626
:1034A00074D52278202AC0D305460A7E304698314A
:1034B00002F006FE2868007ECFE70FE056E02AE023
:1034C00036E03DE05AE062E00878800672D5207868
:1034D0000428AAD304223046091D25E008784006B6
:1034E00068D52078002867D0087D08E0227060E069
:1034F000087800065ED5207800285DD0487D3070C1
:10350000F4E70888C00555D5207804288DD3042217
:1035100030460C3108E0088880054BD52078042817
:1035200083D304223046083102F0CAFD042094E718
:10353000088840053ED5207800283DD0887D36E0BB
:103540000888000536D5207802288DD3087C307095
:10355000487C09E00888C0042CD5207802288ED346
:103560008231087F3070487F7070BFE70888800420
:1035700020D5207800281FD0A03117E0088840040B
:1035800018D52078002817D0A1310FE012E0088864
:1035900000040FD5207800280ED0A23106E008687C
:1035A000C00307D52078002806D0A33108783070F2
:1035B000237000252846F8BD0425FBE770B50F48A9
:1035C0000F49C405228880252A4322800D4A538949
:1035D0001B0701D4401EFAD20B4A012010600622BC
:1035E000054802F06DFD2088A843208070BD0000D2
:1035F000C0060800383E030040800020A08601007D
:10360000D47F04002000005000800040F0B5564DEB
:1036100085B00026686D37460190FDF7BCFF00219C
:10362000524C002802D12079022800D10191504843
:1036300002685048002A0FD10278002A0DD04E4B64
:103640000122DA63DA6B002AFCD101229207D269E7
:103650001923DB019A420ED3017002F03FFE0028CD
:103660007ED0E078012600287AD005200007808AE5
:10367000C00701D0042673E002F0AAFC00286FD135
:103680003E4800683F2804D12079002801D1286DE8
:103690000190A17801A802F027FE002860D0A1784F
:1036A00001A802F0A7FC00285AD0344800683F283F
:1036B00003D102F01FFE002852D02D480068AA282E
:1036C0001DD0972007210125AD07EA6B920A9202CF
:1036D0007F1C3A43EA63EA6B294B80021A4002439B
:1036E000EA63E86BC002C00A49050843E863204862
:1036F00004260068002807D0AA280FD01DE0214822
:10370000FEF711FC0321DEE701986421C00202F0FC
:1037100089FC2179401E0CE001210CE0019802F0A7
:1037200063FB1949096802F0ADF902F064FB0090EF
:1037300021790029F0D102F0E3FD1448C06A8047E6
:10374000286B0004C00FFBD011480168C905FCD5E7
:1037500002F0DCFD052000070189802291430181F0
:10376000304605B0F0BD000060020020C60608002B
:103770003080002026800020C00000406001002032
:10378000FF03E0FF011200003C8000201C0708003E
:103790000002004010B50124A407A06BFEF7CFFB88
:1037A0005F4902F03FFC27221201511A00D101218A
:1037B0005C4A50601160206B0821884308432063F5
:1037C00010BD38B500200090574908200880052416
:1037D00024072188302001432180218803221143BE
:1037E000218002E000BF00BF00BFA18A0906F9D511
:1037F00061898908890061814C494A8852085200D0
:103800004A80218881432180208880088000208090
:10381000A08A400701D5FEF77EF920898021084360
:103820002081208A042188432082A08A8007FCD539
:103830003F4841050268D20202D40A69520702D405
:10384000009A002AF6D038BD10B502F065FD02F0EE
:1038500069FD10BD10B502F06BFD05200007418A1F
:103860008022914341823048018949084900018101
:10387000304800683F2801D102F060FD0120800738
:10388000816904221143816102F05EFD02F062FD54
:1038900002F066FD28480068AA2802D11420FEF72D
:1038A000A5FA26490020087010BD10B502F05EFD93
:1038B00010BD10B501208007008A000704D502F072
:1038C0005BFD1E490320087010BD70B51C480088C0
:1038D00085061748AD0E446816488030006F0078A2
:1038E000002802D1284602F04DFD16480089134EEB
:1038F000C00507D520060BD5E00709D0284602F001
:1039000047FD03E0200603D5E00701D00220307018
:10391000200403D5E00501D50120307070BD000002
:1039200071020000400000400033005020000050B1
:10393000000200406001002030800020468000200E
:1039400000200050002C0050F8B514460F461E46CB
:103950000546428801880623204602F05FFC0446A3
:10396000287902F01BFD208027716680204602F036
:1039700067FCF8BD70B51446428800790D46010217
:10398000042338480C3102F049FC002D01D01321EA
:1039900000E012210170448002F052FC70BD0A88E0
:1039A0000270120A42708A788270CA78C2700A79EC
:1039B00002714A7942718979817107207047427892
:1039C000037812021A430A8082788A70C278CA7019
:1039D00002790A7142794A718079887107207047AB
:1039E00010B500F047FC00F04FF800F087FB10BD69
:1039F00070B5064615460C46372002F0A9FB022892
:103A000005D1E2B237232946304602F0CDFC3620FC
:103A100002F09EFB022805D1E2B236232946304649
:103A200002F0C2FC1C2002F093FB022805D1E2B296
:103A30001C232946304602F0B7FC0BA0FEF7A0FC81
:103A40004F20FEF797FC4B20FEF794FCFD20FEF77D
:103A500091FC0B490020087014223221094800F023
:103A60008FFC70BD0D3000000A0D6475616E206B17
:103A70006169206C69616E206A69650A0000000056
:103A80002480002001C8000010B52821054802F05C
:103A900091FC0549372002F093FC0021372002F009
:103AA00045FB10BD96910020086B00203EB500201C
:103AB000C043704C0290E380088860816E4801909A
:103AC000009220460023092202A90A3002F07EFC5F
:103AD00005466089002102F07FFC002D03D1012101
:103AE000372002F023FBE18801233722634802F0EC
:103AF00095FB057002F0A4FB00203EBDF8B5002543
:103B000068465C4C058062802380E3800E464888CE
:103B100002F068FC207170882081E581A5812582F2
:103B200060896A46801C80B2022102F093FA6089A3
:103B30006A46C01D80B2022102F08CFA6089012120
:103B400002F04AFC0221372002F0F0FA0020F8BD12
:103B500010B50121372002F0E9FA002010BDF0B5C0
:103B600087B00C46142101A802F0CEFA2346083390
:103B7000A288618820881D4602F03AFC3D482188D1
:103B800042898A1A022A04D0062A70D0072A6ED1E6
:103B900069E0007A002202F031FC6288294601A81F
:103BA00002F08EFA68460079AA2860D1684640790A
:103BB000BB285CD169463248897941716946C97927
:103BC00001716946097AC1706946497A817069460E
:103BD000897A41706946C97A01700020032207235F
:103BE00012020146009002F06FFC264D0024286866
:103BF000E443002801D0204600E00120224E286046
:103C00003268C117736810431943306071600F2721
:103C10003F0320213846FEF70AFF0622394618489E
:103C2000FEF7D8FE16490120491E087014223221E1
:103C3000164800F0A5FB16A0FEF7A2FB0020032209
:103C4000034612020146009002F03EFC286800285C
:103C500000D101242C603268E017716814430843D6
:103C60003460706003E0007A002202F0C7FB00209D
:103C700007B0F0BD96910020446B002006DC0000E8
:103C80001D800020709000206890002001C8000076
:103C900073746F726167655F6F6B0A0D00000000DF
:103CA000FFB58BB00521C90268468182C91C01821B
:103CB000FA490183FA4C3621618006219925009149
:103CC0000822002301953621A01D02F09DFB05006E
:103CD0007ED1A01D0125009501900222E08805AB50
:103CE000114602F097FBE088EE4A022102F0B2F999
:103CF00003AE01960095E08804AB0222132102F086
:103D000089FB02AF092001970090E088E64B102262
:103D1000042102F07FFBE5496846007A4870684656
:103D2000407A88700A4668461321808902F092F929
:103D300001960095E08804AB0222132102F06AFB91
:103D4000092001970090E088D94B1022042102F04D
:103D500061FBD8496846007A48706846407A8870A6
:103D60000A4668461321808902F074F9019600958D
:103D7000E08804AB0222132102F04CFB019700956E
:103D8000E088CD4B1022042102F044FBCB49684669
:103D9000007A48706846407A88700A46684613215F
:103DA000808902F057F901960095E08804AB022261
:103DB000132102F02FFB092001970090E088C04BEF
:103DC0001022022102F026FB6846BE49007A00E07C
:103DD00058E048706846407A88700A466846132161
:103DE000808902F037F901960095E08804AB022241
:103DF000132102F00FFB092001970090E088B24BDD
:103E00001022142102F006FBB0496846007A48707F
:103E10006846407A88700A4668461321808902F015
:103E200019F9AB4D01960095E08804AB02221321ED
:103E300002F0F0FA01970095E088A64B10220121CC
:103E400002F0E8FAA4496846007A48706846407A69
:103E500088700A4668461321808902F0FBF809A998
:103E60000920019100900222E08806AB114602F081
:103E7000D1FA0546E088002102F0AEFA0121362091
:103E800002F054F90123362294480E9902F0C6F943
:103E9000057002F0D5F900200FB0F0BD3EB5804CA2
:103EA0000D46E08802AA0C3080B2694602F0B8FAEA
:103EB000E08801AA0D3080B2694602F0B1FAE088CC
:103EC000AA1C0C3080B2012102F0C4F801980088CD
:103ED000002806D0E08800210C3082B22046FFF78F
:103EE00049FD00203EBD10B56D480A46C08804213A
:103EF000801D80B202F0AEF8002010BD38B50D462E
:103F000000206946664C08802380288802F06AFAFF
:103F10002071FF2817D0E0886A460D3080B2022158
:103F200002F098F8E0886A460C3080B2012102F075
:103F300091F8A978E08802F04FFA0221362002F0C9
:103F4000F5F8002038BD654A1B23DB02521C89218D
:103F50005348FFF7F9FCF4E7F8B5514D0C462979C1
:103F60008022180A88427DD1E988208826468B1C49
:103F70000027083698420ED101210091618832460F
:103F800002F068F8E079002875D0544808233622FA
:103F90002988C01F10E00B1D984229D102210091F1
:103FA0006188324602F056F8E079002863D04B4829
:103FB000298808233622801F02F030F90646287926
:103FC00002F0ECF930807760E07A01067160A07A47
:103FD000000401437160607A000201437160207A3D
:103FE000014371600098B070304602F029F942E058
:103FF0000B460A3398421BD104200090E079002838
:1040000039D03648298818233622001F02F006F9D5
:104010000746287902F0C2F9388062883146381D97
:1040200002F04EF8A078F8700098B8703846DCE7D7
:104030000B460833984220D1032100916188324613
:1040400002F008F8E079002815D0244829880623D2
:104050003622401F02F0E2F80646287902F09EF967
:10406000308000E018E0B780607A0102B180207AE9
:104070000143B180B6E7002207E00D31884204D148
:104080006188324601F0E6FFF5E7A079012803D107
:104090002188287902F0B2F90020F8BD0229000039
:1040A00048800020406C0020426C00206F6F002090
:1040B000526C0020826F0020626C0020956F0020FF
:1040C000726C0020A86F0020826C0020BB6F002063
:1040D00001020000926C0020CE6F002009D8000081
:1040E00010B5054A180A1279904202D1088800F0EA
:1040F00026F8002010BD00004880002010B50821DF
:104100001A4802F057F91A49362002F059F90021ED
:10411000362002F00BF810BD70B5144D0646298804
:1041200018233622134802F079F80446287902F061
:1041300035F92080A670204602F082F870BD70B577
:104140000A4D0446E888002102F046F9094829880A
:1041500004233622001F02F061F8048002F070F898
:104160000121362001F0E2FF70BD000048800020F0
:10417000A46C002005D80000FEB53B4E1C207080CA
:104180001D4617463446088800F082F802903748EA
:10419000334601900833132202A90097A01D02F0B4
:1041A00015F9040008D1F088002102F015F9044641
:1041B00001211C2001F0BAFF01231C2229462C48B2
:1041C00002F02CF8047002F03BF80020FEBD70B540
:1041D0000C4625490B802078082814D8CA88083155
:1041E000415C51188DB2822D0BD0617800F063F8DC
:1041F000010009D16D1C6178A8B2A21C01F02AFF50
:1042000008E0822100E08121194B17485B1CDA1C71
:10421000FFF79AFB002070BD70B51D460C4608885C
:1042200002F0E0F8104AFF281071158009D0A1783B
:10423000D08802F0D1F802211C2001F077FF002085
:1042400070BD0B4B89219B1C9A1C0748FFF77CFB18
:10425000F5E710B5044A180A1279904202D108888D
:1042600000F03EF8002010BD52800020F46C0020C9
:104270000170000010B51221244802F09BF8244977
:104280001C2002F09DF800211C2001F04FFF10BD02
:1042900030B503460120002103241A46CA40D20744
:1042A00004D04D0022466D1CAA401043491CC9B2DF
:1042B0000929F2D330BD02460020122901D98D20F0
:1042C0007047062A06D0072A07D0082AF8D10729FE
:1042D000F5D170470829F2D170470629EFD370470E
:1042E00070B50A4C0546218802231C22094801F0BA
:1042F00095FF058001F0A4FFE088002102F06CF832
:1043000001211C2001F012FF70BD0000528000202E
:10431000086E00200470000038B50124684604705F
:104320000C21534802F046F8514D6946EC702A1DA5
:10433000352002F07BF8002800D02C7100F005FC3D
:104340004C49322002F03CF80021322001F0EEFE10
:1043500000F0DAF838BD10B500F0E0FC10BD10B583
:104360004348022380783222010243480E3101F093
:1043700055FF012101701321417001F061FF10BD53
:104380003E4B10B59A4201D91A4602E0002A00D1EC
:10439000012202F051F810BD10B5044634482C2318
:1043A00080783222010234480E31801E01F036FF3F
:1043B00001462030047200224272084601F040FF9C
:1043C0002FA0FDF7DDFF3649012008704F20FDF7D3
:1043D000D1FF4B20FDF7CEFFFC20FDF7CBFF1422D1
:1043E00032213048FFF7CCFF10BD10B550233222E8
:1043F0000D212D4801F012FF044600F0CAFB2046B3
:1044000001F01EFF0221322001F090FE10BD26486F
:1044100010B5012332220D210B3801F0FFFE0221DD
:10442000017001F00DFF10BD10B500F096FC10BD3D
:10443000F8B506461C4815460F46252332220D21A5
:10444000C01C01F0EBFE0446012020772046062226
:1044500039461D3001F034FE232006556582258241
:10446000204600F09BFC204601F0EAFEF8BD00006B
:1044700064800020186E00200438000030750000B1
:104480000A0D20424C4520737461727420636F6E74
:104490006E656374206C69616E206A69650A00004C
:1044A0002480002001C800000E34000010B501F087
:1044B000C9FF254901F0BCFD2448081810BDF8B516
:1044C000234D0646A876002401F0BCFF2919641C80
:1044D000E4B20874082CF7D300241027381BB0422C
:1044E00001DD002007E001F0ADFFC117090E09183A
:1044F000090A0902401A2855641CE4B2102CEDD3B5
:1045000001F0A0FF2883F8BD10B52421104801F068
:1045100051FF00F020FB10BD10B50E48022380783B
:10452000322201020C480E3101F078FE0D2101709B
:10453000074920318978417001F082FE0321322041
:1045400001F0F4FD10BD0000A0BB0D00A08601002D
:1045500070800020648000201A38000010B50846E2
:1045600009781C460B0001F0F9FD08052020200801
:10457000181B1E2000F015FC17E04178012904D01B
:10458000002902D0022903D00FE000F00BFC0CE060
:104590001146204600F00FFC07E000F004FC04E0A8
:1045A00000F002FC01E000F000FC002010BD10B59E
:1045B0000878304C801E030001F0D0FD0202141870
:1045C0008878A070C0070AD02B492A4A4879203A37
:1045D000D07628480622001F891D01F071FD00F0E9
:1045E000E5FB03E0FFF7BBFE0020A070002010BD3C
:1045F000F8B518460D4601461223204801F00EFE7C
:104600000446284600F0D3FB0027002821D0194E8D
:10461000B078C0071DD030460822A91C103801F020
:1046200057FE002815D130462038018B2A88914248
:104630000FD101212170807E607431461022203913
:10464000601C01F03DFDB078FFF7A6FE00F0B2FB64
:1046500000E02770204601F0F3FD2078002801D10A
:10466000FFF77DFE0020F8BD10B500F0A2FB002092
:1046700010BD0000908000206480002018380000E9
:1046800010B5104601F064FD002809D10123322243
:104690000D21484801F0C2FD0121017001F0D0FD5B
:1046A000002010BD70B5087815460F282DD008DC05
:1046B00001280DD002282CD003281CD00E2830D180
:1046C0001FE0102825D0112823D0122829D123E05B
:1046D0004878002825D13748222332220D21801C1A
:1046E00001F09CFD04460146284600F037FB2046B9
:1046F00001F0A6FD15E04878002812D100F039FB42
:104700000FE0487800F043FB0BE0487800F040FBF6
:1047100007E000F042FB04E04878442801D100F0B3
:104720003FFB002070BD70B51C4610460D4601F0E1
:104730000FFD022805D12049200A8870284600F084
:104740000BFA002070BD70B5087815460C460A2893
:1047500010D1104601F0FCFC04280BD16078002831
:1047600002D000F012FB05E00521284601F0DEFC36
:1047700000F00CFB002070BD10B5104600F0B9FA37
:10478000002010BD10B510460C4601F0E1FC0128D8
:1047900008D12078002805D1FFF7DDFD002801D0E1
:1047A00000F0F7FA002010BD10B5084600F0F7FA47
:1047B000002010BD0234000064800020F8B5FF49DD
:1047C00000270F80FE4CFF4A2046E7811A30078001
:1047D00047808780C7800781E772FB4B17801F8067
:1047E0003D460220FDF7DCFEFDF7E8FEE27AF449E3
:1047F00053001A31521CC852D6B2E67208884A8851
:10480000898880184018032101F00CFCE081032EF8
:1048100000D1E7720121084602F044F8002101208E
:1048200002F01EF80721022002F01AF800210846C3
:1048300002F016F8E1480088502800D90125E189E6
:1048400011204001814202D3DF4801210180DD486F
:1048500000883C2801D8002DC3D0DC480770072110
:10486000022002F01FF80021084602F01BF86771D1
:10487000F8BDF8B50120FDF793FEFDF79FFE85B268
:10488000D34E0027CE4C002D18D06079012815D0CA
:10489000D0480078012811D0284601F0CFFB002233
:1048A000CD4B01F01BFA0022CC4B01F025FA00227F
:1048B000CB4B01F0C9FB01F0B3FA3070284601F090
:1048C000BDFB0022C44B01F009FA0022134601F09F
:1048D000BFFD02D8002D00D03770B94AE07831789A
:1048E00010321154401CC1B2E1701046FDF774F94A
:1048F0006070E17801250A2902D3A5706571E7701F
:10490000642802D9642060702CE014282AD8B548A5
:1049100003210088064601F085FB002907D000210D
:10492000022001F0BFFFE07901280AD00BE0062148
:10493000304601F077FB0029F5D1022001F090FF0D
:10494000F1E7A9480770607800280BD1A74E3078AE
:10495000002807D17D200001FCF7B5FEFFF72EFFF0
:10496000A57135706179A248012905D01422322140
:10497000FFF706FD0020F8BD322101F0F5FBF9E755
:1049800010B58F48017A9A48401C002904D064224F
:104990003221FFF7F5FC02E0322101F0E5FB0020B7
:1049A00010BDF8B50220FDF7FBFD854D00242879E8
:1049B000002803D18F48048001202871FDF7FEFDF7
:1049C000E97A7F4E4A001A36491CB052CFB2EF72D4
:1049D000308871884018B1884018032101F022FB0B
:1049E000E881032F00D1EC720121084601F05AFF43
:1049F0000021012001F034FF0721022001F030FFE7
:104A00000021084601F02CFF7A48794F0188BF1C2D
:104A100001291AD92C7104806A4804806B480470FB
:104A20000721022001F03EFF0021084601F03AFF75
:104A300034807480B480F4803481EC81EC726C71C9
:104A40003221384601F090FB06E03C223221384604
:104A5000FFF796FC012068710020F8BD70B5664D27
:104A600000242C800FE00021012001F01BFF012118
:104A7000084601F0F5FE0021084601F0F1FE07218D
:104A8000022001F0EDFE28880428ECD34F490120D4
:104A900008700721022001F005FF0021084601F0FF
:104AA00001FF47481A30048044808480C480048118
:104AB0001A38C481C472447104712C8070BDF8B579
:104AC0003F4D0024287901274B4E002801D1348026
:104AD0002F710021012001F0E5FE0121084601F0BF
:104AE000BFFE0021084601F0BBFE0721022001F0B5
:104AF000B7FE308807281BD93448077007210220E9
:104B000001F0D0FE0021084601F0CCFE2C481A30FE
:104B1000048044808480C4800481EC81EC726C71D8
:104B20002C71348032483221C01C01F01DFB06E09C
:104B30002F4832221146C01CFFF722FC6F71002063
:104B4000F8BD002070470020704710B500F07AFFD4
:104B500000F082FA10BD704710B5284CA078FF28ED
:104B600014D023483221801D01F0FEFA05213220A5
:104B700001F0DCFA208800F073FF00F08BFA00F0FF
:104B800093F91F488078FFF707FC10BDFFF72DFC55
:104B900010BDF0B5044693B01AA0FDF7F1FB142246
:104BA00032211348FFF7ECFB0548012101700E206C
:104BB0002070002767709620A0813BE08491002040
:104BC000BE9100207E91002086910020516F002030
:104BD000E16F002031900020001883400000614008
:104BE0000000594078910020506F0020526F002043
:104BF00002C800000680002082910020648000200E
:104C0000908000200A206170705F6164765F667535
:104C10006E6328292D2D2D2D6170705F74696D656F
:104C2000725F736574284D4F544F525F5245534520
:104C300054200000E0810720207461741C20E0747F
:104C4000254622461F202035143228741646511E50
:104C50000B2001F0EBFB002805D00A22E27479A1B9
:104C6000304601F02DFA22463132511E0C201192AD
:104C700001F0DCFB002805D02F743A4674A111988E
:104C800001F01EFAE07C1A21081A45B2002D2EDD33
:104C90003E206946087001AA022001F0C7FB0028E7
:104CA00006D00D22684602706AA101A801F0D6FB69
:104CB0006846007800281AD0A84200D20546694606
:104CC0000D70E07C6D1C8555E27C20460921153075
:104CD0001154E17C401C081869460A7801A901F0CA
:104CE000EFF969460878E27C801C1018E07413B074
:104CF000F0BD10B504465BA0FDF742FB204601F075
:104D000027FA032803D0052801D0042805D1022161
:104D1000322001F00BFAFFF768FB10BD70B50024DC
:104D2000564904200873564DE878042812D2012809
:104D300007D0022802D0032808D105E000F0A8F827
:104D400004E000F080FE01E000F098F9E878401CF3
:104D5000E87000E00124204670BD70470320087011
:104D60000A20487000204882087548751720C882BC
:104D7000704710B50121322001F0D8F9FFF7EBFAA6
:104D8000002801D0FFF731FB10BD70477047704716
:104D9000704710B5FFF729FB10BD7047704770478B
:104DA00070477047704770477047704770470120E1
:104DB000704770477047704710B5322001F0C8F94E
:104DC00010BDF8B52D4C0025607A2E4F2E4E0528CB
:104DD00027D2A17A002912D02C49A572097800297E
:104DE00001D0C00717D13878012814D00221012042
:104DF00001F058FD0021022001F054FD0BE00120DC
:104E0000A072022101F02CFD0021022001F028FDFA
:104E1000607A401C6072142232213046FFF7B0FAEB
:104E20000DE00221012001F03DFD0021022001F0F2
:104E300039FD65723D703221304601F095F9002050
:104E4000F8BD00000903031802180418F5FE00005D
:104E500002FF0000444131343538302054454D5074
:104E60004C0000000D206170705F646973636F6EA9
:104E70006E6563745F66756E630A0D00BE910020F7
:104E8000648000201C80002001C8000024800020D5
:104E900010B50223322237210B4801F0BFF900215F
:104EA000018001F0CDF910BD10B537210423322265
:104EB000880201F0B3F93221018004490988418058
:104EC00001F0BEF910BD000005DC00006480002088
:104ED00010B510460C4601F03BF9012809D13222E9
:104EE00001231146900201F099F92178017001F037
:104EF000A7F9002010BD000010B510460C4601F0C7
:104F000027F9012809D1322201231146900201F02C
:104F100085F92178017001F093F9002010BD70B57A
:104F20004A4C0D46207814283DD2A97800293CD05F
:104F3000E168002933D0C00618D4207CEA788118B3
:104F400050292ED842494018291D01F0B9F8207C7B
:104F5000E9784018C0B22074E168814201D100F0C4
:104F600034FA207C18E000F0A7F81EE0EA786069C7
:104F7000FF2381180133994213D836494018291D5F
:104F800001F09EF8E978606940186061E16881424B
:104F900001D100F0D8FB6069E168884205D905209D
:104FA000E1E70720DFE70820DDE7002070BD08B556
:104FB0008878002806D04868694600F0BEF8009856
:104FC00000F021F9002008BD10B5887800280ED027
:104FD0001E4A49689160107802280AD0032808D038
:104FE000122804D0132802D0082000F065F8002011
:104FF00010BD52680006104301F036FA00F003F9C4
:10500000F5E770B588780D4600281DD0A8880028DF
:1050100005D00E4C2178CA0603D4820701D00520A2
:105020000EE0142910D2C90605D4502807D800F084
:105030001FF8A88807E0FF210131884203D9072023
:1050400000F03AF800E0E060002070BD9880002099
:10505000E46F002034700020FD480021017441619C
:105060008161C160FB4A01771165142101707047AD
:10507000F748002101744161C160704710B50123F8
:1050800032223621F44801F0C9F80021017001F004
:10509000D7F810BD10B5362110233222880201F056
:1050A000BDF8EE490988018001218170002141602D
:1050B000816001F0C5F810BD10B50446E84804232E
:1050C0000288E5483621401E01F0A8F8E349098826
:1050D0000180847001F0B4F810BD10B5DC4C20786C
:1050E000032801D1FDF746FB1420207010BD08B540
:1050F000AA2069460870D648017813290AD1416868
:1051000001226846891CFDF7F8FC40B2012801D055
:10511000062008BD022008BD10B5CD4C2078C00681
:1051200001D4012000E01020FFF7C6FF002020740A
:105130006061A061E060207710BDF8B50F460021E6
:10514000060EC34C35463960142E17D2257080B236
:105150006060002D01D0012D07D1C2492806084307
:105160006160002101F080F938602078122801D0B8
:10517000132803D1606802280BD86074112E26D042
:105180000EDC022E20D006DC002E1DD0012E13D105
:105190001AE0112022E0032E16D0102E0CD116E0BA
:1051A000FD2E2CD004DC122E0ED0132E04D10BE0D9
:1051B000FE2E16D0FF2E0CD00820FFF77DFF142006
:1051C000207000203860F8BDFFF7A6FFF8BD08206A
:1051D00004E0FFF782FFFFF74BFF0320FFF76CFFB0
:1051E000F8BD207F002801D0042001E0FFF77FFFF9
:1051F000FFF762FFFFF771FFFFF73AFFF8BD0020EE
:1052000001F038F9F8BD10B504469548042302882A
:1052100091483621801E01F001F8046001F010F879
:1052200010BDFEB506460020012424040090019024
:10523000034602460146029025123046FDF744FA25
:10524000FDF71EFC884980B2401802D0012805D124
:1052500002E00124640401E00124A404294620465C
:10526000FDF7C8FAFEBDF8B5044679487F4E017ACD
:1052700000270906090FA171027AFF4313071B0FCC
:10528000E37102891204120F227002891205120FB3
:10529000627082681202120FA27082681203120FEB
:1052A000E2708268120F227180680001000F607145
:1052B000282041438A1999005058002801D03846C7
:1052C00000E001205050A579E279C11701F0D8F82B
:1052D0002A0101F0D5F8664A136855681843294336
:1052E00010605160A078282148438219E07881003D
:1052F0005058002801D0384600E001205050A578D1
:10530000E278C11701F0BCF82A0101F0B9F8584D54
:105310002A686B6810431943286069602079282146
:1053200048438219607981005058002801D03846DE
:1053300000E00120505026796279C11701F0A0F8F1
:10534000320101F09DF82A686B6810431943286008
:1053500069602078282148434449411860788000DA
:105360000A58002A00D101270F5038462678627863
:10537000F91701F085F8320101F082F82B686A68AC
:10538000184311432860696001200090032636020B
:10539000617820780823324601F096F800250095C0
:1053A000E179A0790723324601F08EF80095E17883
:1053B000A0780623324601F087F8009561792079BC
:1053C0000523002201F080F8F8BDFEB5204C02252F
:1053D0002078EE01002805D0012803D0032828D02A
:1053E000082566E01F4F00063843002101F03CF815
:1053F0008004217C000C0A18B24227D8301A154AC2
:10540000401A121F891880B25432101805E00A6839
:1054100004C0227C121F2274091F227C002AF6D1AC
:10542000207800210006384301F01EF8FFF7EBFE5C
:105430003BE00320616800060843A16801F014F80E
:105440008004070C207CC019B04213D9072530E036
:1054500098800020E46F002008D8000064800020BD
:105460004880002030710020F010FFFF7090002075
:10547000689000206846FFF7F6FE6846FFF7D1FE09
:105480006068227CC119FE48FDF737FB217C814210
:1054900000D006252078616800060843A16800F066
:1054A000E3FFFFF7B0FE022D03D1FFF716FEFFF773
:1054B000DFFD2846FFF700FEFEBD70B50246002066
:1054C000160BC04336030C0B090500D0641C002CDE
:1054D00001D000250BE00124002520213046FDF7F6
:1054E000A6FA012109037618002802D16D1CA542F5
:1054F000F3D370BD0021FF2802D0401CC0B270471A
:1055000008467047FF2802D0FF2905D006E0FF2992
:1055100008D0002906D001E0002801D0884201D936
:10552000022070470120704710B5D64C034600207A
:105530002478C043132C02D11846FDF720FA10BD81
:10554000F7B598B000271A980C463E46402805D378
:105550002078702802D16078512802D012201BB028
:10556000F0BD6568C7492846403008621F210C22FB
:1055700009036846FFF7D8FF0C2847D16846007832
:10558000702803D168464078522801D01420E6E7FD
:105590000198119002981290002D03D01199401A91
:1055A000A84201D21320DAE7684640221090FFF7A4
:1055B000BBFF40282AD16846C0781490684681789D
:1055C00003A8169020460C301590AA2907D16846EA
:1055D0000078702803D168464078512803D001270D
:1055E000002014900BE010221699159800F070FE20
:1055F000002804D1E0690799884200D1022740229F
:1056000012991098FFF790FF402801D01620A6E7C6
:105610006846C078139068468078AA2807D1684603
:105620000078702803D168464078512803D00126BD
:10563000002013900BE010221699159800F048FEF8
:10564000002804D1E0690799884200D10226189801
:10565000002801D0022807D9012F11D0012E1CD01B
:1056600013991498FFF74EFF1590FF2240216846CA
:1056700000F00CFF1598022815D0022F24D004E06A
:10568000FF224021684600F001FF7E4911984860E2
:10569000002E1BD0022E19D00EE0FF2240216846BA
:1056A00000F0F4FE01E0022E0ED076491298486018
:1056B000002F07D0022F05D00126724F387813280B
:1056C00009D00FE0149802E0152048E71398FFF77F
:1056D00011FF0646F1E74035A9B27868FFF7EDFE05
:1056E00000282CD16846C67060680190A0680290BE
:1056F00020460C300EC8A069069003A80EC0E069D1
:105700000790217868460170617841702020015D22
:1057100008A801703878132813D11A9A7968403A8A
:105720002046154640304031FDF7E7F9A84206D142
:10573000402279681098FDF7E0F9402801D0062052
:105740000DE700200BE77CB54E4C4D4A02260020A9
:105750005032616904E0237F155C6B402377401C65
:105760008142F8D82078132804D00826F0B2FFF739
:10577000A3FC7CBD6846FFF776FD6846FFF751FD48
:105780006269002A02D0A069002818D0A169206AA5
:105790008A18431C9A4220D8824201D9401A60617B
:1057A000606825464118364862695030FDF7A5F912
:1057B0006969814211D1A8694018A8610EE0304999
:1057C000607C5031FFF7BCFE002801D086B205E0B6
:1057D0006269A1698918A16100E006260020606164
:1057E000A069FFF710FDC1E770B5274C274D214692
:1057F000284600F039FE0104090C06D0204A83B285
:1058000050322146284600F047FE70BDF8B50446E8
:105810001C481F4F017A00250906090FA170017A63
:10582000ED430907090FE17001890904090F21708F
:1058300002891205130F63708068000C60602820D5
:105840004143CA1999005058002801D0284600E069
:105850000120505026786278C11700F011FE320105
:1058600000F00EFE0B4E326873681043194330602F
:105870007160A07828214843C119E07880000BE0CE
:10588000E46F002098800020000306050028000334
:1058900070900020689000200A58002A00D101254D
:1058A0000D502846A778E278E91700F0E9FD3A01A3
:1058B00000F0E6FD33687268184311433060716090
:1058C000002500956178207809232A4600F0FCFD28
:1058D0000095E178A0780A23002200F0F5FDF8BDDC
:1058E000FEB510460D4600F033FC01287ED1287825
:1058F000002879D10E2332221C21434800F08EFC6F
:105900000446002020700B2767703A463FA1A01C78
:1059100000F0D6FB204600F093FC0A2332221C2123
:10592000394800F07BFC044601202070072060709D
:10593000024639A1A01C00F0C3FB204600F080FC09
:105940000B2332221C21304800F068FC044606205C
:10595000207008266670324631A1A01C00F0B0FB12
:10596000204600F06DFC0E2332221C21264800F058
:1059700055FC04460520207067703A462BA1A01CF8
:1059800000F09EFB204600F05BFC0A270D2332222C
:105990001C211D4800F042FC044604202070677062
:1059A0003A4625A1A01C00F08BFB204600F048FCE5
:1059B0000A2332221C21144800F030FC04460670F1
:1059C000072060700120A070D221684601800B2161
:1059D000C90141807101818006226946E01C00F006
:1059E0006FFB204600F02CFC012300E008E032228F
:1059F0001146900200F012FC2978017000F020FCA2
:105A00000020FEBD00207047027000004469616CF8
:105A10006F672053656D690044413134353830007B
:105A2000123456FFFE9ABCDE00000000765F332E73
:105A300035302E312E353400765F332E302E362E13
:105A400032350000704710B51C2102233222880233
:105A500000F0E4FBFF217431018000F0F1FB10BD88
:105A600010B50446042332221C21054800F0D6FB61
:105A70000480012181700021C17000F0E1FB10BDA4
:105A800003700000024670B54A40D30FDB074000A8
:105A90002DD04A002AD0010E140E0002120209195C
:105AA000400A520A8418E50104465443000A120AC7
:105AB0002E045043A4194219200CC543AA18120CF5
:105AC0000125AD03521C521912047F39240400D061
:105AD000521C104301D44000491EC2B20C06C0093A
:105AE0002018401C4008802A02D003E0002070BD2E
:105AF00040084000002900DA0020184370BD70B54E
:105B000002464A40D50F40004A00ED0740085208BF
:105B1000002814D0002A12D0C40DD30D4102012058
:105B2000C0055202490A520AE41A091812187D34B3
:105B3000914201D3641C00E04900002C01DA0020EE
:105B400070BD0023914201D3891A034340084900E4
:105B50000028F7D100290AD0914202D10121C907BA
:105B600005E0914201D2012101E00121C943E00594
:105B7000C018401900F0B5F970BD420005D04200D0
:105B8000120E52428A4201DB00207047C9050818F4
:105B900070470000F0B507460846584087B0C00F70
:105BA000049048000E46590040084908BC1A884134
:105BB00005D2384631461E4617460B460246580067
:105BC000400810434CD0300D039040055900400D63
:105BD000490D0590401A0290402872DA18030121FD
:105BE000000B09050843019004980092002805D095
