:020000042000DA
:1000000000980020A9040020B1040020C9040020A9
:1000100000000000000000000000000000000000E0
:10002000000000000000000000000000E1040020CB
:100030000000000000000000F9040020FB04002084
:10004000BF350020053103000D3103004536002087
:10005000513600208D310300A7360020AF36002036
:10006000CB220020FD040020C7360020AD31030064
:100070001F220020FD0400204B1B02004B1B02002E
:100080004B1B0200FD0400204B1B02001521002029
:100090001921002035210020392100203D21002098
:020000042000DA
:100160003200000017080020331F0020DD37002078
:10017000000000000000000063800200BD8002005B
:100180007D1D0020FB8002001981020035810200E4
:100190005D81020091350020FF0500204D1D0020EB
:1001A000651D002000000000000000003F0000006E
:1001B000F48B002000040000740B080048010000CC
:1001C0006807080000040000C80C080020050000B3
:1001D000000000002000000048000000580000005F
:1001E0006800000004010000160100002801000062
:1001F0002E010000202A00008E2E000001000000C9
:1002000088130000BD1F0020E9600200FD9302007A
:100210004B2B002019280300A574020099310020FF
:1002200003000000D5200200ED370020040000008C
:10023000D74902000F490200831D020063910200AA
:10024000B7910200BF910200078202007182020092
:10025000D4660020AD830200938402004185020031
:1002600015860200378602005F860200758602004E
:10027000F9870200258902005D8A0200D38C020002
:10028000098D02000F900200438D0200278E0200AC
:10029000F98E0200478F0200BF1C0020D58F02009C
:1002A00049510200775102002F5202001000000055
:1002B00020030000803E000000000000000000005D
:020000042000DA
:1002C000504600030003983A6400F401B80B000C98
:1002D000B80B120030003000CD009A01120024004B
:1002E00030006400B0001800280012001200D0078F
:1002F0000000FFFF00000000000000000000000000
:100300001F000002444131343538302D30310000B7
:1003100000000000000000000000000000000000DD
:0403200000000000D9
:020000042000DA
:10034000FFFF010000C201000000000000000000EB
:100350000000F4010100011B0A071AFFD200021578
:10036000585CDE931B0142CC9A1325009BEDC65EC0
:1003700000000000C5000000000009FF00605257A7
:100380002D424C450000000000000000000000006D
:100390000000000000000000000044413134353806
:1003A000330000000000000000000000000000001A
:1003B000000000000000000000000000000000003D
:1003C000000000000000000000000000000000002D
:1003D0000000000000000000000000000000D00746
:0403E000064064323D
:020000042000DA
:100440000348854605F0ACFB00480047C720020082
:100450000098002010B5114906200880FF2010499F
:10046000013008600F4988683E2290432E30886032
:100470000021052000070180028A0F231B021A4376
:1004800002820122D204032308461B038418216040
:10049000001D9842FADB62B610BD00000034005027
:1004A00080E100E0003300501548804715480047C0
:1004B00004207146084203D0EFF30980124908472F
:1004C000EFF308801049084704207146084203D022
:1004D000EFF309800D490847EFF308800B490847FF
:1004E00004207146084203D0EFF309800849084709
:1004F000EFF3088006490847FEE7FEE7FEE7000045
:100500005504002041040020C913002015050020D7
:100510008705002005221207518A80231943518242
:10052000114903680B6043684B6083688B60C36844
:10053000CB6003690B6143694B6183698B61C0695F
:10054000C8610A48836A0B62C36A4B62036B8B62A1
:10055000C36BCB62436B0B63806B4863908A8006EE
:1005600001D500BE7047FEE70018080000ED00E06E
:1005700002890889FF49101A80B2884201D90120F6
:1005800070470020704781692039897F082904D28B
:10059000F94A8900515881617047FEE7F848F749E8
:1005A0000161F8494161F8498161F849C161F8493F
:1005B0000162F8494162F8498162F849C162F8492B
:1005C0000163F8494163F8498163F849C163F64919
:1005D000EB485C3140300160F5494160F54981608C
:1005E000F549C1600120F549C0060860F449CA69AF
:1005F0001202120ACA61F14980390860704710B5C9
:10060000F0490020086001F045FB01208007016BE4
:1006100049004908016310BD10B50221084605F0E4
:10062000CDFE00220123E84900280BD0CA70C88AF9
:10063000E64CA0420DD2C88A00280AD0C87800280B
:1006400005D006E0C88A401CC882CB70EFE78B72E9
:10065000CA82C88ADE4CA04201D9CB72CA82C87B4A
:10066000052801D98B73CA7310BDF8B5FFF7D4FF05
:10067000D54DD84EA87A00240127012830D1AC727C
:10068000707800282CD1022030710146012005F03D
:1006900005FFD148322204701146D04803F060FDB6
:1006A0000721022005F0FAFE142000F0F5FE01F00B
:1006B00091F90721022005F013FFC948CB490480B6
:1006C000C8480780C84804800320C870777028464F
:1006D0002C731830048044800221012005F000FFB3
:1006E000E87A01283DD1EC727078012861D0C048C9
:1006F000AC7404800221012005F0D0FEB6483222FD
:1007000004701146B54803F02BFD0721022005F0C7
:10071000C5FE142000F0C0FE01F05CF91920400174
:1007200000F0BAFEFF20913000F0B6FE01F052F961
:100730000721022005F0D4FE02203071A848048071
:10074000A9480480AB480480BB20B07177702C733B
:100750002F729D480221183004804480012005F04A
:10076000BFFEA87B012823D1AC730721022005F02E
:1007700095FE142000F090FE01F02CF923242401B2
:10078000204600F089FE01F025F9204600F084FEA5
:1007900001F020F90721022005F0A2FE01F06BF91B
:1007A0002F74204600F078FE0221012005F076FE2D
:1007B000F8BD0221012005F071FE0721022005F09D
:1007C0006DFE142000F068FE01F004F94B200001DA
:1007D00000F062FE01F0FEF80721022005F080FE25
:1007E000E87B401CE8738248048082480480AC7433
:1007F000BB20B071ACE710B5734C85B0032100206D
:100800006B461C34625C5A54491C5040C9B21329CF
:10081000F8D905B010BD94B000200E900D90764828
:1008200001250570754808240F27048005F0CAF9D2
:1008300005F09CFE01F081F80021022005F02EFE5B
:10084000614805700078012802D1032105F026FED9
:100850000721022005F022FE02F02DF80B0E6A4659
:1008600013700A020A93130E6A4653700A04119316
:10087000130E6A4693700993CBB2D3700C930B029C
:10088000020E1A43D3B26A4613710B930B04020C87
:100890001A43D3B26A4653710A06010A1143C9B218
:1008A0006A46129391710F91C0B2D0710F211090CE
:1008B00006220903524801F064FF00260322334652
:1008C000120231463046009605F01CFC4D4908687E
:1008D000002801D0701E00E001204B4A0860136818
:1008E000C117556818432943106051600A2000F071
:1008F000D3FD01F06FF80C2000F0CEFD01F06AF896
:100900000C2000F0C9FD01F065F80C2000F0C4FDDA
:1009100001F060F80C2000F0BFFD01F05BF80C2046
:1009200000F0BAFD01F056F80C2000F0B5FD01F022
:1009300051F801F093F80021022005F0D1FD0721C4
:10094000022005F0CDFD2349022008712F480178CF
:1009500001702F4908780870012005F039F9FF254A
:1009600001350D202946800105F038F902F026FDF9
:1009700050E0000030750000B466002094270300AA
:100980000084004062B600DF28A30200704701DF48
:100990001CCA0200F8BD02DF40CB0200F5E703DF0E
:1009A00084D4020004DF89B0BC330200F8BD05DF47
:1009B000F8BD06DFEC0C030070BD07DF80E100E04E
:1009C00000ED00E08C03080020900020B80B000030
:1009D000AC0D00007C6B00201180002005C80000D9
:1009E000769100207C910020789100208491002055
:1009F0007A91002064900020128000200033005083
:100A0000D8030020709000206890002000000800AB
:100A1000202A080001F0F6F901F08CF8042000F01B
:100A200016FC072000F013FC0A2000F010FC062042
:100A300000F00DFC0B2000F00AFC012000F007FC88
:100A4000022000F004FC002000F001FCFE480068D9
:100A500005F0CAF8A80501682943016000F02CFCE4
:100A6000FA480068AA2805D1142001F0D1F8142012
:100A700001F0DCF803F040FBFFF7C1FDA2210520E7
:100A80000007C182F2484188E0229143A0314180B1
:100A9000012005F0AFF805F0B3F8022803D005F007
:100AA000AFF801280AD1EB48048005200007818AAD
:100AB0008906FCD4428A80218A4342820524240785
:100AC000208900061FD5A000006B00041BD405F090
:100AD0009DF8C00717D1042005F09EF8054605F0E3
:100AE000A1F8002D0FD0D94800960068AA2802D19D
:100AF000142001F09BF80421684605F099F80028BD
:100B000001D001F0EAF872B602F080FC694608777D
:100B1000042806D002280AD0032808D001286DD066
:100B20006DE0CD48007801280DD003200877208A99
:100B3000042528432082C948C0690128087F19D9A3
:100B4000032802D012E00220F0E705F077F8002831
:100B50000CD005F079F8002808D0032005F07AF8C9
:100B6000002803D0BE49022008700CE0022168462C
:100B7000017708E00328F9D105F06CF80028F5D0DA
:100B8000B74801210170B748016929430161608AB2
:100B9000202188436082208A0221084320826846FF
:100BA000007F0228608A22D0284360827F2220882A
:100BB00092018021084320800020401CC0B20A28F6
:100BC000FBD3608A102318436082A748521E4261FB
:100BD0002088884320809E484288FF2101318A4333
:100BE000428030BF9F480169A943016107E0284363
:100BF0006082618A102081436182ECE730BF62B677
:100C00009A4D2878002809D10321012005F068FCBD
:100C10000221012005F064FC95480670FFF725FDD0
:100C200000F036FF0521022005F0C8FB002803D0A4
:100C30008F490120887028708D4CA07801280AD136
:100C40008C480088012803D08B48008807281ED2D2
:100C5000A6708A48068088480088072817D2A07C9A
:100C6000002814D1A078012811D0844908880246B0
:100C70003C3A142A07D8CC21A971C00711D1804968
:100C80000320C8700DE0502801D90E802E70A8797D
:100C9000BB2806D178480088032802D8012060705C
:100CA00000E06670A078012802D16878012806D09B
:100CB000102F03D9734800880D285DD08CE00120E7
:100CC000A87070480680A07CEE281AD16A48008877
:100CD000062816D96C480E21008804F0C1FF0029AF
:100CE0000FD10721022005F0D9FB142000F0D4FB1E
:100CF00000F070FE0721022005F0F2FB624901209E
:100D00000880624814210088009004F0A9FF00299F
:100D100010D1DD20A074AA20A871E8790E904B2193
:100D200000984901884200D92E70607B002801D1CB
:100D30000120E071E07901281DD1607B00281AD1E3
:100D40005349009888420CD20721022005F0A6FBE7
:100D5000142000F0A1FB00F03DFE0721022005F069
:100D6000BFFB0621E87904F07BFF43490A8880181D
:100D70000880AA206871CEE03F48008806282BD959
:100D80000721022005F08AFB142000F085FB00F00B
:100D900021FE4B20C00000F07FFB00F01BFE19205D
:100DA000400100F079FBFF20913000F075FB00F06E
:100DB00011FE4B20C00000F06FFB00F00BFE07217E
:100DC000022005F08DFB3320A074AA206871314801
:100DD0000E2106802B4801802A480088B8427DD326
:100DE00025480088062879D9207B002803D124498A
:100DF0001820C870AE70A878002809D13222114698
:100E0000254803F0ADF90120A87020732148068021
:100E1000174818300188002902D11421018041802F
:100E20001348183041880088421F914205D0921F14
:100E3000914202D01138814238D10721022005F0B9
:100E40002DFB14202AE00000049000201C800020CC
:100E5000200000500033005054020800E001002040
:100E6000C406080000ED00E0008000407C6B00201C
:100E70002090002062900020649000207A91002051
:100E80008491002076910020749100207C910020B4
:100E9000560900007891002004C8000000F0FCFA18
:100EA00000F0BAFD0721022005F01AFBEB4800888C
:100EB000C10704D1152802D2E9490320C870E948C6
:100EC0000188E9480088401A142104F0CFFE002967
:100ED00002D02879002814D0A07A00E01BE0012875
:100EE0000FD0DF490320C8705520A074AA20A87134
:100EF00000200E900120E071DC4806702879401E29
:100F000028716878002806D1D948DA490088C01BC2
:100F1000884200DD2E70D848018801297ED10680E4
:100F2000D648267400883C2807D80221012005F005
:100F3000B5FA4B20C00000F0AFFA6078002801D16C
:100F4000AA20A871C848CA49068001200880CC4858
:100F5000CC49068011200870C44805210670022083
:100F600005F02CFA00280DD0C4480088062801D9C5
:100F7000EE20A074C4480188FF20D730814203D2FC
:100F8000FF2005E0A674F5E7C04804F069FE80B2D2
:100F90000D99C0B2491CC9B202AA0D9150546946BC
:100FA000887308906079012800D1A0710D980528F8
:100FB00003D100200D90012060716079012808465E
:100FC000497A807A36D009186846C27A007B1018B0
:100FD00009186846407B08180D9904F041FE0E90F0
:100FE0006846417A807A09186846C27A007B1018F0
:100FF00009186846407B09180898081AC117890F14
:1010000008188005000EE8710E99002925D0FF29E7
:1010100023D80A46617A521A052A00E062E003DA10
:101020000E9A891A052910DB012121718C4A182199
:10103000117112E009186846C27A007B101809186D
:101040006846407B08180521C7E785490A79052AC3
:1010500003D20122227118220A7101460B39BD29DF
:1010600013D88649098806290FD904F005FE0246DF
:101070000B460020864904F05BFC0022854B04F0FF
:1010800001FE04F0E9FCC7B20CE00A2807D80028EA
:1010900008D07A490988062901D9B42702E0C8286E
:1010A00000D90727A67075480188052901D20122B9
:1010B0002271022907D2E978012904D10680EE7055
:1010C000267100200D902079012807D126710E98F5
:1010D0006072607B00280CD05520687102210120CD
:1010E00005F0FEF9A07C332805D06078012802D0F5
:1010F00008E0AA20F1E759480188152902D1AA2160
:10110000697106805648C078022802D1607B0028A9
:1011100006D06879AA2805D0207A012802D087E075
:10112000AA206871207C01287ED000F0A4FC192040
:10113000400100F0B1F94C480088B84206D30020C5
:1011400002A90E54401CC0B20528FAD34B480088AF
:101150003C2803D90221012005F0A0F94F4D4E4A49
:10116000A868110A02704170A9798170A28AC270C0
:10117000120A0271414A142112884271120A8271C4
:10118000C1714749097801720E994172A17C81723F
:101190000A99C17211990173099941730C9981736C
:1011A0000B99C173129901740F994174109981744C
:1011B000FFF721FBA968C8743C2000F06DF90025F9
:1011C0002848001D405D00F0E9FF6D1CEDB2142DB4
:1011D000F6D3012522486574062141713148007813
:1011E000012810D130481F4A4089121D801D80B24D
:1011F000142104F04DFD2C4800214089801D82B24D
:10120000294802F0B5FAA08A2849401C80B2A08281
:10121000884200D9A582E671022060731F495520DB
:1012200048712672022100E002E0012005F058F921
:10123000607C012800D041E4207C0128FBD00848D4
:1012400040790528F7D200F009FC667436E4C1063F
:10125000C90E012088401649086070477891002027
:10126000849100203890002076910020008000209A
:101270007C910020650900006290002064900020AD
:101280007A910020886B002060900020C0D401007B
:1012900000004E4000003E401B0300007C6B00201D
:1012A000C991002010800020A0910020FEFF0000C6
:1012B00080E200E0704700003E480178002902D03B
:1012C0008021417070473C49002008703B49C8703C
:1012D000704738480178002902D081214170704759
:1012E0003549012008703549C87070473148017888
:1012F000002902D08221417070472F4902200870D6
:101300002E490120C87070472A488178002904D0EE
:10131000491E0906090E817017D142780021002A62
:1013200004D09207920F0270417004E00278002A04
:1013300001D0521E02701206120E017005D0012A51
:1013400002D0022A01D1D1E7C3E7704710B5194C8A
:10135000A078401CA0702078002805D104F050FC33
:10136000421CFFF7A9FF227010BD12490120C8706E
:10137000704710490020C87070470E48C078704709
:101380000020EFF31081012282F31088052212075A
:101390001289120605D40A48028901231A430281E0
:1013A0001846002900D0012181F3108870470548B4
:1013B000007870471380002054020800C606080019
:1013C000003300503280002005221207118A0423C6
:1013D00019431182118A0223194311821189402372
:1013E00019431181174B01211960174B08211980EE
:1013F000518A802319435182144903680B61436861
:101400004B6183688B61C368CB6103690B6243697D
:101410004B6283698B62C069C8620D48836A0B6343
:10142000C36A4B63036B8B63C36BCB63436B07492B
:1014300040310B60806B4860908A800601D500BE09
:101440007047FEE780E200E00033005040180800DB
:1014500000ED00E010B5012005F0EEF8032005F0E6
:10146000DFF800221146012000F000FF2A220121AE
:10147000002000F06BFF142005F00AF9002005F0B1
:101480000DF900221146642000F00FFF00F012FF5A
:1014900005F0DEF810BD70475021484380B2014688
:1014A000401E80B20029FAD1704700227D23DB0064
:1014B00006E00021491C89B29942FBD3521C92B22A
:1014C0008242F6D37047F0B5FE4900200A6BC04354
:1014D000002A01D0034600E00123DA179404FA4AF7
:1014E0009D0B0B632C4316689D04576835433C43A2
:1014F000156054608C6D002C01D0044600E001247E
:101500008C651568A4005668156034435460CC6D32
:10151000002C01D0044600E00124CC651568E400ED
:1015200056681560344354600C6E002C01D004469C
:1015300000E001240C6615682401566815603443E8
:1015400054600C68002C01D0044600E001240C60BB
:101550001668E517576834433D43146055608C693D
:10156000002C01D0054600E00125EC17AE0EA401C9
:1015700034438D611668AD01576835433C431560AF
:101580005460CC68002C01D0054600E00125EC1722
:101590006E0FE4003443CD601668ED0057683543A4
:1015A0003C43156054604C69002C01D0054600E0B6
:1015B0000125EC17EE0E640134434D6116686D0190
:1015C000576835433C43156054604C68002C01D08B
:1015D000054600E001254D60EC176D191668644161
:1015E000576835433C43156054608C68002C01D02B
:1015F000054600E00125EC17AE0FA40034438D60D2
:101600001668AD00576835433C4315605460CC699B
:10161000002C01D0054600E00125EC176E0EE40118
:101620003443CD611668ED01576835433C4315607E
:1016300054600C69002C01D0054600E00125EC1730
:101640002E0F240134430D6116682D015768354370
:101650003C43156054608C6A002C01D0054600E0C4
:101660000125EC172E0C240434438D6216682D04DA
:10167000576835433C4315605460CC6A002C01D058
:10168000054600E00125EC17EE0B64043443CD62FF
:1016900016686D04576835433C4315605460002B51
:1016A00001D0044600E00124E317A50B9B042B4363
:1016B0000C631568A40456682C43334314605360CC
:1016C0004B6B002B01D0044600E00124E317650BAF
:1016D000DB042B434C631568E40456682C43334306
:1016E000146053600B6D002B01D0034600E0012312
:1016F0000B651468556814602B4353604B6D002BC9
:1017000001D0034600E001234B6514685B00556877
:1017100014602B4353604B6E002B01D0034600E056
:1017200001234B6614685B01556814602B435360BA
:101730008B6E002B01D0034600E001238B661468FA
:101740009B01556814602B435360CB6E002B01D076
:10175000034600E00123CB661468DB015568146082
:101760002B4353600B6F002B01D0034600E0012395
:101770000B6714681B02556814602B4353604B6F52
:10178000002B00D1012048671168400253681160A6
:1017900018435060F0BDF8B501250326360200233A
:1017A000324602212846009504F0ACFC00240221B8
:1017B000234622460846009404F0A4FC0021072397
:1017C00032460846009404F09DFC06233246194632
:1017D0000020009404F096FC0823324603210020E8
:1017E000009504F08FFC0523002219461046009551
:1017F00004F088FC0223324603211846009404F0CA
:1018000081FC0123002204210220009404F07AFCD0
:101810000023324602210120009404F073FC0023CF
:10182000324604211846009504F06CFC00220F2378
:1018300001211046009404F065FC00220F2311469C
:101840001046009404F05EFC172332460721002066
:10185000009504F057FC00233246194601200094FD
:1018600004F050FC0121002332460846009404F0A5
:1018700049FC0023324602210120009504F042FC7D
:101880000023324603210120009404F03BFC002396
:10189000324619460220009404F034FC00231A4614
:1018A00001210220009404F02DFC00231A4605219A
:1018B0000220009404F026FC002306213246022078
:1018C000009403E0709000206890002004F01AFC5F
:1018D0000023324607210220009404F013FC002369
:1018E000324608210220009504F00CFC0023324609
:1018F00009210220009504F005FCF8BD38B582A04E
:101900000068824C009060896A46801D80B2032185
:1019100004F0BEF960890021801D82B2204601F0EA
:1019200027FF00210822084601F060FF0122322132
:10193000774802F015FC38BD70473EB505242407F2
:10194000208A022188432082A08A0007FCD5FEF766
:1019500025FEFFF720FF00F07DFD00F0F7FBFFF70D
:1019600079FD0520FFF798FD002201201146C002F5
:1019700000F00AFD012000F015FD142101200A46A7
:101980000191009001460023022004F0E5FB61492B
:101990000320487000200870009001900346024622
:1019A000014602905B4800F091FD00F05EFE59494F
:1019B000091F4870401C04D1FF210131880200F04A
:1019C0001BFE00F075FD00F07AFD608A20210843BF
:1019D00060823EBD10B500240621022004F05EFDA9
:1019E0000520FFF759FD0621022004F079FD0520AE
:1019F000FFF752FD641CC82CEEDB10BD034610B58A
:101A00000020024602E09C5C2018521C8A42FADB4D
:101A100004F02CF9C0B210BD10B53F4C207822283C
:101A200005D0442803D0662801D0882801D1FFF7CB
:101A3000D1FF3A488178002906D12178882904D03D
:101A4000052282701131217010BD64218170112036
:101A5000207030490120091F087010BD10B5082101
:101A6000022004F03DFD2420FFF716FD082102208E
:101A700004F014FD10BD10B50921022004F030FD62
:101A80002420FFF709FD0921022004F007FD10BD05
:101A900070B523480178012934D10025057021490A
:101AA0001C48CA78801ED12A02D0DA2A28D112E036
:101AB0001C49194E20310A7A0270497A761C41700D
:101AC000327171710024305D00F068FB641CE4B277
:101AD000092CF8D314E0097A002911D10E4E0178AF
:101AE0000A363171407870710024305D00F056FB89
:101AF000641CE4B2092CF8D37D20C000FFF7D5FCAC
:101B00000948057070BD0000A1A2A300A0910020AB
:101B10000338000004800020886B0020849100209E
:101B2000249100202691002025910020A549002025
:101B30004860704770B50521090708893022904335
:101B40000881088980221043088108898008800064
:101B5000401C088108890823184308819A48048892
:101B6000144304804C8A9C434C820D8940242543B5
:101B70000D810D8A0426B5430D828D8AAD07FCD5F3
:101B8000904E0025756005880126354305804589FE
:101B9000AE058E4D068801D52E4300E0AE4306808B
:101BA00005887826B54328350580058806263543FF
:101BB00005804D8A1D434D820388934303800A8923
:101BC000A2430A814089800503D57F490520603101
:101BD00088800120800701688215914301607C485C
:101BE00001683F2252029143421489180160016842
:101BF00002031143016070BD03217648090281810F
:101C0000082242800021491C9629FCD3828070471B
:101C100071494880088803221043088008880422FC
:101C20001043088067490120087070477CB5654CF7
:101C3000217800292DD068490A885207FCD4CA8827
:101C40000092898801911104019A891800916349D1
:101C50004843009904F004F8009000202070009898
:101C6000A060009803F0DCFE054629465C4803F0BE
:101C700062FD0A2103F09DFD03F0D9FEE0602846D5
:101C800003F008FF574A584B03F0FCFF03F016FF20
:101C900020617CBD10B54B484168AA2906D07C2044
:101CA0005249081880B203F0F9FF10BDC06819212D
:101CB0000903884200D900BEFF20EB30F0E770B581
:101CC000414C6088C006050F03F0EEFF61881E22BC
:101CD00091436A001143618070BD10B544490120F1
:101CE000C863C86B0028FCD101208007C169414846
:101CF0000268914201D20022026019238A1ADB0194
:101D00009A4212D3016003F0D5FF3B4A1188884202
:101D100001D9411A00E0091A89B2182905D31080A7
:101D2000012003F0CDFF03F0D1FF10BD08B5254918
:101D300089684843314903F093FF009008BD08B516
:101D40002049C9684843800A009008BD08B51D496C
:101D50004968002903D0FFF7E9FF009008BD03F0B0
:101D6000BBFFFAE708B517494968002903D0FFF718
:101D7000E6FF009008BD03F0B5FFFAE708B520497B
:101D800001204A695206D20F13D04A699206D20F37
:101D90000FD000220A610092FF225F32009B5B1C81
:101DA00000939342FAD34969C907C90F02D003F0DF
:101DB0009FFF002008BD40183721C00009014018CE
:101DC0007047000018800020200000500010000024
:101DD0000002004020300050001600500024F400A3
:101DE000002474497B14AE47E17A443F011200009D
:101DF000C00000407C0408007804080040420F0046
:101E00000010005030B58D4A8D49D00504888023DC
:101E10001C4304808B4C65892D0701D4521EFAD2D5
:101E2000894C01222260894C0A882280884A49888C
:101E3000118001889943018030BD002070477047B0
:101E4000704770470020704701218907086B0722FF
:101E5000104308637047704710B57F497D4808609C
:101E60007E494C2008807D4B7D4A203B1A827E496A
:101E70007C4848807E487D4901807C4919314180F9
:101E8000222141818121890001827A4941827A4956
:101E90000183784911314183754978482031888020
:101EA00041217748090181807649C180754C103401
:101EB000C48101824182891C8182611FC182FF210C
:101EC00046310183704941837049592008806F4829
:101ED0006F4C20300480432444806E4C4C82D521CA
:101EE0008180FF21D33101816B4941816B4981811F
:101EF0006C496B48088059486B4960384180C188FB
:101F000010242143C18062490A390181534C674939
:101F1000403C61805A82082141814D485B490088DC
:101F200040390882494862490088088010BD40084D
:101F3000704700B58BB05F4A42625F4A82625F4A77
:101F400042615F4AC2625F4A02605F4A02625F4A60
:101F500042605F4AC261404A3E48002110603E48EC
:101F60004038026B03129A430263426B1F231B0427
:101F70009A4303231B04D218426356480268C312D3
:101F80009A430260026803139A4302606846415410
:101F9000491CC9B22829FAD3014628224E4803F029
:101FA000ADFEFFF759FF03F085FE4C490880002085
:101FB00003F086FE03F08AFE0BB000BD10B5264A82
:101FC0000F2124480902106023484038426B1F2328
:101FD0001B049A4303231B04D218426300060268C1
:101FE000D208D20002600520000702899208920000
:101FF000521C0281028908231A430281028A0A4381
:10200000028237480068002808D10E4841898905B6
:1020100004D501887822914308310180FFF71CFF25
:102020003048006B0078002804D02F4800880B4906
:102030006039C880012003F0DDFD10BDA0860100DD
:10204000087F040020000050008000405602080075
:102050004A0308004C05540780000040602C0050E3
:102060007F7F0000AC290000002200500909000019
:10207000002400502204000030D00000EE110000C7
:10208000002500502E02000044200000402800508F
:102090000D95000002420000E4DC000010920000F8
:1020A00053780000002A00508B1000009DD50000DE
:1020B000002600503B1E00203F1E0020451E002031
:1020C000491E0020411E0020571E0020431E0020F4
:1020D0002F1F0020000200402000080078040800A4
:1020E0001C800020200200205204080010B5044685
:1020F00004F088F91249A00040188038406B00288D
:1021000001D0804710BDE106C90E012088400D496D
:10211000086010BD1320E9E70B4909480A88B03868
:10212000028000220A80012141808188491C81802F
:102130001420DBE71520D9E71620D7E71720D5E7CD
:102140001091002080E200E072910020052000073D
:10215000828880210A4382804048818100218180D9
:102160000921018003218181028A40218A43028260
:102170000122028183881343838039480268120A4E
:1021800012020A43026088013649086070473348EA
:10219000818AC907FCD00088C0B270472F498A8A5B
:1021A0009206FCD50880704700B5034602E0FFF7B1
:1021B000F5FF5B1C18780028F9D100BD0346000626
:1021C00000B5000F0A2801D2302100E0372108189D
:1021D000FFF7E4FF1807000F0A2801D2302100E0C2
:1021E00037210818FFF7DAFF00BD10B50446000AD2
:1021F000FFF7E4FFE0B2FFF7E1FF10BD10B50446C2
:10220000000EFFF7DBFF2002000EFFF7D7FF2004D0
:10221000000EFFF7D3FFE0B2FFF7D0FF10BD10B5FF
:102220000E4801890907090F042910D103880E4AB5
:10223000901E41785354491CC9B24170D478002291
:102240000123D12C04D0DA2C01D1092902D010BDF0
:102250004A29FCD10370427010BD000000100050EC
:102260000CE400E000E100E02691002030B53F4B97
:102270001C680825C907AC43090F0C431C6019688A
:102280000424D207A143520F114319601968022296
:10229000C0079143800F01431960354801688022CF
:1022A000090A09021143016030BD324B5880998000
:1022B000DA807047FF203049013008607047FF2006
:1022C0002D4901308031086070472C480022418838
:1022D000491C41800178491CCBB20146143103707E
:1022E000142B08D302700B785B1C0B708B78002BBF
:1022F00001D05B1E8B700B78322B26D183885B1C40
:1023000083800A708289521C8281C288521CC280DA
:102310000289521C02814289521C4281C878401EA7
:10232000C8700879012801D9401E0871144A5088E4
:10233000022801D9401E5080124A1078002801D08E
:10234000401E10704879401E4871704770B50546B0
:1023500014460E46012004F083F9284604F08CF957
:10236000304604F09BF90348C48170BD003400502E
:1023700008E400E00034005000E100E0709100202B
:10238000389000202D900020084301218903034646
:102390000B4343490B80434B1843088009200243F9
:1023A0004A8070473E490A880F239B0100079A43E1
:1023B000800D02430A807047394900200880704729
:1023C00037483949028802231A430280491E02D342
:1023D00002889207FAD400210181408970470AE0FF
:1023E00000BF00BF00BF00BF00BF00BF00BF00BFF5
:1023F00000BF00BF00BF401EF2D2704770B5012180
:10240000890204464E0000223046FFF7BDFF14202B
:10241000FFF7E5FF002C01D0092000E00720FFF7BF
:10242000C1FFFFF7CDFF05460120FFF7D8FF0022CF
:1024300011463046FFF7A8FF002C01D0092000E02C
:102440000720FFF7AFFFFFF7BBFF4019144A002139
:10245000118070BDF0B5124C144820801420FFF795
:10246000BEFF01256D02A580E5802088E9000843B4
:10247000208020888E10B0432080FFF7A1FF074600
:10248000208830432080FFF79BFF0246780071428E
:102490004018281A52005118691AA080E180F0BD36
:1024A0000015005001400000A08601000148000016
:1024B00010B54F484178007804F012F810BD10B5FF
:1024C0004B484178007803F0E9FF10BDF8B50E469F
:1024D000154647490278079F0A7040781C464870A5
:1024E000FFF7EDFF0520000781880122D20211438A
:1024F0008180404801884908490001800188FF2205
:1025000081329143F20111430180018840229143BD
:10251000AA0111430180018804229143A2001143C2
:102520000180018802229143069A520011430180E2
:102530000188012292039143BA031143018001886B
:1025400018229143089AD200114301800188012288
:1025500011430180F8BD27490A88520852000A80B9
:102560000A88FF2381339A43C00102430A80088806
:10257000012210430880704710B51E4801884908A1
:10258000490001800520000781880122D202914381
:10259000818017484178007803F080FF10BD15480E
:1025A0000188490849000180704710B5114900238E
:1025B0000A88D205920F012A01D9040C8C80488028
:1025C00008888004FCD50120C880012A01D98888A8
:1025D00003044888C01810BD10B50446FFF768FF13
:1025E0002046FFF7E2FF0446FFF769FF204610BDD3
:1025F0000680002000120050F94AD16090607047B8
:1026000010B50120FFF7A7FF05200002FFF7E4FF48
:10261000C0B210BD70B50024F24DFFF7F1FFC00746
:1026200004D0641CAC42F8D30020C04370BD70B528
:10263000FFF7F0FF002817D1FFF78DFFFFF738FFF6
:102640009F20FFF7B2FF0020FFF7AFFF0504002037
:10265000FFF7ABFF04022C430020FFF7A6FF204347
:102660000546FFF72CFF284670BD70B5FFF7DFFF6A
:10267000DB4CDD4A002114234B43D5589B185B6883
:102680001D4003409D420ED1142308B24B432080CD
:102690009B189D68A560DB68E3601423584380188D
:1026A000606048B270BD491C89B20429E3D30020A0
:1026B0006060401E70BD70B5FFF7ACFF002815D1FB
:1026C000FFF749FFC74E00250620FFF785FF0024CE
:1026D000FFF796FFC10703D1800701D5002070BD29
:1026E000641CB442F4D36D1C322DEDD30020C043E2
:1026F00070BD70B5FFF78EFF002815D1FFF72BFFD7
:10270000B84E00255020FFF767FF0024FFF778FF41
:10271000C10703D1800701D5002070BD641CB442FD
:10272000F4D36D1C322DEDD30020C04370BD70B5C5
:10273000FFF770FF002811D1FFF70DFFA94E00250C
:102740000420FFF749FF0024FFF75AFF800707D056
:10275000641CB442F8D36D1C322DF1D30020C04369
:1027600070BD10B50446FFF755FF002808D10120C1
:10277000FFF7F1FEE01DF930FFF72EFFFFF74AFFEC
:1027800010BD70B5064696480D46806851198142C5
:1027900001D9441B00E01446FFF73CFF00281AD182
:1027A0000220FFF7D8FEFFF783FE03212846090623
:1027B0000843FFF7FAFE0020FFF7CDFE002505E0F5
:1027C0000020FFF7F2FE3070761C6D1CA542F7D397
:1027D000FFF775FE204670BD70B5054680480E4671
:1027E000C0681446824200D984B2FFF713FF002864
:1027F0001ED1FFF760FF00281AD10220FFF7ABFEC1
:10280000FFF756FE0121304649060843FFF7CDFE8B
:102810000020FFF7A0FE05E028786D1CFFF7C5FE3D
:10282000641EA4B2002CF7D1FFF749FEFFF7F2FEB9
:1028300070BD70B50D460446FFF73DFF002802D07D
:102840000020C04370BD0220FFF785FE280620430C
:10285000FFF7C2FEFFF7DEFE70BD10B5FFF72BFFDE
:10286000002802D00020C04310BD0020FFF773FEF7
:10287000C720FFF7B1FEFFF7CDFE40B210BD00202C
:10288000C043704710B5FFF7C5FE002812D10120E4
:10289000FFF761FEFFF70CFE09200003FFF785FE3E
:1028A0000020FFF782FE0020FFF77FFE0446FFF7BF
:1028B00006FE20B210BD70B5FFF7ACFE002801D0B7
:1028C000C11770BD0020FFF746FEFFF7F1FD4B205A
:1028D000FFF76BFE0220FFF73EFE0020FFF765FECC
:1028E0000020FFF762FE002504462846FFF75DFE44
:1028F00006462E43FFF7E3FD3046214670BDF7B58F
:1029000082B0374F0E460091F96814460D463046A6
:1029100003F0A6F9401C6843451E0020FFF71BFE8C
:10292000B868801BA04200D204462646002719E062
:1029300000988019A84202D900982E1A761C029895
:10294000B2B2C0190099FFF747FF002803D000205A
:10295000C04305B0F0BD681C00902148BF19C06895
:102960002D18E61BA742E3D33846F2E710B5FFF770
:1029700051FE002805D1FFF7EEFDB920FFF72CFE30
:10298000002010BD10B50020FFF7E5FDAB20FFF7DC
:1029900023FE002010BD70B5114C0546606800286C
:1029A00006D0FFF788FE002805D00020C04370BD88
:1029B0000520C04370BDFFF723FE6168097C884392
:1029C00029400843FFF7CDFE70BD10B504484068AC
:1029D000407CFFF7E0FF002808D040B210BD0000A7
:1029E00090910020400D0300F4660020FFF735FFB2
:1029F000F4E770B505462F480E46C068144682427B
:102A000000D984B2FFF706FE00281DD1FFF753FE60
:102A1000002819D10220FFF79EFDFFF749FD012193
:102A2000304649060843FFF7C0FD0020FFF793FD3D
:102A300004E02846FFF7B9FD641EA4B2002CF8D1CB
:102A4000FFF73DFDFFF7E6FD70BDF7B582B0194F0A
:102A50000E460091F96814460D46304603F000F921
:102A6000401C6843451E0020FFF775FDB868801BB9
:102A7000A04200D204462646002717E0009880199D
:102A8000A84202D900982E1A761CB2B20099029878
:102A9000FFF7AFFF002802D00020C04359E7681CB1
:102AA00000900448BF19C0682D18E61BA742E5D363
:102AB00038464EE79091002070B5EFF31085012065
:102AC00080F31088264803F01FF90446002D1DD01E
:102AD000012080F31088002C23D020462038C08BA2
:102AE000204988421DD16189208903F013F905002E
:102AF0000ED021461031A38962892089A847002879
:102B000006D001280DD002280BD105E00020E0E717
:102B1000204603F005F904E0114821460C3003F08B
:102B200005F9EFF31084012080F310880C48006849
:102B3000002802D1012003F0FFF8002C03D001206F
:102B400080F3108870BD0020FAE710B5BC2106485C
:102B500003F0F8F80549012003F0FAF810BD000071
:102B6000A80508003883000004060800B92A0020E0
:102B7000F8B50D46064681002B48EA884458521C99
:102B800020686B89018F294F5143009101464031E4
:102B90004A89C989511A8AB2991A89B2B94214D29A
:102BA0009A4212D0294603F0D9F82D89204900987D
:102BB00003F056F82818801C4034E0823002401C94
:102BC00080B2042103F0D0F8F8BD2821304603F08C
:102BD000D1F8F8BDF8B50546870013480C46C05932
:102BE000C9880068114E024640325389D2899A1A28
:102BF00092B28B1A9BB2B34211D20B4E8A420ED0C4
:102C000003F0BEF8F05905225F30611C03F076F83E
:102C10002802401C80B2052103F0A6F8F8BD282147
:102C2000284603F0A7F8F8BD4C030800FF7F00001A
:102C30001027000070B516460D46104603F0A6F8A2
:102C4000002869D0340A304603F0A0F8012812D0D9
:102C5000A87A1E2811D029460A310E2845D019DC41
:102C6000801E030003F098F80B255829582D583181
:102C70005839583D5800022070BD3146274803F0AE
:102C800091F80021204603F093F80221304603F02A
:102C90006BF841E018283CD006DC102819D0122827
:102CA0002BD0162838D130E0522822D0D22833D168
:102CB00027E0204603F082F82EE0204603F084F857
:102CC0002AE0204603F086F826E0204603F088F844
:102CD00022E0204603F08AF81EE0204603F08CF83C
:102CE0001AE0204603F08EF816E0204603F090F834
:102CF00012E0204603F092F80EE0204603F094F82C
:102D00000AE0204603F096F806E0204603F098F823
:102D100002E0204603F09AF8002070BD0128000070
:102D2000F3B581B001980C460102CA1D0E31022391
:102D3000344803F091F8047001990546022732489F
:102D40008E00002C06D0042C16D0062C10D0072C98
:102D50003FD108E0815905224968897C114069709A
:102D60008059C77335E0084603F07CF8687030E09E
:102D700080590F21C1732CE0044680594068417C82
:102D8000012902D1007E01280FD0019803F070F8CC
:102D900001210028A0590BD04268D07D00281CD00A
:102DA00001281AD004280DD00FE0002068700DE033
:102DB0004068C27D022A01D0042A06D1007C022884
:102DC0000BD102E0107C022807D06F70A1590320BC
:102DD000C873284603F052F8FEBD6970F6E7014655
:102DE0000A780120042A01D9002070474A78002A75
:102DF00001D0012AF8D10A79082AF5D84979082999
:102E0000F2D87047021C000028050800FFB589B001
:102E10000D4600206946059008720B98000A009044
:102E200003F026F807460B9802F0B0FF00287DD08B
:102E30000B982978000A8400764E01295ED0042977
:102E400004D0062943D0072963D120E06878002800
:102E50001BD0305910224068A91C02F04FFF002FF0
:102E600006D03159C87B032807D0042808D050E089
:102E70003059C07B032803D04BE00B20C87348E0D7
:102E80000521009803F000F843E00120B6E0305936
:102E9000C07B0E283DD1009802F0E4FF002103E042
:102EA0002A18401C9170C0B21028F9D3688A69466C
:102EB0000883294606A808221431023002F01EFFBA
:102EC00006ABAA1C3946009802F0E4FF21E0305915
:102ED000C07B0F281DD1AA1C0A21009802F0E0FF38
:102EE000002F04D03946009802F0E0FF11E00023E3
:102EF0001A463946009802F0DFFF0AE0012F08D198
:102F00000B9802F043FF01281CD0002801D00220BA
:102F100005906846007A002811D002AA0521009881
:102F200002F0BEFF6846027A602000E007E002433C
:102F30006846027201233946009802F0BDFF0598E9
:102F40000DB0F0BD3059C07B0228E2D1687800286E
:102F500051D002210B9802F007FF30590722406838
:102F6000A91C173002F0CAFEE878002804D13059B5
:102F70004068407C01283AD0009802F0A3FF002866
:102F800037D0297A009802F0A3FF002833D00098A8
:102F900002F0A4FF0121009802F0A6FF00282CD027
:102FA00030594068417E00292BD0042929D0C17EA8
:102FB000027D1140C17630594068017F427D114049
:102FC00001776846007A0028A7D13059022142686B
:102FD0000098173202F064FF305941684031897B14
:102FE000002913D004210098FFF79AFE91E70220F0
:102FF00004E0062002E0082000E003206946087291
:103000008BE70021C17630594068D9E70B21C173A5
:103010007FE700002805080070B504460078002509
:103020000D2801D00A2200E002225A494B7A002BD7
:1030300006D00D2804D0637C032B01D0432551E03A
:10304000097A8A4339D10D2809D00E2802D00F28D9
:1030500003D134E0607C032804D3402542E0607C47
:103060000328FAD8A07C0428F7D20A2908D0607C6B
:10307000012822D0022820D06078032809D811E046
:1030800002F038FF012806D16078032803D0002819
:1030900001D0492526E002F02DFF002802D16078FA
:1030A0000228F6D83020035D22462046E17C3132EA
:1030B000143000F019F8054614E0422512E002F041
:1030C00019FF012807D16078052804D1A01D02F05E
:1030D00017FF0028DDD002F00DFF002802D1607834
:1030E0000228D6D8284670BDFFB5002086B0012141
:1030F0006A461170044605910021002C06D0089DF7
:10310000099A1F239A4234D9402032E01C23069D9D
:10311000079AF7E76B185E78330002F03DFE1D2634
:103120001010101010101010102626262626262605
:103130002626262626261010101010102600059B85
:1031400003E06F46FF5CB74204D05B1E5BB2002B0E
:10315000F7DA03E0002B01DB4A2006E0059B6F460F
:10316000FE54059B5B1CDBB205936B5C491C591834
:10317000C9B2914201D20028CCD0914202D04A205B
:103180000AB0F0BD641CE4B2022CF9D20028B3D01E
:10319000F6E7000098050800F8B50C469449164675
:1031A00009680125002702228B1C312873D012DC0C
:1031B0000C2874D008DC012821D0022840D0072830
:1031C0004FD00B2869D156E010287FD0112876D037
:1031D0001228F7D18DE00123412871D008DC322874
:1031E0006FD035286ED036286DD04028EAD1B1E0B6
:1031F000422869D0432868D04428E3D1CFE0062292
:103200007C497D4802F082FE002808D006227A49D7
:10321000304602F073FD062020700020F8BD74488F
:1032200001680878C00738D02078062801D22770B6
:10323000C2E006229831304602F060FD06200EE022
:103240000A786B48920728D522783E2AEFD30546A4
:103250004A7E5A31304602F051FD2868407E207087
:10326000A7E00878400718D520780228DFD3887CAB
:103270003070587C78E00A785D4812070DD52278C6
:10328000202AD4D30546CA7D1A31304602F036FDD5
:103290002868C07DE3E735E001E077E016E00A78D2
:1032A0005348D20672D52278202AC0D305460A7E1A
:1032B0009831304602F022FD2868007ECFE70EE00C
:1032C00054E028E034E03BE058E060E00878800615
:1032D00070D520780428AAD30422091D23E0087899
:1032E000400667D52078002866D0087D08E0227067
:1032F0005FE0087800065DD5207800285CD0487D26
:103300003070F4E70888C00554D5207804288ED39F
:1033100004220C3107E0088880054BD5207804286A
:1033200085D304220831304602F0E8FC042096E7F9
:10333000088840053ED5207800283DD0887D36E0BD
:103340000888000536D5207802288FD3087C307095
:10335000487C09E00888C0042CD52078022885D351
:103360008231087F3070487F7070C0E70888800421
:1033700020D5207800281FD0A03117E0088840040D
:1033800018D52078002817D0A1310FE012E0088866
:1033900000040FD5207800280ED0A23106E008687E
:1033A000C00307D52078002806D0A33108783070F4
:1033B000237000252846F8BD0425FBE770B50F48AB
:1033C0000F49C405228880252A4322800D4A53894B
:1033D0001B0701D4401EFAD20B4A012010600622BE
:1033E000054802F08BFC2088A843208070BD0000B7
:1033F000C0060800383E03002C800020A086010093
:10340000D47F04002000005000800040F0B5554DEE
:1034100085B00026686937460190FDF7AEFF0021B0
:10342000514C002802D12079022800D101914F4847
:1034300002684F48002A0FD10278002A0DD04D4B68
:103440000122DA63DA6B002AFCD101229207D269E9
:103450001923DB019A420ED3017002F05DFD0028B2
:103460007DD0E0780126002879D005200007808AE9
:10347000C00701D0042672E002F0C8FB00286ED11C
:103480003D4800683F2804D12079002801D12869EF
:103490000190A17801A802F045FD00285FD0A17835
:1034A00001A802F0C5FB002859D0334800683F2826
:1034B00003D102F03DFD002851D02C480068AA2815
:1034C0001DD0972007210125AD07EA6B920A9202D1
:1034D0007F1C3A43EA63EA6B284B80021A4002439E
:1034E000EA63E86BC002C00A49050843E8631F4865
:1034F00004260068002807D0AA280ED01CE0204827
:10350000FEF724FC0321DEE701986421C00202F0EB
:10351000A7FB401E0BE001210CE0019802F080FAAD
:103520001849096802F0CAF802F081FA009021797E
:103530000029F0D102F002FD1348C06A8047286BD1
:103540000004C00FFBD011480168C905FCD502F08A
:10355000FBFC052000070189802291430181304650
:1035600005B0F0BDA0020020C60608001C800020A7
:1035700012800020C000004060010020FF03E0FF37
:1035800001120000288000201C07080000020040F3
:1035900010B50124A407A06BFEF7E4FB5F4902F01D
:1035A0005FFB27221201511A00D101215C4A5060B1
:1035B0001160206B082188430843206310BD38B593
:1035C00000200090574908200880052424072188FE
:1035D000302001432180218803221143218002E011
:1035E00000BF00BF00BFA18A0906F9D5618989081B
:1035F000890061814C494A88520852004A802188DA
:10360000814321802088800880002080A08A400794
:1036100001D5FEF792F92089802108432081208A74
:10362000042188432082A08A8007FCD53F484105B9
:103630000268D20202D40A69520702D4009A002A10
:10364000F6D038BD10B502F085FC02F089FC10BD43
:1036500010B502F08BFC05200007418A80229143BF
:103660004182304801894908490001813048006899
:103670003F2801D102F080FC0120800781690422EB
:103680001143816102F07EFC02F082FC02F086FCB4
:1036900028480068AA2802D11420FEF7B9FA264962
:1036A0000020087010BD10B502F07EFC10BD10B5F2
:1036B00001208007008A000704D502F07BFC1E4928
:1036C0000320087010BD70B51C4800888506174897
:1036D000AD0E44681648C030006B0078002802D157
:1036E000284602F06DFC16480089134EC00507D528
:1036F00020060BD5E00709D0284602F067FC03E05E
:10370000200603D5E00701D002203070200403D545
:10371000E00501D50120307070BD0000710200008D
:1037200040000040003300502000005000020040E4
:10373000600100201C80002032800020002000500A
:10374000002C0050F8B514460F461E460546428828
:1037500001880623204602F07FFB0446287902F008
:103760003BFC208027716680204602F087FBF8BD75
:1037700070B51446428800790D4601020C310423CD
:10378000364802F069FB002D01D0132100E0122120
:103790000170448002F072FB70BD0A880270120A48
:1037A00042708A788270CA78C2700A7902714A7946
:1037B000427189798171072070474278037812023B
:1037C0001A430A8082788A70C278CA7002790A71B4
:1037D00042794A71807988710720704710B500F0EE
:1037E00039FC00F041F800F079FB10BD70B50646D9
:1037F00015460C46372002F0C9FA022805D1E2B27C
:1038000037232946304602F0EDFB362002F0BEFA9F
:10381000022805D1E2B236232946304602F0E2FB07
:103820001C2002F0B3FA022805D1E2B21C2329467B
:10383000304602F0D7FB4F20FEF7B0FC4B20FEF7DE
:10384000ADFCFD20FEF7AAFC0549002008701422FB
:103850003221044800F084FC70BD00000D300000EF
:103860001080002001C8000010B52821054802F092
:10387000BFFB0549372002F0C1FB0021372002F0D1
:1038800073FA10BDA0910020446700203EB50020CF
:10389000C043704C0290E380088860816E480190BC
:1038A000009220460023092202A90A3002F0ACFB54
:1038B00005466089002102F0ADFB002D03D10121F6
:1038C000372002F051FAE18801233722634802F0E1
:1038D000C3FA057002F0D2FA00203EBDF8B500250B
:1038E00068465C4C058062802380E3800E464888F1
:1038F00002F096FB207170882081E581A5812582E8
:1039000060896A46801C80B2022102F0C1F9608998
:103910006A46C01D80B2022102F0BAF96089012115
:1039200002F078FB0221372002F01EFA0020F8BDD9
:1039300010B50121372002F017FA002010BDF0B5B4
:1039400087B00C46142101A802F0FCF92346083385
:10395000A288618820881D4602F068FB3D482188C6
:1039600042898A1A022A04D0062A70D0072A6ED108
:1039700069E0007A002202F05FFB6288294601A814
:1039800002F0BCF968460079AA2860D168464079FF
:10399000BB285CD169463248897941716946C97949
:1039A00001716946097AC1706946497A8170694630
:1039B000897A41706946C97A017000200322072381
:1039C00012020146009002F09DFB264D002428685B
:1039D000E443002801D0204600E00120224E286068
:1039E0003268C117736810431943306071600F2744
:1039F0003F0320213846FEF71CFF062239461848AF
:103A0000FEF7EAFE16490120491E087014223221F1
:103A1000164800F0A5FB16A0FEF7C6FB0020032207
:103A2000034612020146009002F06CFB2868002851
:103A300000D101242C603268E017716814430843F8
:103A40003460706003E0007A002202F0F5FA002092
:103A500007B0F0BDA09100208067002006DC0000C8
:103A600009800020709000206890002001C80000AC
:103A700073746F726167655F6F6B0A0D0000000001
:103A8000FFB58BB00521C90268468182C91C01823D
:103A9000FA490183FA4C362161800621992500916B
:103AA0000822002301953621A01D02F0CBFA050063
:103AB0007ED1A01D0125009501900222E08805AB72
:103AC000114602F0C5FAE088EE4A022102F0E0F861
:103AD00003AE01960095E08804AB0222132102F0A8
:103AE000B7FA02AF092001970090E088E64B102258
:103AF000042102F0ADFAE5496846007A487068464C
:103B0000407A88700A4668461321808902F0C0F81E
:103B100001960095E08804AB0222132102F098FA86
:103B2000092001970090E088D94B1022042102F06F
:103B30008FFAD8496846007A48706846407A88709B
:103B40000A4668461321808902F0A2F80196009582
:103B5000E08804AB0222132102F07AFA0197009563
:103B6000E088CD4B1022042102F072FACB4968465E
:103B7000007A48706846407A88700A466846132181
:103B8000808902F085F801960095E08804AB022256
:103B9000132102F05DFA092001970090E088C04BE4
:103BA0001022022102F054FA6846BE49007A00E071
:103BB00058E048706846407A88700A466846132183
:103BC000808902F065F801960095E08804AB022236
:103BD000132102F03DFA092001970090E088B24BD2
:103BE0001022142102F034FAB0496846007A487075
:103BF0006846407A88700A4668461321808902F038
:103C000047F8AB4D01960095E08804AB02221321E2
:103C100002F01EFA01970095E088A64B10220121C0
:103C200002F016FAA4496846007A48706846407A5D
:103C300088700A4668461321808902F029F809A98C
:103C40000920019100900222E08806AB114602F0A3
:103C5000FFF90546E088002102F0DCF90121362059
:103C600002F082F80123362294480E9902F0F4F80B
:103C7000057002F003F900200FB0F0BD3EB5804C96
:103C80000D46E08802AA0C3080B2694602F0E6F9DF
:103C9000E08801AA0D3080B2694602F0DFF9E088C1
:103CA000AA1C0C3080B2012101F0F2FF01980088BB
:103CB000002806D0E08800210C3082B22046FFF7B1
:103CC00057FD00203EBD10B56D480A46C08804214E
:103CD000801D80B201F0DCFF002010BD38B50D461C
:103CE00000206946664C08802380288802F098F9F5
:103CF0002071FF2817D0E0886A460D3080B202217B
:103D000001F0C6FFE0886A460C3080B2012101F064
:103D1000BFFFA978E08802F07DF90221362002F089
:103D200023F8002038BD654A1B23DB02521C892181
:103D30005348FFF707FDF4E7F8B5514D0C462979D4
:103D40008022180A88427DD1E988208826468B1C6B
:103D50000027083698420ED1012100916188324631
:103D600001F096FFE079002875D0544808233622E8
:103D70002988C01F10E00B1D984229D10221009113
:103D80006188324601F084FFE079002863D04B4817
:103D9000298808233622801F02F05EF8064628791B
:103DA00002F01AF930807760E07A01067160A07A3B
:103DB000000401437160607A000201437160207A5F
:103DC000014371600098B070304602F057F842E04D
:103DD0000B460A3398421BD104200090E07900285A
:103DE00039D03648298818233622001F02F034F8CB
:103DF0000746287902F0F0F8388062883146381D8D
:103E000001F07CFFA078F8700098B8703846DCE7C5
:103E10000B460833984220D1032100916188324635
:103E200001F036FFE079002815D0244829880623C0
:103E30003622401F02F010F80646287902F0CCF82E
:103E4000308000E018E0B780607A0102B180207A0B
:103E50000143B180B6E7002207E00D31884204D16A
:103E60006188324601F014FFF5E7A079012803D1FB
:103E70002188287902F0E0F80020F8BD022900002E
:103E8000348000207C6800207E6800209B6B00202E
:103E90008E680020AE6B00209E680020C16B002061
:103EA000AE680020D46B0020BE680020E76B0020C5
:103EB00001020000CE680020FA6B002009D8000043
:103EC00010B5054A180A1279904202D1088800F00C
:103ED00026F8002010BD00003480002010B5082115
:103EE0001A4802F085F81A49362002F087F80021B6
:103EF000362001F039FF10BD70B5144D06462988F3
:103F000018233622134801F0A7FF0446287902F04F
:103F100063F82080A670204601F0B0FF70BD70B538
:103F20000A4D0446E888002102F074F809482988FF
:103F300004233622001F01F08FFF048001F09EFF52
:103F40000121362001F010FF70BD000034800020F8
:103F5000E068002005D80000FEB53B4E1C207080B4
:103F60001D4617463446088800F082F8029037480C
:103F7000334601900833132202A90097A01D02F0D6
:103F800043F8040008D1F088002102F043F8044609
:103F900001211C2001F0E8FE01231C2229462C48A7
:103FA00001F05AFF047001F069FF0020FEBD70B5FA
:103FB0000C4625490B802078082814D8CA88083177
:103FC000415C51188DB2822D0BD0617800F063F8FE
:103FD000010009D16D1C6178A8B2A21C01F058FE45
:103FE00008E0822100E08121194B17485B1CDA1C94
:103FF000FFF7A8FB002070BD70B51D460C46088871
:1040000002F00EF8104AFF281071158009D0A1782F
:10401000D08801F0FFFF02211C2001F0A5FE002046
:1040200070BD0B4B89219B1C9A1C0748FFF78AFB2C
:10403000F5E710B5044A180A1279904202D10888AF
:1040400000F03EF8002010BD3E80002030690020C6
:104050000170000010B51221244801F0C9FF244965
:104060001C2001F0CBFF00211C2001F07DFE10BDC3
:1040700030B503460120002103241A46CA40D20766
:1040800004D04D006D1C2246AA401043491CC9B201
:104090000929F2D330BD02460020122901D98D2012
:1040A0007047062A06D0072A07D0082AF8D1072920
:1040B000F5D170470829F2D170470629EFD3704730
:1040C00070B50A4C0546218802231C22094801F0DC
:1040D000C3FE058001F0D2FEE088002101F09AFFC6
:1040E00001211C2001F040FE70BD00003E80002038
:1040F000446A00200470000038B50124684604704A
:104100000C21514801F074FF4F4D6946EC702A1D97
:10411000352001F0A9FF002800D02C7100F053FBDE
:104120004A49322001F06AFF0021322001F01CFED2
:1041300000F0C6F838BD10B500F0F5FB10BD10B5A5
:10414000414802238078322201020E31404801F0BA
:1041500083FE012101701321417001F08FFE10BD1B
:104160003C4B10B59A4201D91A4602E0002A00D110
:10417000012201F07FFF10BD10B5044632482C2308
:1041800080783222010232480E31801E01F064FE36
:1041900001462030047200224272084601F06EFE91
:1041A0002D49012008704F20FDF7F8FF4B20FDF747
:1041B000F5FFFC20FDF7F2FF142232212748FFF71C
:1041C000CFFF10BD10B5502332220D21244801F03D
:1041D00043FE044600F01BFB204601F04FFE022187
:1041E000322001F0C1FD10BD1D4810B5012332225F
:1041F0000D210B3801F030FE0221017001F03EFE6E
:1042000010BD10B500F0E3FB10BDF8B5064614482C
:1042100015460F46252332220D21C01C01F01CFE3D
:104220000446012020772046062239461D3001F041
:1042300065FD2320065565822582204600F0E8FBB7
:10424000204601F01BFEF8BD50800020546A00207B
:1042500004380000307500001080002001C8000004
:104260000E34000010B501F00BFF254901F0FEFCF3
:104270002448081810BDF8B5234D0646A87600243A
:1042800001F0FEFE2919641CE4B20874082CF7D36F
:1042900000241027381BB04201DD002007E001F0A8
:1042A000EFFEC117090E0918090A0902401A28551C
:1042B000641CE4B2102CEDD301F0E2FE2883F8BDBB
:1042C00010B52421104801F093FE00F082FA10BDD1
:1042D00010B50E4802238078322201020E310C48BC
:1042E00001F0BAFD0D210170074920318978417034
:1042F00001F0C4FD0321322001F036FD10BD0000A5
:10430000A0BB0D00A08601005C8000205080002032
:104310001A38000010B5084609781C460B0001F059
:104320003BFD080520202008181B1E2000F073FB11
:1043300017E04178012904D0002902D0022903D0D6
:104340000FE000F069FB0CE01146204600F06DFB29
:1043500007E000F062FB04E000F060FB01E000F029
:104360005EFB002010BD10B50878304C801E0300A5
:1043700001F012FD020214188878A070C0070AD05C
:104380002B492A4A4879203AD07628480622891DA6
:10439000001F01F0B3FC00F043FB03E0FFF7CFFE8A
:1043A0000020A070002010BDF8B518460D4601464B
:1043B0001223204801F050FD0446284600F031FB4E
:1043C0000027002821D0194EB078C0071DD03046F4
:1043D0000822A91C103801F099FD002815D130469B
:1043E0002038018B2A8891420FD101212170807ED3
:1043F0006074314610222039601C01F07FFCB078D7
:10440000FFF7BAFE00F010FB00E02770204601F035
:1044100035FD2078002801D1FFF791FE0020F8BD7E
:1044200010B500F000FB002010BD00007C800020D3
:10443000508000201838000010B5104601F0A6FC8E
:10444000002809D1012332220D21484801F004FD42
:104450000121017001F012FD002010BD70B5087837
:1044600015460F282DD008DC01280DD002282CD0AD
:1044700003281CD00E2830D11FE0102825D0112889
:1044800023D0122829D123E04878002825D13748A5
:10449000222332220D21801C01F0DEFC044601465D
:1044A000284600F095FA204601F0E8FC15E048782F
:1044B000002812D100F097FA0FE0487800F0A1FA36
:1044C0000BE0487800F09EFA07E000F0A0FA04E064
:1044D0004878442801D100F09DFA002070BD70B5E5
:1044E0001C4610460D4601F051FC022805D120491A
:1044F000200A8870284600F06DF9002070BD70B564
:10450000087815460C460A2810D1104601F03EFCEA
:1045100004280BD16078002802D000F070FA05E082
:104520000521284601F020FC00F06AFA002070BD49
:1045300010B5104600F0E2F9002010BD10B510468D
:104540000C4601F023FC012808D12078002805D171
:10455000FFF7F1FD002801D000F055FA002010BD52
:1045600010B5084600F055FA002010BD02340000D6
:1045700050800020F8B50120FDF714FFFDF720FF63
:1045800085B2F74E0027F74C002D18D0207901286E
:1045900015D0F5480078012811D0284601F06CFBB1
:1045A0000022F24B01F0B5F90022F14B01F0C0F905
:1045B0000022F04B01F066FB01F04EFA3070284605
:1045C00001F05AFB0022E94B01F0A3F90022134647
:1045D00001F05CFD02D8002D00D03770E149E07891
:1045E00032780E310A54401CC0B2E070A278002A22
:1045F00006D1402202E00A54401CC0B20A28FAD375
:10460000D8480A210E30FDF7F9F96070E0780125ED
:104610000A2801D3A570E7706078642802D9642065
:10462000607026E0142824D8D34803210088064669
:1046300001F016FB002907D00021022001F050FFF5
:10464000A07901280AD00BE00621304601F008FBD2
:104650000029F5D1022001F021FFF1E7C7480770DA
:104660006078002805D114223221C548FFF778FD73
:104670006571C3482179801E012905D01422322199
:10468000FFF76EFD0020F8BD322101F08BFBF9E74A
:1046900010B5B448C179BA48401E002904D064223C
:1046A0003221FFF75DFD02E0322101F07BFB0020AB
:1046B00010BD70B50220FDF775FEFDF781FEA94C17
:1046C000A27A214653001831521CC852D5B2A572A5
:1046D00008884A88CB8880188A880989D218801867
:1046E0004018052101F0BCFA0026A081052D00D15B
:1046F000A6720021012001F0F3FE0121084601F01D
:10470000CDFE0721022001F0C9FE0221012001F0A7
:10471000C5FEA089FF280DD39A4806700721022004
:1047200001F0DEFE0221012001F0DAFE3221944880
:1047300001F038FB002070BD70B50220FDF732FE9D
:10474000FDF73EFE874CA27A214653001831521CD9
:10475000C852D5B2A57208884A88CB8880188A8842
:104760000989D21880184018052101F079FA00262D
:10477000A081052D00D1A6720121084601F0B0FEEE
:104780000021012001F08AFE0721022001F086FEAF
:104790000221012001F082FEA089FF280DD3794873
:1047A00006700721022001F09BFE0221012001F08A
:1047B00097FE3221724801F0F5FA002070BD00200A
:1047C00070470020704710B500F058FF00F060FA05
:1047D00010BD704710B56C4CA078FF2814D0684805
:1047E0003221001D01F0DEFA0521322001F0BCFA71
:1047F000208800F051FF00F069FA00F071F9634879
:104800008078FFF7B9FC10BDFFF7DCFC10BDF0B5F8
:1048100004465B48322293B01146401CFFF7A0FCCF
:10482000574814223221801EFFF79AFC4D4801217F
:1048300001700E202070002767709620A081E08113
:104840000720207461741C20E074254622461F2036
:104850002035143228741646511E0B2001F004FC3A
:10486000002805D00A22E27449A1304601F046FA38
:1048700022463132511E0C20119201F0F5FB002826
:1048800005D02F743A4645A1119801F037FAE07C23
:104890001A21081A45B2002D2EDD3E206946087007
:1048A00001AA022001F0E0FB002806D00D22684694
:1048B00002703BA101A801F0EFFB684600780028D8
:1048C0001AD0A84200D2054669460D70E07C6D1CE6
:1048D0008555E27C2046092115301154E17C401CAD
:1048E000081869460A7801A901F008FA69460878AB
:1048F000E27C801C1018E07413B0F0BD10B50446C3
:104900002BA0FDF751FC204601F040FA032803D00C
:10491000052801D0042805D10221322001F024FA13
:10492000FFF750FC10BD70B500240E490420C8727A
:10493000154DE878042847D2012807D0022802D074
:10494000032808D105E000F0BFF804E000F097FE6E
:1049500001E000F0AFF9E878401CE87035E00000B5
:104960000D6C0020C8910020319000200018834079
:104970000000614000005940789100207C6B0020CD
:1049800004C800007D6B0020508000207C80002047
:104990000903031802180418F5FE000002FF0000C6
:1049A000444131343538302054454D504C000000DE
:1049B0006170705F646973636F6E6E6563745F6668
:1049C000756E630A0D0000000124204670BD70471B
:1049D000032008700A204870002048820875487536
:1049E0001720C882704710B50121322001F0BCF9B0
:1049F000FFF7A1FB002801D0FFF7E4FB10BD7047D3
:104A000070477047704710B5FFF7DCFB10BD70476B
:104A100070477047704770477047704770477047DE
:104A200070470120704770477047704710B53220BB
:104A300001F0ACF910BDF8B51F4C0025207A1F4FCE
:104A40001F4E052827D2617A002912D01D496572B0
:104A50000978002901D0C00717D13878012814D06F
:104A60000221012001F03CFD0021022001F038FD6F
:104A70000BE001206072022101F010FD00210220F4
:104A800001F00CFD207A401C2072142232213046A5
:104A9000FFF766FB0DE00221012001F021FD00215E
:104AA000022001F01DFD25723D703221304601F0DB
:104AB00079F90020F8BD0000C8910020088000208E
:104AC00001C800001080002010B5022332223721D7
:104AD0000B4801F0C1F90021018001F0CFF910BDB0
:104AE00010B5372104233222880201F0B5F93221B2
:104AF000018004490988418001F0C0F910BD00001F
:104B000005DC00005080002010B510460C4601F076
:104B10003DF9012809D1322201231146900201F00A
:104B20009BF92178017001F0A9F9002010BD000067
:104B300010B510460C4601F029F9012809D132229E
:104B400001231146900201F087F92178017001F0EC
:104B500095F9002010BD70B54A4C0D4620781428F8
:104B60003DD2A97800293CD0E168002933D0C006A5
:104B700018D4207CEA78811850292ED84249401850
:104B8000291D01F0BBF8207CE9784018C0B22074E0
:104B9000E168814201D100F034FA207C18E000F095
:104BA000A7F81EE0EA786069FF2381180133994273
:104BB00013D836494018291D01F0A0F8E97860693A
:104BC00040186061E168814201D100F0D8FB606962
:104BD000E168884205D90520E1E70720DFE70820E2
:104BE000DDE7002070BD08B58878002806D0486849
:104BF000694600F0BEF8009800F021F9002008BDD9
:104C000010B5887800280ED01E4A49689160107847
:104C100002280AD0032808D0122804D0132802D072
:104C2000082000F065F8002010BD5268000610430F
:104C300001F038FA00F003F9F5E770B588780D4611
:104C400000281DD0A888002805D00E4C2178CA065F
:104C500003D4820701D005200EE0142910D2C90622
:104C600005D4502807D800F01FF8A88807E0FF21D6
:104C70000131884203D9072000F03AF800E0E060F3
:104C8000002070BD84800020106C0020606C00202B
:104C9000FD480021017441618161C160FB4A0177D7
:104CA0001165142101707047F748002101744161BA
:104CB000C160704710B5012332223621F44801F05B
:104CC000CBF80021017001F0D9F810BD10B53621E4
:104CD00010233222880201F0BFF8EE4909880180D2
:104CE0000121817000214160816001F0C7F810BD91
:104CF00010B50446E84804230288E5483621401EE2
:104D000001F0AAF8E34909880180847001F0B6F83F
:104D100010BD10B5DC4C2078032801D1FDF72CFC28
:104D20001420207010BD08B5AA2069460870D64826
:104D3000017813290AD141680122891C6846FDF7D0
:104D4000DEFD40B2012801D0062008BD022008BDCA
:104D500010B5CD4C2078C00601D4012000E0102011
:104D6000FFF7C6FF002020746061A061E06020773B
:104D700010BDF8B50F460021060EC34C354639600C
:104D8000142E17D2257080B26060002D01D0012D45
:104D900007D1C249280608436160002101F082F969
:104DA00038602078122801D0132803D160680228C7
:104DB0000BD86074112E26D00EDC022E20D006DC1B
:104DC000002E1DD0012E13D11AE0112022E0032E57
:104DD00016D0102E0CD116E0FD2E2CD004DC122E95
:104DE0000ED0132E04D10BE0FE2E16D0FF2E0CD0C9
:104DF0000820FFF77DFF1420207000203860F8BDE8
:104E0000FFF7A6FFF8BD082004E0FFF782FFFFF7D9
:104E10004BFF0320FFF76CFFF8BD207F002801D077
:104E2000042001E0FFF77FFFFFF762FFFFF771FF4C
:104E3000FFF73AFFF8BD002001F03AF9F8BD10B5D0
:104E4000044695480423028891483621801E01F0CB
:104E500003F8046001F012F810BDFEB5064600200C
:104E6000012424040090019003460246014602906A
:104E700025123046FDF72AFBFDF704FD884980B274
:104E8000401802D0012805D102E00124640401E0A9
:104E90000124A40429462046FDF7AEFBFEBDF8B56B
:104EA000044679487F4E017A00270906090FA1714F
:104EB000027AFF4313071B0FE37102891204120FDA
:104EC000227002891205120F627082681202120F9C
:104ED000A27082681203120FE2708268120F2271B0
:104EE00080680001000F6071282041438A199900F1
:104EF0005058002801D0384600E001205050A579D4
:104F0000E279C11701F0DAF82A0101F0D7F8664A10
:104F1000136855681843294310605160A078282110
:104F200048438219E07881005058002801D0384663
:104F300000E001205050A578E278C11701F0BEF8DA
:104F40002A0101F0BBF8584D2A686B6810431943D9
:104F5000286069602079282148438219607981009E
:104F60005058002801D0384600E0012050502679E2
:104F70006279C11701F0A2F8320101F09FF82A68A6
:104F80006B681043194328606960207828214843E2
:104F900044494118607880000A58002A00D101274E
:104FA0000F50384626786278F91701F087F83201F9
:104FB00001F084F82B686A6818431143286069601F
:104FC00001200090032636026178207808233246BB
:104FD00001F098F800250095E179A0790723324681
:104FE00001F090F80095E178A0780623324601F0B0
:104FF00089F80095617920790523002201F082F873
:10500000F8BDFEB5204C02252078EE01002805D021
:10501000012803D0032828D0082566E01F4F00068A
:105020003843002101F03EF88004217C000C0A186E
:10503000B24227D8301A154A401A121F891880B276
:105040005432101805E00A68091F04C0227C121FA0
:105050002274227C002AF6D12078002100063843F1
:1050600001F020F8FFF7EBFE3BE00320616800064B
:105070000843A16801F016F88004070C207CC019D1
:10508000B04213D9072530E084800020106C002046
:1050900008D8000050800020348000205C6D002083
:1050A000F010FFFF70900020689000206846FFF726
:1050B000F6FE6846FFF7D1FE6068227CC119FE4803
:1050C000FDF71DFC217C814200D006252078616817
:1050D00000060843A16800F0E5FFFFF7B0FE022DCF
:1050E00003D1FFF716FEFFF7DFFD2846FFF700FEAE
:1050F000FEBD70B502460020160BC04336030C0BF4
:10510000090500D0641C002C01D000250BE001240F
:10511000002520213046FDF78CFB0121090376187C
:10512000002802D16D1CA542F3D370BD0021FF28D9
:1051300002D0401CC0B2704708467047FF2802D01A
:10514000FF2905D006E0FF2908D0002906D001E09C
:10515000002801D0884201D9022070470120704701
:1051600010B5D64C034600202478C043132C02D13E
:105170001846FDF706FB10BDF7B598B000271A9842
:105180000C463E46402805D32078702802D160782E
:10519000512802D012201BB0F0BD6568C7492846CF
:1051A000403008621F210C2209036846FFF7D8FF30
:1051B0000C2847D168460078702803D168464078AB
:1051C000522801D01420E6E701981190029812901D
:1051D000002D03D01199401AA84201D21320DAE71A
:1051E000684640221090FFF7BBFF40282AD168464E
:1051F000C07814906846817803A8169020460C3039
:105200001590AA2907D168460078702803D168460E
:105210004078512803D00127002014900BE0102281
:105220001699159800F072FE002804D1E0690799DC
:10523000884200D10227402212991098FFF790FF70
:10524000402801D01620A6E76846C078139068462B
:105250008078AA2807D168460078702803D168466C
:105260004078512803D00126002013900BE0102233
:105270001699159800F04AFE002804D1E0690799B4
:10528000884200D102261898002801D0022807D9A8
:10529000012F11D0012E1CD013991498FFF74EFF47
:1052A0001590FF224021684600F00EFF1598022855
:1052B00015D0022F24D004E0FF224021684600F0E0
:1052C00003FF7E4911984860002E1BD0022E19D092
:1052D0000EE0FF224021684600F0F6FE01E0022EBB
:1052E0000ED0764912984860002F07D0022F05D0C3
:1052F0000126724F3878132809D00FE0149802E085
:10530000152048E71398FFF711FF0646F1E74035EF
:10531000A9B27868FFF7EDFE00282CD16846C67068
:1053200060680190A0680290E16863692269A069E1
:1053300003AD0EC50690E0690790217868460170BC
:10534000617841702020015D08A801703878132829
:1053500013D11A9A7968403A2046403115464030B8
:10536000FDF7CDFAA84206D1402279681098FDF7E2
:10537000C6FA402801D006200DE700200BE77CB5D7
:105380004E4C4D4A022600205032616904E0237FD2
:10539000155C6B402377401C8142F8D82078132895
:1053A00004D00826F0B2FFF7A3FC7CBD6846FFF7E7
:1053B00076FD6846FFF751FD6269002A02D0A069B8
:1053C000002818D0A169206A8A18431C9A4220D864
:1053D000824201D9401A606160682546411836480A
:1053E00062695030FDF78BFA6969814211D1A86971
:1053F0004018A8610EE03049607C5031FFF7BCFED8
:10540000002801D086B205E06269A1698918A1610E
:1054100000E0062600206061A069FFF710FDC1E7EB
:1054200070B5274C274D2146284600F03BFE01046D
:10543000090C06D0204A83B250322146284600F09B
:1054400049FE70BDF8B504461C481F4F017A00257F
:105450000906090FA170017AED430907090FE170F0
:1054600001890904090F217002891205130F637065
:105470008068000C606028204143CA199900505888
:10548000002801D0284600E001205050267862789C
:10549000C11700F013FE320100F010FE0B4E32680F
:1054A00073681043194330607160A0782821484325
:1054B000C119E07880000BE0106C0020848000208F
:1054C000000306050028000370900020689000206B
:1054D0000A58002A00D101250D502846A778E27805
:1054E000E91700F0EBFD3A0100F0E8FD336872685F
:1054F0001843114330607160002500956178207871
:1055000009232A4600F0FEFD0095E178A0780A23E1
:10551000002200F0F7FDF8BDFEB510460D4600F084
:1055200035FC01287ED12878002879D10E2332223B
:105530001C21434800F090FC0446002020700B27FB
:1055400067703A463FA1A01C00F0D8FB204600F04F
:1055500095FC0A2332221C21394800F07DFC0446C8
:105560000120207007206070024639A1A01C00F0C5
:10557000C5FB204600F082FC0B2332221C21304860
:1055800000F06AFC04460620207008266670324649
:1055900031A1A01C00F0B2FB204600F06FFC0E23EE
:1055A00032221C21264800F057FC044605202070BA
:1055B00067703A462BA1A01C00F0A0FB204600F02B
:1055C0005DFC0A270D2332221C211D4800F044FCFB
:1055D00004460420207067703A4625A1A01C00F004
:1055E0008DFB204600F04AFC0A2332221C2114487D
:1055F00000F032FC04460670072060700120A070A5
:10560000D221684601800B21C9014180710181804E
:1056100006226946E01C00F071FB204600F02EFCDB
:10562000012300E008E032221146900200F014FC51
:105630002978017000F022FC0020FEBD0020704798
:10564000027000004469616C6F672053656D6900EA
:105650004441313435383000123456FFFE9ABCDEF6
:1056600000000000765F332E35302E312E353400A9
:10567000765F332E302E362E31320000704710B553
:105680001C2102233222880200F0E6FBFF21743144
:10569000018000F0F3FB10BD10B504460423322254
:1056A0001C21054800F0D8FB0480012181700021F5
:1056B000C17000F0E3FB10BD03700000024670B53E
:1056C0004A40D30FDB0740002DD04A002AD0010EFC
:1056D000140E091900021202400A520A8418E50148
:1056E00004465443000A120A2E045043A4194219D6
:1056F000200CC543AA18120C01257F39521CAD039A
:1057000052191204240400D0521C104301D440004A
:10571000491EC2B20C06C0092018401C4008802A4D
:1057200002D003E0002070BD40084000002900DAEC
:105730000020184370BD70B502464A40D50F4000A6
:105740004A00ED0740085208002814D0002A12D061
:10575000C40DD30D41020120C0055202490A520A6C
:10576000E41A091812187D34914201D3641C00E038
:105770004900002C01DA002070BD0023914201D3C2
:10578000891A0343400849000028F7D100290AD0AC
:10579000914202D10121C90705E0914201D20121C4
:1057A00001E00121C943E005C018401900F0B5F936
:1057B00070BD420005D04200120E52428A4201DB07
:1057C00000207047C905081870470000F0B507466B
:1057D0000846584087B0C00F049048000E46590054
:1057E00040084908BC1A884105D2384631461E4651
:1057F00017460B46024658004008104303D138466E
:10580000314607B0F0BD300D039040055900400D02
:10581000490D0590401A029040286DDA18030121C5
:10582000000B09050843019004980092002805D058
:105830000199524200208841009201900298402133
:105840000A1A0199009800F039FC05460C46684692
:1058500007C800F04FF9C0197141039A0E0D0023DB
:10586000D71756401A467A40164340D0049A002A69
:1058700029D0029A012A039A11DC1205C01A91411B
:1058800001263605001C7141D20F059ED2070093F8
:10589000019202962A46234600F022FCB1E7160543
:1058A000224A0F46B218C01AB74101210905001C4F
:1058B0004F4100187F41114618187941E20F1043FB
:1058C0006D19644113E0E2076D0815436408C207CF
:1058D0001443039A01261205C01A91413605001C93
:1058E0007141CE07400830434908C01851412A464B
:1058F000234600F0FBFB84E7049801224000C11717
:10590000121A00238B4104983146C417381AA1415A
:10591000EFE730B40124E407634030BC56E730B40D
:105920000124E407614030BC50E700000000E0FFC4
:10593000F0B50C465C4085B0E40FE40703944C00DE
:1059400000266408590094464908024602962243FC
:1059500021D062460A431ED06200570D4A000E0352
:105960002303550D012402462C492405781B1B0BEB
:10597000360B401823432643614600901C46501ABC
:10598000B44103D30098401C009002E092180098A4
:105990005B41002803DA0020014605B0F0BD00207D
:1059A000012109050746864611E064461D46141B81
:1059B000B54106D36546521BB341744607430C43B9
:1059C000A646CD0740084908284392185B41054682
:1059D0000D43EAD11046184313D060461946504093
:1059E0007140084303D100220123DB0709E0604630
:1059F000101AB34102D20122002302E00122D24355
:105A00005310009874460105381C6141029C039DA7
:105A10000019694100F06AFBBFE70000FD030000C8
:105A200010B500229623114600F07FF810BD41000A
:105A300040020122400AD205090E80187F2901DAAE
:105A400000207047962903DC9622511AC8407047FF
:105A500096398840704700004A0009030123090B6A
:105A60001B051943094B10B5520D9A4201DA00206B
:105A700010BD064B34339A4203DC9A1A00F03CFB0B
:105A800010BD03495118884010BD0000FF030000FD
:105A9000CDFBFFFFC20FD207400040080BD0C10D65
:105AA0000723DB01C91840020905400A1143C20857
:105AB000400711437047002001467047CB0FDB07BA
:105AC000490010B5490802460A4307D00A0D0724C9
:105AD0000903E401090B121B002A01DC002010BDA0
:105AE000C900440F0C43C100E018D205801800F033
:105AF00014F810BD10B5202A06DBCB170846203A53
:105B00001041C1170B4306E00B461341D04020243F
:105B1000A21A91400843194610BD002904DA401C1E
:105B2000490001D140084000704770B40024050CC2
:105B300005D11024000402D1002922D01124050E21
:105B400001D108340002050F01D1241D0001850F89
:105B500001D1A41C8000002801DB641C4000002946
:105B600008D020252E1B0D46F540A14000D0012174
:105B7000294308431B1B0106DB1D000A002B02DA28
:105B8000002070BC7047DB05181880180029F8DA6F
:105B9000401C4900F5D170BC40084000704700002F
:105BA000064C0125064E05E02046E36807C82B4356
:105BB00098471034B442F7D3FAF746FC3C6B002008
:105BC0007C6B002003B40148019001BD551B02000D
:105BD00003B40148019001BD0F3B030003B4014829
:105BE000019001BDCF2B030003B40148019001BD1A
