:020000042000DA
:1000000000980020A9040020B1040020C9040020A9
:1000100000000000000000000000000000000000E0
:10002000000000000000000000000000E1040020CB
:100030000000000000000000F9040020FB04002084
:100040005F350020053103000D310300E535002048
:10005000F13500208D310300473600204F36002057
:100060006B220020FD04002067360020AD31030024
:10007000BF210020FD0400204B1B02004B1B02008F
:100080004B1B0200FD0400204B1B0200B52000208A
:10009000B9200020D5200020D9200020DD2000201C
:020000042000DA
:100160003200000017080020D31E00207D37002039
:10017000000000000000000063800200BD8002005B
:100180001D1D0020FB800200198102003581020044
:100190005D81020031350020FF050020ED1C0020AC
:1001A000051D002000000000000000003F000000CE
:1001B000F48B002000040000740B080048010000CC
:1001C0006807080000040000C80C080020050000B3
:1001D000000000002000000048000000580000005F
:1001E0006800000004010000160100002801000062
:1001F0002E010000202A00008E2E000001000000C9
:10020000881300005D1F0020E9600200FD930200DA
:10021000EB2A002019280300A574020039310020C0
:1002200003000000D52002008D37002004000000EC
:10023000D74902000F490200831D020063910200AA
:10024000B7910200BF910200078202007182020092
:1002500078660020AD83020093840200418502008D
:1002600015860200378602005F860200758602004E
:10027000F9870200258902005D8A0200D38C020002
:10028000098D02000F900200438D0200278E0200AC
:10029000F98E0200478F02005F1C0020D58F0200FC
:1002A00049510200775102002F5202001000000055
:1002B00020030000803E000000000000000000005D
:020000042000DA
:1002C000504600030003983A6400F401B80B000C98
:1002D000B80B120030003000CD009A01120024004B
:1002E00030006400B0001800280012001200D0078F
:1002F0000000FFFF00000000000000000000000000
:100300001F000002444131343538302D30310000B7
:1003100000000000000000000000000000000000DD
:0403200000000000D9
:020000042000DA
:10034000FFFF010000C201000000000000000000EB
:100350000000F4010100011B0A071AFFD200021578
:10036000585CDE931B0142CC9A1325009BEDC65EC0
:1003700000000000C5000000000009FF00605257A7
:100380002D424C450000000000000000000000006D
:100390000000000000000000000044413134353806
:1003A000330000000000000000000000000000001A
:1003B000000000000000000000000000000000003D
:1003C000000000000000000000000000000000002D
:1003D0000000000000000000000000000000D00746
:0403E000064064323D
:020000042000DA
:100440000348854605F07EFB00480047C7200200B0
:100450000098002010B5114906200880FF2010499F
:10046000013008600F4988683E2290432E30886032
:100470000021052000070180028A0F231B021A4376
:1004800002820122D204032308461B038418216040
:10049000001D9842FADB62B610BD00000034005027
:1004A00080E100E0003300501548804715480047C0
:1004B00004207146084203D0EFF30980124908472F
:1004C000EFF308801049084704207146084203D022
:1004D000EFF309800D490847EFF308800B490847FF
:1004E00004207146084203D0EFF309800849084709
:1004F000EFF3088006490847FEE7FEE7FEE7000045
:100500005504002041040020A913002015050020F7
:100510008705002005221207518A80231943518242
:10052000114903680B6043684B6083688B60C36844
:10053000CB6003690B6143694B6183698B61C0695F
:10054000C8610A48836A0B62C36A4B62036B8B62A1
:10055000C36BCB62436B0B63806B4863908A8006EE
:1005600001D500BE7047FEE70018080000ED00E06E
:1005700002890889FF49101A80B2884201D90120F6
:1005800070470020704781692039897F082904D28B
:10059000F94A8900515881617047FEE7F848F749E8
:1005A0000161F8494161F8498161F849C161F8493F
:1005B0000162F8494162F8498162F849C162F8492B
:1005C0000163F8494163F8498163F849C163F64919
:1005D000EB485C3140300160F5494160F54981608C
:1005E000F549C1600120F549C0060860F449CA69AF
:1005F0001202120ACA61F14980390860704710B5C9
:10060000F0490020086001F015FB01208007016B14
:1006100049004908016310BD10B50221084605F0E4
:100620009FFE00220123E84900280BD0CA70C88A27
:10063000E64CA0420DD2C88A00280AD0C87800280B
:1006400005D006E0C88A401CC882CB70EFE78B72E9
:10065000CA82C88ADE4CA04201D9CB72CA82C87B4A
:10066000052801D98B73CA7310BDF8B5FFF7D4FF05
:10067000D54DD84EA87A00240127012830D1AC727C
:10068000707800282CD1022030710146002005F03E
:10069000D7FED148322204701146D04803F02EFD17
:1006A0000721022005F0CCFE142000F0E5FE01F049
:1006B00061F90721022005F0E5FEC948CB49048015
:1006C000C8480780C84804800320C870777028464F
:1006D0002C731830048044800221002005F0D2FEE3
:1006E000E87A01283DD1EC727078012861D0C048C9
:1006F000AC7404800221002005F0A2FEB64832222C
:1007000004701146B54803F0F9FC0721022005F0FA
:1007100097FE142000F0B0FE01F02CF919204001E2
:1007200000F0AAFEFF20913000F0A6FE01F022F9B1
:100730000721022005F0A6FE02203071A84804809F
:10074000A9480480AB480480BB20B07177702C733B
:100750002F729D480221183004804480002005F04B
:1007600091FEA87B012823D1AC730721022005F05C
:1007700067FE142000F080FE01F0FCF82324240121
:10078000204600F079FE01F0F5F8204600F074FEF6
:1007900001F0F0F80721022005F074FE01F03BF9AA
:1007A0002F74204600F068FE0221002005F048FE6C
:1007B000F8BD0221002005F043FE0721022005F0CC
:1007C0003FFE142000F058FE01F0D4F84B20000149
:1007D00000F052FE01F0CEF80721022005F052FE93
:1007E000E87B401CE8738248048082480480AC7433
:1007F000BB20B071ACE710B5734C85B0032100206D
:100800006B461C34625C5A54491C5040C9B21329CF
:10081000F8D905B010BD96B000200A900B9076482C
:1008200001250570754808240F27048005F09CF900
:1008300005F06EFE01F051F80021022005F000FEE7
:10084000614805700078012802D1032105F0F8FD08
:100850000721022005F0F4FD01F0FDFF0B0E6A46B2
:1008600013700A020D93130E6A4653700A0409931B
:10087000130E6A4693701393CBB2D3700E930B0290
:10088000020E1A43D3B26A46137112930B04020C80
:100890001A43D3B26A4653710A06010A1143C9B218
:1008A0006A46109391710F91C0B2D0710F210190DF
:1008B00006220903524801F034FF00260322334682
:1008C000120231463046009605F0EEFB4D490868AD
:1008D000002801D0701E00E001204B4A0860136818
:1008E000C117556818432943106051600A2000F071
:1008F000C3FD01F03FF80C2000F0BEFD01F03AF816
:100900000C2000F0B9FD01F035F80C2000F0B4FD2A
:1009100001F030F80C2000F0AFFD01F02BF80C20B6
:1009200000F0AAFD01F026F80C2000F0A5FD01F072
:1009300021F801F063F80021022005F0A3FD072152
:10094000022005F09FFD2349022008712F480178FD
:1009500001702F4801780170012005F00BF9FF2587
:1009600001350D202946800105F00AF902F0F6FC58
:1009700050E0000030750000586600209427030006
:100980000084004062B600DF28A30200704701DF48
:100990001CCA0200F8BD02DF40CB0200F5E703DF0E
:1009A00084D4020004DF89B0BC330200F8BD05DF47
:1009B000F8BD06DFEC0C030070BD07DF80E100E04E
:1009C00000ED00E08C03080020900020B80B000030
:1009D000AC0D0000206B0020E091002005C8000055
:1009E0007E91002084910020809100208C91002035
:1009F000829100206C900020028000200033005083
:100A0000D80300207890002070900020000008009B
:100A1000202A080001F0C6F901F05CF8042000F07B
:100A200005FC072000F002FC0A2000F0FFFB062076
:100A300000F0FCFB0B2000F0F9FB012000F0F6FBBE
:100A4000022000F0F3FB002000F0F0FBFE480068FD
:100A500005F09CF8A80501682943016000F01CFC22
:100A6000FA480068AA2805D1142001F0A1F8142042
:100A700001F0ACF803F00EFBFFF7C1FDA221052049
:100A80000007C182F2484188E0229143A0314180B1
:100A9000012005F081F805F085F8022803D005F063
:100AA00081F801280AD1EB48048005200007818ADB
:100AB0008906FCD4428A80218A4342820524240785
:100AC000208900061FD5A000006B00041BD405F090
:100AD0006FF8C00717D1042005F070F8054605F03F
:100AE00073F8002D0FD0D94800960068AA2802D1CB
:100AF000142001F06BF80421684605F06BF800281B
:100B000001D001F0BAF872B602F050FC69460877DD
:100B1000042806D002280AD0032808D001286BD068
:100B20006BE0CD48007801280DD003200877208A9B
:100B3000042528432082C948C0690128087F17D9A5
:100B4000032802D010E00220F0E705F049F8002861
:100B50000AD005F04BF8002806D0032005F04CF829
:100B6000002801D002200AE002206946087708E048
:100B70000328F9D105F040F80028F5D00120B84944
:100B80000870B848016929430161608A20218843BF
:100B90006082208A0221084320826846007F022862
:100BA000608A22D0284360827F222088920180219F
:100BB000084320800020401CC0B20A28FBD3608A72
:100BC000102318436082A848521E4261208888433F
:100BD00020809F484188FF2201329143418030BFED
:100BE000A0480169A943016107E028436082618A46
:100BF000102081436182ECE730BF62B69B4D2878BC
:100C0000002809D10321012005F03CFC022100202D
:100C100005F038FC96480670FFF727FD00F008FF46
:100C20000521022005F09CFB002803D090490120FB
:100C3000887028708E4CA07801280AD18D480088D1
:100C4000012803D08C48008807281ED2A6708B4844
:100C5000068089480088072817D2A07C002814D174
:100C6000A078012811D08549088802463C3A142A08
:100C700007D8CC21A971C00711D181490320C870C0
:100C80000DE0502801D90E802E70A879BB2806D11E
:100C900079480088032802D80120607000E066705F
:100CA000A078012802D1687801280CD0102F09D92A
:100CB000744800880D2805D30E287ED87248007825
:100CC000C0075DD079E00120A8706E480680A07C46
:100CD000EE281AD168480088062816D96B480E21DC
:100CE000008804F08FFF00290FD10721022005F0B2
:100CF000A7FB142000F0C0FB00F03CFE07210220FF
:100D000005F0C0FB6149012008805F48142100887C
:100D1000009004F077FF002910D1DD20A074AA20F4
:100D2000A871E8790A904B2100984901884200D9BE
:100D30002E70607B002801D10120E071E07901284C
:100D40001DD1607B00281AD15149009888420CD2ED
:100D50000721022005F074FB142000F08DFB00F049
:100D600009FE0721022005F08DFB0621E87904F039
:100D700049FF41490A8880180880AA206871B9E0B3
:100D80003D480088062818D30721022005F058FBAB
:100D9000142000F071FB00F0EDFD4B20C00000F0CE
:100DA0006BFB00F0E7FD0721022005F06BFB332011
:100DB000A074AA2068713748068032480088B8427B
:100DC0006CD32D480088062868D9207B002803D1E1
:100DD0002B491820C870AE70A878002809D132229B
:100DE00011462D4803F08AF90120A8702073294884
:100DF00006801F4818300188002902D11421018083
:100E000041801B48183041880088421F914205D01C
:100E1000921F914202D0113881420CD10721022049
:100E200005F00EFB142000F027FB00F0C5FD0721A4
:100E3000022005F027FB17480088C10730D115288C
:100E40002ED203200E492AE0049000200C800020BE
:100E5000200000500033005054020800E001002040
:100E6000C406080000ED00E000800040206B002078
:100E7000209000206A9000206C9000208291002039
:100E80008C9100207E910020849100207C91002094
:100E9000560900008091002004C800002AE0C870B4
:100EA000E648E74900880988081A142104F0B0FED2
:100EB000002902D02879002812D0A07A01280FD06A
:100EC000E0490320C8705520A074AA20A871002012
:100ED0000A900120E071DC4806702879401E2871D4
:100EE0006878002806D1D948D9490088C01B8842B3
:100EF00000DD2E70D748018801297DD10680D648B3
:100F0000267400883C2807D80221002005F098FAB2
:100F10004B20C00000F0B0FA6078002801D1AA2070
:100F2000A871C748C949068001200880CB48CC4930
:100F3000068011200870C44805210670022005F0C3
:100F40000FFA00280DD0C4480088062801D9EE20E9
:100F5000A074C4480188FF20D730814203D2FF200B
:100F600005E0A674F5E7C04804F04CFE80B20B998A
:100F7000C0B2491CC9B202AA0B9150546946887389
:100F800011906079012800D1A0710B98052803D138
:100F900000200B9001206071607901280846497A91
:100FA000807A36D009186846C27A007B1018091872
:100FB0006846407B08180B9904F024FE0A906846A6
:100FC000417A807A09186846C27A007B101809189D
:100FD0006846407B09181198081AC117890F08182C
:100FE0008005000EE8710A99002925D0FF2923D831
:100FF0000A46617A521A00E063E0052A03DA0A9A87
:10100000891A052910DB012121718E4A18211171DD
:1010100012E009186846C27A007B10180918684661
:10102000407B08180521C7E786490A79052A03D2BB
:101030000122227118220A7101460B39BD2913D8E9
:101040008549098806290FD904F0E8FD02460B46B8
:101050000020864904F03EFC0022854B04F0E4FDAC
:1010600004F0CCFCC7B20CE00A2807D8002808D04E
:1010700079490988062901D9B42702E0C82800D98E
:101080000727A67074480188052901D20122227120
:10109000022907D2E978012904D10680EE70267171
:1010A00000200B902079012807D126710A986072E0
:1010B000607B00280CD0552068710221002005F0CB
:1010C000E1F9A07C332805D06078012802D008E03F
:1010D000AA20F1E767480188152902D1AA21697180
:1010E00006805848C078022802D1607B002806D0CC
:1010F0006879AA2805D0207A012802D087E0AA20A2
:101100006871207C01287DD000F085FC1920400109
:1011100000F0B2F94A480088B84206D3002002A97C
:101120000E54401CC0B20528FAD34B4800883C2816
:1011300003D90221002005F083F9504D4E4AA868DA
:10114000110A02704170A9798170A28AC270120AD4
:101150000271414A142112884271120A8271C171CE
:101160004749097801720A994172A17C81720D99EF
:10117000C17209990173139941730E998173129980
:10118000C173109901740F99417401998174FFF72B
:1011900032FBA968C8743C2000F06EF9002527488E
:1011A000001D405D00F0CAFF6D1CEDB2142DF6D39A
:1011B00001252448657406214171324800780128D0
:1011C00010D131481D4A4089121D801D80B2142162
:1011D00004F030FD2C4800214089801D82B22A484D
:1011E00002F096FAA08A2949401C80B2A082884267
:1011F00000D9A582E6710220607320485521417113
:10120000267200E003E00221002005F03BF9607C3B
:10121000012800D052E4207C0128FBD00948407905
:101220000528F7D200F0EAFB667447E4C106C90E50
:10123000012088401649086070470000389000205F
:101240007E9100208C9100205C90002084910020F1
:10125000650900006A9000206C90002082910020B7
:101260002C6B002068900020C0D4010000004E408C
:1012700000003E40809100201B030000206B0020F6
:10128000D791002001800020A8910020FEFF0000DF
:1012900080E200E0704700003E480178002902D05B
:1012A0008021417070473C49002008703B49C8705C
:1012B000704738480178002902D081214170704779
:1012C0003549012008703549C870704731480178A8
:1012D000002902D08221417070472F4902200870F6
:1012E0002E490120C87070472A488178002904D00F
:1012F000491E0906090E817017D142780021002A83
:1013000004D09207920F0270417004E00278002A24
:1013100001D0521E02701206120E017005D0012A71
:1013200002D0022A01D1D1E7C3E7704710B5194CAA
:10133000A078401CA0702078002805D104F032FC71
:10134000421CFFF7A9FF227010BD12490120C8708E
:10135000704710490020C87070470E48C078704729
:101360000020EFF31081012282F31088052212077A
:101370001289120605D40A48028901231A43028100
:101380001846002900D0012181F3108870470548D4
:10139000007870470380002054020800C606080049
:1013A000003300502280002005221207118A0423F6
:1013B00019431182118A0223194311821189402392
:1013C00019431181174B01211960174B082119800E
:1013D000518A802319435182144903680B61436881
:1013E0004B6183688B61C368CB6103690B6243699E
:1013F0004B6283698B62C069C8620D48836A0B6364
:10140000C36A4B63036B8B63C36BCB63436B07494B
:1014100040310B60806B4860908A800601D500BE29
:101420007047FEE780E200E00033005040180800FB
:1014300000ED00E010B5012005F0D0F8032005F024
:10144000C1F800221146012000F0E0FE2A2201210D
:10145000002000F04BFF142005F0ECF8002005F010
:10146000EFF800221146642000F0EFFE00F0F2FEDB
:1014700005F0C0F810BD70475021484380B20146C6
:10148000401E80B20029FAD1704700227D23DB0084
:1014900006E00021491C89B29942FBD3521C92B24A
:1014A0008242F6D3704770B5FA4900208A68C0437B
:1014B000002A01D0034600E00123DA179C0F9200B6
:1014C0002243F54C8B6025689B0066682B433243B2
:1014D000236062608A6D002A01D0024600E001228A
:1014E0008A6523689200656823602A436260CA6D3A
:1014F000002A01D0024600E00122CA652368D2001A
:10150000656823602A4362600A6E002A01D00246A1
:1015100000E001220A6623681201656823602A43FD
:1015200062600A68002A01D0024600E001220A60D7
:101530002568D31766682A433343226063608A694B
:10154000002A01D0034600E00123DA179D0E920124
:101550002A438B6125689B0166682B4332432360D5
:101560006260CA68002A01D0034600E00123DA174E
:101570005D0FD2002A43CB602568DB0066682B43F1
:101580003243236062604A69002A01D0034600E0CA
:101590000123DA17DD0E52012A434B6125685B01F6
:1015A00066682B433243236062604A68002A01D098
:1015B000034600E001234B60DA17DB18256852412F
:1015C00066682B43324323606260CA69002A01D0F7
:1015D000034600E00123DA175D0ED2012A43CB61F6
:1015E0002568DB0166682B433243236062600A6929
:1015F000002A01D0034600E00123DA171D0F120173
:101600002A430B6125681B0166682B433243236024
:1016100062608A6A002A01D0034600E00123DA17DB
:101620001D0C12042A438B6225681B0466682B4339
:10163000324323606260CA6A002A01D0034600E098
:101640000123DA17DD0B52042A43CB6225685B04C1
:1016500066682B433243236062600A6B002A01D024
:10166000034600E00123DA179D0B92042A430B6323
:1016700025689B0466682B433243236062604A6B93
:10168000002A01D0034600E00123DA175D0BD204E3
:101690002A434B632568DB0466682B43324323608F
:1016A00062600A6D002A01D0024600E001220A654C
:1016B0002368656823602A4362604A6D002A01D06E
:1016C000024600E001224A652368520065682360F3
:1016D0002A4362604A6E002A01D0024600E00122DD
:1016E0004A6623685201656823602A4362608A6EF5
:1016F000002A01D0024600E001228A662368920196
:10170000656823602A436260CA6E002A01D00246DF
:1017100000E00122CA662368D201656823602A437B
:1017200062600A6F002A01D0024600E001220A67C7
:1017300023681202656823602A4362604A6F002AA8
:1017400000D101204867216840026268216010438F
:10175000606070BDF8B503260125002336023246CD
:1017600002211846009504F09FFC00240221234624
:1017700022460846009404F097FC002107233246D5
:101780000846009404F090FC0623324619460020D7
:10179000009404F089FC08233246032100200095C0
:1017A00004F082FC0523002219461046009504F03F
:1017B0007BFC0223324603211846009404F074FC9B
:1017C0000123002204210220009404F06DFC002378
:1017D000324604211846009504F066FC00220F23CF
:1017E00001211046009404F05FFC172332460721C4
:1017F0000020009504F058FC0023324619460120D1
:10180000009404F051FC0121002332460846009464
:1018100004F04AFC0023324602210120009504F026
:1018200043FC0023324603210120009404F03CFCD9
:101830000023324619460220009404F035FC0023B0
:101840001A4601210220009404F02EFC00231A46BF
:1018500005210220009404F027FC002332460621D3
:101860000220009404F020FC0023324607210220CD
:10187000009404F019FC0023324608210220009550
:1018800004F012FC0023324609210220009504F0E6
:101890000BFCF8BD789000207090002038B582A035
:1018A0000068824C009060896A46801D80B20321E6
:1018B00004F0C0F960890021801D82B2204601F049
:1018C00027FF00210822084601F060FF0122322193
:1018D000774802F013FC38BD70473EB50524240755
:1018E000208A022188432082A08A0007FCD5FEF7C7
:1018F00055FEFFF72FFF00F07DFD00F0F7FBFFF72F
:1019000099FD0520FFF7B8FD002201201146C00215
:1019100000F00AFD012000F015FD142101200A4607
:101920000191009001460023022004F0E7FB614989
:101930000320487000200870009001900346024682
:10194000014602905B4800F091FD00F05EFE5949AF
:10195000091F4870401C04D1FF210131880200F0AA
:101960001BFE00F075FD00F07AFD608A202108431F
:1019700060823EBD10B500240621022004F060FD07
:101980000520FFF779FD0621022004F07BFD0520EC
:10199000FFF772FD641CC82CEEDB10BD034610B5CA
:1019A0000020024602E09C5C2018521C8A42FADBAE
:1019B00004F02EF9C0B210BD10B53F4C207822289B
:1019C00005D0442803D0662801D0882801D1FFF72C
:1019D000D1FF3A488178002906D12178882904D09E
:1019E000052282701131217010BD64218170112097
:1019F000207030490120091F087010BD10B5082162
:101A0000022004F03FFD2420FFF736FD08210220CC
:101A100004F016FD10BD10B50921022004F032FDBE
:101A20002420FFF729FD0921022004F009FD10BD43
:101A300070B523480178012934D10025057021496A
:101A40001C48CA78801ED12A02D0DA2A28D112E096
:101A50001C49194E20310A7A0270497A761C41706D
:101A6000327171710024305D00F068FB641CE4B2D7
:101A7000092CF8D314E0097A002911D10E4E01780F
:101A80000A363171407870710024305D00F056FBE9
:101A9000641CE4B2092CF8D37D20C000FFF7F5FCEC
:101AA0000948057070BD0000A1A2A300A891002004
:101AB00003380000609000202C6B00208C910020E7
:101AC0002C9100202E9100202D910020A54900206E
:101AD0004860704770B50521090708893022904396
:101AE00008810889802210430881088980088000C5
:101AF000401C088108890823184308819A480488F3
:101B0000144304804C8A9C434C820D894024254315
:101B10000D810D8A0426B5430D828D8AAD07FCD553
:101B2000904E00257560058801263543058045895E
:101B3000AE058E4D068801D52E4300E0AE430680EB
:101B400005887826B543283505800588062635435F
:101B500005804D8A1D434D820388934303800A8983
:101B6000A2430A814089800503D57F490520603161
:101B700088800120800701688215914301607C48BC
:101B800001683F22520291434214891801600168A2
:101B900002031143016070BD03217648090281816F
:101BA000082242800021491C9629FCD3828070477C
:101BB000714948800888032210430880088804225D
:101BC0001043088067490120087070477CB5654C58
:101BD000217800292DD068490A885207FCD4CA8888
:101BE0000092898801911104019A89180091634932
:101BF0004843009904F006F80090002020700098F7
:101C0000A060009803F0DEFE054629465C4803F01C
:101C100064FD0A2103F09FFD03F0DBFEE06028462F
:101C200003F00AFF574A584B03F0FEFF03F018FF7A
:101C300020617CBD10B54B484168AA2906D07C20A4
:101C40005249081880B203F0FBFF10BDC06819218B
:101C50000903884200D900BEFF20EB30F0E770B5E1
:101C6000414C6088C006050F03F0F0FF61881E221A
:101C700091436A001143618070BD10B54449012051
:101C8000C863C86B0028FCD101208007C1694148A6
:101C90000268914201D20022026019238A1ADB01F4
:101CA0009A4212D3016003F0D7FF3B4A1188884261
:101CB00001D9411A00E0091A89B2182905D3108008
:101CC000012003F0CFFF03F0D3FF10BD08B5254975
:101CD00089684843314903F095FF009008BD08B575
:101CE0002049C9684843800A009008BD08B51D49CD
:101CF0004968002903D0FFF7E9FF009008BD03F011
:101D0000BDFFFAE708B517494968002903D0FFF776
:101D1000E6FF009008BD03F0B7FFFAE708B52049D9
:101D200001204A695206D20F13D04A699206D20F97
:101D30000FD000220A610092FF225F32009B5B1CE1
:101D400000939342FAD34969C907C90F02D003F03F
:101D5000A1FF002008BD40183721C000090140182C
:101D60007047000008800020200000500010000094
:101D70000002004020300050001600500024F40003
:101D8000002474497B14AE47E17A443F01120000FD
:101D9000C00000407C0408007804080040420F00A6
:101DA0000010005030B58D4A8D49D005048880233D
:101DB0001C4304808B4C65892D0701D4521EFAD236
:101DC000894C01222260894C0A882280884A4988ED
:101DD000118001889943018030BD00207047704711
:101DE000704770470020704701218907086B072260
:101DF000104308637047704710B57F497D480860FD
:101E00007E494C2008807D4B7D4A203B1A827E49CA
:101E10007C4848807E487D4901807C491931418059
:101E2000222141818121890001827A4941827A49B6
:101E30000183784911314183754978482031888080
:101E400041217748090181807649C180754C103461
:101E5000C48101824182891C8182611FC182FF216C
:101E600046310183704941837049592008806F4889
:101E70006F4C20300480432444806E4C4C82D5212A
:101E80008180FF21D33101816B4941816B4981817F
:101E90006C496B48088059486B4960384180C1885B
:101EA00010242143C18062490A390181534C67499A
:101EB000403C61805A82082141814D485B4900883D
:101EC00040390882494862490088088010BD4008AE
:101ED000704700B58BB05F4A42625F4A82625F4AD8
:101EE00042615F4AC2625F4A02605F4A02625F4AC1
:101EF00042605F4AC261404A3E48002110603E484D
:101F00004038026B03129A430263426B1F231B0487
:101F10009A4303231B04D218426356480268C31233
:101F20009A430260026803139A4302606846415470
:101F3000491CC9B22829FAD3014628224E4803F089
:101F4000AFFEFFF759FF03F087FE4C4908800020E1
:101F500003F088FE03F08CFE0BB000BD10B5264ADE
:101F60000F2124480902106023484038426B1F2388
:101F70001B049A4303231B04D21842630006026821
:101F8000D208D20002600520000702899208920060
:101F9000521C0281028908231A430281028A0A43E1
:101FA000028237480068002808D10E484189890517
:101FB00004D501887822914308310180FFF71CFF86
:101FC0003048006B0078002804D02F4800880B4967
:101FD0006039C880012003F0DFFD10BDA08601003C
:101FE000087F0400200000500080004056020800D6
:101FF0004A0308004C05540780000040602C005044
:102000007F7F0000AC290000002200500909000079
:10201000002400502204000030D00000EE11000027
:10202000002500502E0200004420000040280050EF
:102030000D95000002420000E4DC00001092000058
:1020400053780000002A00508B1000009DD500003E
:1020500000260050DB1D0020DF1D0020E51D0020B4
:10206000E91D0020E11D0020F71D0020E31D0020D8
:10207000CF1E002000020040200008007804080065
:102080000C800020200200205204080010B50446F5
:1020900004F08AF91249A00040188038406B0028EB
:1020A00001D0804710BDE106C90E012088400D49CE
:1020B000086010BD1320E9E70B4909480A88B038C9
:1020C000028000220A80012141808188491C818090
:1020D0001420DBE71520D9E71620D7E71720D5E72E
:1020E0001891002080E200E07A910020052000078E
:1020F000828880210A43828040488181002181803A
:102100000921018003218181028A40218A430282C0
:102110000122028183881343838039480268120AAE
:1021200012020A430260880136490860704733484A
:10213000818AC907FCD00088C0B270472F498A8ABB
:102140009206FCD50880704700B5034602E0FFF711
:10215000F5FF5B1C18780028F9D100BD0346000686
:1021600000B5000F0A2801D2302100E037210818FD
:10217000FFF7E4FF1807000F0A2801D2302100E022
:1021800037210818FFF7DAFF00BD10B50446000A32
:10219000FFF7E4FFE0B2FFF7E1FF10BD10B5044622
:1021A000000EFFF7DBFF2002000EFFF7D7FF200431
:1021B000000EFFF7D3FFE0B2FFF7D0FF10BD10B560
:1021C0000E4801890907090F042910D103880E4A16
:1021D000901E41785354491CC9B24170D4780022F2
:1021E0000123D12C04D0DA2C01D1092902D010BD51
:1021F0004A29FCD10370427010BD0000001000504D
:102200000CE400E000E100E02E91002030B53F4BEF
:102210001C680825C907AC43090F0C431C601968EA
:102220000424D207A143520F1143196019680222F6
:10223000C0079143800F014319603548016880222F
:10224000090A09021143016030BD324B5880998060
:10225000DA807047FF203049013008607047FF2066
:102260002D4901308031086070472C480022418898
:10227000491C41800178491CCBB2014614310370DE
:10228000142B08D302700B785B1C0B708B78002B1F
:1022900001D05B1E8B700B78322B26D183885B1CA0
:1022A00083800A708289521C8281C288521CC2803B
:1022B0000289521C02814289521C4281C878401E08
:1022C000C8700879012801D9401E0871144A508845
:1022D000022801D9401E5080124A1078002801D0EF
:1022E000401E10704879401E4871704770B5054611
:1022F00014460E46012004F085F9284604F08EF9B4
:10230000304604F09DF90348C48170BD003400508C
:1023100008E400E00034005000E100E07891002083
:10232000389000202D9000200843012189030346A6
:102330000B4343490B80434B184308800920024359
:102340004A8070473E490A880F239B0100079A4341
:10235000800D02430A807047394900200880704789
:1023600037483949028802231A430280491E02D3A2
:1023700002889207FAD400210181408970470AE05F
:1023800000BF00BF00BF00BF00BF00BF00BF00BF55
:1023900000BF00BF00BF401EF2D2704770B50121E0
:1023A000890204464E0000223046FFF7BDFF14208C
:1023B000FFF7E5FF002C01D0092000E00720FFF720
:1023C000C1FFFFF7CDFF05460120FFF7D8FF002230
:1023D00011463046FFF7A8FF002C01D0092000E08D
:1023E0000720FFF7AFFFFFF7BBFF4019144A00219A
:1023F000118070BDF0B5124C144820801420FFF7F6
:10240000BEFF01256D02A580E5802088E900084314
:10241000208020888E10B0432080FFF7A1FF074660
:10242000208830432080FFF79BFF024678007142EE
:102430004018281A52005118691AA080E180F0BD96
:102440000015005001400000A08601000148000076
:1024500010B54F484178007804F014F810BD10B55D
:102460004B484178007803F0EBFF10BDF8B50E46FD
:10247000154647490278079F0A7040781C46487005
:10248000FFF7EDFF0520000781880122D2021143EA
:102490008180404801884908490001800188FF2265
:1024A00081329143F201114301800188402291431E
:1024B000AA0111430180018804229143A200114323
:1024C0000180018802229143069A52001143018043
:1024D0000188012292039143BA03114301800188CC
:1024E00018229143089AD2001143018001880122E9
:1024F00011430180F8BD27490A88520852000A801A
:102500000A88FF2381339A43C00102430A80088866
:10251000012210430880704710B51E480188490801
:10252000490001800520000781880122D2029143E1
:10253000818017484178007803F082FF10BD15486C
:102540000188490849000180704710B511490023EE
:102550000A88D205920F012A01D9040C8C80488088
:1025600008888004FCD50120C880012A01D9888808
:1025700003044888C01810BD10B50446FFF768FF73
:102580002046FFF7E2FF0446FFF769FF204610BD33
:102590009691002000120050F94AD1609060704777
:1025A00010B50120FFF7A7FF05200002FFF7E4FFA9
:1025B000C0B210BD70B50024F24DFFF7F1FFC007A7
:1025C00004D0641CAC42F8D30020C04370BD70B589
:1025D000FFF7F0FF002817D1FFF78DFFFFF738FF57
:1025E0009F20FFF7B2FF0020FFF7AFFF0504002098
:1025F000FFF7ABFF04022C430020FFF7A6FF2043A8
:102600000546FFF72CFF284670BD70B5FFF7DFFFCA
:10261000DB4CDD4A002114234B43D5589B185B68E3
:102620001D4003409D420ED1142308B24B4320802D
:102630009B189D68A560DB68E360142358438018ED
:10264000606048B270BD491C89B20429E3D3002000
:102650006060401E70BD70B5FFF7ACFF002815D15B
:10266000FFF749FFC74E00250620FFF785FF00242E
:10267000FFF796FFC10703D1800701D5002070BD89
:10268000641CB442F4D36D1C322DEDD30020C04342
:1026900070BD70B5FFF78EFF002815D1FFF72BFF37
:1026A000B84E00255020FFF767FF0024FFF778FFA2
:1026B000C10703D1800701D5002070BD641CB4425E
:1026C000F4D36D1C322DEDD30020C04370BD70B526
:1026D000FFF770FF002811D1FFF70DFFA94E00256D
:1026E0000420FFF749FF0024FFF75AFF800707D0B7
:1026F000641CB442F8D36D1C322DF1D30020C043CA
:1027000070BD10B50446FFF755FF002808D1012021
:10271000FFF7F1FEE01DF930FFF72EFFFFF74AFF4C
:1027200010BD70B5064696480D4680685119814225
:1027300001D9441B00E01446FFF73CFF00281AD1E2
:102740000220FFF7D8FEFFF783FE03212846090683
:102750000843FFF7FAFE0020FFF7CDFE002505E055
:102760000020FFF7F2FE3070761C6D1CA542F7D3F7
:10277000FFF775FE204670BD70B5054680480E46D1
:10278000C0681446824200D984B2FFF713FF0028C4
:102790001ED1FFF760FF00281AD10220FFF7ABFE21
:1027A000FFF756FE0121304649060843FFF7CDFEEC
:1027B0000020FFF7A0FE05E028786D1CFFF7C5FE9E
:1027C000641EA4B2002CF7D1FFF749FEFFF7F2FE1A
:1027D00070BD70B50D460446FFF73DFF002802D0DE
:1027E0000020C04370BD0220FFF785FE280620436D
:1027F000FFF7C2FEFFF7DEFE70BD10B5FFF72BFF3F
:10280000002802D00020C04310BD0020FFF773FE57
:10281000C720FFF7B1FEFFF7CDFE40B210BD00208C
:10282000C043704710B5FFF7C5FE002812D1012044
:10283000FFF761FEFFF70CFE09200003FFF785FE9E
:102840000020FFF782FE0020FFF77FFE0446FFF71F
:1028500006FE20B210BD70B5FFF7ACFE002801D017
:10286000C11770BD0020FFF746FEFFF7F1FD4B20BA
:10287000FFF76BFE0220FFF73EFE0020FFF765FE2C
:102880000020FFF762FE002504462846FFF75DFEA4
:1028900006462E43FFF7E3FD3046214670BDF7B5EF
:1028A00082B0374F0E460091F96814460D46304607
:1028B00003F0A8F9401C6843451E0020FFF71BFEEB
:1028C000B868801BA04200D204462646002719E0C3
:1028D00000988019A84202D900982E1A761C0298F6
:1028E000B2B2C0190099FFF747FF002803D00020BB
:1028F000C04305B0F0BD681C00902148BF19C068F6
:102900002D18E61BA742E3D33846F2E710B5FFF7D0
:1029100051FE002805D1FFF7EEFDB920FFF72CFE90
:10292000002010BD10B50020FFF7E5FDAB20FFF73C
:1029300023FE002010BD70B5114C054660680028CC
:1029400006D0FFF788FE002805D00020C04370BDE8
:102950000520C04370BDFFF723FE6168097C8843F2
:1029600029400843FFF7CDFE70BD10B5044840680C
:10297000407CFFF7E0FF002808D040B210BD000007
:1029800098910020400D030098660020FFF735FF66
:10299000F4E770B505462F480E46C06814468242DB
:1029A00000D984B2FFF706FE00281DD1FFF753FEC1
:1029B000002819D10220FFF79EFDFFF749FD0121F4
:1029C000304649060843FFF7C0FD0020FFF793FD9E
:1029D00004E02846FFF7B9FD641EA4B2002CF8D12C
:1029E000FFF73DFDFFF7E6FD70BDF7B582B0194F6B
:1029F0000E460091F96814460D46304603F002F980
:102A0000401C6843451E0020FFF775FDB868801B19
:102A1000A04200D204462646002717E000988019FD
:102A2000A84202D900982E1A761CB2B200990298D8
:102A3000FFF7AFFF002802D00020C04359E7681C11
:102A400000900448BF19C0682D18E61BA742E5D3C3
:102A500038464EE79891002070B5EFF310850120BD
:102A600080F31088264803F021F90446002D1DD07C
:102A7000012080F31088002C23D020462038C08B02
:102A8000204988421DD16189208903F015F905008C
:102A90000ED021461031A38962892089A8470028D9
:102AA00006D001280DD002280BD105E00020E0E778
:102AB000204603F007F904E0114821460C3003F0EA
:102AC00007F9EFF31084012080F310880C480068A8
:102AD000002802D1012003F001F9002C03D00120CD
:102AE00080F3108870BD0020FAE710B5BC210648BD
:102AF00003F0FAF80549012003F0FCF810BD0000CE
:102B0000A80508003883000004060800592A0020A0
:102B1000F8B50D46064681002B48EA884458521CF9
:102B200020686B89018F294F514300910146403144
:102B30004A89C989511A8AB2991A89B2B94214D2FA
:102B40009A4212D0294603F0DBF82D8920490098DB
:102B500003F058F82818801C4034E0823002401CF2
:102B600080B2042103F0D2F8F8BD2821304603F0EA
:102B7000D3F8F8BDF8B50546870013480C46C05990
:102B8000C9880068114E024640325389D2899A1A88
:102B900092B28B1A9BB2B34211D20B4E8A420ED024
:102BA00003F0C0F8F05905225F30611C03F078F89B
:102BB0002802401C80B2052103F0A8F8F8BD2821A6
:102BC000284603F0A9F8F8BD4C030800FF7F000079
:102BD0001027000070B516460D46104603F0A8F801
:102BE000002869D0340A304603F0A2F8012812D038
:102BF000A87A1E2811D029460A310E2845D019DCA2
:102C0000801E030003F09AF80B255829582D5831DF
:102C10005839583D5800022070BD3146274803F00E
:102C200093F80021204603F095F80221304603F086
:102C30006DF841E018283CD006DC102819D0122885
:102C40002BD0162838D130E0522822D0D22833D1C8
:102C500027E0204603F084F82EE0204603F086F8B3
:102C60002AE0204603F088F826E0204603F08AF8A0
:102C700022E0204603F08CF81EE0204603F08EF898
:102C80001AE0204603F090F816E0204603F092F890
:102C900012E0204603F094F80EE0204603F096F888
:102CA0000AE0204603F098F806E0204603F09AF880
:102CB00002E0204603F09CF8002070BD01280000CF
:102CC000F3B581B001980C460102CA1D0E310223F2
:102CD000344803F093F804700199054602273248FE
:102CE0008E00002C06D0042C16D0062C10D0072CF9
:102CF0003FD108E0815905224968897C11406970FB
:102D00008059C77335E0084603F07EF8687030E0FC
:102D100080590F21C1732CE0044680594068417CE2
:102D2000012902D1007E01280FD0019803F072F82A
:102D300001210028A0590BD04268D07D00281CD06A
:102D400001281AD004280DD00FE0002068700DE093
:102D50004068C27D022A01D0042A06D1007C0228E4
:102D60000BD102E0107C022807D06F70A15903201C
:102D7000C873284603F054F8FEBD6970F6E70146B3
:102D80000A780120042A01D9002070474A78002AD5
:102D900001D0012AF8D10A79082AF5D849790829F9
:102DA000F2D87047021C000028050800FFB589B062
:102DB0000D4600206946059008720B98000A0090A5
:102DC00003F028F807460B9802F0B2FF00287DD0E8
:102DD0000B982978000A8400764E01295ED00429D8
:102DE00004D0062943D0072963D120E06878002861
:102DF0001BD0305910224068A91C02F051FF002F4F
:102E000006D03159C87B032807D0042808D050E0E9
:102E10003059C07B032803D04BE00B20C87348E037
:102E20000521009803F002F843E00120B6E0305994
:102E3000C07B0E283DD1009802F0E6FF002103E0A0
:102E40002A18401C9170C0B21028F9D3688A6946CC
:102E50000883294606A808221431023002F020FF18
:102E600006ABAA1C3946009802F0E6FF21E0305973
:102E7000C07B0F281DD1AA1C0A21009802F0E2FF96
:102E8000002F04D03946009802F0E2FF11E0002341
:102E90001A463946009802F0E1FF0AE0012F08D1F6
:102EA0000B9802F045FF01281CD0002801D0022019
:102EB00005906846007A002811D002AA05210098E2
:102EC00002F0C0FF6846027A602000E007E002439B
:102ED0006846027201233946009802F0BFFF059848
:102EE0000DB0F0BD3059C07B0228E2D168780028CF
:102EF00051D002210B9802F009FF30590722406897
:102F0000A91C173002F0CCFEE878002804D1305913
:102F10004068407C01283AD0009802F0A5FF0028C4
:102F200037D0297A009802F0A5FF002833D0009806
:102F300002F0A6FF0121009802F0A8FF00282CD083
:102F400030594068417E00292BD0042929D0C17E08
:102F5000027D1140C17630594068017F427D1140A9
:102F600001776846007A0028A7D1305902214268CB
:102F70000098173202F066FF305941684031897B72
:102F8000002913D004210098FFF79AFE91E7022050
:102F900004E0062002E0082000E0032069460872F1
:102FA0008BE70021C17630594068D9E70B21C17306
:102FB0007FE700002805080070B50446007800256A
:102FC0000D2801D00A2200E002225A494B7A002B38
:102FD00006D00D2804D0637C032B01D0432551E09B
:102FE000097A8A4339D10D2809D00E2802D00F283A
:102FF00003D134E0607C032804D3402542E0607CA8
:103000000328FAD8A07C0428F7D20A2908D0607CCB
:10301000012822D0022820D06078032809D811E0A6
:1030200002F03AFF012806D16078032803D0002877
:1030300001D0492526E002F02FFF002802D1607858
:103040000228F6D83020035D22462046E17C31324A
:10305000143000F019F8054614E0422512E002F0A1
:103060001BFF012807D16078052804D1A01D02F0BC
:1030700019FF0028DDD002F00FFF002802D1607890
:103080000228D6D8284670BDFFB5002086B00121A1
:103090006A461170044605910021002C06D0089D57
:1030A000099A1F239A4234D9402032E01C23069DFE
:1030B000079AF7E76B185E78330002F03FFE1D2693
:1030C0001010101010101010102626262626262666
:1030D0002626262626261010101010102600059BE6
:1030E00003E06F46FF5CB74204D05B1E5BB2002B6F
:1030F000F7DA03E0002B01DB4A2006E0059B6F4670
:10310000FE54059B5B1CDBB205936B5C491C591894
:10311000C9B2914201D20028CCD0914202D04A20BB
:103120000AB0F0BD641CE4B2022CF9D20028B3D07E
:10313000F6E7000098050800F8B50C4694491646D5
:1031400009680125002702228B1C312873D012DC6C
:103150000C2874D008DC012821D0022840D0072890
:103160004FD00B2869D156E010287FD0112876D097
:103170001228F7D18DE00123412871D008DC3228D4
:103180006FD035286ED036286DD04028EAD1B1E016
:10319000422869D0432868D04428E3D1CFE00622F2
:1031A0007C497D4802F084FE002808D006227A4936
:1031B000304602F075FD062020700020F8BD7448EE
:1031C00001680878C00738D02078062801D2277017
:1031D000C2E006229831304602F062FD06200EE081
:1031E0000A786B48920728D522783E2AEFD3054605
:1031F0004A7E5A31304602F053FD2868407E2070E6
:10320000A7E00878400718D520780228DFD3887C0B
:103210003070587C78E00A785D4812070DD5227826
:10322000202AD4D30546CA7D1A31304602F038FD33
:103230002868C07DE3E735E001E077E016E00A7832
:103240005348D20672D52278202AC0D305460A7E7A
:103250009831304602F024FD2868007ECFE70EE06A
:1032600054E028E034E03BE058E060E00878800675
:1032700070D520780428AAD30422091D23E00878F9
:10328000400667D52078002866D0087D08E02270C7
:103290005FE0087800065DD5207800285CD0487D86
:1032A0003070F4E70888C00554D5207804288ED300
:1032B00004220C3107E0088880054BD520780428CB
:1032C00085D304220831304602F0EAFC042096E758
:1032D000088840053ED5207800283DD0887D36E01E
:1032E0000888000536D5207802288FD3087C3070F6
:1032F000487C09E00888C0042CD52078022885D3B2
:103300008231087F3070487F7070C0E70888800481
:1033100020D5207800281FD0A03117E0088840046D
:1033200018D52078002817D0A1310FE012E00888C6
:1033300000040FD5207800280ED0A23106E00868DE
:10334000C00307D52078002806D0A3310878307054
:10335000237000252846F8BD0425FBE770B50F480B
:103360000F49C405228880252A4322800D4A5389AB
:103370001B0701D4401EFAD20B4A0120106006221E
:10338000054802F08DFC2088A843208070BD000015
:10339000C0060800383E03001C800020A086010003
:1033A000D47F04002000005000800040F0B5554D4F
:1033B00085B00026686937460190FDF7CEFF0021F1
:1033C000514C002802D12079022800D101914F48A8
:1033D00002684F48002A0FD10278002A0DD04D4BC9
:1033E0000122DA63DA6B002AFCD101229207D2694A
:1033F0001923DB019A420ED3017002F05FFD002811
:103400007DD0E0780126002879D005200007808A49
:10341000C00701D0042672E002F0CAFB00286ED17A
:103420003D4800683F2804D12079002801D128694F
:103430000190A17801A802F047FD00285FD0A17893
:1034400001A802F0C7FB002859D0334800683F2884
:1034500003D102F03FFD002851D02C480068AA2873
:103460001DD0972007210125AD07EA6B920A920231
:103470007F1C3A43EA63EA6B284B80021A400243FE
:10348000EA63E86BC002C00A49050843E8631F48C5
:1034900004260068002807D0AA280ED01CE0204887
:1034A000FEF724FC0321DEE701986421C00202F04C
:1034B000A9FB401E0BE001210CE0019802F082FA0A
:1034C0001849096802F0CCF802F083FA00902179DB
:1034D0000029F0D102F004FD1348C06A8047286B30
:1034E0000004C00FFBD011480168C905FCD502F0EB
:1034F000FDFC0520000701898022914301813046AF
:1035000005B0F0BDA0020020C60608000C80002017
:1035100002800020C000004060010020FF03E0FFA7
:1035200001120000188000201C0708000002004063
:1035300010B50124A407A06BFEF7E4FB5F4902F07D
:1035400061FB27221201511A00D101215C4A50600F
:103550001160206B082188430843206310BD38B5F3
:10356000002000905749082008800524240721885E
:10357000302001432180218803221143218002E071
:1035800000BF00BF00BFA18A0906F9D5618989087B
:10359000890061814C494A88520852004A8021883A
:1035A000814321802088800880002080A08A4007F5
:1035B00001D5FEF792F92089802108432081208AD5
:1035C000042188432082A08A8007FCD53F4841051A
:1035D0000268D20202D40A69520702D4009A002A71
:1035E000F6D038BD10B502F087FC02F08BFC10BDA0
:1035F00010B502F08DFC05200007418A802291431E
:1036000041823048018949084900018130480068F9
:103610003F2801D102F082FC012080078169042249
:103620001143816102F080FC02F084FC02F088FC0E
:1036300028480068AA2802D11420FEF7B9FA2649C2
:103640000020087010BD10B502F080FC10BD10B550
:1036500001208007008A000704D502F07DFC1E4986
:103660000320087010BD70B51C48008885061748F7
:10367000AD0E44681648C030006B0078002802D1B7
:10368000284602F06FFC16480089134EC00507D586
:1036900020060BD5E00709D0284602F069FC03E0BC
:1036A000200603D5E00701D002203070200403D5A6
:1036B000E00501D50120307070BD000071020000EE
:1036C0004000004000330050200000500002004045
:1036D000600100200C80002022800020002000508B
:1036E000002C0050F8B514460F461E460546428889
:1036F00001880623204602F081FB0446287902F067
:103700003DFC208027716680204602F089FBF8BDD1
:1037100070B51446428800790D4601020C3104232D
:10372000364802F06BFB002D01D0132100E012217E
:103730000170448002F074FB70BD0A880270120AA6
:1037400042708A788270CA78C2700A7902714A79A6
:10375000427189798171072070474278037812029B
:103760001A430A8082788A70C278CA7002790A7114
:1037700042794A71807988710720704710B500F04E
:1037800037FC00F041F800F077FB10BD70B506463D
:1037900015460C46372002F0CBFA022805D1E2B2DA
:1037A00037232946304602F0EFFB362002F0C0FAFC
:1037B000022805D1E2B236232946304602F0E4FB66
:1037C0001C2002F0B5FA022805D1E2B21C232946DA
:1037D000304602F0D9FB4F20FEF7B0FC4B20FEF73D
:1037E000ADFCFD20FEF7AAFC05490020087014225C
:1037F0003221044800F082FC70BD00000D30000052
:103800000180002001C8000010B52821054802F001
:10381000C1FB0549372002F0C3FB0021372002F02D
:1038200075FA10BDA8910020E86600203EB5002082
:10383000C043704C0290E380088860816E4801901C
:10384000009220460023092202A90A3002F0AEFBB2
:1038500005466089002102F0AFFB002D03D1012154
:10386000372002F053FAE18801233722634802F03F
:10387000C5FA057002F0D4FA00203EBDF8B5002567
:1038800068465C4C058062802380E3800E46488851
:1038900002F098FB207170882081E581A581258246
:1038A00060896A46801C80B2022102F0C3F96089F7
:1038B0006A46C01D80B2022102F0BCF96089012174
:1038C00002F07AFB0221372002F020FA0020F8BD36
:1038D00010B50121372002F019FA002010BDF0B513
:1038E00087B00C46142101A802F0FEF923460833E4
:1038F000A288618820881D4602F06AFB3D48218825
:1039000042898A1A022A04D0062A6FD0072A6DD16A
:1039100068E0007A002202F061FB6288294601A873
:1039200002F0BEF968460079AA285FD1684640795E
:10393000BB285BD10221002002F082FD694630489D
:10394000897941716946C97901716946097AC170FD
:103950006946497A81706946897A41706946C97AAF
:10396000017000200322072312020146009002F09A
:103970009BFB244D00242868E443002801D0204606
:1039800000E00120204E28603268C11773681043A0
:103990001943306071600F273F0320213846FEF73E
:1039A00018FF062239461648FEF7E6FE17A0FEF776
:1039B000CBFB00200322034612020146009002F0D6
:1039C00073FB2868002800D101242C603268E017BE
:1039D000716814430843346070600221002002F0D3
:1039E00051FD03E0007A002202F0F8FA002007B04F
:1039F000F0BD0000A89100202467002006DC000034
:103A0000D0910020789000207090002073746F7225
:103A10006167655F6F6B0A0D00000000FFB58BB03A
:103A20000521C90268468182C91C0182FA490183C5
:103A3000FA4C362161800621992500910822002345
:103A400001953621A01D02F0CFFA05007ED1A01D00
:103A50000125009501900222E08805AB114602F095
:103A6000C9FAE088EE4A022102F0E4F803AE0196BA
:103A70000095E08804AB0222132102F0BBFA02AFEA
:103A8000092001970090E088E64B1022042102F003
:103A9000B1FAE5496846007A48706846407A88700D
:103AA0000A4668461321808902F0C4F80196009501
:103AB000E08804AB0222132102F09CFA092001974E
:103AC0000090E088D94B1022042102F093FAD849E3
:103AD0006846007A48706846407A88700A466846A8
:103AE0001321808902F0A6F801960095E08804ABC6
:103AF0000222132102F07EFA01970095E088CD4B57
:103B00001022042102F076FACB496846007A487008
:103B10006846407A88700A4668461321808902F018
:103B200089F801960095E08804AB0222132102F087
:103B300061FA092001970090E088C04B1022022111
:103B400002F058FA6846BE49007A00E058E0487032
:103B50006846407A88700A4668461321808902F0D8
:103B600069F801960095E08804AB0222132102F067
:103B700041FA092001970090E088B24B10221421ED
:103B800002F038FAB0496846007A48706846407AD0
:103B900088700A4668461321808902F04BF8AB4DC5
:103BA00001960095E08804AB0222132102F022FA6C
:103BB00001970095E088A64B1022012102F01AFA25
:103BC000A4496846007A48706846407A88700A4678
:103BD00068461321808902F02DF809A90920019176
:103BE00000900222E08806AB114602F003FA054677
:103BF000E088002102F0E0F90121362002F086F889
:103C00000123362294480E9902F0F8F8057002F06C
:103C100007F900200FB0F0BD3EB5804C0D46E0889E
:103C200002AA0C3080B2694602F0EAF9E08801AAE3
:103C30000D3080B2694602F0E3F9E088AA1C0C302E
:103C400080B2012101F0F6FF01980088002806D01B
:103C5000E08800210C3082B22046FFF759FD002099
:103C60003EBD10B56D480A46C0880421801D80B253
:103C700001F0E0FF002010BD38B50D460020694678
:103C8000664C08802380288802F09CF92071FF2868
:103C900017D0E0886A460D3080B2022101F0CAFFD9
:103CA000E0886A460C3080B2012101F0C3FFA97898
:103CB000E08802F081F90221362002F027F8002086
:103CC00038BD654A1B23DB02521C89215348FFF78C
:103CD00009FDF4E7F8B5514D0C4629798022180A00
:103CE00088427DD1E988208826468B1C002708362B
:103CF00098420ED1012100916188324601F09AFF6D
:103D0000E079002875D05448082336222988C01F3E
:103D100010E00B1D984229D10221009161883246A2
:103D200001F088FFE079002863D04B4829880823F8
:103D30003622801F02F062F80646287902F01EF94A
:103D400030807760E07A01067160A07A0004014358
:103D50007160607A000201437160207A01437160F2
:103D60000098B070304602F05BF842E00B460A3330
:103D700098421BD104200090E079002839D03648C1
:103D8000298818233622001F02F038F807462879C0
:103D900002F0F4F8388062883146381D01F080FF67
:103DA000A078F8700098B8703846DCE70B46083306
:103DB000984220D1032100916188324601F03AFFF8
:103DC000E079002815D02448298806233622401F90
:103DD00002F014F80646287902F0D0F8308000E0AE
:103DE00018E0B780607A0102B180207A0143B18087
:103DF000B6E7002207E00D31884204D161883246DF
:103E000001F018FFF5E7A079012803D1218828796E
:103E100002F0E4F80020F8BD022900002480002010
:103E200020680020226800203F6B002032680020BC
:103E3000526B002042680020656B00205268002011
:103E4000786B0020626800208B6B0020010200006C
:103E5000726800209E6B002009D8000010B5054A4A
:103E6000180A1279904202D1088800F026F8002042
:103E700010BD00002480002010B508211A4802F06F
:103E800089F81A49362002F08BF80021362001F01B
:103E90003DFF10BD70B5144D064629881823362203
:103EA000134801F0ABFF0446287902F067F8208040
:103EB000A670204601F0B4FF70BD70B50A4D0446EF
:103EC000E888002102F078F809482988042336227E
:103ED000001F01F093FF048001F0A2FF01213620B2
:103EE00001F014FF70BD00002480002084680020D1
:103EF00005D80000FEB53B4E1C2070801D461746BD
:103F00003446088800F082F8029037483346019022
:103F10000833132202A90097A01D02F047F80400FD
:103F200008D1F088002102F047F8044601211C2046
:103F300001F0ECFE01231C2229462C4801F05EFF13
:103F4000047001F06DFF0020FEBD70B50C462549E0
:103F50000B802078082814D8CA880831415C511891
:103F60008DB2822D0BD0617800F063F8010009D189
:103F70006D1C6178A8B2A21C01F05CFE08E08221F1
:103F800000E08121194B17485B1CDA1CFFF7AAFBE4
:103F9000002070BD70B51D460C46088802F012F86E
:103FA000104AFF281071158009D0A178D08802F03E
:103FB00003F802211C2001F0A9FE002070BD0B4B6C
:103FC00089219B1C9A1C0748FFF78CFBF5E710B56D
:103FD000044A180A1279904202D1088800F03EF88B
:103FE000002010BD2E800020D46800200170000049
:103FF00010B51221244801F0CDFF24491C2001F006
:10400000CFFF00211C2001F081FE10BD30B503461A
:104010000120002103241A46CA40D20704D04D00D3
:104020006D1C2246AA401043491CC9B20929F2D38B
:1040300030BD02460020122901D98D207047062A82
:1040400006D0072A07D0082AF8D10729F5D17047EA
:104050000829F2D170470629EFD3704770B50A4C92
:104060000546218802231C22094801F0C7FE05806D
:1040700001F0D6FEE088002101F09EFF01211C2006
:1040800001F044FE70BD00002E800020E869002091
:104090000470000038B50124684604700C215148B2
:1040A00001F078FF4F4D6946EC702A1D352001F074
:1040B000ADFF002800D02C7100F05DFB4A49322092
:1040C00001F06EFF0021322001F020FE00F0C6F862
:1040D00038BD10B500F0FFFB10BD10B541480223FC
:1040E0008078322201020E31404801F087FE012122
:1040F00001701321417001F093FE10BD3C4B10B5CF
:104100009A4201D91A4602E0002A00D1012201F0A8
:1041100083FF10BD10B5044632482C23807832222C
:10412000010232480E31801E01F068FE0146203047
:10413000047200224272084601F072FE2D490120ED
:1041400008704F20FDF7FAFF4B20FDF7F7FFFC202A
:10415000FDF7F4FF142232212748FFF7CFFF10BDEF
:1041600010B5502332220D21244801F047FE0446A9
:1041700000F025FB204601F053FE0221322001F021
:10418000C5FD10BD1D4810B5012332220D210B388D
:1041900001F034FE0221017001F042FE10BD10B5A5
:1041A00000F0EDFB10BDF8B50646144815460F4665
:1041B000252332220D21C01C01F020FE04460120DF
:1041C00020772046062239461D3001F069FD232064
:1041D000065565822582204600F0F2FB204601F05C
:1041E0001FFEF8BD40800020F86900200438000060
:1041F000307500000180002001C800000E3400006E
:1042000010B501F00FFF254901F002FD2448081800
:1042100010BDF8B5234D0646A876002401F002FF34
:104220002919641CE4B20874082CF7D30024102761
:10423000381BB04201DD002007E001F0F3FEC1179A
:10424000090E0918090A0902401A2855641CE4B22B
:10425000102CEDD301F0E6FE2883F8BD10B5242123
:10426000104801F097FE00F08CFA10BD10B50E4812
:1042700002238078322201020E310C4801F0BEFD8B
:104280000D210170074920318978417001F0C8FD86
:104290000321322001F03AFD10BD0000A0BB0D004B
:1042A000A08601004C800020408000201A380000C9
:1042B00010B5084609781C460B0001F03FFD0805C3
:1042C00020202008181B1E2000F07DFB17E04178FD
:1042D000012904D0002902D0022903D00FE000F008
:1042E00073FB0CE01146204600F077FB07E000F07E
:1042F0006CFB04E000F06AFB01E000F068FB0020CA
:1043000010BD10B50878304C801E030001F016FD7A
:10431000020214188878A070C0070AD02B492A4AD4
:104320004879203AD07628480622891D001F01F0DE
:10433000B7FC00F04DFB03E0FFF7CFFE0020A070BC
:10434000002010BDF8B518460D460146122320483E
:1043500001F054FD0446284600F03BFB00270028EE
:1043600021D0194EB078C0071DD030460822A91CB4
:10437000103801F09DFD002815D130462038018B02
:104380002A8891420FD101212170807E60743146CC
:1043900010222039601C01F083FCB078FFF7BAFED0
:1043A00000F01AFB00E02770204601F039FD20786C
:1043B000002801D1FFF791FE0020F8BD10B500F0F4
:1043C0000AFB002010BD00006C800020408000200F
:1043D0001838000010B5104601F0AAFC002809D1D9
:1043E000012332220D21484801F008FD012101700E
:1043F00001F016FD002010BD70B5087815460F2895
:104400002DD008DC01280DD002282CD003281CD088
:104410000E2830D11FE0102825D0112823D01228D3
:1044200029D123E04878002825D137482223322299
:104430000D21801C01F0E2FC04460146284600F0F4
:104440009FFA204601F0ECFC15E04878002812D1D4
:1044500000F0A1FA0FE0487800F0ABFA0BE04878E2
:1044600000F0A8FA07E000F0AAFA04E0487844282F
:1044700001D100F0A7FA002070BD70B51C461046AF
:104480000D4601F055FC022805D12049200A88700C
:10449000284600F077F9002070BD70B50878154601
:1044A0000C460A2810D1104601F042FC04280BD11A
:1044B0006078002802D000F07AFA05E0052128464D
:1044C00001F024FC00F074FA002070BD10B5104615
:1044D00000F0ECF9002010BD10B510460C4601F0BC
:1044E00027FC012808D12078002805D1FFF7F1FD2D
:1044F000002801D000F05FFA002010BD10B508467A
:1045000000F05FFA002010BD02340000408000205F
:10451000F8B5FDF725FF85B2F74E0027F74C002DC3
:1045200018D06079012815D0F5480078012811D0FD
:10453000284601F073FB0022F24B01F0BCF9002287
:10454000F14B01F0C7F90022F04B01F06DFB01F0D7
:1045500055FA3070284601F061FB0022E94B01F06A
:10456000AAF90022134601F063FD02D8002D00D005
:104570003770E249E07832780E310A54401CC0B2FC
:10458000E070A278002A06D1402202E00A54401CC2
:10459000C0B20A28FAD3D9480A210E30FDF7FEF935
:1045A0006070E07801250A2801D3A570E770607873
:1045B000642802D96420607026E0142824D8D448E6
:1045C00003210088064601F01DFB002907D00021C9
:1045D000022001F057FFE07901280AD00BE0062104
:1045E000304601F00FFB0029F5D1022001F028FF31
:1045F000F1E7C84807706078002805D114223221FD
:10460000C548FFF77BFDA571C3486179801E01296C
:1046100005D014223221FFF771FD0020F8BD3221B0
:1046200001F092FBF9E710B5B448017ABA48401E90
:10463000002904D064223221FFF760FD02E032211C
:1046400001F082FB002010BDF8B5AC4C01262079AA
:10465000B14F02281AD066710721022001F0F0FE46
:104660000021084601F0ECFE0021012001F00AFFC4
:104670000121084601F0E4FE322211463846FFF7D8
:104680003DFD2079401C20710020F8BD0121084625
:1046900001F0F8FE002565720121084601F0D0FE08
:1046A0000A20FCF7E9FE0121084601F0EBFE142088
:1046B000FCF7E2FE607A401CC0B260729628EBD331
:1046C0000021084601F0DEFE944825710570322174
:1046D000384601F039FB0721022001F0D3FE657155
:1046E000A079012800D1E6718B4832221146801E44
:1046F000FFF704FDC8E770B5804C874DA07A6D1CAC
:1047000002281BD0012060710721022001F098FED1
:104710000021084601F094FE0121084601F0B2FE96
:104720000021012001F08CFE322211462846FFF7BD
:10473000E5FCA07A401CA072002070BD0021012081
:1047400001F0A0FE0021084601F09CFE322128461F
:1047500001F0FAFA0721022001F094FE00206071B6
:104760006D4832221146801EFFF7C8FCE4E70020A6
:1047700070470020704710B500F052FF00F05AFA61
:1047800010BD704710B5664CA078FF2814D0624861
:104790003221001D01F0D8FA0521322001F0B6FACD
:1047A000208800F04BFF00F063FA00F06BF95D48E1
:1047B0008078FFF7AFFC10BDFFF7D2FC10BDF0B55D
:1047C00004465548322293B01146401CFFF796FC30
:1047D000514814223221801EFFF790FC47480121E6
:1047E00001700E202070002767709620A081E08164
:1047F0000720207461741C20E074254622461F2087
:104800002035143228741646511E0B2001F0FEFB91
:10481000002805D00A22E27443A1304601F040FA94
:1048200022463132511E0C20119201F0EFFB00287C
:1048300005D02F743A463FA1119801F031FAE07C7F
:104840001A21081A45B2002D2EDD3E206946087057
:1048500001AA022001F0DAFB002806D00D226846EA
:10486000027035A101A801F0E9FB68460078002834
:104870001AD0A84200D2054669460D70E07C6D1C36
:104880008555E27C2046092115301154E17C401CFD
:10489000081869460A7801A901F002FA6946087801
:1048A000E27C801C1018E07413B0F0BD10B5044613
:1048B00025A0FDF749FC204601F03AFA032803D071
:1048C000052801D0042805D10221322001F01EFA6A
:1048D000FFF746FC10BD70B500240849042048735A
:1048E0000F4DE878042847D201283CD0022837D061
:1048F00003283DD13AE00000B16B0020D6910020A2
:1049000031900020001883400000614000005940B1
:1049100080910020206B002004C80000216B002043
:10492000408000206C80002009030318021804183E
:10493000F5FE000002FF00004441313435383020DC
:1049400054454D504C0000006170705F64697363A2
:104950006F6E6E6563745F66756E630A0D000000AE
:1049600000F084F804E000F05CFE01E000F074F96F
:10497000E878401CE87000E00124204670BD7047D4
:10498000032008700A204870002048820875487586
:104990001720C882704710B50121322001F0B6F906
:1049A000FFF797FB002801D0FFF7DAFB10BD704737
:1049B00070477047704710B5FFF7D2FB10BD7047C6
:1049C000704770477047704770477047704770472F
:1049D00070470120704770477047704710B532200C
:1049E00001F0A6F910BD70B51D4C0026E07A1D4DF2
:1049F000052825D2217B00290FD01B492673097871
:104A0000002901D0C00715D10221002001F03AFD94
:104A10000021022001F036FD0CE00120207302216C
:104A2000002001F00DFD0021022001F009FDE07AD7
:104A3000401CE072142232212846FFF75FFB0CE095
:104A40000221002001F01EFD0021022001F01AFDCC
:104A5000E6723221284601F077F9002070BD00008F
:104A6000D691002001C800000180002010B502236B
:104A7000322237210B4801F0C1F90021018001F0F9
:104A8000CFF910BD10B5372104233222880201F07E
:104A9000B5F93221018004490988418001F0C0F94B
:104AA00010BD000005DC00004080002010B510465D
:104AB0000C4601F03DF9012809D1322201231146AB
:104AC000900201F09BF92178017001F0A9F9002012
:104AD00010BD000010B510460C4601F029F9012860
:104AE00009D1322201231146900201F087F9217881
:104AF000017001F095F9002010BD70B54A4C0D46CB
:104B0000207814283DD2A97800293CD0E1680029FA
:104B100033D0C00618D4207CEA78811850292ED8CA
:104B200042494018291D01F0BBF8207CE978401863
:104B3000C0B22074E168814201D100F034FA207CD7
:104B400018E000F0A7F81EE0EA786069FF238118FA
:104B50000133994213D836494018291D01F0A0F8B5
:104B6000E978606940186061E168814201D100F034
:104B7000D8FB6069E168884205D90520E1E7072094
:104B8000DFE70820DDE7002070BD08B58878002841
:104B900006D04868694600F0BEF8009800F021F998
:104BA000002008BD10B5887800280ED01E4A49683C
:104BB0009160107802280AD0032808D0122804D067
:104BC000132802D0082000F065F8002010BD5268BC
:104BD0000006104301F038FA00F003F9F5E770B56C
:104BE00088780D4600281DD0A888002805D00E4CD6
:104BF0002178CA0603D4820701D005200EE01429CB
:104C000010D2C90605D4502807D800F01FF8A8888C
:104C100007E0FF210131884203D9072000F03AF86C
:104C200000E0E060002070BD74800020B46B0020C4
:104C3000046C0020FD480021017441618161C16064
:104C4000FB4A01771165142101707047F748002174
:104C500001744161C160704710B5012332223621D1
:104C6000F44801F0CBF80021017001F0D9F810BD33
:104C700010B5362110233222880201F0BFF8EE4928
:104C8000098801800121817000214160816001F06B
:104C9000C7F810BD10B50446E84804230288E5486B
:104CA0003621401E01F0AAF8E3490988018084708A
:104CB00001F0B6F810BD10B5DC4C2078032801D106
:104CC000FDF72AFC1420207010BD08B5AA20694603
:104CD0000870D648017813290AD141680122891C3D
:104CE0006846FDF7DCFD40B2012801D0062008BD72
:104CF000022008BD10B5CD4C2078C00601D401209B
:104D000000E01020FFF7C6FF002020746061A06162
:104D1000E060207710BDF8B50F460021060EC34CA9
:104D200035463960142E17D2257080B26060002D90
:104D300001D0012D07D1C249280608436160002136
:104D400001F082F938602078122801D0132803D1AD
:104D5000606802280BD86074112E26D00EDC022E5B
:104D600020D006DC002E1DD0012E13D11AE0112018
:104D700022E0032E16D0102E0CD116E0FD2E2CD0E2
:104D800004DC122E0ED0132E04D10BE0FE2E16D012
:104D9000FF2E0CD00820FFF77DFF1420207000208C
:104DA0003860F8BDFFF7A6FFF8BD082004E0FFF764
:104DB00082FFFFF74BFF0320FFF76CFFF8BD207F5A
:104DC000002801D0042001E0FFF77FFFFFF762FF1A
:104DD000FFF771FFFFF73AFFF8BD002001F03AF945
:104DE000F8BD10B504469548042302889148362141
:104DF000801E01F003F8046001F012F810BDFEB54A
:104E00000646002001242404009001900346024637
:104E10000146029025123046FDF728FBFDF702FD02
:104E2000884980B2401802D0012805D102E001244F
:104E3000640401E00124A40429462046FDF7ACFBEC
:104E4000FEBDF8B5044679487F4E017A0027090671
:104E5000090FA171027AFF4313071B0FE371028947
:104E60001204120F227002891205120F62708268FA
:104E70001202120FA27082681203120FE27082688F
:104E8000120F227180680001000F607128204143D9
:104E90008A1999005058002801D0384600E00120B6
:104EA0005050A579E279C11701F0DAF82A0101F032
:104EB000D7F8664A13685568184329431060516053
:104EC000A078282148438219E078810050580028B2
:104ED00001D0384600E001205050A578E278C11793
:104EE00001F0BEF82A0101F0BBF8584D2A686B6842
:104EF00010431943286069602079282148438219AA
:104F0000607981005058002801D0384600E0012027
:104F1000505026796279C11701F0A2F8320101F0F0
:104F20009FF82A686B6810431943286069602078ED
:104F30002821484344494118607880000A58002AD3
:104F400000D101270F50384626786278F91701F012
:104F500087F8320101F084F82B686A68184311431E
:104F6000286069600120009003263602617820786D
:104F70000823324601F098F800250095E179A079E0
:104F80000723324601F090F80095E178A0780623D7
:104F9000324601F089F800956179207905230022D5
:104FA00001F082F8F8BDFEB5204C02252078EE0114
:104FB000002805D0012803D0032828D0082566E062
:104FC0001F4F00063843002101F03EF88004217C89
:104FD000000C0A18B24227D8301A154A401A121F7C
:104FE000891880B25432101805E00A68091F04C0FD
:104FF000227C121F2274227C002AF6D12078002104
:105000000006384301F020F8FFF7EBFE3BE00320F9
:10501000616800060843A16801F016F88004070CD7
:10502000207CC019B04213D9072530E074800020DD
:10503000B46B002008D800004080002024800020AD
:10504000006D0020F010FFFF78900020709000208D
:105050006846FFF7F6FE6846FFF7D1FE6068227CDF
:10506000C119FE48FDF71BFC217C814200D00625BA
:105070002078616800060843A16800F0E5FFFFF7AB
:10508000B0FE022D03D1FFF716FEFFF7DFFD284625
:10509000FFF700FEFEBD70B502460020160BC043B0
:1050A00036030C0B090500D0641C002C01D0002530
:1050B0000BE00124002520213046FDF78AFB012169
:1050C00009037618002802D16D1CA542F3D370BDE8
:1050D0000021FF2802D0401CC0B27047084670472C
:1050E000FF2802D0FF2905D006E0FF2908D00029BB
:1050F00006D001E0002801D0884201D90220704783
:105100000120704710B5D64C034600202478C043D8
:10511000132C02D11846FDF704FB10BDF7B598B06B
:1051200000271A980C463E46402805D32078702860
:1051300002D16078512802D012201BB0F0BD656802
:10514000C7492846403008621F210C2209036846DF
:10515000FFF7D8FF0C2847D168460078702803D1A4
:1051600068464078522801D01420E6E70198119053
:1051700002981290002D03D01199401AA84201D232
:105180001320DAE7684640221090FFF7BBFF402863
:105190002AD16846C07814906846817803A8169092
:1051A00020460C301590AA2907D16846007870284F
:1051B00003D168464078512803D00127002014907D
:1051C0000BE010221699159800F072FE002804D109
:1051D000E0690799884200D102274022129910986D
:1051E000FFF790FF402801D01620A6E76846C07858
:1051F000139068468078AA2807D1684600787028FE
:1052000003D168464078512803D00126002013902E
:105210000BE010221699159800F04AFE002804D1E0
:10522000E0690799884200D102261898002801D029
:10523000022807D9012F11D0012E1CD013991498E0
:10524000FFF74EFF1590FF224021684600F00EFF49
:105250001598022815D0022F24D004E0FF22402107
:10526000684600F003FF7E4911984860002E1BD06D
:10527000022E19D00EE0FF224021684600F0F6FE13
:1052800001E0022E0ED0764912984860002F07D018
:10529000022F05D00126724F3878132809D00FE06D
:1052A000149802E0152048E71398FFF711FF06460F
:1052B000F1E74035A9B27868FFF7EDFE00282CD160
:1052C0006846C67060680190A0680290E1686369F2
:1052D0002269A06903AD0EC50690E06907902178A8
:1052E00068460170617841702020015D08A8017056
:1052F0003878132813D11A9A7968403A20464031F9
:1053000015464030FDF7CBFAA84206D14022796815
:105310001098FDF7C4FA402801D006200DE70020C0
:105320000BE77CB54E4C4D4A022600205032616995
:1053300004E0237F155C6B402377401C8142F8D842
:105340002078132804D00826F0B2FFF7A3FC7CBD18
:105350006846FFF776FD6846FFF751FD6269002A4F
:1053600002D0A069002818D0A169206A8A18431CBD
:105370009A4220D8824201D9401A6061606825466D
:105380004118364862695030FDF789FA69698142EF
:1053900011D1A8694018A8610EE03049607C5031F5
:1053A000FFF7BCFE002801D086B205E06269A16962
:1053B0008918A16100E0062600206061A069FFF75E
:1053C00010FDC1E770B5274C274D2146284600F057
:1053D0003BFE0104090C06D0204A83B2503221461C
:1053E000284600F049FE70BDF8B504461C481F4F22
:1053F000017A00250906090FA170017AED4309071A
:10540000090FE17001890904090F21700289120551
:10541000130F63708068000C606028204143CA1934
:1054200099005058002801D0284600E00120505033
:1054300026786278C11700F013FE320100F010FEEA
:105440000B4E326873681043194330607160A07866
:1054500028214843C119E07880000BE0B46B00209C
:1054600074800020000306050028000378900020C7
:10547000709000200A58002A00D101250D502846BE
:10548000A778E278E91700F0EBFD3A0100F0E8FDBB
:1054900033687268184311433060716000250095CD
:1054A0006178207809232A4600F0FEFD0095E17816
:1054B000A0780A23002200F0F7FDF8BDFEB51046E3
:1054C0000D4600F035FC01287ED12878002879D1DE
:1054D0000E2332221C21434800F090FC0446002099
:1054E00020700B2767703A463FA1A01C00F0D8FB44
:1054F000204600F095FC0A2332221C21394800F096
:105500007DFC04460120207007206070024639A10E
:10551000A01C00F0C5FB204600F082FC0B233222C9
:105520001C21304800F06AFC044606202070082642
:105530006670324631A1A01C00F0B2FB204600F09C
:105540006FFC0E2332221C21264800F057FC044633
:105550000520207067703A462BA1A01C00F0A0FB2C
:10556000204600F05DFC0A270D2332221C211D4835
:1055700000F044FC04460420207067703A4625A1E0
:10558000A01C00F08DFB204600F04AFC0A233222CA
:105590001C21144800F032FC04460670072060709D
:1055A0000120A070D221684601800B21C9014180F1
:1055B0007101818006226946E01C00F071FB2046E3
:1055C00000F02EFC012300E008E032221146900298
:1055D00000F014FC2978017000F022FC0020FEBDD0
:1055E00000207047027000004469616C6F672053AF
:1055F000656D69004441313435383000123456FF4E
:10560000FE9ABCDE00000000765F332E35302E316E
:105610002E353400765F332E302E362E313000009A
:10562000704710B51C2102233222880200F0E6FBED
:10563000FF217431018000F0F3FB10BD10B504466A
:10564000042332221C21054800F0D8FB04800121EC
:1056500081700021C17000F0E3FB10BD03700000F9
:10566000024670B54A40D30FDB0740002DD04A00F8
:105670002AD0010E140E091900021202400A520A21
:105680008418E50104465443000A120A2E045043CC
:10569000A4194219200CC543AA18120C01257F3900
:1056A000521CAD0352191204240400D0521C1043A2
:1056B00001D44000491EC2B20C06C0092018401C8B
:1056C0004008802A02D003E0002070BD400840005E
:1056D000002900DA0020184370BD70B502464A4028
:1056E000D50F40004A00ED0740085208002814D0AA
:1056F000002A12D0C40DD30D41020120C005520270
:10570000490A520AE41A091812187D34914201D349
:10571000641C00E04900002C01DA002070BD002369
:10572000914201D3891A0343400849000028F7D168
:1057300000290AD0914202D10121C90705E0914216
:1057400001D2012101E00121C943E005C01840193F
:1057500000F0B5F970BD420005D04200120E524271
:105760008A4201DB00207047C90508187047000015
:10577000F0B507460846584087B0C00F049048006F
:105780000E46590040084908BC1A884105D23846DF
:1057900031461E4617460B46024658004008104345
:1057A00003D13846314607B0F0BD300D03904005B7
:1057B0005900400D490D0590401A029040286DDABD
:1057C00018030121000B0905084301900498009279
:1057D000002805D001995242002088410092019092
:1057E000029840210A1A0199009800F039FC0546F8
:1057F0000C46684607C800F04FF9C0197141039A7A
:105800000E0D0023D71756401A467A40164340D053
:10581000049A002A29D0029A012A039A11DC12055F
:10582000C01A914101263605001C7141D20F059E18
:10583000D2070093019202962A46234600F022FCEA
:10584000B1E71605224A0F46B218C01AB741012126
:105850000905001C4F4100187F4111461818794175
:10586000E20F10436D19644113E0E2076D08154320
:105870006408C2071443039A01261205C01A914115
:105880003605001C7141CE07400830434908C01856
:1058900051412A46234600F0FBFB84E7049801228D
:1058A0004000C117121A00238B4104983146C417D7
:1058B000381AA141EFE730B40124E407634030BC5B
:1058C00056E730B40124E407614030BC50E70000E3
:1058D0000000E0FFF0B50C465C4085B0E40FE40743
:1058E00003944C0000266408590094464908024677
:1058F0000296224321D062460A431ED06200570D11
:105900004A000E032303550D012402462C492405A9
:10591000781B1B0B360B401823432643614600902F
:105920001C46501AB44103D30098401C009002E07A
:10593000921800985B41002803DA0020014605B068
:10594000F0BD0020012109050746864611E06446A6
:105950001D46141BB54106D36546521BB341744620
:1059600007430C43A646CD07400849082843921830
:105970005B4105460D43EAD11046184313D06046FB
:10598000194650407140084303D100220123DB0730
:1059900009E06046101AB34102D20122002302E05E
:1059A0000122D2435310009874460105381C61410E
:1059B000029C039D0019694100F06AFBBFE70000EB
:1059C000FD03000010B500229623114600F07FF879
:1059D00010BD410040020122400AD205090E801884
:1059E0007F2901DA00207047962903DC9622511A9C
:1059F000C840704796398840704700004A00090344
:105A00000123090B1B051943094B10B5520D9A428E
:105A100001DA002010BD064B34339A4203DC9A1A97
:105A200000F03CFB10BD03495118884010BD000038
:105A3000FF030000CDFBFFFFC20FD207400040086C
:105A40000BD0C10D0723DB01C91840020905400A2C
:105A50001143C208400711437047002001467047B8
:105A6000CB0FDB07490010B5490802460A4307D0AF
:105A70000A0D07240903E401090B121B002A01DCAB
:105A8000002010BDC900440F0C43C100E018D2052E
:105A9000801800F014F810BD10B5202A06DBCB17D3
:105AA0000846203A1041C1170B4306E00B4613414C
:105AB000D0402024A21A91400843194610BD002965
:105AC00004DA401C490001D140084000704770B41E
:105AD0000024050C05D11024000402D1002922D095
:105AE0001124050E01D108340002050F01D1241D37
:105AF0000001850F01D1A41C8000002801DB641C7B
:105B00004000002908D020252E1B0D46F540A1405D
:105B100000D00121294308431B1B0106DB1D000A9D
:105B2000002B02DA002070BC7047DB0518188018C3
:105B30000029F8DA401C4900F5D170BC400840004B
:105B400070470000064C0125064E05E02046E3683C
:105B500007C82B4398471034B442F7D3FAF774FCC4
:105B6000E06A0020206B002003B40148019001BDD1
:105B7000551B020003B40148019001BD0F3B030017
:105B800003B40148019001BDCF2B030003B40148C9
:105B9000019001BDCB2C030003B40148019001BD6D
:105BA0000990020003B40148019001BD1F210200C9
:105BB00003B40148019001BDC12D030003B40148A5
:105BC000019001BD0921030003B40148019001BD0A
:105BD000C92D030003B40148019001BD2B690200E7
:105BE00003B40148019001BDEB31030003B4014847
