:020000042000DA
:1000000000980020A9040020B1040020C9040020A9
:1000100000000000000000000000000000000000E0
:10002000000000000000000000000000E1040020CB
:100030000000000000000000F9040020FB04002084
:100040006F340020053103000D310300F53400202A
:10005000013500208D310300573500205F35002029
:1000600043220020FD04002077350020AD3103003D
:1000700097210020FD0400204B1B02004B1B0200B7
:100080004B1B0200FD0400204B1B02008D200020B2
:1000900091200020AD200020B1200020B5200020BC
:020000042000DA
:10016000320000006F080020AB1E002093360020F4
:10017000000000000000000063800200BD8002005B
:10018000F51C0020FB80020019810200358102006D
:100190005D81020041340020FF050020C51C0020C5
:1001A000DD1C002000000000000000003F000000F7
:1001B000F48B002000040000740B080048010000CC
:1001C0006807080000040000C80C080020050000B3
:1001D000000000002000000048000000580000005F
:1001E0006800000004010000160100002801000062
:1001F0002E010000202A00008E2E000001000000C9
:1002000088130000351F0020E9600200FD93020002
:10021000FB29002019280300A574020049300020A2
:1002200003000000D52002009F36002004000000DB
:10023000D74902000F490200831D020063910200AA
:10024000B7910200BF910200078202007182020092
:10025000B0620020AD830200938402004185020059
:1002600015860200378602005F860200758602004E
:10027000F9870200258902005D8A0200D38C020002
:10028000098D02000F900200438D0200278E0200AC
:10029000F98E0200478F0200371C0020D58F020024
:1002A00049510200775102002F5202001000000055
:1002B00020030000803E000000000000000000005D
:020000042000DA
:1002C000504600030003983A6400F401B80B000C98
:1002D000B80B120030003000CD009A01120024004B
:1002E00030006400B0001800280012001200D0078F
:1002F0000000FFFF00000000000000000000000000
:100300001F000002444131343538302D30310000B7
:1003100000000000000000000000000000000000DD
:0403200000000000D9
:020000042000DA
:10034000FFFF010000C201000000000000000000EB
:100350000000F4010100011B0A071AFFD200021578
:10036000585CDE931B0142CC9A1325009BEDC65EC0
:1003700000000000C5000000000009FF00605257A7
:100380002D424C450000000000000000000000006D
:100390000000000000000000000044413134353806
:1003A000330000000000000000000000000000001A
:1003B000000000000000000000000000000000003D
:1003C000000000000000000000000000000000002D
:1003D0000000000000000000000000000000D00746
:0403E000064064323D
:020000042000DA
:100440000348854605F09AF900480047C720020096
:100450000098002010B5114906200880FF2010499F
:10046000013008600F4988683E2290432E30886032
:100470000021052000070180028A0F231B021A4376
:1004800002820122D204032308461B038418216040
:10049000001D9842FADB62B610BD00000034005027
:1004A00080E100E0003300501548804715480047C0
:1004B00004207146084203D0EFF30980124908472F
:1004C000EFF308801049084704207146084203D022
:1004D000EFF309800D490847EFF308800B490847FF
:1004E00004207146084203D0EFF309800849084709
:1004F000EFF3088006490847FEE7FEE7FEE7000045
:10050000550400204104002091130020150500200F
:100510008705002005221207518A80231943518242
:10052000114903680B6043684B6083688B60C36844
:10053000CB6003690B6143694B6183698B61C0695F
:10054000C8610A48836A0B62C36A4B62036B8B62A1
:10055000C36BCB62436B0B63806B4863908A8006EE
:1005600001D500BE7047FEE70018080000ED00E06E
:1005700002890889FF49101A80B2884201D90120F6
:1005800070470020704781692039897F082904D28B
:10059000F94A8900515881617047FEE7F848F749E8
:1005A0000161F8494161F8498161F849C161F8493F
:1005B0000162F8494162F8498162F849C162F8492B
:1005C0000163F8494163F8498163F849C163F64919
:1005D000EB485C3140300160F5494160F54981608C
:1005E000F549C1600120F549C0060860F449CA69AF
:1005F0001202120ACA61F14980390860704710B5C9
:10060000F0490020086001F001FB01208007016B28
:1006100049004908016310BD10B50221084605F0E4
:10062000BBFC00220123E84900280BD00A71C88ACC
:10063000E64CA0420DD2C88A00280AD008790028CA
:1006400005D006E0C88A401CC8820B71EFE7CB7268
:10065000CA82C88ADE4CA04201D90B73CA82087CC8
:10066000052801D9CB730A7410BDF8B50026FFF731
:10067000D3FFD54F0024F87A0125012848D1D54869
:10068000FC724178002943D102210171002005F05C
:10069000F3FC0021084605F011FD022000F0E0FE09
:1006A0000021012005F0E8FCC948C83800F0E1FE4F
:1006B0000021012005F002FD0021012005F0DCFCF5
:1006C000142000F0CDFE0021012005F0F7FC1420DD
:1006D00000F0C6FE761CF6B2642EEDD3002108466B
:1006E00005F0CAFC01F032F9BB48BE490480BB48A2
:1006F0000580BB4804800320C870B6484570B248E6
:100700007C731830048044800221002005F0D6FC60
:10071000AD48007B012859D1AB4EAE4F3473787889
:1007200001287CD030468474AF4802210480002028
:1007300005F0A2FC0021084605F0C0FC022000F0F4
:100740008FFE0021012005F097FCA148C83800F079
:1007500090FE0021012005F0B1FC002600210120BF
:1007600005F08AFC142000F07BFE0021012005F03A
:10077000A5FC142000F074FE761CF6B2642EEDD3B6
:100780000021084605F078FC01F0E0F8192040014E
:1007900000F066FEFF20913000F062FE01F0D6F816
:1007A000022038718C4804808D4804808F48048072
:1007B000BB20B8717D708448447345728248022121
:1007C000183004804480002005F078FC7E4EF07BD9
:1007D000012822D1F47301F0B9F823242401204622
:1007E00000F03EFE01F0B2F8204600F039FE01F0C4
:1007F000ADF801F0FCF87574204600F031FE0221DE
:10080000002005F039FC734D00240C35285D01F003
:1008100081FC641CE4B2052CF8D3F8BDFFE702218B
:10082000002005F029FC01F091F84B20000100F0B8
:1008300017FE01F08BF8307C401C30746A4804804D
:100840006A480480B474BB20B8717572B6E710B5FD
:100850005D4C85B0032100206B461C34625C5A5409
:10086000491C5040C9B21329F8D905B010BD96B043
:1008700000255F480124109504705E4908200F266A
:10088000088004F08DFF05F05FFC01F018F80221EC
:10089000002005F0F1FB4C4804700078012802D1DB
:1008A000032105F0E9FB01F05EFF0B0E6A461370B1
:1008B0000A020A93130E6A4653700A040C93130E2D
:1008C0006A4693700B93CBB2D37009930B02020E5E
:1008D0001A43D3B26A4613710F930B04020C1A43E6
:1008E000D3B26A4653710A06010A1143C9B26A4675
:1008F000129391711391C0B2D0710F210D90062205
:1009000009033D4801F095FE00240322234612020C
:1009100021462046009405F0E3F93849086800288C
:1009200001D0601E00E00120354A08601368C1173D
:10093000576818433943106051600A2000F090FD59
:100940000021084605F0BAFB0021012005F094FBC8
:100950001F48C83800F08DFD0021012005F0AEFBD6
:100960000021084605F088FB00F0F0FF0C2000F0A5
:1009700077FD47E030750000906200209427030067
:100980000084004062B600DF28A30200704701DF48
:100990001CCA0200F8BD02DF40CB0200F5E703DF0E
:1009A00084D4020004DF89B0BC330200F8BD05DF47
:1009B000F8BD06DFEC0C030070BD07DF80E100E04E
:1009C00000ED00E08C03080020900020B80B000030
:1009D000AC0D0000CC6500207E91002084910020A9
:1009E000809100208C910020829100206C9000204A
:1009F0000A80002000330050D803002078900020A7
:100A00007090002000F0A2FF0C2000F029FD00F003
:100A10009DFF0C2000F024FD00F098FF00F0DAFFAD
:100A20000221002005F04AFBFE4902200871FE4821
:100A300001780170FD4801780170012004F0B6FED4
:100A4000FF2701370D203946800104F0B5FE02F082
:100A50000DFC01F093F901F029F8042000F0DDFB12
:100A6000072000F0DAFB0A2000F0D7FB062000F098
:100A7000D4FB0B2000F0D1FB012000F0CEFB0220C4
:100A800000F0CBFB002000F0C8FBE948006804F050
:100A900099FEB80501683943016000F0F1FBE548B3
:100AA0000068AA2805D1142001F06EF8142001F086
:100AB00079F803F0D7F9FFF7A2FDA221052000077E
:100AC000C182DD484188E0229143A031418001206C
:100AD00004F07EFE04F082FE022803D004F07EFEC5
:100AE00001280BD1D5480821018005200007818A03
:100AF0008906FCD4418A80229143418205273F0721
:100B00003889000620D5B800006B00041CD404F01E
:100B10006BFEC00718D1042004F06CFE009004F0B6
:100B20006FFE009800280FD0C24800940068AA28E1
:100B300002D1142001F036F80421684604F066FE64
:100B4000002801D001F085F872B602F0B7FB6946C3
:100B50000877042806D002280AD0032808D00128E4
:100B600072D072E0B648007801280ED003200877D2
:100B7000388A042108433882B248C069012868468F
:100B8000007F17D9032802D010E00220EFE704F01D
:100B900043FE00280AD004F045FE002806D00320BA
:100BA00004F046FE002801D002200AE00220694637
:100BB000087708E00328F9D104F03AFE0028F5D0C0
:100BC0000120A1490870A148016904221143016173
:100BD000798A202291437982398A0222114339820B
:100BE0006946097F022925D0798A04221143798236
:100BF0007F223B88920180210B433B800021491CCE
:100C0000C9B20A29FBD37B8A10210B437B8290490E
:100C1000521E4A61398880229143398086494B8827
:100C2000FF22013293434B8030BF026904218A4383
:100C300002610AE07A8A04210A437A827A8A1021C0
:100C40008A437A82EAE7FFE730BF62B6754F3878A9
:100C5000002809D10321012005F030FA02210020EB
:100C600005F02CFA7B48047000F0CEFEFFF7FDFC87
:100C7000B879BB2807D178480088032803D875487D
:100C80000121417001E0734844700521022005F004
:100C900083F9002803D06F490120887038706D48AF
:100CA000807801280BD16D480088012803D06A485C
:100CB0000088072814D26748847069480480664811
:100CC000008807280CD2664908883C2808D161486A
:100CD000827C002A04D18078012801D00C803C70ED
:100CE000F87908900B38BD2814D85B48008806288E
:100CF00010D9089804F0A2FD0B460246002059497D
:100D000004F004FC0022584B04F09EFD04F092FC19
:100D1000C6B20EE008980A2807D8002809D04E4825
:100D20000088062801D9B42603E00898C82800D90D
:100D3000072648488078012802D1787801280CD00D
:100D4000102E54D9494800880D2850D30E284ED86B
:100D500047480078C00737D049E00120B8704348C1
:100D60001421048042480088009004F073FD00299B
:100D700013D10098002810D0364ADD209074AA20A4
:100D8000B8714B2100984901089D884200D93C70F8
:100D9000907B002801D1012010722E48017A012990
:100DA00011D1807B00280ED100F0D0FD29480472BB
:100DB0000621F87904F04EFD01462748028889187B
:100DC0000180AA207871A4E02348008806280ED369
:100DD00000F0BCFD4B20C00000F042FB00F0B6FD6F
:100DE0001C4833218174AA207871224804801F484E
:100DF0000088B0427ED31848008806287AD9154862
:100E0000407B002803D11C491820C870BC70B878FA
:100E1000002839D132221146184803F098F87C7026
:100E200001202DE0CC65002000000800202A0800E9
:100E30000490002014800020200000500033005057
:100E400054020800E0010020C406080000ED00E0A4
:100E500000800040209000206C9000206A900020CC
:100E60008291002000004E4000003E407E91002014
:100E700084910020809100208C91002004C8000003
:100E8000B870E9494873C870E748183001880029EC
:100E900002D1142101804180E34818304188008844
:100EA000421F914205D0921F914202D011388142D7
:100EB00001D100F06DFDDC4818300188DB48008866
:100EC000401A142104F0CCFC002902D03879002803
:100ED00014D0D549C87A012810D0D54A0320D07043
:100EE00055208874AA20B871002501200872D148C5
:100EF000047000E00DE03879401E3871CA48C078AF
:100F0000012806D1CC48CD490088801B884200DDED
:100F10003C70CB480188012979D10480C24DC94871
:100F20006C7400883C2807D80221002005F0A4F842
:100F30004B20C00000F094FA6878002801D1AA2064
:100F4000B871BA48BC49048001200880BE48BF4936
:100F5000048011200870B7480470BD480188FF2044
:100F6000D730814201D2FF2003E0BA4804F072FC7E
:100F700080B21099C0B2491CCAB202A9109288541A
:100F8000694688730190A879012800D1E87110980A
:100F9000052803D1002010900120A871A248807973
:100FA00001280846497A807A32D00A186846C17A00
:100FB000007B081811186846407B0818109904F047
:100FC00049FC05466846417A807A09186846C27A23
:100FD000007B101809186846407B09180198081A08
:100FE000C117890F08188010F871002D23D0FF2D2C
:100FF00021D88D48817A6A1A052A02DA491B052907
:1010000011DB012141718A491820087113E051E078
:101010000A186846C17A007B081811186846407B98
:1010200008180521CBE7824A1179052903D201214D
:101030004171182010710521022004F0ADFF002835
:101040000BD07948EE21817483480E2100880090EE
:1010500004F000FC002905D00CE0734884747E483D
:10106000048007E00098002804D000F06FFC7A4963
:10107000012008806C488470724B1988052901D2C0
:1010800001224271022907D2F978012904D11C807A
:10109000FC704471002110914179012906D14471FD
:1010A0008572807B00280DD05520787102210020A8
:1010B00005F004F85C48817C332905D0417801298A
:1010C00002D008E0AA20F0E764490A88152A02D174
:1010D000AA227A710C805649C978022902D1817BF3
:1010E000002969D07979AA2903D0417A012900D051
:1010F00004E54D48407C0128FAD000F078FC192026
:10110000400100F0ADF949480088B04206D3002004
:1011100002A90C54401CC0B20528FAD349480088E3
:101120003C2803D90221002004F0A6FF3E4A907B10
:10113000002844D0552078714A4F494BB968180AA5
:101140000B704870B879384B88709A8ACA70120A46
:101150000A713C4A142012884A71120A8A71C871B5
:101160004148007808724D72987C88720A98C8725B
:101170000C9808730B984873099888730F98C87374
:1011800012980874139848740D988874FFF75FFBE1
:10119000B968C8743C2000F063F9002722481C306D
:1011A000C05D00F0B7FF7F1CFFB2142FF6D32F48AD
:1011B0000078012805D014E0AA21797199E7AA20C6
:1011C000B9E72B4F184A78891C32801D80B2142150
:1011D00004F04CFB78890021801D82B2384602F071
:1011E00022FA1148818A491C8AB2224982828A42A3
:1011F00001D901218182047202218173194955228A
:101200004A714472E120800000F033F9022100208D
:1012100004F054FF00F0DEFB70E4C106C90E0120AB
:101220008840154908607047209000207E9100207A
:101230008C9100205C9000208491002065090000C2
:101240006A9000206C90002082910020DD650020D3
:1012500068900020C0D401007C9100208091002083
:101260001B030000CC650020D291002009800020E3
:10127000A8910020FEFF000080E200E0704700001F
:101280003E480178002902D08021417070473C49D6
:10129000002008703B49C870704738480178002921
:1012A00002D08121417070473549012008703549CD
:1012B000C870704731480178002902D082214170FE
:1012C00070472F49022008702E490120C8707047CE
:1012D0002A488178002904D0491E0906090E817028
:1012E00017D142780021002A04D09207920F027091
:1012F000417004E00278002A01D0521E02701206EA
:10130000120E017005D0012A02D0022A01D1D1E7C4
:10131000C3E7704710B5194CA078401CA070207826
:10132000002805D104F05AFA421CFFF7A9FF2270E9
:1013300010BD12490120C870704710490020C870C4
:1013400070470E48C07870470020EFF310810122EB
:1013500082F31088052212071289120605D40A4862
:10136000028901231A4302811846002900D0012175
:1013700081F3108870470548007870470B80002083
:1013800054020800C6060800003300502A800020DE
:1013900005221207118A042319431182118A02239C
:1013A000194311821189402319431181174B0121DF
:1013B0001960174B08211980518A802319435182E3
:1013C000144903680B6143684B6183688B61C36890
:1013D000CB6103690B6243694B6283698B62C069AD
:1013E000C8620D48836A0B63C36A4B63036B8B63EC
:1013F000C36BCB63436B074940310B60806B486024
:10140000908A800601D500BE7047FEE780E200E0CA
:10141000003300504018080000ED00E010B5012036
:1014200004F0F8FE032004F0E9FE0022114601203A
:1014300000F0D8FE2A220121002000F043FF1420F2
:1014400004F014FF002004F017FF0022114664206E
:1014500000F0E7FE00F0EAFE04F0E8FE10BD704781
:101460005021484380B20146401E80B20029FAD183
:10147000704700227D23DB0006E00021491C89B271
:101480009942FBD3521C92B28242F6D3704770B598
:10149000F94900208A68C043002A01D0024600E0D2
:1014A0000122D317940F9B00234394008A60F34AD0
:1014B000156856682C433343146053608B6D002BC2
:1014C00001D0034600E001238B6514689B0055683A
:1014D00014602B435360CB6D002B01D0034600E01A
:1014E0000123CB651468DB00556814602B435360FF
:1014F0000B6E002B01D0034600E001230B6614683D
:101500001B01556814602B4353600B68002B01D0FE
:10151000034600E001230B601568DC1756682B4377
:101520003443136054608B69002B01D0044600E003
:101530000124E317A50E9B012B438C611568A401C0
:1015400056682C43334314605360CB68002B01D0A2
:10155000044600E00124E317650FDB002B43CC6059
:101560001568E40056682C433343146053604B699C
:10157000002B01D0044600E00124E317E50E5B01D7
:101580002B434C611568640156682C433343146047
:101590005360CB6B002B01D0044600E00124E3171D
:1015A000E50A5B052B43CC631568640556682C433C
:1015B0003343146053604B68002B01D0044600E0B5
:1015C00001244C60E317241915685B4156682C43CD
:1015D000334314605360CB69002B01D0044600E014
:1015E0000124E317650EDB012B43CC611568E40190
:1015F00056682C433343146053600B6B002B01D0AF
:10160000044600E00124E317A50B9B042B430C6365
:101610001568A40456682C433343146053600B6967
:10162000002B01D0044600E00124E317250F1B0125
:101630002B430C611568240156682C433343146016
:1016400053608B6A002B01D0044600E00124E317AD
:10165000250C1B042B438C621568240456682C430C
:10166000334314605360CB6A002B01D0044600E082
:101670000124E317E50B5B042B43CC62156864047B
:1016800056682C433343146053604B6B002B01D0DE
:10169000044600E00124E317650BDB042B434C6395
:1016A0001568E40456682C433343146053600B6D93
:1016B000002B01D0034600E001230B651468556838
:1016C00014602B4353604B6D002B01D0034600E0A8
:1016D00001234B6514685B00556814602B4353600D
:1016E0004B6E002B01D0034600E001234B661468CB
:1016F0005B01556814602B4353608B6E002B01D047
:10170000034600E001238B6614689B015568146052
:101710002B4353600B6F002B01D0034600E00123E5
:101720000B6714681B02556814602B4353604B6FA2
:10173000002B00D1012048671168400253681160F6
:101740001843506070BDF8B503260125002336020A
:10175000324602211846009504F0C2FA0024022104
:10176000234622460846009404F0BAFA00210723D3
:1017700032460846009404F0B3FA0623324619466E
:101780000020009404F0ACFA082332460321002024
:10179000009504F0A5FA052300221946104600958D
:1017A00004F09EFA0223324603211846009404F006
:1017B00097FA0123002204210220009404F090FAF9
:1017C0000023324604211846009504F089FA0022CD
:1017D0000F2301211046009404F082FA17233246A9
:1017E00007210020009504F07BFA002332460221F5
:1017F0000120009504F074FA0023324619460120B6
:10180000009404F06DFA012100233246084600944A
:1018100004F066FA0023324603210120009404F00C
:101820005FFA0023324619460220009504F058FA68
:1018300000231A4601210220009404F051FA0023EB
:101840001A4605210220009404F04AFA0023324689
:1018500006210220009404F043FA002332460821B6
:101860000220009504F03CFA0023324609210220B0
:10187000009504F035FAF8BD7890002070900020B3
:1018800038B57FA000687F4C009060896A46801D53
:1018900080B2032103F0EAFF60890021801D82B23B
:1018A000204601F0C0FE00210822084601F0F7FEA4
:1018B00001223221744802F04AFB38BD70473EB520
:1018C00005242407208A022188432082A08A000759
:1018D000FCD5FEF763FEFFF736FF00F0F3FBFFF7E2
:1018E0009DFD01200021C00200F00AFD012000F052
:1018F00014FD142101200A460191009001460023A5
:10190000022004F017FA6149032048700020087093
:101910000090019003460246014602905B4800F0A9
:101920002DFD00F0FAFD5949091F4870401C04D1F3
:10193000FF210131080200F0B7FD00F011FD00F0B9
:1019400016FD608A2021084360823EBD10B5002448
:101950000621022004F090FB0520FFF781FD0621FF
:10196000022004F0ABFB0520FFF77AFD641CC82CB5
:10197000EEDB10BD034610B50020024602E09C5C81
:101980002018521C8A42FADB03F06AFFC0B210BD75
:1019900010B53F4C2078222805D0442803D0662873
:1019A00001D0882801D1FFF7D1FF3A48817800297A
:1019B00006D12178882904D0052282701131217046
:1019C00010BD642181701120207030490120091F51
:1019D000087010BD10B50821022004F06FFB242010
:1019E000FFF73EFD0821022004F046FB10BD10B5B4
:1019F0000921022004F062FB2420FFF731FD0921B8
:101A0000022004F039FB10BD70B52348017801298C
:101A100034D10025057021491C48CA78801ED12A7E
:101A200002D0DA2A28D112E01C49194E20310A7A54
:101A30000270497A761C4170327171710024305DF8
:101A400000F068FB641CE4B2092CF8D314E0097AB6
:101A5000002911D10E4E01780A363171407870712B
:101A60000024305D00F056FB641CE4B2092CF8D36E
:101A70007D20C000FFF7FDFC0948057070BD000027
:101A8000A1A2A300A89100200338000060900020CC
:101A9000DD6500208C9100202C9100202E910020EB
:101AA0002D910020A54900204860704770B50521A0
:101AB0000907088930229043088108898022104351
:101AC0000881088980088000401C08810889082353
:101AD000184308819A480488144304804C8A9C4324
:101AE0004C820D89402425430D810D8A0426B5437F
:101AF0000D828D8AAD07FCD5904E00257560058856
:101B00000126354305804589AE058E4D068801D5F1
:101B10002E4300E0AE43068005887826B54328357D
:101B2000058005880626354305804D8A1D434D8274
:101B30000388934303800A89A2430A814089800570
:101B400003D57F4905206031888001208007016826
:101B50008215914301607C4801683F225202914303
:101B6000421489180160016802031143016070BDCD
:101B70000321764809028181082242800021491C04
:101B80009629FCD3828070477149488008880322D7
:101B90001043088008880422104308806749012008
:101BA000087070477CB5654C217800292DD06849B4
:101BB0000A885207FCD4CA880092898801911104CE
:101BC000019A8918009163494843009903F042FE45
:101BD0000090002020700098A060009803F00EFD97
:101BE000054629465C4803F094FB0A2103F0CFFB2D
:101BF00003F00BFDE060284603F03AFD574A584BCE
:101C000003F022FE03F048FD20617CBD10B54B4877
:101C10004168AA2906D07C205249081880B203F0F6
:101C20002BFE10BDC06819210903884200D900BEEF
:101C3000FF20EB30F0E770B5414C6088C006050F1F
:101C400003F020FE61881E2291436A0011436180E7
:101C500070BD10B544490120C863C86B0028FCD191
:101C600001208007C16941480268914201D20022E7
:101C7000026019238A1ADB019A4212D3016003F031
:101C800007FE3B4A1188884201D9411A00E0091A2F
:101C900089B2182905D31080012003F0FFFD03F05D
:101CA00003FE10BD08B5254989684843314903F052
:101CB000D1FD009008BD08B52049C9684843800A95
:101CC000009008BD08B51D494968002903D0FFF7F9
:101CD000E9FF009008BD03F0EDFDFAE708B51749EC
:101CE0004968002903D0FFF7E6FF009008BD03F024
:101CF000E7FDFAE708B5204901204A695206D20FEC
:101D000013D04A699206D20F0FD000220A610092C6
:101D1000FF225F32009B5B1C00939342FAD3496918
:101D2000C907C90F02D003F0D1FD002008BD40183B
:101D30003721C000090140187047000010800020C2
:101D40002000005000100000000200402030005031
:101D5000001600500024F400002474497B14AE47A0
:101D6000E17A443F01120000C00000407C040800FA
:101D70007804080040420F000010005030B58D4A32
:101D80008D49D005048880231C4304808B4C6589D1
:101D90002D0701D4521EFAD2894C01222260894CAF
:101DA0000A882280884A49881180018899430180E5
:101DB00030BD002070477047704770470020704763
:101DC00001218907086B0722104308637047704799
:101DD00010B57F497D4808607E494C2008807D4BC6
:101DE0007D4A203B1A827E497C4848807E487D4956
:101DF00001807C4919314180222141818121890062
:101E000001827A4941827A490183784911314183BB
:101E100075497848203188804121774809018180BF
:101E20007649C180754C1034C48101824182891C7D
:101E30008182611FC182FF21463101837049418344
:101E40007049592008806F486F4C2030048043242B
:101E500044806E4C4C82D5218180FF21D331018199
:101E60006B4941816B4981816C496B4808805948B5
:101E70006B4960384180C18810242143C180624988
:101E80000A390181534C6749403C61805A820821DC
:101E900041814D485B490088403908824948624980
:101EA0000088088010BD4008704700B58BB05F4ABD
:101EB00042625F4A82625F4A42615F4AC2625F4A2F
:101EC00002605F4A02625F4A42605F4AC261404A02
:101ED0003E48002110603E484038026B03129A438E
:101EE0000263426B1F231B049A4303231B04D21873
:101EF000426356480268C3129A43026002680313A1
:101F00009A43026068464154491CC9B22829FAD351
:101F1000014628224E4803F0DFFCFFF759FF03F08B
:101F2000B7FC4C490880002003F0B8FC03F0BCFC6F
:101F30000BB000BD10B5264A0F21244809021060DD
:101F400023484038426B1F231B049A4303231B047E
:101F5000D218426300060268D208D200026005204F
:101F60000007028992089200521C0281028908230C
:101F70001A430281028A0A43028237480068002815
:101F800008D10E484189890504D5018878229143FA
:101F900008310180FFF71CFF3048006B00780028F3
:101FA00004D02F4800880B496039C880012003F015
:101FB0000FFC10BDA0860100087F04002000005027
:101FC00000800040560208004A0308004C055407F0
:101FD00080000040602C00507F7F0000AC29000092
:101FE00000220050090900000024005022040000D3
:101FF00030D00000EE110000002500502E0200003D
:1020000044200000402800500D95000002420000CE
:10201000E4DC00001092000053780000002A005019
:102020008B1000009DD5000000260050B31D00203D
:10203000B71D0020BD1D0020C11D0020B91D0020BE
:10204000CF1D0020BB1D0020A71E00200002004065
:1020500020000800780408001480002020020020DE
:102060005204080010B5044603F0BAFF1249A0005C
:1020700040188038406B002801D0804710BDE10631
:10208000C90E012088400D49086010BD1320E9E702
:102090000B4909480A88B038028000220A800121D1
:1020A00041808188491C81801420DBE71520D9E715
:1020B0001620D7E71720D5E71891002080E200E02E
:1020C0007A91002005200007828880210A438280BF
:1020D0004048818100218180092101800321818183
:1020E000028A40218A4302820122028183881343AB
:1020F000838039480268120A12020A43026088018A
:102100003649086070473348818AC907FCD0008887
:10211000C0B270472F498A8A9206FCD50880704762
:1021200000B5034602E0FFF7F5FF5B1C18780028B6
:10213000F9D100BD0346000600B5000F0A2801D200
:10214000302100E037210818FFF7E4FF1807000FDF
:102150000A2801D2302100E037210818FFF7DAFF02
:1021600000BD10B50446000AFFF7E4FFE0B2FFF738
:10217000E1FF10BD10B50446000EFFF7DBFF2002A3
:10218000000EFFF7D7FF2004000EFFF7D3FFE0B2E9
:10219000FFF7D0FF10BD10B50E4801890907090FE0
:1021A000042910D103880E4A901E41785354491CCB
:1021B000C9B24170D47800220123D12C04D0DA2C8A
:1021C00001D1092902D010BD4A29FCD10370427007
:1021D00010BD0000001000500CE400E000E100E041
:1021E0002E91002030B53F4B1C680825C907AC4331
:1021F000090F0C431C6019680424D207A143520F35
:102200001143196019680222C0079143800F0143EE
:102210001960354801688022090A090211430160EA
:1022200030BD324B58809980DA807047FF203049AA
:10223000013008607047FF202D490130803108606F
:1022400070472C4800224188491C41800178491C74
:10225000CBB2014614310370142B08D302700B78F3
:102260005B1C0B708B78002B01D05B1E8B700B7886
:10227000322B26D183885B1C83800A708289521C92
:102280008281C288521CC2800289521C028142890A
:10229000521C4281C878401EC8700879012801D9B3
:1022A000401E0871144A5088022801D9401E5080EF
:1022B000124A1078002801D0401E10704879401C46
:1022C0004871704770B5054614460E46012003F06C
:1022D000B5FF284603F0BEFF304603F0CDFF0348AC
:1022E000C48170BD0034005008E400E000340050A8
:1022F00000E100E078910020389000202E9000202E
:1023000008430121890302460A4312490A80124AFE
:10231000104308800B20488070470E490A880F231D
:102320009B0100079A43800D02430A8070470949C8
:1023300000200880704707480849028802231A4392
:102340000280491E02D302889207FAD4002101813B
:10235000408970470015005001400000A086010030
:1023600010B54F484178007803F0A8FE10BD10B5B5
:102370004B484178007803F07FFE10BDF8B50E465B
:10238000154647490278079F0A7040781C464870F6
:10239000FFF7EDFF0520000781880122D2021143DB
:1023A0008180404801884908490001800188FF2256
:1023B00081329143F201114301800188402291430F
:1023C000AA0111430180018804229143A200114314
:1023D0000180018802229143069A52001143018034
:1023E0000188012292039143BA03114301800188BD
:1023F00018229143089AD2001143018001880122DA
:1024000011430180F8BD27490A88520852000A800A
:102410000A88FF2381339A43C00102430A80088857
:10242000012210430880704710B51E4801884908F2
:10243000490001800520000781880122D2029143D2
:10244000818017484178007803F016FE10BD1548CA
:102450000188490849000180704710B511490023DF
:102460000A88D205920F012A01D9040C8C80488079
:1024700008888004FCD50120C880012A01D98888F9
:1024800003044888C01810BD10B50446FFF768FF64
:102490002046FFF7E2FF0446FFF769FF204610BD24
:1024A0000080002000120050F94AD160906070470F
:1024B00010B50120FFF7A7FF05200002FFF7E4FF9A
:1024C000C0B210BD70B50024F24DFFF7F1FFC00798
:1024D00004D0641CAC42F8D30020C04370BD70B57A
:1024E000FFF7F0FF002817D1FFF78DFFFFF738FF48
:1024F0009F20FFF7B2FF0020FFF7AFFF0504002089
:10250000FFF7ABFF04022C430020FFF7A6FF204398
:102510000546FFF72CFF284670BD70B5FFF7DFFFBB
:10252000DB4CDD4A002114234B43D5589B185B68D4
:102530001D4003409D420ED1142308B24B4320801E
:102540009B189D68A560DB68E360142358438018DE
:10255000606048B270BD491C89B20429E3D30020F1
:102560006060401E70BD70B5FFF7ACFF002815D14C
:10257000FFF749FFC74E00250620FFF785FF00241F
:10258000FFF796FFC10703D1800701D5002070BD7A
:10259000641CB442F4D36D1C322DEDD30020C04333
:1025A00070BD70B5FFF78EFF002815D1FFF72BFF28
:1025B000B84E00255020FFF767FF0024FFF778FF93
:1025C000C10703D1800701D5002070BD641CB4424F
:1025D000F4D36D1C322DEDD30020C04370BD70B517
:1025E000FFF770FF002811D1FFF70DFFA94E00255E
:1025F0000420FFF749FF0024FFF75AFF800707D0A8
:10260000641CB442F8D36D1C322DF1D30020C043BA
:1026100070BD10B50446FFF755FF002808D1012012
:10262000FFF7F1FEE01DF930FFF72EFFFFF74AFF3D
:1026300010BD70B5064696480D4680685119814216
:1026400001D9441B00E01446FFF73CFF00281AD1D3
:102650000220FFF7D8FEFFF783FE03212846090674
:102660000843FFF7FAFE0020FFF7CDFE002505E046
:102670000020FFF7F2FE3070761C6D1CA542F7D3E8
:10268000FFF775FE204670BD70B5054680480E46C2
:10269000C0681446824200D984B2FFF713FF0028B5
:1026A0001ED1FFF760FF00281AD10220FFF7ABFE12
:1026B000FFF756FE0121304649060843FFF7CDFEDD
:1026C0000020FFF7A0FE05E028786D1CFFF7C5FE8F
:1026D000641EA4B2002CF7D1FFF749FEFFF7F2FE0B
:1026E00070BD70B50D460446FFF73DFF002802D0CF
:1026F0000020C04370BD0220FFF785FE280620435E
:10270000FFF7C2FEFFF7DEFE70BD10B5FFF72BFF2F
:10271000002802D00020C04310BD0020FFF773FE48
:10272000C720FFF7B1FEFFF7CDFE40B210BD00207D
:10273000C043704710B5FFF7C5FE002812D1012035
:10274000FFF761FEFFF70CFE09200003FFF785FE8F
:102750000020FFF782FE0020FFF77FFE0446FFF710
:1027600006FE20B210BD70B5FFF7ACFE002801D008
:10277000C11770BD0020FFF746FEFFF7F1FD4B20AB
:10278000FFF76BFE0220FFF73EFE0020FFF765FE1D
:102790000020FFF762FE002504462846FFF75DFE95
:1027A00006462E43FFF7E3FD3046214670BDF7B5E0
:1027B00082B0374F0E460091F96814460D463046F8
:1027C00003F048F8401C6843451E0020FFF71BFE3D
:1027D000B868801BA04200D204462646002719E0B4
:1027E00000988019A84202D900982E1A761C0298E7
:1027F000B2B2C0190099FFF747FF002803D00020AC
:10280000C04305B0F0BD681C00902148BF19C068E6
:102810002D18E61BA742E3D33846F2E710B5FFF7C1
:1028200051FE002805D1FFF7EEFDB920FFF72CFE81
:10283000002010BD10B50020FFF7E5FDAB20FFF72D
:1028400023FE002010BD70B5114C054660680028BD
:1028500006D0FFF788FE002805D00020C04370BDD9
:102860000520C04370BDFFF723FE6168097C8843E3
:1028700029400843FFF7CDFE70BD10B504484068FD
:10288000407CFFF7E0FF002808D040B210BD0000F8
:1028900098910020400D0300D0620020FFF735FF23
:1028A000F4E770B505462F480E46C06814468242CC
:1028B00000D984B2FFF706FE00281DD1FFF753FEB2
:1028C000002819D10220FFF79EFDFFF749FD0121E5
:1028D000304649060843FFF7C0FD0020FFF793FD8F
:1028E00004E02846FFF7B9FD641EA4B2002CF8D11D
:1028F000FFF73DFDFFF7E6FD70BDF7B582B0194F5C
:102900000E460091F96814460D46304602F0A2FFCB
:10291000401C6843451E0020FFF775FDB868801B0A
:10292000A04200D204462646002717E000988019EE
:10293000A84202D900982E1A761CB2B200990298C9
:10294000FFF7AFFF002802D00020C04359E7681C02
:1029500000900448BF19C0682D18E61BA742E5D3B4
:1029600038464EE79891002070B5EFF310850120AE
:1029700080F31088264802F0B5FF0446002D1DD0D4
:10298000012080F31088002C23D020462038C08BF3
:10299000204988421DD16189208902F0A9FF0500E4
:1029A0000ED021461031A38962892089A8470028CA
:1029B00006D001280DD002280BD105E00020E0E769
:1029C000204602F09BFF04E0114821460C3002F043
:1029D0009BFFEFF31084012080F310880C480068FF
:1029E000002802D1012002F095FF002C03D0012025
:1029F00080F3108870BD0020FAE710B5BC210648AE
:102A000002F08EFF0549012002F090FF10BD00008A
:102A1000A805080038830000040608006929002082
:102A2000F8B50D46064681002B48EA884458521CEA
:102A300020686B89018F294F514300910146403135
:102A40004A89C989511A8AB2991A89B2B94214D2EB
:102A50009A4212D0294602F06FFF2D892049009832
:102A600002F0F8FE2818801C4034E0823002401C3E
:102A700080B2042102F066FFF8BD2821304602F042
:102A800067FFF8BDF8B50546870013480C46C059E6
:102A9000C9880068114E024640325389D2899A1A79
:102AA00092B28B1A9BB2B34211D20B4E8A420ED015
:102AB00002F054FFF05905225F30611C02F00CFF58
:102AC0002802401C80B2052102F03CFFF8BD2821FD
:102AD000284602F03DFFF8BD4C030800FF7F0000D0
:102AE0001027000070B516460D46104602F03CFF58
:102AF000002869D0340A304602F036FF012812D08F
:102B0000A87A1E2811D029460A310E2845D019DC92
:102B1000801E030002F02EFF0B255829582D583136
:102B20005839583D5800022070BD3146274802F000
:102B300027FF0021204602F029FF0221304602F043
:102B400001FF41E018283CD006DC102819D01228DB
:102B50002BD0162838D130E0522822D0D22833D1B9
:102B600027E0204602F018FF2EE0204602F01AFF70
:102B70002AE0204602F01CFF26E0204602F01EFF5D
:102B800022E0204602F020FF1EE0204602F022FF55
:102B90001AE0204602F024FF16E0204602F026FF4D
:102BA00012E0204602F028FF0EE0204602F02AFF45
:102BB0000AE0204602F02CFF06E0204602F02EFF3D
:102BC00002E0204602F030FF002070BD0128000026
:102BD000F3B581B001980C460102CA1D0E310223E3
:102BE000344802F027FF0470019905460227324855
:102BF0008E00002C06D0042C16D0062C10D0072CEA
:102C00003FD108E0815905224968897C11406970EB
:102C10008059C77335E0084602F012FF687030E053
:102C200080590F21C1732CE0044680594068417CD3
:102C3000012902D1007E01280FD0019802F006FF81
:102C400001210028A0590BD04268D07D00281CD05B
:102C500001281AD004280DD00FE0002068700DE084
:102C60004068C27D022A01D0042A06D1007C0228D5
:102C70000BD102E0107C022807D06F70A15903200D
:102C8000C873284602F0E8FEFEBD6970F6E701460B
:102C90000A780120042A01D9002070474A78002AC6
:102CA00001D0012AF8D10A79082AF5D849790829EA
:102CB000F2D87047021C000028050800FFB589B053
:102CC0000D4600206946059008720B98000A009096
:102CD00002F0BCFE07460B9802F046FE00287DD0AD
:102CE0000B982978000A8400764E01295ED00429C9
:102CF00004D0062943D0072963D120E06878002852
:102D00001BD0305910224068A91C02F0E5FD002FAD
:102D100006D03159C87B032807D0042808D050E0DA
:102D20003059C07B032803D04BE00B20C87348E028
:102D30000521009802F096FE43E00120B6E03059EC
:102D4000C07B0E283DD1009802F07AFE002103E0FE
:102D50002A18401C9170C0B21028F9D3688A6946BD
:102D60000883294606A808221431023002F0B4FD77
:102D700006ABAA1C3946009802F07AFE21E03059D1
:102D8000C07B0F281DD1AA1C0A21009802F076FEF4
:102D9000002F04D03946009802F076FE11E000239F
:102DA0001A463946009802F075FE0AE0012F08D154
:102DB0000B9802F0D9FD01281CD0002801D0022078
:102DC00005906846007A002811D002AA05210098D3
:102DD00002F054FE6846027A602000E007E00243F9
:102DE0006846027201233946009802F053FE0598A6
:102DF0000DB0F0BD3059C07B0228E2D168780028C0
:102E000051D002210B9802F09DFD305907224068F5
:102E1000A91C173002F060FDE878002804D1305971
:102E20004068407C01283AD0009802F039FE002822
:102E300037D0297A009802F039FE002833D0009864
:102E400002F03AFE0121009802F03CFE00282CD04E
:102E500030594068417E00292BD0042929D0C17EF9
:102E6000027D1140C17630594068017F427D11409A
:102E700001776846007A0028A7D1305902214268BC
:102E80000098173202F0FAFD305941684031897BD1
:102E9000002913D004210098FFF79AFE91E7022041
:102EA00004E0062002E0082000E0032069460872E2
:102EB0008BE70021C17630594068D9E70B21C173F7
:102EC0007FE700002805080070B50446007800255B
:102ED0000D2801D00A2200E002225A494B7A002B29
:102EE00006D00D2804D0637C032B01D0432551E08C
:102EF000097A8A4339D10D2809D00E2802D00F282B
:102F000003D134E0607C032804D3402542E0607C98
:102F10000328FAD8A07C0428F7D20A2908D0607CBC
:102F2000012822D0022820D06078032809D811E097
:102F300002F0CEFD012806D16078032803D00028D6
:102F400001D0492526E002F0C3FD002802D16078B7
:102F50000228F6D83020035D22462046E17C31323B
:102F6000143000F019F8054614E0422512E002F092
:102F7000AFFD012807D16078052804D1A01D02F01B
:102F8000ADFD0028DDD002F0A3FD002802D160785D
:102F90000228D6D8284670BDFFB5002086B0012192
:102FA0006A461170044605910021002C06D0089D48
:102FB000099A1F239A4234D9402032E01C23069DEF
:102FC000079AF7E76B185E78330002F0D3FC1D26F2
:102FD0001010101010101010102626262626262657
:102FE0002626262626261010101010102600059BD7
:102FF00003E06F46FF5CB74204D05B1E5BB2002B60
:10300000F7DA03E0002B01DB4A2006E0059B6F4660
:10301000FE54059B5B1CDBB205936B5C491C591885
:10302000C9B2914201D20028CCD0914202D04A20AC
:103030000AB0F0BD641CE4B2022CF9D20028B3D06F
:10304000F6E7000098050800F8B50C4694491646C6
:1030500009680125002702228B1C312873D012DC5D
:103060000C2874D008DC012821D0022840D0072881
:103070004FD00B2869D156E010287FD0112876D088
:103080001228F7D18DE00123412871D008DC3228C5
:103090006FD035286ED036286DD04028EAD1B1E007
:1030A000422869D0432868D04428E3D1CFE00622E3
:1030B0007C497D4802F018FD002808D006227A4994
:1030C000304602F009FC062020700020F8BD74484C
:1030D00001680878C00738D02078062801D2277008
:1030E000C2E006229831304602F0F6FB06200EE0E0
:1030F0000A786B48920728D522783E2AEFD30546F6
:103100004A7E5A31304602F0E7FB2868407E207044
:10311000A7E00878400718D520780228DFD3887CFC
:103120003070587C78E00A785D4812070DD5227817
:10313000202AD4D30546CA7D1A31304602F0CCFB92
:103140002868C07DE3E735E001E077E016E00A7823
:103150005348D20672D52278202AC0D305460A7E6B
:103160009831304602F0B8FB2868007ECFE70EE0C9
:1031700054E028E034E03BE058E060E00878800666
:1031800070D520780428AAD30422091D23E00878EA
:10319000400667D52078002866D0087D08E02270B8
:1031A0005FE0087800065DD5207800285CD0487D77
:1031B0003070F4E70888C00554D5207804288ED3F1
:1031C00004220C3107E0088880054BD520780428BC
:1031D00085D304220831304602F07EFB042096E7B6
:1031E000088840053ED5207800283DD0887D36E00F
:1031F0000888000536D5207802288FD3087C3070E7
:10320000487C09E00888C0042CD52078022885D3A2
:103210008231087F3070487F7070C0E70888800472
:1032200020D5207800281FD0A03117E0088840045E
:1032300018D52078002817D0A1310FE012E00888B7
:1032400000040FD5207800280ED0A23106E00868CF
:10325000C00307D52078002806D0A3310878307045
:10326000237000252846F8BD0425FBE770B50F48FC
:103270000F49C405228880252A4322800D4A53899C
:103280001B0701D4401EFAD20B4A0120106006220F
:10329000054802F021FB2088A843208070BD000073
:1032A000C0060800383E030024800020A0860100EC
:1032B000D47F04002000005000800040F0B5554D40
:1032C00085B00026686937460190FEF73AF800217C
:1032D000514C002802D12079022800D101914F4899
:1032E00002684F48002A0FD10278002A0DD04D4BBA
:1032F0000122DA63DA6B002AFCD101229207D2693B
:103300001923DB019A420ED3017002F0F3FB00286F
:103310007DD0E0780126002879D005200007808A3A
:10332000C00701D0042672E002F05EFA00286ED1D8
:103330003D4800683F2804D12079002801D1286940
:103340000190A17801A802F0DBFB00285FD0A178F2
:1033500001A802F05BFA002859D0334800683F28E2
:1033600003D102F0D3FB002851D02C480068AA28D2
:103370001DD0972007210125AD07EA6B920A920222
:103380007F1C3A43EA63EA6B284B80021A400243EF
:10339000EA63E86BC002C00A49050843E8631F48B6
:1033A00004260068002807D0AA280ED01CE0204878
:1033B000FEF788FC0321DEE701986421C00202F0D9
:1033C00049FA401E0BE001210CE0019802F016F9C9
:1033D0001849096801F060FF02F017F9009021799F
:1033E0000029F0D102F098FB1348C06A8047286B8F
:1033F0000004C00FFBD011480168C905FCD502F0DC
:1034000091FB05200007018980229143018130460C
:1034100005B0F0BDA0020020C60608001480002000
:103420000A800020C000004060010020FF03E0FF90
:1034300001120000208000201C070800000200404C
:1034400010B50124A407A06BFEF748FC5F4902F009
:1034500001FA27221201511A00D101215C4A506061
:103460001160206B082188430843206310BD38B5E4
:10347000002000905749082008800524240721884F
:10348000302001432180218803221143218002E062
:1034900000BF00BF00BFA18A0906F9D5618989086C
:1034A000890061814C494A88520852004A8021882B
:1034B000814321802088800880002080A08A4007E6
:1034C00001D5FEF7FCF92089802108432081208A5C
:1034D000042188432082A08A8007FCD53F4841050B
:1034E0000268D20202D40A69520702D4009A002A62
:1034F000F6D038BD10B502F01BFB02F01FFB10BD6B
:1035000010B502F021FB05200007418A802291437B
:1035100041823048018949084900018130480068EA
:103520003F2801D102F016FB0120800781690422A7
:103530001143816102F014FB02F018FB02F01CFB46
:1035400028480068AA2802D11420FEF71DFB26494E
:103550000020087010BD10B502F014FB10BD10B5AE
:1035600001208007008A000704D502F011FB1E49E4
:103570000320087010BD70B51C48008885061748E8
:10358000AD0E44681648C030006B0078002802D1A8
:10359000284602F003FB16480089134EC00507D5E4
:1035A00020060BD5E00709D0284602F0FDFA03E01B
:1035B000200603D5E00701D002203070200403D597
:1035C000E00501D50120307070BD000071020000DF
:1035D0004000004000330050200000500002004036
:1035E00060010020148000202A800020002000506C
:1035F000002C0050F8B505461E4614460F4641A063
:10360000FEF78EFD6A8829880623204602F012FA0A
:103610000446287902F0CEFA208027716680204681
:1036200002F01AFAF8BD70B51446428800790D46CA
:1036300001020C3104233A4802F0FCF9002D01D0BC
:10364000132100E012210170448002F005FA70BDE0
:103650000A880270120A42708A788270CA78C27030
:103660000A7902714A79427189798171072070471C
:103670004278037812021A430A8082788A70C278EC
:10368000CA7002790A7142794A718079887107207B
:10369000704710B500F064F800F0A6FB10BD70B5DF
:1036A000064615460C461FA0FEF73AFD22490020AB
:1036B000087022A0FEF734FD3046FEF73BFD22A045
:1036C000FEF72EFD2046FEF74CFD22A0FEF728FD5A
:1036D0002846FEF72FFD372002F046F9022805D1D3
:1036E000E2B237232946304602F06AFA362002F069
:1036F0003BF9022805D1E2B236232946304602F0D2
:103700005FFA70BD7072665F7365727665725F6531
:1037100072726F725F696E645F73656E640A0D002A
:103720000D3000007072665F636C65616E75705F6E
:1037300066756E630A0D000009800020636F6E6974
:1037400064783A0A0D000000636F6E68646C3A0A90
:103750000D000000726561736F6E3A0A0D00000083
:1037600010B52821054802F031FA0549372002F04A
:1037700033FA0021372002F0E5F810BDA8910020AF
:10378000206300203EB50020C0436D4C0290E380D2
:10379000088860816B48019000922046002309222E
:1037A00002A90A3002F01EFA05466089002102F0E3
:1037B0001FFA002D03D10121372002F0C3F8E18860
:1037C00001233722604802F035F9057002F044F910
:1037D00000203EBDF8B500256846594C0580628042
:1037E0002380E3800E46488802F008FA2071708832
:1037F0002081E581A581258260896A46801C80B28E
:10380000022102F033F860896A46C01D80B20221AD
:1038100002F02CF86089012102F0EAF90221372038
:1038200002F090F80020F8BD10B548A0FEF778FC33
:103830000121372002F086F8002010BDF0B587B0D6
:103840000C46142101A802F06BF823460833A28825
:10385000618820881D4602F0D7F9394821884289BD
:103860008A1A022A04D0062A67D0072A65D160E0A6
:10387000007A002202F0CEF96288294601A802F0FF
:103880002BF868460079AA2857D168464079BB28AA
:1038900053D169463648897941716946C9790171C0
:1038A0006946097AC1706946497A81706946897AA0
:1038B00041706946C97A0170002003220723120271
:1038C0000146009002F00CFA2A4D00242868E443D7
:1038D000002801D0204600E00120274E28603268F1
:1038E000C117736810431943306071600F273F039D
:1038F00020213846FEF7F5FE062239461C48FEF721
:10390000C3FE1EA0FEF70CFC002003220346120299
:103910000146009002F0E4F92868002800D1012453
:103920002C603268E017716814430843346070609B
:1039300003E0007A002202F06DF9002007B0F0BD2C
:10394000A89100205C63002006DC0000737472659F
:10395000616D64617461645F64697361626C655F09
:103960007265715F68616E646C65720A0D000000BB
:1039700002800020789000207090002073746F7295
:103980006167655F6F6B0A0D00000000FFB58BB0CB
:103990000521C90268468182C91C0182FA49018356
:1039A000FA4C3621618006219925009108220023D6
:1039B00001953621A01D02F033F905007ED1A01D2E
:1039C0000125009501900222E08805AB114602F026
:1039D0002DF9E088EE4A022101F048FF03AE01967E
:1039E0000095E08804AB0222132102F01FF902AF18
:1039F000092001970090E088E64B1022042102F094
:103A000015F9E5496846007A48706846407A88703A
:103A10000A4668461321808901F028FF0196009527
:103A2000E08804AB0222132102F000F9092001977B
:103A30000090E088D94B1022042102F0F7F8D84911
:103A40006846007A48706846407A88700A46684638
:103A50001321808901F00AFF01960095E08804ABEC
:103A60000222132102F0E2F801970095E088CD4B85
:103A70001022042102F0DAF8CB496846007A487037
:103A80006846407A88700A4668461321808901F0AA
:103A9000EDFE01960095E08804AB0222132102F0AE
:103AA000C5F8092001970090E088C04B1022022140
:103AB00002F0BCF86846BE49007A00E058E0487061
:103AC0006846407A88700A4668461321808901F06A
:103AD000CDFE01960095E08804AB0222132102F08E
:103AE000A5F8092001970090E088B24B102214211C
:103AF00002F09CF8B0496846007A48706846407AFF
:103B000088700A4668461321808901F0AFFEAB4DEC
:103B100001960095E08804AB0222132102F086F89A
:103B200001970095E088A64B1022012102F07EF853
:103B3000A4496846007A48706846407A88700A4608
:103B400068461321808901F091FE09A9092001919D
:103B500000900222E08806AB114602F067F80546A5
:103B6000E088002102F044F80121362001F0EAFE4D
:103B70000123362294480E9901F05CFF057001F094
:103B80006BFF00200FB0F0BD3EB5804C0D46E088C5
:103B900002AA0C3080B2694602F04EF8E08801AA11
:103BA0000D3080B2694602F047F8E088AA1C0C305C
:103BB00080B2012101F05AFE01980088002806D049
:103BC000E08800210C3082B22046FFF72CFD002057
:103BD0003EBD10B56D480A46C0880421801D80B2E4
:103BE00001F044FE002010BD38B50D4600206946A6
:103BF000664C08802380288802F000F82071FF2896
:103C000017D0E0886A460D3080B2022101F02EFE06
:103C1000E0886A460C3080B2012101F027FEA978C5
:103C2000E08801F0E5FF0221362001F08BFE002044
:103C300038BD654A1B23DB02521C89215348FFF71C
:103C4000D9FCF4E7F8B5514D0C4629798022180AC1
:103C500088427DD1E988208826468B1C00270836BB
:103C600098420ED1012100916188324601F0FEFD9B
:103C7000E079002875D05448082336222988C01FCF
:103C800010E00B1D984229D1022100916188324633
:103C900001F0ECFDE079002863D04B482988082327
:103CA0003622801F01F0C6FE0646287901F082FF09
:103CB00030807760E07A01067160A07A00040143E9
:103CC0007160607A000201437160207A0143716083
:103CD0000098B070304601F0BFFE42E00B460A3358
:103CE00098421BD104200090E079002839D0364852
:103CF000298818233622001F01F09CFE07462879E8
:103D000001F058FF388062883146381D01F0E4FD2B
:103D1000A078F8700098B8703846DCE70B46083396
:103D2000984220D1032100916188324601F09EFD26
:103D3000E079002815D02448298806233622401F20
:103D400001F078FE0646287901F034FF308000E06B
:103D500018E0B780607A0102B180207A0143B18017
:103D6000B6E7002207E00D31884204D1618832466F
:103D700001F07CFDF5E7A079012803D1218828799D
:103D800001F048FF0020F8BD022900002C8000202F
:103D9000586400205A640020F06500206A64002006
:103DA000036600207A640020166600208A640020E2
:103DB000296600209A6400203C6600200102000071
:103DC000AA6400204F66002009D8000010B5054AFB
:103DD000180A1279904202D1088800F026F80020D3
:103DE00010BD00002C80002010B508211A4801F0F9
:103DF000EDFE1A49362001F0EFFE0021362001F0D9
:103E0000A1FD10BD70B5144D064629881823362231
:103E1000134801F00FFE0446287901F0CBFE208004
:103E2000A670204601F018FE70BD70B50A4D04461C
:103E3000E888002101F0DCFE0948298804233622A5
:103E4000001F01F0F7FD048001F006FE012136207D
:103E500001F078FD70BD00002C800020BC640020C3
:103E600005D8000038B50124684604700C214F487D
:103E700001F0ACFE4D4D6946EC702A1D352001F075
:103E8000E1FE002800D02C7100F02AFB48493220C6
:103E900001F0A2FE0021322001F054FD00F0DAF81A
:103EA00038BD10B500F0CFFB10BD10B541A0FEF736
:103EB00037F93E4802238078322201020E3142480F
:103EC00001F0B8FD012101701321417001F0C4FD22
:103ED00010BD10B5044635482C23807832220102EB
:103EE00039480E31801E01F0A5FD014620300472D4
:103EF00000224272084601F0AFFD344901200870EB
:103F000010BD10B5502332220D21314801F092FD31
:103F1000044600F00CFB204601F09EFD02213220F9
:103F200001F010FD10BD10B52AA0FEF7F9F82848E1
:103F3000012332220D210B3801F07CFD022101709A
:103F400001F08AFD10BD10B500F097FB10BD254BA8
:103F500010B59A4201D91A4602E0002A00D1012286
:103F600001F076FE10BDF8B5064615460F461EA0B8
:103F7000FEF7D6F81648252332220D21C01C01F089
:103F800059FD0446012020772046062239461D307F
:103F900001F0A2FC2320065565822582204600F010
:103FA00091FB204601F058FDF8BD00003480002050
:103FB000CC6400206170705F646973636F6E6E65BE
:103FC00063740A0D0000000004380000098000201E
:103FD0000E3400006170705F6164765F73746F709F
:103FE0000A0D0000307500006170705F636F6E6EC7
:103FF0006563740A0D00000010B501F02FFE25491D
:1040000001F02EFC2448081810BDF8B5234D0646D3
:10401000A876002401F022FE2919641CE4B2087479
:10402000082CF7D300241027381BB04201DD0020F4
:1040300007E001F013FEC117090E0918090A090269
:10404000401A2855641CE4B2102CEDD301F006FE92
:104050002883F8BD10B52421104801F0B7FD00F009
:1040600043FA10BD10B50E480223807832220102B7
:104070000E310C4801F0DEFC0D21017007492031A2
:104080008978417001F0E8FC0321322001F05AFCEC
:1040900010BD0000A0BB0D00A086010040800020E4
:1040A000348000201A38000010B5084609781C46F4
:1040B0000B0001F05FFC080520202008181B1E20C3
:1040C00000F00FFB17E04178012904D0002902D04D
:1040D000022903D00FE000F005FB0CE0114620465A
:1040E00000F009FB07E000F0FEFA04E000F0FCFA43
:1040F00001E000F0FAFA002010BD10B50878304C4D
:10410000801E030001F036FC020214188878A070AB
:10411000C0070AD02B492A4A4879203AD076284845
:104120000622891D001F01F0D7FB00F0DFFA03E033
:10413000FFF7BBFE0020A070002010BDF8B51846A8
:104140000D4601461223204801F074FC044628461F
:1041500000F0CDFA0027002821D0194EB078C00712
:104160001DD030460822A91C103801F0BDFC0028E3
:1041700015D130462038018B2A8891420FD1012178
:104180002170807E6074314610222039601C01F05D
:10419000A3FBB078FFF79DFE00F0ACFA00E02770BB
:1041A000204601F059FC2078002801D1FFF77DFE60
:1041B0000020F8BD10B500F09CFA002010BD0000F2
:1041C00060800020348000201838000010B51046B0
:1041D00001F0CAFB002809D1012332220D214F48EA
:1041E00001F028FC0121017001F036FC002010BD17
:1041F00070B5087815460F282DD008DC01280DD0A1
:1042000002282CD003281CD00E2830D11FE0102803
:1042100025D0112823D0122829D123E0487800285E
:1042200025D13E48222332220D21801C01F002FCC0
:1042300004460146284600F021FA204601F00CFC15
:1042400015E04878002812D100F023FA0FE04878F2
:1042500000F02DFA0BE0487800F02AFA07E000F0B1
:104260002CFA04E04878442801D100F035FA002007
:1042700070BD70B51C4610460D4601F075FB022856
:1042800005D12749200A8870284600F02EF9002021
:1042900070BD70B515460C4622A0FDF741FF207891
:1042A0000A2810D1284601F05FFB04280BD1607862
:1042B000002802D000F0F9F905E00521284601F0B8
:1042C00041FB00F0F3F9002070BD70B514460D46B7
:1042D00014A0FDF725FF2946204600F09FF9002095
:1042E00070BD10B510460C4601F03EFB012808D108
:1042F0002078002805D1FFF7D4FD002801D000F078
:10430000D8F9002010BD10B50C460CA0FDF708FF31
:10431000204600F0DCF9002010BD0000023400004F
:1043200034800020676170635F636D705F657674D1
:104330005F68616E646C65720A0D00006761706D84
:104340005F6164765F7265706F72745F696E645FDF
:1043500068616E646C65720A0D000000F8B5FDF7C7
:10436000EAFF8005800D01F069FA0022F24B01F0AE
:10437000CDF8F24AF24B01F067FA01F08DF9F14CF9
:10438000E06001F075F9F04DF04E2A46334601F039
:10439000AEF80746EE4AEF4B009101F0B7F8002265
:1043A000ED4B01F051FA01F045F9C0B221466070C1
:1043B00010310870E178002900D1A0703846E74A32
:1043C000E74B009901F050FC35D2E068002741002E
:1043D000090E00292FD001F04BF92A46334601F08F
:1043E00086F80022134601F03FFC00D8A770DD4894
:1043F0000078C00718D00221002001F05FFEE068BD
:1044000001F036F92A46334601F071F8D64AD74B07
:1044100001F02AFC0FD232221146D548FFF797FD52
:104420002079052805D006E00221002001F024FEB5
:10443000E5E7D0480770CE4832221146801EFFF7CC
:1044400086FD0020F8BD10B5BE484179C848401E21
:10445000002904D064223221FFF779FD02E03221E5
:1044600001F08EFA002010BD70B5B64CC04D207919
:10447000052811D00021084601F020FE0121084640
:1044800001F0FAFD322211462846FFF760FD20793F
:10449000401C2071002070BD3221284601F070FAC6
:1044A0000121084601F00AFE0025A57101210846F8
:1044B00001F0E2FD0A20FCF7D3FF0121084601F0DC
:1044C000FDFD1420FCF7CCFFA079401CC0B2A07108
:1044D0009628EBD30021084601F0CEFD2571D9E7DF
:1044E00010B500F095FA10BD704710B5A24880785D
:1044F000FF2819D09E483221401C01F041FA9C4807
:104500003221C01E01F03CFA8E49002008700521BE
:10451000322001F017FA00F099FA00F0A1F997485B
:104520008078FFF7D6FC10BDFFF7EBFC10BDF0B5AF
:1045300004468F4893B014223221C01EFFF707FDB6
:104540008B4832221146801EFFF701FD7D48012174
:1045500001700E202070002767709620A081E081F6
:104560000720207461741C20E074254622461F2019
:104570002035143228741646511E0B2001F062FBC0
:10458000002805D00A22E2747DA1304601F0A4F98A
:1045900022463132511E0C20119201F053FB0028AB
:1045A00005D02F743A4679A1119801F095F9E07C75
:1045B0001A21081A45B2002D2EDD3E2069460870EA
:1045C00001AA022001F03EFB002806D00D22684619
:1045D00002706FA101A801F04DFB68460078002829
:1045E0001AD0A84200D2054669460D70E07C6D1CC9
:1045F0008555E27C2046092115301154E17C401C90
:10460000081869460A7801A901F066F96946087830
:10461000E27C801C1018E07413B0F0BD10B50446A5
:104620005FA0FDF77DFD204601F09EF9032803D031
:10463000052801D0042805D10221322001F082F999
:10464000FFF75FFC10BD70B500243E4903200872DF
:10465000494DE87803280DD2012802D0022805D15F
:1046600002E000F0F1F801E000F0E4F9E878401C25
:10467000E87000E00124204670BD704703200870F8
:104680000A20487000204882087548751720C882A3
:10469000704710B50121322001F054F9FFF701FCF9
:1046A000002801D0FFF72DFC10BD70477047704700
:1046B000704710B5FFF725FC10BD10B53EA0FDF703
:1046C0002FFD10BD10B544A0FDF72AFD10BD10B59B
:1046D00048A0FDF725FD10BD10B54DA0FDF720FD4C
:1046E00010BD704770477047704770477047012092
:1046F000704770477047704710B54CA0FDF710FD2C
:10470000322001F031F910BD10B50E48C1790029F1
:1047100001D0002100E00121C17101781448C01EC0
:10472000002904D014223221FFF711FC02E03221CB
:1047300001F026F9002010BD00F88F40CDCCCCCC84
:10474000CCCC0C40D0910020F6285C8FC2F5004004
:1047500050B81E85EB51D83F000059407B14AE473E
:10476000E17AA43F80910020A4703D0AD7A3C0BF86
:1047700004C80000CC650020348000206080002048
:104780000903031802180418F5FE000002FF0000D8
:10479000444131343538302054454D504C000000F0
:1047A0006170705F646973636F6E6E6563745F667A
:1047B000756E630A0D0000006170705F7363616E57
:1047C0006E696E675F636F6D706C657465645F665C
:1047D000756E630A0D0000006761706D5F73746130
:1047E00072745F636F6E6E656374696F6E5F636D25
:1047F000640A0D006170705F6164765F7265706F4E
:1048000072745F696E645F66756E630A0D00000006
:104810006170705F636F6E6E6563745F6661696C13
:1048200065645F66756E630A0D0000006170705FFD
:104830006578745F73746174735F7265706F72749E
:104840005F73656E640A0D0010B5022332223721B2
:104850000B4801F0EFF80021018001F0FDF810BDD8
:1048600010B5372104233222880201F0E3F8322107
:10487000018004490988418001F0EEF810BD000074
:1048800005DC00003480002010B510460C4601F015
:104890006BF8012809D1322201231146900201F060
:1048A000C9F82178017001F0D7F8002010BD000090
:1048B00010B510460C4601F057F8012809D13222F4
:1048C00001231146900201F0B5F82178017001F042
:1048D000C3F8002010BD70B54A4C0D46207814284E
:1048E0003DD2A97800293CD0E168002933D0C00628
:1048F00018D4207CEA78811850292ED842494018D3
:10490000291D00F0E9FF207CE9784018C0B220742E
:10491000E168814201D100F034FA207C18E000F017
:10492000A7F81EE0EA786069FF23811801339942F5
:1049300013D836494018291D00F0CEFFE978606988
:1049400040186061E168814201D100F0D8FB6069E4
:10495000E168884205D90520E1E70720DFE7082064
:10496000DDE7002070BD08B58878002806D04868CB
:10497000694600F0BEF8009800F021F9002008BD5B
:1049800010B5887800280ED01E4A496891601078CA
:1049900002280AD0032808D0122804D0132802D0F5
:1049A000082000F065F8002010BD52680006104392
:1049B00001F066F900F003F9F5E770B588780D4667
:1049C00000281DD0A888002805D00E4C2178CA06E2
:1049D00003D4820701D005200EE0142910D2C906A5
:1049E00005D4502807D800F01FF8A88807E0FF2159
:1049F0000131884203D9072000F03AF800E0E06076
:104A0000002070BD6880002064660020B46600202D
:104A1000FD480021017441618161C160FB4A017759
:104A20001165142101707047F7480021017441613C
:104A3000C160704710B5012332223621F44800F0DE
:104A4000F9FF0021017001F007F810BD10B5362103
:104A500010233222880200F0EDFFEE490988018020
:104A60000121817000214160816000F0F5FF10BDDF
:104A700010B50446E84804230288E5483621401E64
:104A800000F0D8FFE34909880180847000F0E4FF5A
:104A900010BD10B5DC4C2078032801D1FDF7C4FC13
:104AA0001420207010BD08B5AA2069460870D648A9
:104AB000017813290AD141680122891C6846FDF753
:104AC00076FE40B2012801D0062008BD022008BDB4
:104AD00010B5CD4C2078C00601D4012000E0102094
:104AE000FFF7C6FF002020746061A061E0602077BE
:104AF00010BDF8B50F460021060EC34C354639608F
:104B0000142E17D2257080B26060002D01D0012DC7
:104B100007D1C249280608436160002101F0B0F8BE
:104B200038602078122801D0132803D16068022849
:104B30000BD86074112E26D00EDC022E20D006DC9D
:104B4000002E1DD0012E13D11AE0112022E0032ED9
:104B500016D0102E0CD116E0FD2E2CD004DC122E17
:104B60000ED0132E04D10BE0FE2E16D0FF2E0CD04B
:104B70000820FFF77DFF1420207000203860F8BD6A
:104B8000FFF7A6FFF8BD082004E0FFF782FFFFF75C
:104B90004BFF0320FFF76CFFF8BD207F002801D0FA
:104BA000042001E0FFF77FFFFFF762FFFFF771FFCF
:104BB000FFF73AFFF8BD002001F068F8F8BD10B526
:104BC000044695480423028891483621801E00F04F
:104BD00031FF046000F040FF10BDFEB50646002026
:104BE00001242404009001900346024601460290ED
:104BF00025123046FDF7C2FBFDF79CFD884980B2C7
:104C0000401802D0012805D102E00124640401E02B
:104C10000124A40429462046FDF746FCFEBDF8B554
:104C2000044679487F4E017A00270906090FA171D1
:104C3000027AFF4313071B0FE37102891204120F5C
:104C4000227002891205120F627082681202120F1E
:104C5000A27082681203120FE2708268120F227132
:104C600080680001000F6071282041438A19990073
:104C70005058002801D0384600E001205050A57956
:104C8000E279C11701F008F82A0101F005F8664A37
:104C9000136855681843294310605160A078282193
:104CA00048438219E07881005058002801D03846E6
:104CB00000E001205050A578E278C11700F0ECFF29
:104CC0002A0100F0E9FF584D2A686B681043194328
:104CD0002860696020792821484382196079810021
:104CE0005058002801D0384600E001205050267965
:104CF0006279C11700F0D0FF320100F0CDFF2A68C1
:104D00006B68104319432860696020782821484364
:104D100044494118607880000A58002A00D10127D0
:104D20000F50384626786278F91700F0B5FF320147
:104D300000F0B2FF2B686A6818431143286069606D
:104D4000012000900326360261782078082332463D
:104D500000F0C6FF00250095E179A07907233246CF
:104D600000F0BEFF0095E178A0780623324600F0FF
:104D7000B7FF0095617920790523002200F0B0FF8C
:104D8000F8BDFEB5204C02252078EE01002805D0A4
:104D9000012803D0032828D0082566E01F4F00060D
:104DA0003843002100F06CFF8004217C000C0A18BD
:104DB000B24227D8301A154A401A121F891880B2F9
:104DC0005432101805E00A68091F04C0227C121F23
:104DD0002274227C002AF6D1207800210006384374
:104DE00000F04EFFFFF7EBFE3BE00320616800069A
:104DF0000843A16800F044FF8004070C207CC01920
:104E0000B04213D9072530E0688000206466002096
:104E100008D80000348000202C800020B0670020DB
:104E2000F010FFFF78900020709000206846FFF798
:104E3000F6FE6846FFF7D1FE6068227CC119FE4885
:104E4000FDF7B5FC217C814200D006252078616801
:104E500000060843A16800F013FFFFF7B0FE022D23
:104E600003D1FFF716FEFFF7DFFD2846FFF700FE30
:104E7000FEBD70B502460020160BC04336030C0B76
:104E8000090500D0641C002C01D000250BE0012492
:104E9000002520213046FDF724FC01210903761866
:104EA000002802D16D1CA542F3D370BD0021FF285C
:104EB00002D0401CC0B2704708467047FF2802D09D
:104EC000FF2905D006E0FF2908D0002906D001E01F
:104ED000002801D0884201D9022070470120704784
:104EE00010B5D64C034600202478C043132C02D1C1
:104EF0001846FDF79EFB10BDF7B598B000271A982D
:104F00000C463E46402805D32078702802D16078B0
:104F1000512802D012201BB0F0BD6568C749284651
:104F200040300862EF210C2209026846FFF7D8FFE3
:104F30000C2847D168460078702803D1684640782D
:104F4000522801D01420E6E701981190029812909F
:104F5000002D03D01199401AA84201D21320DAE79C
:104F6000684640221090FFF7BBFF40282AD16846D0
:104F7000C07814906846817803A8169020460C30BB
:104F80001590AA2907D168460078702803D1684691
:104F90004078512803D00127002014900BE0102204
:104FA0001699159800F0A0FD002804D1E069079932
:104FB000884200D10227402212991098FFF790FFF3
:104FC000402801D01620A6E76846C07813906846AE
:104FD0008078AA2807D168460078702803D16846EF
:104FE0004078512803D00126002013900BE01022B6
:104FF0001699159800F078FD002804D1E06907990A
:10500000884200D102261898002801D0022807D92A
:10501000012F11D0012E1CD013991498FFF74EFFC9
:105020001590FF224021684600F03CFE15980228AA
:1050300015D0022F24D004E0FF224021684600F062
:1050400031FE7E4911984860002E1BD0022E19D0E7
:105050000EE0FF224021684600F024FE01E0022E0F
:105060000ED0764912984860002F07D0022F05D045
:105070000126724F3878132809D00FE0149802E007
:10508000152048E71398FFF711FF0646F1E7403572
:10509000A9B27868FFF7EDFE00282CD16846C670EB
:1050A00060680190A0680290E16863692269A06964
:1050B00003AD0EC50690E06907902178684601703F
:1050C000617841702020015D08A8017038781328AC
:1050D00013D11A9A7968403A20464031154640303B
:1050E000FDF765FBA84206D1402279681098FDF7CC
:1050F0005EFB402801D006200DE700200BE77CB5C1
:105100004E4C4D4A022600205032616904E0237F54
:10511000155C6B402377401C8142F8D82078132817
:1051200004D00826F0B2FFF7A3FC7CBD6846FFF769
:1051300076FD6846FFF751FD6269002A02D0A0693A
:10514000002818D0A169206A8A18431C9A4220D8E6
:10515000824201D9401A606160682546411836488C
:1051600062695030FDF723FB6969814211D1A8695A
:105170004018A8610EE03049607C5031FFF7BCFE5A
:10518000002801D086B205E06269A1698918A16191
:1051900000E0062600206061A069FFF710FDC1E76E
:1051A00070B5274C274D2146284600F069FD0104C3
:1051B000090C06D0204A83B250322146284600F01E
:1051C00077FD70BDF8B504461C481F4F017A0025D5
:1051D0000906090FA170017AED430907090FE17073
:1051E00001890904090F217002891205130F6370E8
:1051F0008068000C606028204143CA19990050580B
:10520000002801D0284600E001205050267862781E
:10521000C11700F041FD320100F03EFD0B4E326837
:1052200073681043194330607160A07828214843A7
:10523000C119E07880000BE06466002068800020DF
:1052400000030605002800037890002070900020DD
:105250000A58002A00D101250D502846A778E27887
:10526000E91700F019FD3A0100F016FD3368726885
:1052700018431143306071600025009561782078F3
:1052800009232A4600F02CFD0095E178A0780A2336
:10529000002200F025FDF8BD024670B54A40D30F4C
:1052A000DB0740002DD04A002AD0010E140E091948
:1052B00000021202400A520A8418E50104465443CF
:1052C000000A120A2E045043A4194219200CC543A7
:1052D000AA18120C01257F39521CAD035219120471
:1052E000240400D0521C104301D44000491EC2B215
:1052F0000C06C0092018401C4008802A02D003E098
:10530000002070BD40084000002900DA002018434A
:1053100070BD70B502464A40D50F40004A00ED0707
:1053200040085208002814D0002A12D0C40DD30D12
:1053300041020120C0055202490A520AE41A091822
:1053400012187D34914201D3641C00E04900002C06
:1053500001DA002070BD0023914201D3891A034372
:10536000400849000028F7D100290AD0914202D113
:105370000121C90705E0914201D2012101E001218B
:10538000C943E005C018401900F0B5F970BD4200EE
:1053900005D04200120E52428A4201DB00207047C3
:1053A000C905081870470000F0B507460846584080
:1053B00087B0C00F049048000E46590040084908C5
:1053C000BC1A884105D2384631461E4617460B4660
:1053D000024658004008104303D13846314607B012
:1053E000F0BD300D039040055900400D490D05906A
:1053F000401A029040286DDA18030121000B0905BC
:105400000843019004980092002805D00199524267
:105410000020884100920190029840210A1A0199C7
:10542000009800F039FC05460C46684607C800F0B5
:105430004FF9C0197141039A0E0D0023D71756403A
:105440001A467A40164340D0049A002A29D0029A7C
:10545000012A039A11DC1205C01A91410126360572
:10546000001C7141D20F059ED20700930192029653
:105470002A46234600F022FCB1E71605224A0F46D1
:10548000B218C01AB74101210905001C4F4100188C
:105490007F41114618187941E20F10436D1964419C
:1054A00013E0E2076D0815436408C2071443039A2A
:1054B00001261205C01A91413605001C7141CE0724
:1054C000400830434908C01851412A46234600F09D
:1054D000FBFB84E7049801224000C117121A002345
:1054E0008B4104983146C417381AA141EFE730B414
:1054F0000124E407634030BC56E730B40124E407DC
:10550000614030BC50E700000000E0FFF0B50C4601
:105510005C4085B0E40FE40703944C000026640867
:1055200059009446490802460296224321D0624619
:105530000A431ED06200570D4A000E032303550D87
:10554000012402462C492405781B1B0B360B4018FE
:1055500023432643614600901C46501AB44103D3AE
:105560000098401C009002E0921800985B410028CF
:1055700003DA0020014605B0F0BD00200121090535
:105580000746864611E064461D46141BB54106D306
:105590006546521BB341744607430C43A646CD07EC
:1055A00040084908284392185B4105460D43EAD15B
:1055B0001046184313D060461946504071400843C6
:1055C00003D100220123DB0709E06046101AB34132
:1055D00002D20122002302E00122D243531000989C
:1055E00074460105381C6141029C039D0019694104
:1055F00000F06AFBBFE70000FD03000010B50022C9
:105600009623114600F07FF810BD410040020122B0
:10561000400AD205090E80187F2901DA0020704760
:10562000962903DC9622511AC84070479639884063
:10563000704700004A0009030123090B1B051943A9
:10564000094B10B5520D9A4201DA002010BD064BED
:1056500034339A4203DC9A1A00F03CFB10BD034934
:105660005118884010BD0000FF030000CDFBFFFF74
:10567000C20FD207400040080BD0C10D0723DB0149
:10568000C91840020905400A1143C20840071143E6
:105690007047002001467047CB0FDB07490010B56B
:1056A000490802460A4307D00A0D07240903E4010A
:1056B000090B121B002A01DC002010BDC900440F99
:1056C0000C43C100E018D205801800F014F810BD9A
:1056D00010B5202A06DBCB170846203A1041C11727
:1056E0000B4306E00B461341D0402024A21A914000
:1056F0000843194610BD002904DA401C490001D1B5
:1057000040084000704770B40024050C05D11024F7
:10571000000402D1002922D01124050E01D1083441
:105720000002050F01D1241D0001850F01D1A41C29
:105730008000002801DB641C4000002908D02025DF
:105740002E1B0D46F540A14000D0012129430843FE
:105750001B1B0106DB1D000A002B02DA002070BCB7
:105760007047DB05181880180029F8DA401C49003A
:10577000F5D170BC4008400070470000064C012580
:10578000064E05E02046E36807C82B4398471034CF
:10579000B442F7D3FAF758FE8C650020CC650020A0
:1057A00003B40148019001BD551B020003B4014838
:1057B000019001BD0F3B030003B40148019001BDFE
:1057C000CF2B030003B40148019001BDCB2C030093
:1057D00003B40148019001BD0990020003B40148DF
:1057E000019001BD1F21020003B40148019001BDD9
:1057F000C12D030003B40148019001BD092103003C
:1058000003B40148019001BDC92D030003B4014850
:10581000019001BD2B69020003B40148019001BD54
:10582000EB31030003B40148019001BD3D32030098
:1058300003B40148019001BDD721030003B401481E
:10584000019001BD893C030003B40148019001BDF2
:10585000913B030003B40148019001BDA73A030046
:1058600003B40148019001BDD33A030003B40148D9
:10587000019001BD6D9B020003B40148019001BD80
:105880002F2F030003B40148019001BD998F02003E
:1058900003B40148019001BD938F020003B4014895
:1058A000019001BDCD8C020003B40148019001BDFF
:1058B000418F020003B40148019001BD2768020036
:1058C00003B40148019001BD3968020003B40148E6
:1058D000019001BDB780020003B40148019001BDF1
:1058E000213B030003B40148019001BDBF22020027
:1058F00003B40148019001BDEB26030003B4014845
:10590000019001BD3524030003B40148019001BD9D
:105910002F22020003B40148019001BDDD200300E5
:1059200003B40148019001BD533B030003B4014897
:10593000019001BD9D20030003B40148019001BD09
:105940003350020003B40148019001BD3126030029
:1059500003B40148019001BD5548020003B4014859
:10596000019001BD1F50020003B40148019001BD28
:10597000B326030003B40148019001BDFD3D0300BF
:1059800003B40148019001BDA528030003B40148F8
:10599000019001BDD5AF020003B40148019001BDE3
:1059A000A1A5020003B40148019001BDE3A50200D6
:1059B00003B40148019001BD87A8020003B4014867
:1059C000019001BDA7A9020003B40148019001BDE7
:1059D00093AA020003B40148019001BD95AB0200F7
:1059E00003B40148019001BDF9AB020003B40148C2
:1059F000019001BD69AC020003B40148019001BDF2
:105A000017AD020003B40148019001BD77AD02005B
:105A100003B40148019001BDF1AD020003B4014897
:105A2000019001BD85AE020003B40148019001BDA3
:105A300011AF020003B40148019001BDB12303007E
:105A400003B40148019001BD49E5020003B40148D7
:105A5000019001BDF9E3020003B40148019001BDCA
:105A6000E123030003B40148019001BD4BCD0200C6
:105A700003B40148019001BD99D1020003B401486B
:105A8000019001BDABD0020003B40148019001BDFB
:105A900069D0020003B40148019001BD77CF020034
:105AA00003B40148019001BD01CC020003B40148D8
:105AB000019001BD29CC020003B40148019001BD51
:105AC00015D2020003B40148019001BD8DD202003D
:105AD00003B40148019001BD7F0C030003B40148E9
:105AE000019001BDAB0C030003B40148019001BD5E
:105AF000773B030003B40148019001BD7920030006
:105B000003B40148019001BD2129030003B40148F9
:105B1000019001BDD990020003B40148019001BD7C
:105B2000C768020003B40148019001BD0D2C0300B9
:105B300003B40148019001BD1531030003B40148CD
:105B4000019001BD1B66020003B40148019001BD34
:105B5000652C030003B40148019001BDF7930200D6
:105B600003B40148019001BDDB2E030003B40148DA
:105B7000019001BD231D020003B40148019001BD45
:105B8000C32C030003B40148019001BD3B66020031
:105B900003B40148019001BD2B66020003B4014823
:105BA000019001BD038D020003B40148019001BDC5
:105BB000CF8F020003B40148019001BDE3E302006E
:105BC00003B40148019001BD95E3020003B401480C
:105BD000019001BD533B030003B40148019001BD96
:105BE0008725030003B40148019001BD459F0200D1
