:020000042000DA
:1000000000980020A9040020B1040020C9040020A9
:1000100000000000000000000000000000000000E0
:10002000000000000000000000000000E1040020CB
:100030000000000000000000F9040020FB04002084
:100040006F340020053103000D310300F53400202A
:10005000013500208D310300573500205F35002029
:1000600043220020FD04002077350020AD3103003D
:1000700097210020FD0400204B1B02004B1B0200B7
:100080004B1B0200FD0400204B1B02008D200020B2
:1000900091200020AD200020B1200020B5200020BC
:020000042000DA
:10016000320000006F080020AB1E002093360020F4
:10017000000000000000000063800200BD8002005B
:10018000F51C0020FB80020019810200358102006D
:100190005D81020041340020FF050020C51C0020C5
:1001A000DD1C002000000000000000003F000000F7
:1001B000F48B002000040000740B080048010000CC
:1001C0006807080000040000C80C080020050000B3
:1001D000000000002000000048000000580000005F
:1001E0006800000004010000160100002801000062
:1001F0002E010000202A00008E2E000001000000C9
:1002000088130000351F0020E9600200FD93020002
:10021000FB29002019280300A574020049300020A2
:1002200003000000D5200200A336002004000000D7
:10023000D74902000F490200831D020063910200AA
:10024000B7910200BF910200078202007182020092
:1002500024660020AD8302009384020041850200E1
:1002600015860200378602005F860200758602004E
:10027000F9870200258902005D8A0200D38C020002
:10028000098D02000F900200438D0200278E0200AC
:10029000F98E0200478F0200371C0020D58F020024
:1002A00049510200775102002F5202001000000055
:1002B00020030000803E000000000000000000005D
:020000042000DA
:1002C000504600030003983A6400F401B80B000C98
:1002D000B80B120030003000CD009A01120024004B
:1002E00030006400B0001800280012001200D0078F
:1002F0000000FFFF00000000000000000000000000
:100300001F000002444131343538302D30310000B7
:1003100000000000000000000000000000000000DD
:0403200000000000D9
:020000042000DA
:10034000FFFF010000C201000000000000000000EB
:100350000000F4010100011B0A071AFFD200021578
:10036000585CDE931B0142CC9A1325009BEDC65EC0
:1003700000000000C5000000000009FF00605257A7
:100380002D424C450000000000000000000000006D
:100390000000000000000000000044413134353806
:1003A000330000000000000000000000000000001A
:1003B000000000000000000000000000000000003D
:1003C000000000000000000000000000000000002D
:1003D0000000000000000000000000000000D00746
:0403E000064064323D
:020000042000DA
:100440000348854605F054FB00480047C7200200DA
:100450000098002010B5114906200880FF2010499F
:10046000013008600F4988683E2290432E30886032
:100470000021052000070180028A0F231B021A4376
:1004800002820122D204032308461B038418216040
:10049000001D9842FADB62B610BD00000034005027
:1004A00080E100E0003300501548804715480047C0
:1004B00004207146084203D0EFF30980124908472F
:1004C000EFF308801049084704207146084203D022
:1004D000EFF309800D490847EFF308800B490847FF
:1004E00004207146084203D0EFF309800849084709
:1004F000EFF3088006490847FEE7FEE7FEE7000045
:10050000550400204104002091130020150500200F
:100510008705002005221207518A80231943518242
:10052000114903680B6043684B6083688B60C36844
:10053000CB6003690B6143694B6183698B61C0695F
:10054000C8610A48836A0B62C36A4B62036B8B62A1
:10055000C36BCB62436B0B63806B4863908A8006EE
:1005600001D500BE7047FEE70018080000ED00E06E
:1005700002890889FF49101A80B2884201D90120F6
:1005800070470020704781692039897F082904D28B
:10059000F94A8900515881617047FEE7F848F749E8
:1005A0000161F8494161F8498161F849C161F8493F
:1005B0000162F8494162F8498162F849C162F8492B
:1005C0000163F8494163F8498163F849C163F64919
:1005D000EB485C3140300160F5494160F54981608C
:1005E000F549C1600120F549C0060860F449CA69AF
:1005F0001202120ACA61F14980390860704710B5C9
:10060000F0490020086001F001FB01208007016B28
:1006100049004908016310BD10B50221084605F0E4
:1006200075FE00220123E84900280BD00A71C88A10
:10063000E64CA0420DD2C88A00280AD008790028CA
:1006400005D006E0C88A401CC8820B71EFE7CB7268
:10065000CA82C88ADE4CA04201D90B73CA82087CC8
:10066000052801D9CB730A7410BDF8B50026FFF731
:10067000D3FFD54F0024F87A0125012848D1D54869
:10068000FC724178002943D102210171002005F05C
:10069000ADFE0021084605F0CBFE022000F0E0FE92
:1006A0000021012005F0A2FEC948C83800F0E1FE93
:1006B0000021012005F0BCFE0021012005F096FE7E
:1006C000142000F0CDFE0021012005F0B1FE142021
:1006D00000F0C6FE761CF6B2642EEDD3002108466B
:1006E00005F084FE01F032F9BB48BE490480BB48E6
:1006F0000580BB4804800320C870B6484570B248E6
:100700007C731830048044800221002005F090FEA4
:10071000AD48007B012859D1AB4EAE4F3473787889
:1007200001287CD030468474AF4802210480002028
:1007300005F05CFE0021084605F07AFE022000F07C
:100740008FFE0021012005F051FEA148C83800F0BD
:1007500090FE0021012005F06BFE00260021012003
:1007600005F044FE142000F07BFE0021012005F07E
:100770005FFE142000F074FE761CF6B2642EEDD3FA
:100780000021084605F032FE01F0E0F81920400192
:1007900000F066FEFF20913000F062FE01F0D6F816
:1007A000022038718C4804808D4804808F48048072
:1007B000BB20B8717D708448447345728248022121
:1007C000183004804480002005F032FE7E4EF07B1D
:1007D000012822D1F47301F0B9F823242401204622
:1007E00000F03EFE01F0B2F8204600F039FE01F0C4
:1007F000ADF801F0FCF87574204600F031FE0221DE
:10080000002005F0F3FD734D00240C35285D01F048
:1008100081FC641CE4B2052CF8D3F8BDFFE702218B
:10082000002005F0E3FD01F091F84B20000100F0FD
:1008300017FE01F08BF8307C401C30746A4804804D
:100840006A480480B474BB20B8717572B6E710B5FD
:100850005D4C85B0032100206B461C34625C5A5409
:10086000491C5040C9B21329F8D905B010BD96B043
:1008700000255F480124109504705E4908200F266A
:10088000088005F047F905F019FE01F018F802217B
:10089000002005F0ABFD4C4804700078012802D11F
:1008A000032105F0A3FD01F05EFF0B0E6A461370F5
:1008B0000A020A93130E6A4653700A040C93130E2D
:1008C0006A4693700B93CBB2D37009930B02020E5E
:1008D0001A43D3B26A4613710F930B04020C1A43E6
:1008E000D3B26A4653710A06010A1143C9B26A4675
:1008F000129391711391C0B2D0710F210D90062205
:1009000009033D4801F095FE00240322234612020C
:1009100021462046009405F09DFB384908680028D0
:1009200001D0601E00E00120354A08601368C1173D
:10093000576818433943106051600A2000F090FD59
:100940000021084605F074FD0021012005F04EFD50
:100950001F48C83800F08DFD0021012005F068FD1A
:100960000021084605F042FD00F0F0FF0C2000F0E9
:1009700077FD47E0307500000466002094270300EF
:100980000084004062B600DF28A30200704701DF48
:100990001CCA0200F8BD02DF40CB0200F5E703DF0E
:1009A00084D4020004DF89B0BC330200F8BD05DF47
:1009B000F8BD06DFEC0C030070BD07DF80E100E04E
:1009C00000ED00E08C03080020900020B80B000030
:1009D000AC0D0000B46A00207E91002084910020BC
:1009E000809100208C910020829100206C9000204A
:1009F0000A80002000330050D803002078900020A7
:100A00007090002000F0A2FF0C2000F029FD00F003
:100A10009DFF0C2000F024FD00F098FF00F0DAFFAD
:100A20000221002005F004FDFE4902200871FE4865
:100A300001780170FD4801780170012005F070F81F
:100A4000FF2701370D203946800105F06FF802F0CD
:100A50000DFC01F093F901F029F8042000F0DDFB12
:100A6000072000F0DAFB0A2000F0D7FB062000F098
:100A7000D4FB0B2000F0D1FB012000F0CEFB0220C4
:100A800000F0CBFB002000F0C8FBE948006805F04F
:100A900053F8B80501683943016000F0F1FBE548FF
:100AA0000068AA2805D1142001F06EF8142001F086
:100AB00079F803F0B5FAFFF7A2FDA221052000079F
:100AC000C182DD484188E0229143A031418001206C
:100AD00005F038F805F03CF8022803D005F038F8A6
:100AE00001280BD1D5480821018005200007818A03
:100AF0008906FCD4418A80229143418205273F0721
:100B00003889000620D5B800006B00041CD405F01D
:100B100025F8C00718D1042005F026F8009005F04C
:100B200029F8009800280FD0C24800940068AA282D
:100B300002D1142001F036F80421684605F020F8AF
:100B4000002801D001F085F872B602F0B7FB6946C3
:100B50000877042806D002280AD0032808D00128E4
:100B600072D072E0B648007801280ED003200877D2
:100B7000388A042108433882B248C069012868468F
:100B8000007F17D9032802D010E00220EFE704F01D
:100B9000FDFF00280AD004F0FFFF002806D0032044
:100BA00005F000F8002801D002200AE00220694682
:100BB000087708E00328F9D104F0F4FF0028F5D005
:100BC0000120A1490870A148016904221143016173
:100BD000798A202291437982398A0222114339820B
:100BE0006946097F022925D0798A04221143798236
:100BF0007F223B88920180210B433B800021491CCE
:100C0000C9B20A29FBD37B8A10210B437B8290490E
:100C1000521E4A61398880229143398086494B8827
:100C2000FF22013293434B8030BF026904218A4383
:100C300002610AE07A8A04210A437A827A8A1021C0
:100C40008A437A82EAE7FFE730BF62B6754F3878A9
:100C5000002809D10321012005F0EAFB0221002030
:100C600005F0E6FB7B48047000F0CEFEFFF7FDFCCC
:100C7000B879BB2807D178480088032803D875487D
:100C80000121417001E0734844700521022005F004
:100C90003DFB002803D06F490120887038706D48F3
:100CA000807801280BD16D480088012803D06A485C
:100CB0000088072814D26748847069480480664811
:100CC000008807280CD2664908883C2808D161486A
:100CD000827C002A04D18078012801D00C803C70ED
:100CE000F87908900B38BD2814D85B48008806288E
:100CF00010D9089804F05CFF0B46024600205949C1
:100D000004F0BEFD0022584B04F058FF04F04CFEE6
:100D1000C6B20EE008980A2807D8002809D04E4825
:100D20000088062801D9B42603E00898C82800D90D
:100D3000072648488078012802D1787801280CD00D
:100D4000102E54D9494800880D2850D30E284ED86B
:100D500047480078C00737D049E00120B8704348C1
:100D60001421048042480088009004F02DFF0029DF
:100D700013D10098002810D0364ADD209074AA20A4
:100D8000B8714B2100984901089D884200D93C70F8
:100D9000907B002801D1012010722E48017A012990
:100DA00011D1807B00280ED100F0D0FD29480472BB
:100DB0000621F87904F008FF0146274802888918BF
:100DC0000180AA207871A4E02348008806280ED369
:100DD00000F0BCFD4B20C00000F042FB00F0B6FD6F
:100DE0001C4833218174AA207871224804801F484E
:100DF0000088B0427ED31848008806287AD9154862
:100E0000407B002803D11C491820C870BC70B878FA
:100E1000002839D132221146184803F076F97C7047
:100E200001202DE0B46A002000000800202A0800FC
:100E30000490002014800020200000500033005057
:100E400054020800E0010020C406080000ED00E0A4
:100E500000800040209000206C9000206A900020CC
:100E60008291002000004E4000003E407E91002014
:100E700084910020809100208C91002004C8000003
:100E8000B870E9494873C870E748183001880029EC
:100E900002D1142101804180E34818304188008844
:100EA000421F914205D0921F914202D011388142D7
:100EB00001D100F06DFDDC4818300188DB48008866
:100EC000401A142104F086FE002902D03879002847
:100ED00014D0D549C87A012810D0D54A0320D07043
:100EE00055208874AA20B871002501200872D148C5
:100EF000047000E00DE03879401E3871CA48C078AF
:100F0000012806D1CC48CD490088801B884200DDED
:100F10003C70CB480188012979D10480C24DC94871
:100F20006C7400883C2807D80221002005F05EFA86
:100F30004B20C00000F094FA6878002801D1AA2064
:100F4000B871BA48BC49048001200880BE48BF4936
:100F5000048011200870B7480470BD480188FF2044
:100F6000D730814201D2FF2003E0BA4804F02CFEC2
:100F700080B21099C0B2491CCAB202A9109288541A
:100F8000694688730190A879012800D1E87110980A
:100F9000052803D1002010900120A871A248807973
:100FA00001280846497A807A32D00A186846C17A00
:100FB000007B081811186846407B0818109904F047
:100FC00003FE05466846417A807A09186846C27A67
:100FD000007B101809186846407B09180198081A08
:100FE000C117890F08188010F871002D23D0FF2D2C
:100FF00021D88D48817A6A1A052A02DA491B052907
:1010000011DB012141718A491820087113E051E078
:101010000A186846C17A007B081811186846407B98
:1010200008180521CBE7824A1179052903D201214D
:101030004171182010710521022005F067F9002880
:101040000BD07948EE21817483480E2100880090EE
:1010500004F0BAFD002905D00CE0734884747E4882
:10106000048007E00098002804D000F06FFC7A4963
:10107000012008806C488470724B1988052901D2C0
:1010800001224271022907D2F978012904D11C807A
:10109000FC704471002110914179012906D14471FD
:1010A0008572807B00280DD05520787102210020A8
:1010B00005F0BEF95C48817C332905D041780129CF
:1010C00002D008E0AA20F0E764490A88152A02D174
:1010D000AA227A710C805649C978022902D1817BF3
:1010E000002969D07979AA2903D0417A012900D051
:1010F00004E54D48407C0128FAD000F078FC192026
:10110000400100F0ADF949480088B04206D3002004
:1011100002A90C54401CC0B20528FAD349480088E3
:101120003C2803D90221002005F060F93E4A907B5B
:10113000002844D0552078714A4F494BB968180AA5
:101140000B704870B879384B88709A8ACA70120A46
:101150000A713C4A142012884A71120A8A71C871B5
:101160004148007808724D72987C88720A98C8725B
:101170000C9808730B984873099888730F98C87374
:1011800012980874139848740D988874FFF75FFBE1
:10119000B968C8743C2000F063F9002722481C306D
:1011A000C05D00F0B7FF7F1CFFB2142FF6D32F48AD
:1011B0000078012805D014E0AA21797199E7AA20C6
:1011C000B9E72B4F184A78891C32801D80B2142150
:1011D00004F006FD78890021801D82B2384602F0B5
:1011E00022FA1148818A491C8AB2224982828A42A3
:1011F00001D901218182047202218173194955228A
:101200004A714472E120800000F033F9022100208D
:1012100005F00EF900F0DEFB70E4C106C90E0120F6
:101220008840154908607047209000207E9100207A
:101230008C9100205C9000208491002065090000C2
:101240006A9000206C90002082910020C56A0020E6
:1012500068900020C0D401007C9100208091002083
:101260001B030000B46A0020D291002009800020F6
:10127000A8910020FEFF000080E200E0704700001F
:101280003E480178002902D08021417070473C49D6
:10129000002008703B49C870704738480178002921
:1012A00002D08121417070473549012008703549CD
:1012B000C870704731480178002902D082214170FE
:1012C00070472F49022008702E490120C8707047CE
:1012D0002A488178002904D0491E0906090E817028
:1012E00017D142780021002A04D09207920F027091
:1012F000417004E00278002A01D0521E02701206EA
:10130000120E017005D0012A02D0022A01D1D1E7C4
:10131000C3E7704710B5194CA078401CA070207826
:10132000002805D104F014FC421CFFF7A9FF22702D
:1013300010BD12490120C870704710490020C870C4
:1013400070470E48C07870470020EFF310810122EB
:1013500082F31088052212071289120605D40A4862
:10136000028901231A4302811846002900D0012175
:1013700081F3108870470548007870470B80002083
:1013800054020800C6060800003300502A800020DE
:1013900005221207118A042319431182118A02239C
:1013A000194311821189402319431181174B0121DF
:1013B0001960174B08211980518A802319435182E3
:1013C000144903680B6143684B6183688B61C36890
:1013D000CB6103690B6243694B6283698B62C069AD
:1013E000C8620D48836A0B63C36A4B63036B8B63EC
:1013F000C36BCB63436B074940310B60806B486024
:10140000908A800601D500BE7047FEE780E200E0CA
:10141000003300504018080000ED00E010B5012036
:1014200005F0B2F8032005F0A3F8002211460120D0
:1014300000F0D8FE2A220121002000F043FF1420F2
:1014400005F0CEF8002005F0D1F800221146642006
:1014500000F0E7FE00F0EAFE05F0A2F810BD7047CC
:101460005021484380B20146401E80B20029FAD183
:10147000704700227D23DB0006E00021491C89B271
:101480009942FBD3521C92B28242F6D3704770B598
:10149000F94900208A68C043002A01D0024600E0D2
:1014A0000122D317940F9B00234394008A60F34AD0
:1014B000156856682C433343146053608B6D002BC2
:1014C00001D0034600E001238B6514689B0055683A
:1014D00014602B435360CB6D002B01D0034600E01A
:1014E0000123CB651468DB00556814602B435360FF
:1014F0000B6E002B01D0034600E001230B6614683D
:101500001B01556814602B4353600B68002B01D0FE
:10151000034600E001230B601568DC1756682B4377
:101520003443136054608B69002B01D0044600E003
:101530000124E317A50E9B012B438C611568A401C0
:1015400056682C43334314605360CB68002B01D0A2
:10155000044600E00124E317650FDB002B43CC6059
:101560001568E40056682C433343146053604B699C
:10157000002B01D0044600E00124E317E50E5B01D7
:101580002B434C611568640156682C433343146047
:101590005360CB6B002B01D0044600E00124E3171D
:1015A000E50A5B052B43CC631568640556682C433C
:1015B0003343146053604B68002B01D0044600E0B5
:1015C00001244C60E317241915685B4156682C43CD
:1015D000334314605360CB69002B01D0044600E014
:1015E0000124E317650EDB012B43CC611568E40190
:1015F00056682C433343146053600B6B002B01D0AF
:10160000044600E00124E317A50B9B042B430C6365
:101610001568A40456682C433343146053600B6967
:10162000002B01D0044600E00124E317250F1B0125
:101630002B430C611568240156682C433343146016
:1016400053608B6A002B01D0044600E00124E317AD
:10165000250C1B042B438C621568240456682C430C
:10166000334314605360CB6A002B01D0044600E082
:101670000124E317E50B5B042B43CC62156864047B
:1016800056682C433343146053604B6B002B01D0DE
:10169000044600E00124E317650BDB042B434C6395
:1016A0001568E40456682C433343146053600B6D93
:1016B000002B01D0034600E001230B651468556838
:1016C00014602B4353604B6D002B01D0034600E0A8
:1016D00001234B6514685B00556814602B4353600D
:1016E0004B6E002B01D0034600E001234B661468CB
:1016F0005B01556814602B4353608B6E002B01D047
:10170000034600E001238B6614689B015568146052
:101710002B4353600B6F002B01D0034600E00123E5
:101720000B6714681B02556814602B4353604B6FA2
:10173000002B00D1012048671168400253681160F6
:101740001843506070BDF8B503260125002336020A
:10175000324602211846009504F07CFC0024022148
:10176000234622460846009404F074FC0021072317
:1017700032460846009404F06DFC062332461946B2
:101780000020009404F066FC082332460321002068
:10179000009504F05FFC05230022194610460095D1
:1017A00004F058FC0223324603211846009404F04A
:1017B00051FC0123002204210220009404F04AFC81
:1017C0000023324604211846009504F043FC002211
:1017D0000F2301211046009404F03CFC17233246ED
:1017E00007210020009504F035FC00233246022139
:1017F0000120009504F02EFC0023324619460120FA
:10180000009404F027FC012100233246084600948E
:1018100004F020FC0023324603210120009404F050
:1018200019FC0023324619460220009504F012FCF0
:1018300000231A4601210220009404F00BFC00232F
:101840001A4605210220009404F004FC00233246CD
:1018500006210220009404F0FDFB002332460821FB
:101860000220009504F0F6FB0023324609210220F5
:10187000009504F0EFFBF8BD7890002070900020F8
:1018800038B57FA000687F4C009060896A46801D53
:1018900080B2032104F0A4F960890021801D82B286
:1018A000204601F0C0FE00210822084601F0F9FEA2
:1018B00001223221744802F028FC38BD70473EB541
:1018C00005242407208A022188432082A08A000759
:1018D000FCD5FEF763FEFFF736FF00F0F3FBFFF7E2
:1018E0009DFD01200021C00200F00AFD012000F052
:1018F00014FD142101200A460191009001460023A5
:10190000022004F0D1FB61490320487000200870D8
:101910000090019003460246014602905B4800F0A9
:101920002DFD00F0FAFD5949091F4870401C04D1F3
:10193000FF210131080200F0B7FD00F011FD00F0B9
:1019400016FD608A2021084360823EBD10B5002448
:101950000621022004F04AFD0520FFF781FD062143
:10196000022004F065FD0520FFF77AFD641CC82CF9
:10197000EEDB10BD034610B50020024602E09C5C81
:101980002018521C8A42FADB04F024F9C0B210BDC0
:1019900010B53F4C2078222805D0442803D0662873
:1019A00001D0882801D1FFF7D1FF3A48817800297A
:1019B00006D12178882904D0052282701131217046
:1019C00010BD642181701120207030490120091F51
:1019D000087010BD10B50821022004F029FD242054
:1019E000FFF73EFD0821022004F000FD10BD10B5F8
:1019F0000921022004F01CFD2420FFF731FD0921FC
:101A0000022004F0F3FC10BD70B5234801780129D1
:101A100034D10025057021491C48CA78801ED12A7E
:101A200002D0DA2A28D112E01C49194E20310A7A54
:101A30000270497A761C4170327171710024305DF8
:101A400000F068FB641CE4B2092CF8D314E0097AB6
:101A5000002911D10E4E01780A363171407870712B
:101A60000024305D00F056FB641CE4B2092CF8D36E
:101A70007D20C000FFF7FDFC0948057070BD000027
:101A8000A1A2A300A89100200338000060900020CC
:101A9000C56A00208C9100202C9100202E910020FE
:101AA0002D910020A54900204860704770B50521A0
:101AB0000907088930229043088108898022104351
:101AC0000881088980088000401C08810889082353
:101AD000184308819A480488144304804C8A9C4324
:101AE0004C820D89402425430D810D8A0426B5437F
:101AF0000D828D8AAD07FCD5904E00257560058856
:101B00000126354305804589AE058E4D068801D5F1
:101B10002E4300E0AE43068005887826B54328357D
:101B2000058005880626354305804D8A1D434D8274
:101B30000388934303800A89A2430A814089800570
:101B400003D57F4905206031888001208007016826
:101B50008215914301607C4801683F225202914303
:101B6000421489180160016802031143016070BDCD
:101B70000321764809028181082242800021491C04
:101B80009629FCD3828070477149488008880322D7
:101B90001043088008880422104308806749012008
:101BA000087070477CB5654C217800292DD06849B4
:101BB0000A885207FCD4CA880092898801911104CE
:101BC000019A8918009163494843009903F0FCFF8A
:101BD0000090002020700098A060009803F0C8FEDC
:101BE000054629465C4803F04EFD0A2103F089FDB5
:101BF00003F0C5FEE060284603F0F4FE574A584B58
:101C000003F0DCFF03F002FF20617CBD10B54B4800
:101C10004168AA2906D07C205249081880B203F0F6
:101C2000E5FF10BDC06819210903884200D900BE34
:101C3000FF20EB30F0E770B5414C6088C006050F1F
:101C400003F0DAFF61881E2291436A00114361802C
:101C500070BD10B544490120C863C86B0028FCD191
:101C600001208007C16941480268914201D20022E7
:101C7000026019238A1ADB019A4212D3016003F031
:101C8000C1FF3B4A1188884201D9411A00E0091A74
:101C900089B2182905D31080012003F0B9FF03F0A1
:101CA000BDFF10BD08B5254989684843314903F097
:101CB0008BFF009008BD08B52049C9684843800AD9
:101CC000009008BD08B51D494968002903D0FFF7F9
:101CD000E9FF009008BD03F0A7FFFAE708B5174930
:101CE0004968002903D0FFF7E6FF009008BD03F024
:101CF000A1FFFAE708B5204901204A695206D20F30
:101D000013D04A699206D20F0FD000220A610092C6
:101D1000FF225F32009B5B1C00939342FAD3496918
:101D2000C907C90F02D003F08BFF002008BD40187F
:101D30003721C000090140187047000010800020C2
:101D40002000005000100000000200402030005031
:101D5000001600500024F400002474497B14AE47A0
:101D6000E17A443F01120000C00000407C040800FA
:101D70007804080040420F000010005030B58D4A32
:101D80008D49D005048880231C4304808B4C6589D1
:101D90002D0701D4521EFAD2894C01222260894CAF
:101DA0000A882280884A49881180018899430180E5
:101DB00030BD002070477047704770470020704763
:101DC00001218907086B0722104308637047704799
:101DD00010B57F497D4808607E494C2008807D4BC6
:101DE0007D4A203B1A827E497C4848807E487D4956
:101DF00001807C4919314180222141818121890062
:101E000001827A4941827A490183784911314183BB
:101E100075497848203188804121774809018180BF
:101E20007649C180754C1034C48101824182891C7D
:101E30008182611FC182FF21463101837049418344
:101E40007049592008806F486F4C2030048043242B
:101E500044806E4C4C82D5218180FF21D331018199
:101E60006B4941816B4981816C496B4808805948B5
:101E70006B4960384180C18810242143C180624988
:101E80000A390181534C6749403C61805A820821DC
:101E900041814D485B490088403908824948624980
:101EA0000088088010BD4008704700B58BB05F4ABD
:101EB00042625F4A82625F4A42615F4AC2625F4A2F
:101EC00002605F4A02625F4A42605F4AC261404A02
:101ED0003E48002110603E484038026B03129A438E
:101EE0000263426B1F231B049A4303231B04D21873
:101EF000426356480268C3129A43026002680313A1
:101F00009A43026068464154491CC9B22829FAD351
:101F1000014628224E4803F099FEFFF759FF03F0CF
:101F200071FE4C490880002003F072FE03F076FE3B
:101F30000BB000BD10B5264A0F21244809021060DD
:101F400023484038426B1F231B049A4303231B047E
:101F5000D218426300060268D208D200026005204F
:101F60000007028992089200521C0281028908230C
:101F70001A430281028A0A43028237480068002815
:101F800008D10E484189890504D5018878229143FA
:101F900008310180FFF71CFF3048006B00780028F3
:101FA00004D02F4800880B496039C880012003F015
:101FB000C9FD10BDA0860100087F0400200000506C
:101FC00000800040560208004A0308004C055407F0
:101FD00080000040602C00507F7F0000AC29000092
:101FE00000220050090900000024005022040000D3
:101FF00030D00000EE110000002500502E0200003D
:1020000044200000402800500D95000002420000CE
:10201000E4DC00001092000053780000002A005019
:102020008B1000009DD5000000260050B31D00203D
:10203000B71D0020BD1D0020C11D0020B91D0020BE
:10204000CF1D0020BB1D0020A71E00200002004065
:1020500020000800780408001480002020020020DE
:102060005204080010B5044604F074F91249A000A7
:1020700040188038406B002801D0804710BDE10631
:10208000C90E012088400D49086010BD1320E9E702
:102090000B4909480A88B038028000220A800121D1
:1020A00041808188491C81801420DBE71520D9E715
:1020B0001620D7E71720D5E71891002080E200E02E
:1020C0007A91002005200007828880210A438280BF
:1020D0004048818100218180092101800321818183
:1020E000028A40218A4302820122028183881343AB
:1020F000838039480268120A12020A43026088018A
:102100003649086070473348818AC907FCD0008887
:10211000C0B270472F498A8A9206FCD50880704762
:1021200000B5034602E0FFF7F5FF5B1C18780028B6
:10213000F9D100BD0346000600B5000F0A2801D200
:10214000302100E037210818FFF7E4FF1807000FDF
:102150000A2801D2302100E037210818FFF7DAFF02
:1021600000BD10B50446000AFFF7E4FFE0B2FFF738
:10217000E1FF10BD10B50446000EFFF7DBFF2002A3
:10218000000EFFF7D7FF2004000EFFF7D3FFE0B2E9
:10219000FFF7D0FF10BD10B50E4801890907090FE0
:1021A000042910D103880E4A901E41785354491CCB
:1021B000C9B24170D47800220123D12C04D0DA2C8A
:1021C00001D1092902D010BD4A29FCD10370427007
:1021D00010BD0000001000500CE400E000E100E041
:1021E0002E91002030B53F4B1C680825C907AC4331
:1021F000090F0C431C6019680424D207A143520F35
:102200001143196019680222C0079143800F0143EE
:102210001960354801688022090A090211430160EA
:1022200030BD324B58809980DA807047FF203049AA
:10223000013008607047FF202D490130803108606F
:1022400070472C4800224188491C41800178491C74
:10225000CBB2014614310370142B08D302700B78F3
:102260005B1C0B708B78002B01D05B1E8B700B7886
:10227000322B26D183885B1C83800A708289521C92
:102280008281C288521CC2800289521C028142890A
:10229000521C4281C878401EC8700879012801D9B3
:1022A000401E0871144A5088022801D9401E5080EF
:1022B000124A1078002801D0401E10704879401C46
:1022C0004871704770B5054614460E46012004F06B
:1022D0006FF9284604F078F9304604F087F903488E
:1022E000C48170BD0034005008E400E000340050A8
:1022F00000E100E078910020389000202E9000202E
:1023000008430121890302460A4312490A80124AFE
:10231000104308800B20488070470E490A880F231D
:102320009B0100079A43800D02430A8070470949C8
:1023300000200880704707480849028802231A4392
:102340000280491E02D302889207FAD4002101813B
:10235000408970470015005001400000A086010030
:1023600010B54F484178007804F062F810BD10B500
:102370004B484178007804F039F810BDF8B50E46A6
:10238000154647490278079F0A7040781C464870F6
:10239000FFF7EDFF0520000781880122D2021143DB
:1023A0008180404801884908490001800188FF2256
:1023B00081329143F201114301800188402291430F
:1023C000AA0111430180018804229143A200114314
:1023D0000180018802229143069A52001143018034
:1023E0000188012292039143BA03114301800188BD
:1023F00018229143089AD2001143018001880122DA
:1024000011430180F8BD27490A88520852000A800A
:102410000A88FF2381339A43C00102430A80088857
:10242000012210430880704710B51E4801884908F2
:10243000490001800520000781880122D2029143D2
:10244000818017484178007803F0D0FF10BD15480F
:102450000188490849000180704710B511490023DF
:102460000A88D205920F012A01D9040C8C80488079
:1024700008888004FCD50120C880012A01D98888F9
:1024800003044888C01810BD10B50446FFF768FF64
:102490002046FFF7E2FF0446FFF769FF204610BD24
:1024A0000080002000120050F94AD160906070470F
:1024B00010B50120FFF7A7FF05200002FFF7E4FF9A
:1024C000C0B210BD70B50024F24DFFF7F1FFC00798
:1024D00004D0641CAC42F8D30020C04370BD70B57A
:1024E000FFF7F0FF002817D1FFF78DFFFFF738FF48
:1024F0009F20FFF7B2FF0020FFF7AFFF0504002089
:10250000FFF7ABFF04022C430020FFF7A6FF204398
:102510000546FFF72CFF284670BD70B5FFF7DFFFBB
:10252000DB4CDD4A002114234B43D5589B185B68D4
:102530001D4003409D420ED1142308B24B4320801E
:102540009B189D68A560DB68E360142358438018DE
:10255000606048B270BD491C89B20429E3D30020F1
:102560006060401E70BD70B5FFF7ACFF002815D14C
:10257000FFF749FFC74E00250620FFF785FF00241F
:10258000FFF796FFC10703D1800701D5002070BD7A
:10259000641CB442F4D36D1C322DEDD30020C04333
:1025A00070BD70B5FFF78EFF002815D1FFF72BFF28
:1025B000B84E00255020FFF767FF0024FFF778FF93
:1025C000C10703D1800701D5002070BD641CB4424F
:1025D000F4D36D1C322DEDD30020C04370BD70B517
:1025E000FFF770FF002811D1FFF70DFFA94E00255E
:1025F0000420FFF749FF0024FFF75AFF800707D0A8
:10260000641CB442F8D36D1C322DF1D30020C043BA
:1026100070BD10B50446FFF755FF002808D1012012
:10262000FFF7F1FEE01DF930FFF72EFFFFF74AFF3D
:1026300010BD70B5064696480D4680685119814216
:1026400001D9441B00E01446FFF73CFF00281AD1D3
:102650000220FFF7D8FEFFF783FE03212846090674
:102660000843FFF7FAFE0020FFF7CDFE002505E046
:102670000020FFF7F2FE3070761C6D1CA542F7D3E8
:10268000FFF775FE204670BD70B5054680480E46C2
:10269000C0681446824200D984B2FFF713FF0028B5
:1026A0001ED1FFF760FF00281AD10220FFF7ABFE12
:1026B000FFF756FE0121304649060843FFF7CDFEDD
:1026C0000020FFF7A0FE05E028786D1CFFF7C5FE8F
:1026D000641EA4B2002CF7D1FFF749FEFFF7F2FE0B
:1026E00070BD70B50D460446FFF73DFF002802D0CF
:1026F0000020C04370BD0220FFF785FE280620435E
:10270000FFF7C2FEFFF7DEFE70BD10B5FFF72BFF2F
:10271000002802D00020C04310BD0020FFF773FE48
:10272000C720FFF7B1FEFFF7CDFE40B210BD00207D
:10273000C043704710B5FFF7C5FE002812D1012035
:10274000FFF761FEFFF70CFE09200003FFF785FE8F
:102750000020FFF782FE0020FFF77FFE0446FFF710
:1027600006FE20B210BD70B5FFF7ACFE002801D008
:10277000C11770BD0020FFF746FEFFF7F1FD4B20AB
:10278000FFF76BFE0220FFF73EFE0020FFF765FE1D
:102790000020FFF762FE002504462846FFF75DFE95
:1027A00006462E43FFF7E3FD3046214670BDF7B5E0
:1027B00082B0374F0E460091F96814460D463046F8
:1027C00003F002FA401C6843451E0020FFF71BFE81
:1027D000B868801BA04200D204462646002719E0B4
:1027E00000988019A84202D900982E1A761C0298E7
:1027F000B2B2C0190099FFF747FF002803D00020AC
:10280000C04305B0F0BD681C00902148BF19C068E6
:102810002D18E61BA742E3D33846F2E710B5FFF7C1
:1028200051FE002805D1FFF7EEFDB920FFF72CFE81
:10283000002010BD10B50020FFF7E5FDAB20FFF72D
:1028400023FE002010BD70B5114C054660680028BD
:1028500006D0FFF788FE002805D00020C04370BDD9
:102860000520C04370BDFFF723FE6168097C8843E3
:1028700029400843FFF7CDFE70BD10B504484068FD
:10288000407CFFF7E0FF002808D040B210BD0000F8
:1028900098910020400D030044660020FFF735FFAB
:1028A000F4E770B505462F480E46C06814468242CC
:1028B00000D984B2FFF706FE00281DD1FFF753FEB2
:1028C000002819D10220FFF79EFDFFF749FD0121E5
:1028D000304649060843FFF7C0FD0020FFF793FD8F
:1028E00004E02846FFF7B9FD641EA4B2002CF8D11D
:1028F000FFF73DFDFFF7E6FD70BDF7B582B0194F5C
:102900000E460091F96814460D46304603F05CF916
:10291000401C6843451E0020FFF775FDB868801B0A
:10292000A04200D204462646002717E000988019EE
:10293000A84202D900982E1A761CB2B200990298C9
:10294000FFF7AFFF002802D00020C04359E7681C02
:1029500000900448BF19C0682D18E61BA742E5D3B4
:1029600038464EE79891002070B5EFF310850120AE
:1029700080F31088264803F06FF90446002D1DD01F
:10298000012080F31088002C23D020462038C08BF3
:10299000204988421DD16189208903F063F905002F
:1029A0000ED021461031A38962892089A8470028CA
:1029B00006D001280DD002280BD105E00020E0E769
:1029C000204603F055F904E0114821460C3003F08D
:1029D00055F9EFF31084012080F310880C4800684B
:1029E000002802D1012003F04FF9002C03D0012070
:1029F00080F3108870BD0020FAE710B5BC210648AE
:102A000003F048F90549012003F04AF910BD000020
:102A1000A805080038830000040608006929002082
:102A2000F8B50D46064681002B48EA884458521CEA
:102A300020686B89018F294F514300910146403135
:102A40004A89C989511A8AB2991A89B2B94214D2EB
:102A50009A4212D0294603F029F92D89204900987D
:102A600003F0B2F82818801C4034E0823002401C89
:102A700080B2042103F020F9F8BD2821304603F08C
:102A800021F9F8BDF8B50546870013480C46C05932
:102A9000C9880068114E024640325389D2899A1A79
:102AA00092B28B1A9BB2B34211D20B4E8A420ED015
:102AB00003F00EF9F05905225F30611C03F0C6F8EF
:102AC0002802401C80B2052103F0F6F8F8BD282149
:102AD000284603F0F7F8F8BD4C030800FF7F00001C
:102AE0001027000070B516460D46104603F0F6F8A4
:102AF000002869D0340A304603F0F0F8012812D0DB
:102B0000A87A1E2811D029460A310E2845D019DC92
:102B1000801E030003F0E8F80B255829582D583182
:102B20005839583D5800022070BD3146274803F0FF
:102B3000E1F80021204603F0E3F80221304603F0DB
:102B4000BBF841E018283CD006DC102819D0122828
:102B50002BD0162838D130E0522822D0D22833D1B9
:102B600027E0204603F0D2F82EE0204603F0D4F808
:102B70002AE0204603F0D6F826E0204603F0D8F8F5
:102B800022E0204603F0DAF81EE0204603F0DCF8ED
:102B90001AE0204603F0DEF816E0204603F0E0F8E5
:102BA00012E0204603F0E2F80EE0204603F0E4F8DD
:102BB0000AE0204603F0E6F806E0204603F0E8F8D5
:102BC00002E0204603F0EAF8002070BD0128000072
:102BD000F3B581B001980C460102CA1D0E310223E3
:102BE000344803F0E1F804700199054602273248A1
:102BF0008E00002C06D0042C16D0062C10D0072CEA
:102C00003FD108E0815905224968897C11406970EB
:102C10008059C77335E0084603F0CCF8687030E09F
:102C200080590F21C1732CE0044680594068417CD3
:102C3000012902D1007E01280FD0019803F0C0F8CD
:102C400001210028A0590BD04268D07D00281CD05B
:102C500001281AD004280DD00FE0002068700DE084
:102C60004068C27D022A01D0042A06D1007C0228D5
:102C70000BD102E0107C022807D06F70A15903200D
:102C8000C873284603F0A2F8FEBD6970F6E7014656
:102C90000A780120042A01D9002070474A78002AC6
:102CA00001D0012AF8D10A79082AF5D849790829EA
:102CB000F2D87047021C000028050800FFB589B053
:102CC0000D4600206946059008720B98000A009096
:102CD00003F076F807460B9803F000F800287DD043
:102CE0000B982978000A8400764E01295ED00429C9
:102CF00004D0062943D0072963D120E06878002852
:102D00001BD0305910224068A91C02F09FFF002FF1
:102D100006D03159C87B032807D0042808D050E0DA
:102D20003059C07B032803D04BE00B20C87348E028
:102D30000521009803F050F843E00120B6E0305937
:102D4000C07B0E283DD1009803F034F8002103E049
:102D50002A18401C9170C0B21028F9D3688A6946BD
:102D60000883294606A808221431023002F06EFFBB
:102D700006ABAA1C3946009803F034F821E030591C
:102D8000C07B0F281DD1AA1C0A21009803F030F83F
:102D9000002F04D03946009803F030F811E00023EA
:102DA0001A463946009803F02FF80AE0012F08D19F
:102DB0000B9802F093FF01281CD0002801D00220BC
:102DC00005906846007A002811D002AA05210098D3
:102DD00003F00EF86846027A602000E007E0024344
:102DE0006846027201233946009803F00DF80598F1
:102DF0000DB0F0BD3059C07B0228E2D168780028C0
:102E000051D002210B9802F057FF30590722406839
:102E1000A91C173002F01AFFE878002804D13059B5
:102E20004068407C01283AD0009802F0F3FF002867
:102E300037D0297A009802F0F3FF002833D00098A9
:102E400002F0F4FF0121009802F0F6FF00282CD0D8
:102E500030594068417E00292BD0042929D0C17EF9
:102E6000027D1140C17630594068017F427D11409A
:102E700001776846007A0028A7D1305902214268BC
:102E80000098173202F0B4FF305941684031897B15
:102E9000002913D004210098FFF79AFE91E7022041
:102EA00004E0062002E0082000E0032069460872E2
:102EB0008BE70021C17630594068D9E70B21C173F7
:102EC0007FE700002805080070B50446007800255B
:102ED0000D2801D00A2200E002225A494B7A002B29
:102EE00006D00D2804D0637C032B01D0432551E08C
:102EF000097A8A4339D10D2809D00E2802D00F282B
:102F000003D134E0607C032804D3402542E0607C98
:102F10000328FAD8A07C0428F7D20A2908D0607CBC
:102F2000012822D0022820D06078032809D811E097
:102F300002F088FF012806D16078032803D000281A
:102F400001D0492526E002F07DFF002802D16078FB
:102F50000228F6D83020035D22462046E17C31323B
:102F6000143000F019F8054614E0422512E002F092
:102F700069FF012807D16078052804D1A01D02F05F
:102F800067FF0028DDD002F05DFF002802D16078E5
:102F90000228D6D8284670BDFFB5002086B0012192
:102FA0006A461170044605910021002C06D0089D48
:102FB000099A1F239A4234D9402032E01C23069DEF
:102FC000079AF7E76B185E78330002F08DFE1D2636
:102FD0001010101010101010102626262626262657
:102FE0002626262626261010101010102600059BD7
:102FF00003E06F46FF5CB74204D05B1E5BB2002B60
:10300000F7DA03E0002B01DB4A2006E0059B6F4660
:10301000FE54059B5B1CDBB205936B5C491C591885
:10302000C9B2914201D20028CCD0914202D04A20AC
:103030000AB0F0BD641CE4B2022CF9D20028B3D06F
:10304000F6E7000098050800F8B50C4694491646C6
:1030500009680125002702228B1C312873D012DC5D
:103060000C2874D008DC012821D0022840D0072881
:103070004FD00B2869D156E010287FD0112876D088
:103080001228F7D18DE00123412871D008DC3228C5
:103090006FD035286ED036286DD04028EAD1B1E007
:1030A000422869D0432868D04428E3D1CFE00622E3
:1030B0007C497D4802F0D2FE002808D006227A49D9
:1030C000304602F0C3FD062020700020F8BD744891
:1030D00001680878C00738D02078062801D2277008
:1030E000C2E006229831304602F0B0FD06200EE024
:1030F0000A786B48920728D522783E2AEFD30546F6
:103100004A7E5A31304602F0A1FD2868407E207088
:10311000A7E00878400718D520780228DFD3887CFC
:103120003070587C78E00A785D4812070DD5227817
:10313000202AD4D30546CA7D1A31304602F086FDD6
:103140002868C07DE3E735E001E077E016E00A7823
:103150005348D20672D52278202AC0D305460A7E6B
:103160009831304602F072FD2868007ECFE70EE00D
:1031700054E028E034E03BE058E060E00878800666
:1031800070D520780428AAD30422091D23E00878EA
:10319000400667D52078002866D0087D08E02270B8
:1031A0005FE0087800065DD5207800285CD0487D77
:1031B0003070F4E70888C00554D5207804288ED3F1
:1031C00004220C3107E0088880054BD520780428BC
:1031D00085D304220831304602F038FD042096E7FA
:1031E000088840053ED5207800283DD0887D36E00F
:1031F0000888000536D5207802288FD3087C3070E7
:10320000487C09E00888C0042CD52078022885D3A2
:103210008231087F3070487F7070C0E70888800472
:1032200020D5207800281FD0A03117E0088840045E
:1032300018D52078002817D0A1310FE012E00888B7
:1032400000040FD5207800280ED0A23106E00868CF
:10325000C00307D52078002806D0A3310878307045
:10326000237000252846F8BD0425FBE770B50F48FC
:103270000F49C405228880252A4322800D4A53899C
:103280001B0701D4401EFAD20B4A0120106006220F
:10329000054802F0DBFC2088A843208070BD0000B8
:1032A000C0060800383E030024800020A0860100EC
:1032B000D47F04002000005000800040F0B5554D40
:1032C00085B00026686937460190FEF73AF800217C
:1032D000514C002802D12079022800D101914F4899
:1032E00002684F48002A0FD10278002A0DD04D4BBA
:1032F0000122DA63DA6B002AFCD101229207D2693B
:103300001923DB019A420ED3017002F0ADFD0028B3
:103310007DD0E0780126002879D005200007808A3A
:10332000C00701D0042672E002F018FC00286ED11C
:103330003D4800683F2804D12079002801D1286940
:103340000190A17801A802F095FD00285FD0A17836
:1033500001A802F015FC002859D0334800683F2826
:1033600003D102F08DFD002851D02C480068AA2816
:103370001DD0972007210125AD07EA6B920A920222
:103380007F1C3A43EA63EA6B284B80021A400243EF
:10339000EA63E86BC002C00A49050843E8631F48B6
:1033A00004260068002807D0AA280ED01CE0204878
:1033B000FEF788FC0321DEE701986421C00202F0D9
:1033C00003FC401E0BE001210CE0019802F0D0FA52
:1033D0001849096802F01AF902F0D1FA009021792F
:1033E0000029F0D102F052FD1348C06A8047286BD3
:1033F0000004C00FFBD011480168C905FCD502F0DC
:103400004BFD052000070189802291430181304650
:1034100005B0F0BDA0020020C60608001480002000
:103420000A800020C000004060010020FF03E0FF90
:1034300001120000208000201C070800000200404C
:1034400010B50124A407A06BFEF748FC5F4902F009
:10345000BBFB27221201511A00D101215C4A5060A6
:103460001160206B082188430843206310BD38B5E4
:10347000002000905749082008800524240721884F
:10348000302001432180218803221143218002E062
:1034900000BF00BF00BFA18A0906F9D5618989086C
:1034A000890061814C494A88520852004A8021882B
:1034B000814321802088800880002080A08A4007E6
:1034C00001D5FEF7FCF92089802108432081208A5C
:1034D000042188432082A08A8007FCD53F4841050B
:1034E0000268D20202D40A69520702D4009A002A62
:1034F000F6D038BD10B502F0D5FC02F0D9FC10BDF5
:1035000010B502F0DBFC05200007418A80229143C0
:1035100041823048018949084900018130480068EA
:103520003F2801D102F0D0FC0120800781690422EC
:103530001143816102F0CEFC02F0D2FC02F0D6FC15
:1035400028480068AA2802D11420FEF71DFB26494E
:103550000020087010BD10B502F0CEFC10BD10B5F3
:1035600001208007008A000704D502F0CBFC1E4929
:103570000320087010BD70B51C48008885061748E8
:10358000AD0E44681648C030006B0078002802D1A8
:10359000284602F0BDFC16480089134EC00507D529
:1035A00020060BD5E00709D0284602F0B7FC03E05F
:1035B000200603D5E00701D002203070200403D597
:1035C000E00501D50120307070BD000071020000DF
:1035D0004000004000330050200000500002004036
:1035E00060010020148000202A800020002000506C
:1035F000002C0050F8B505461E4614460F4648A05C
:10360000FEF78EFD6A8829880623204602F0CCFB4F
:103610000446287902F088FC2080277166802046C5
:1036200002F0D4FBF8BD70B51446428800790D460F
:1036300001020C310423414802F0B6FB002D01D0F9
:10364000132100E012210170448002F0BFFB70BD25
:103650000A880270120A42708A788270CA78C27030
:103660000A7902714A79427189798171072070471C
:103670004278037812021A430A8082788A70C278EC
:10368000CA7002790A7142794A718079887107207B
:10369000704710B500F072FC00F070F800F0B2FB5B
:1036A00010BD70B5064615460C4625A0FEF738FD40
:1036B00028490020087028A0FEF732FD3046FEF7AA
:1036C00039FD28A0FEF72CFD2046FEF74AFD28A074
:1036D000FEF726FD2846FEF72DFD372002F0FEFA04
:1036E000022805D1E2B237232946304602F022FCF7
:1036F000362002F0F3FA022805D1E2B23623294639
:10370000304602F017FC1C2002F0E8FA022805D12E
:10371000E2B21C232946304602F00CFC70BD0000CA
:103720007072665F7365727665725F6572726F72D2
:103730005F696E645F73656E640A0D000D30000092
:103740007072665F636C65616E75705F66756E63DF
:103750000A0D000009800020636F6E6964783A0AE0
:103760000D000000636F6E68646C3A0A0D00000083
:10377000726561736F6E3A0A0D00000010B5282162
:10378000054802F0DDFB0549372002F0DFFB002190
:10379000372002F091FA10BDA89100209466002015
:1037A0003EB50020C0436D4C0290E38008886081E4
:1037B0006B480190009220460023092202A90A309A
:1037C00002F0CAFB05466089002102F0CBFB002D08
:1037D00003D10121372002F06FFAE188012337225B
:1037E000604802F0E1FA057002F0F0FA00203EBDF8
:1037F000F8B500256846594C058062802380E38037
:103800000E46488802F0B4FB207170882081E58163
:10381000A581258260896A46801C80B2022102F05F
:10382000DFF960896A46C01D80B2022102F0D8F932
:103830006089012102F096FB0221372002F03CFA58
:103840000020F8BD10B548A0FEF76AFC0121372022
:1038500002F032FA002010BDF0B587B00C461421FA
:1038600001A802F017FA23460833A288618820884D
:103870001D4602F083FB3948218842898A1A022AB0
:1038800004D0062A67D0072A65D160E0007A0022BA
:1038900002F07AFB6288294601A802F0D7F968464F
:1038A0000079AA2857D168464079BB2853D1694688
:1038B0003648897941716946C97901716946097A41
:1038C000C1706946497A81706946897A4170694652
:1038D000C97A0170002003220723120201460090DA
:1038E00002F0B8FB2A4D00242868E443002801D0E8
:1038F000204600E00120274E28603268C117736817
:1039000010431943306071600F273F032021384670
:10391000FEF7E7FE062239461C48FEF7B5FE1EA05C
:10392000FEF7FEFB00200322034612020146009030
:1039300002F090FB2868002800D101242C60326836
:10394000E0177168144308433460706003E0007A44
:10395000002202F019FB002007B0F0BDA891002062
:10396000D066002006DC000073747265616D6461CE
:103970007461645F64697361626C655F7265715FD5
:1039800068616E646C65720A0D00000002800020A0
:10399000789000207090002073746F726167655F8B
:1039A0006F6B0A0D00000000FFB58BB00521C90246
:1039B00068468182C91C0182FA490183FA4C36218A
:1039C0006180062199250091082200230195362166
:1039D000A01D02F0DFFA05007ED1A01D0125009593
:1039E00001900222E08805AB114602F0D9FAE08886
:1039F000EE4A022102F0F4F803AE01960095E08849
:103A000004AB0222132102F0CBFA02AF0920019786
:103A10000090E088E64B1022042102F0C1FAE5494B
:103A20006846007A48706846407A88700A46684658
:103A30001321808902F0D4F801960095E08804AB48
:103A40000222132102F0ACFA092001970090E088CD
:103A5000D94B1022042102F0A3FAD8496846007A13
:103A600048706846407A88700A4668461321808903
:103A700002F0B6F801960095E08804AB022213210B
:103A800002F08EFA01970095E088CD4B10220421B8
:103A900002F086FACB496846007A48706846407A58
:103AA00088700A4668461321808902F099F80196C9
:103AB0000095E08804AB0222132102F071FA09207C
:103AC00001970090E088C04B1022022102F068FAB2
:103AD0006846BE49007A00E058E048706846407A7F
:103AE00088700A4668461321808902F079F80196A9
:103AF0000095E08804AB0222132102F051FA09205C
:103B000001970090E088B24B1022142102F048FA8D
:103B1000B0496846007A48706846407A88700A461C
:103B200068461321808902F05BF8AB4D0196009541
:103B3000E08804AB0222132102F032FA01970095CB
:103B4000E088A64B1022012102F02AFAA449684617
:103B5000007A48706846407A88700A4668461321A1
:103B6000808902F03DF809A9092001910090022204
:103B7000E08806AB114602F013FA0546E088002102
:103B800002F0F0F90121362002F096F801233622E6
:103B900094480E9902F008F9057002F017F9002018
:103BA0000FB0F0BD3EB5804C0D46E08802AA0C3047
:103BB00080B2694602F0FAF9E08801AA0D3080B2BD
:103BC000694602F0F3F9E088AA1C0C3080B20121AA
:103BD00002F006F801980088002806D0E08800214D
:103BE0000C3082B22046FFF71EFD00203EBD10B50E
:103BF0006D480A46C0880421801D80B201F0F0FFA4
:103C0000002010BD38B50D4600206946664C08807E
:103C10002380288802F0ACF92071FF2817D0E088B3
:103C20006A460D3080B2022101F0DAFFE0886A4670
:103C30000C3080B2012101F0D3FFA978E08802F0B6
:103C400091F90221362002F037F8002038BD654A8C
:103C50001B23DB02521C89215348FFF7CBFCF4E7FE
:103C6000F8B5514D0C4629798022180A88427DD139
:103C7000E988208826468B1C0027083698420ED1FA
:103C8000012100916188324601F0AAFFE079002805
:103C900075D05448082336222988C01F10E00B1D18
:103CA000984229D1022100916188324601F098FFA3
:103CB000E079002863D04B48298808233622801FEA
:103CC00002F072F80646287902F02EF9308077600B
:103CD000E07A01067160A07A000401437160607AA5
:103CE000000201437160207A014371600098B07056
:103CF000304602F06BF842E00B460A3398421BD183
:103D000004200090E079002839D03648298818230B
:103D10003622001F02F048F80746287902F004F91D
:103D2000388062883146381D01F090FFA078F87025
:103D30000098B8703846DCE70B460833984220D12B
:103D4000032100916188324601F04AFFE0790028A2
:103D500015D02448298806233622401F02F024F873
:103D60000646287902F0E0F8308000E018E0B780DD
:103D7000607A0102B180207A0143B180B6E7002267
:103D800007E00D31884204D16188324601F028FFF6
:103D9000F5E7A079012803D12188287902F0F4F809
:103DA0000020F8BD022900002C800020CC670020F4
:103DB000CE670020D86A0020DE670020EB6A002072
:103DC000EE670020FE6A0020FE670020116B0020D5
:103DD0000E680020246B0020010200001E680020F5
:103DE000376B002009D8000010B5054A180A12796F
:103DF000904202D1088800F026F8002010BD000093
:103E00002C80002010B508211A4802F099F81A49B0
:103E1000362002F09BF80021362001F04DFF10BD46
:103E200070B5144D0646298818233622134801F030
:103E3000BBFF0446287902F077F82080A670204660
:103E400001F0C4FF70BD70B50A4D0446E88800213A
:103E500002F088F80948298804233622001F01F05F
:103E6000A3FF048001F0B2FF0121362001F024FFFE
:103E700070BD00002C8000203068002005D80000B4
:103E8000FEB53B4E1C2070801D4617463446088800
:103E900000F082F80290374833460190083313222D
:103EA00002A90097A01D02F057F8040008D1F0887D
:103EB000002102F057F8044601211C2001F0FCFE0D
:103EC00001231C2229462C4801F06EFF047001F0EA
:103ED0007DFF0020FEBD70B50C4625490B80207883
:103EE000082814D8CA880831415C51188DB2822D37
:103EF0000BD0617800F063F8010009D16D1C617886
:103F0000A8B2A21C01F06CFE08E0822100E0812131
:103F1000194B17485B1CDA1CFFF76CFB002070BDC7
:103F200070B51D460C46088802F022F8104AFF289A
:103F30001071158009D0A178D08802F013F8022101
:103F40001C2001F0B9FE002070BD0B4B89219B1C89
:103F50009A1C0748FFF74EFBF5E710B5044A180A0C
:103F60001279904202D1088800F03EF8002010BD7E
:103F700036800020806800200170000010B51221FA
:103F8000244801F0DDFF24491C2001F0DFFF00215F
:103F90001C2001F091FE10BD30B503460120002128
:103FA00003241A46CA40D20704D04D006D1C224695
:103FB000AA401043491CC9B20929F2D330BD0246B8
:103FC0000020122901D98D207047062A06D0072A21
:103FD00007D0082AF8D10729F5D170470829F2D16E
:103FE00070470629EFD3704770B50A4C0546218803
:103FF00002231C22094801F0D7FE058001F0E6FEED
:10400000E088002101F0AEFF01211C2001F054FEE8
:1040100070BD00003680002094690020047000000C
:1040200038B50124684604700C214F4801F088FF20
:104030004D4D6946EC702A1D352001F0BDFF00286A
:1040400000D02C7100F02AFB4849322001F07EFF9D
:104050000021322001F030FE00F0DAF838BD10B552
:1040600000F0D4FB10BD10B541A0FEF759F83E4852
:1040700002238078322201020E31424801F094FE80
:10408000012101701321417001F0A0FE10BD10B597
:10409000044635482C2380783222010239480E31FB
:1040A000801E01F081FE014620300472002242721F
:1040B000084601F08BFE34490120087010BD10B590
:1040C000502332220D21314801F06EFE044600F0EB
:1040D00011FB204601F07AFE0221322001F0ECFDB6
:1040E00010BD10B52AA0FEF71BF828480123322284
:1040F0000D210B3801F058FE0221017001F066FE1F
:1041000010BD10B500F0A1FB10BD254B10B59A42B3
:1041100001D91A4602E0002A00D1012201F052FF23
:1041200010BDF8B5064615460F461EA0FDF7F8FF70
:104130001648252332220D21C01C01F035FE04460D
:10414000012020772046062239461D3001F07EFDF1
:104150002320065565822582204600F09BFB2046E1
:1041600001F034FEF8BD000048800020A469002062
:104170006170705F646973636F6E6E6563740A0D5E
:104180000000000004380000098000200E34000008
:104190006170705F6164765F73746F700A0D000008
:1041A000307500006170705F636F6E6E6563740AD6
:1041B0000D00000010B501F00BFF254901F00AFDCC
:1041C0002448081810BDF8B5234D0646A8760024EB
:1041D00001F0FEFE2919641CE4B20874082CF7D320
:1041E00000241027381BB04201DD002007E001F059
:1041F000EFFEC117090E0918090A0902401A2855CD
:10420000641CE4B2102CEDD301F0E2FE2883F8BD6B
:1042100010B52421104801F093FE00F045FA10BDBE
:1042200010B50E4802238078322201020E310C486C
:1042300001F0BAFD0D2101700749203189784170E4
:1042400001F0C4FD0321322001F036FD10BD000055
:10425000A0BB0D00A08601005480002048800020F3
:104260001A38000010B5084609781C460B0001F00A
:104270003BFD080520202008181B1E2000F019FB1C
:1042800017E04178012904D0002902D0022903D087
:104290000FE000F00FFB0CE01146204600F013FB8E
:1042A00007E000F008FB04E000F006FB01E000F08E
:1042B00004FB002010BD10B50878304C801E0300B0
:1042C00001F012FD020214188878A070C0070AD00D
:1042D0002B492A4A4879203AD07628480622891D57
:1042E000001F01F0B3FC00F0E9FA03E0FFF7BBFEAA
:1042F0000020A070002010BDF8B518460D460146FC
:104300001223204801F050FD0446284600F0D7FA59
:104310000027002821D0194EB078C0071DD03046A4
:104320000822A91C103801F099FD002815D130464B
:104330002038018B2A8891420FD101212170807E83
:104340006074314610222039601C01F07FFCB07887
:10435000FFF79DFE00F0B6FA00E02770204601F05E
:1043600035FD2078002801D1FFF77DFE0020F8BD43
:1043700010B500F0A6FA002010BD000074800020E7
:10438000488000201838000010B5104601F0A6FC47
:10439000002809D1012332220D214F4801F004FDEC
:1043A0000121017001F012FD002010BD70B50878E8
:1043B00015460F282DD008DC01280DD002282CD05E
:1043C00003281CD00E2830D11FE0102825D011283A
:1043D00023D0122829D123E04878002825D13E484F
:1043E000222332220D21801C01F0DEFC044601460E
:1043F000284600F02BFA204601F0E8FC15E048784A
:10440000002812D100F02DFA0FE0487800F037FABA
:104410000BE0487800F034FA07E000F036FA04E0E8
:104420004878442801D100F03FFA002070BD70B5F3
:104430001C4610460D4601F051FC022805D12749C3
:10444000200A8870284600F030F9002070BD70B551
:1044500015460C4622A0FDF763FE20780A2810D1ED
:10446000284601F03BFC04280BD16078002802D0DC
:1044700000F003FA05E00521284601F01DFC00F0DC
:10448000FDF9002070BD70B514460D4614A0FDF76F
:1044900047FE2946204600F0A4F9002070BD10B563
:1044A00010460C4601F01AFC012808D1207800289B
:1044B00005D1FFF7D4FD002801D000F0E2F900207B
:1044C00010BD10B50C460CA0FDF72AFE204600F0EA
:1044D000E6F9002010BD00000234000048800020F2
:1044E000676170635F636D705F6576745F68616E4E
:1044F000646C65720A0D00006761706D5F616476BF
:104500005F7265706F72745F696E645F68616E641C
:104510006C65720A0D000000F8B5FDF70CFF800510
:10452000800D01F045FB0022F74B01F0A9F9F74A95
:10453000F74B01F043FB01F069FAF64CE06001F043
:1045400051FAF54DF54E2A46334601F08AF90746F1
:10455000F34AF44B009101F093F90022F24B01F081
:104560002DFB01F021FAC0B22146607010310870B5
:10457000E178002900D1A0703846EC4AEC4B009954
:1045800001F02CFD35D2E06800274100090E00291A
:104590002FD001F027FA2A46334601F062F90022B3
:1045A000134601F01BFD00D8A770E2480078C00751
:1045B00018D00221002001F03BFFE06801F012FA60
:1045C0002A46334601F04DF9DB4ADC4B01F006FD8B
:1045D0000FD232221146DA48FFF797FD20790528DD
:1045E00005D006E00221002001F000FFE5E7D548F4
:1045F0000770D34832221146801EFFF786FD002047
:10460000F8BD10B5C3484179CD48401E002904D0FB
:1046100064223221FFF779FD02E0322101F06AFBCA
:10462000002010BD70B5BB4CC54D2079052811D0B8
:104630000021084601F0FCFE0121084601F0D6FEEB
:10464000322211462846FFF760FD2079401C207178
:10465000002070BD3221284601F04CFB01210846A4
:1046600001F0E6FE0025A5710121084601F0BEFE1D
:104670000A20FCF7F5FE0121084601F0D9FE1420BE
:10468000FCF7EEFEA079401CC0B2A0719628EBD3D7
:104690000021084601F0AAFE2571D9E710B500F007
:1046A00095FF00F09DFA10BD704710B5A64CA0789C
:1046B000FF281CD0A2483221401C01F01BFBA0485F
:1046C0003221C01E01F016FB92490020087005211E
:1046D000322001F0F1FA208800F086FF00F09EFA07
:1046E00000F0A6F999488078FFF7D1FC10BDFFF7DC
:1046F000E6FC10BDF0B50446914893B01422322177
:10470000C01EFFF702FD8E4832221146801EFFF7C1
:10471000FCFC8048012101700E202070002767708A
:104720009620A081E0810720207461741C20E07431
:10473000254622461F202035143228741646511E65
:104740000B2001F039FC002805D00A22E27480A178
:10475000304601F07BFA22463132511E0C20119274
:1047600001F02AFC002805D02F743A467BA111984D
:1047700001F06CFAE07C1A21081A45B2002D2EDDFA
:104780003E206946087001AA022001F015FC0028AD
:1047900006D00D226846027071A101A801F024FC28
:1047A0006846007800281AD0A84200D2054669461B
:1047B0000D70E07C6D1C8555E27C2046092115308A
:1047C0001154E17C401C081869460A7801A901F0DF
:1047D0003DFA69460878E27C801C1018E07413B03A
:1047E000F0BD10B5044662A0FDF79AFC204601F02A
:1047F00075FA032803D0052801D0042805D1022129
:10480000322001F059FAFFF75AFC10BD70B50024B0
:104810004049042008724C4DE878042812D201283F
:1048200007D0022802D0032808D105E000F0F4F8F0
:1048300004E000F0CCFE01E000F0E4F9E878401C70
:10484000E87000E00124204670BD70470320087026
:104850000A20487000204882087548751720C882D1
:10486000704710B50121322001F026FAFFF7F7FB5F
:10487000002801D0FFF723FC10BD70477047704738
:10488000704710B5FFF71BFC10BD10B53EA0FDF73B
:1048900047FC10BD10B544A0FDF742FC10BD10B59B
:1048A00048A0FDF73DFC10BD10B54DA0FDF738FC4C
:1048B00010BD7047704770477047704770470120C0
:1048C000704770477047704710B54CA0FDF728FC43
:1048D000322001F003FA10BD10B50E48C17900294D
:1048E00001D0002100E00121C17101781448C01EEF
:1048F000002904D014223221FFF707FC02E0322104
:1049000001F0F8F9002010BD00F88F40CDCCCCCCE0
:10491000CCCC0C40D0910020F6285C8FC2F5004032
:1049200050B81E85EB51D83F000059407B14AE476C
:10493000E17AA43F80910020A4703D0AD7A3C0BFB4
:1049400004C80000B46A0020488000207480002061
:104950000903031802180418F5FE000002FF000006
:10496000444131343538302054454D504C0000001E
:104970006170705F646973636F6E6E6563745F66A8
:10498000756E630A0D0000006170705F7363616E85
:104990006E696E675F636F6D706C657465645F668A
:1049A000756E630A0D0000006761706D5F7374615E
:1049B00072745F636F6E6E656374696F6E5F636D53
:1049C000640A0D006170705F6164765F7265706F7C
:1049D00072745F696E645F66756E630A0D00000035
:1049E0006170705F636F6E6E6563745F6661696C42
:1049F00065645F66756E630A0D0000006170705F2C
:104A00006578745F73746174735F7265706F7274CC
:104A10005F73656E640A0D0010B5022332223721E0
:104A20000B4801F0C1F90021018001F0CFF910BD60
:104A300010B5372104233222880201F0B5F9322162
:104A4000018004490988418001F0C0F910BD0000CF
:104A500005DC00004880002010B510460C4601F02F
:104A60003DF9012809D1322201231146900201F0BB
:104A70009BF92178017001F0A9F9002010BD000018
:104A800010B510460C4601F029F9012809D132224F
:104A900001231146900201F087F92178017001F09D
:104AA00095F9002010BD70B54A4C0D4620781428A9
:104AB0003DD2A97800293CD0E168002933D0C00656
:104AC00018D4207CEA78811850292ED84249401801
:104AD000291D01F0BBF8207CE9784018C0B2207491
:104AE000E168814201D100F034FA207C18E000F046
:104AF000A7F81EE0EA786069FF2381180133994224
:104B000013D836494018291D01F0A0F8E9786069EA
:104B100040186061E168814201D100F0D8FB606912
:104B2000E168884205D90520E1E70720DFE7082092
:104B3000DDE7002070BD08B58878002806D04868F9
:104B4000694600F0BEF8009800F021F9002008BD89
:104B500010B5887800280ED01E4A496891601078F8
:104B600002280AD0032808D0122804D0132802D023
:104B7000082000F065F8002010BD526800061043C0
:104B800001F038FA00F003F9F5E770B588780D46C2
:104B900000281DD0A888002805D00E4C2178CA0610
:104BA00003D4820701D005200EE0142910D2C906D3
:104BB00005D4502807D800F01FF8A88807E0FF2187
:104BC0000131884203D9072000F03AF800E0E060A4
:104BD000002070BD7C8000204C6B00209C6B00206E
:104BE000FD480021017441618161C160FB4A017788
:104BF0001165142101707047F7480021017441616B
:104C0000C160704710B5012332223621F44801F00B
:104C1000CBF80021017001F0D9F810BD10B5362194
:104C200010233222880201F0BFF8EE490988018082
:104C30000121817000214160816001F0C7F810BD41
:104C400010B50446E84804230288E5483621401E92
:104C500001F0AAF8E34909880180847001F0B6F8F0
:104C600010BD10B5DC4C2078032801D1FDF7DCFB2A
:104C70001420207010BD08B5AA2069460870D648D7
:104C8000017813290AD141680122891C6846FDF781
:104C90008EFD40B2012801D0062008BD022008BDCB
:104CA00010B5CD4C2078C00601D4012000E01020C2
:104CB000FFF7C6FF002020746061A061E0602077EC
:104CC00010BDF8B50F460021060EC34C35463960BD
:104CD000142E17D2257080B26060002D01D0012DF6
:104CE00007D1C249280608436160002101F082F91A
:104CF00038602078122801D0132803D16068022878
:104D00000BD86074112E26D00EDC022E20D006DCCB
:104D1000002E1DD0012E13D11AE0112022E0032E07
:104D200016D0102E0CD116E0FD2E2CD004DC122E45
:104D30000ED0132E04D10BE0FE2E16D0FF2E0CD079
:104D40000820FFF77DFF1420207000203860F8BD98
:104D5000FFF7A6FFF8BD082004E0FFF782FFFFF78A
:104D60004BFF0320FFF76CFFF8BD207F002801D028
:104D7000042001E0FFF77FFFFFF762FFFFF771FFFD
:104D8000FFF73AFFF8BD002001F03AF9F8BD10B581
:104D9000044695480423028891483621801E01F07C
:104DA00003F8046001F012F810BDFEB506460020BD
:104DB000012424040090019003460246014602901B
:104DC00025123046FDF7DAFAFDF7B4FC884980B2C7
:104DD000401802D0012805D102E00124640401E05A
:104DE0000124A40429462046FDF75EFBFEBDF8B56C
:104DF000044679487F4E017A00270906090FA17100
:104E0000027AFF4313071B0FE37102891204120F8A
:104E1000227002891205120F627082681202120F4C
:104E2000A27082681203120FE2708268120F227160
:104E300080680001000F6071282041438A199900A1
:104E40005058002801D0384600E001205050A57984
:104E5000E279C11701F0DAF82A0101F0D7F8664AC1
:104E6000136855681843294310605160A0782821C1
:104E700048438219E07881005058002801D0384614
:104E800000E001205050A578E278C11701F0BEF88B
:104E90002A0101F0BBF8584D2A686B68104319438A
:104EA000286069602079282148438219607981004F
:104EB0005058002801D0384600E001205050267993
:104EC0006279C11701F0A2F8320101F09FF82A6857
:104ED0006B68104319432860696020782821484393
:104EE00044494118607880000A58002A00D10127FF
:104EF0000F50384626786278F91701F087F83201AA
:104F000001F084F82B686A681843114328606960CF
:104F1000012000900326360261782078082332466B
:104F200001F098F800250095E179A0790723324631
:104F300001F090F80095E178A0780623324601F060
:104F400089F80095617920790523002201F082F823
:104F5000F8BDFEB5204C02252078EE01002805D0D2
:104F6000012803D0032828D0082566E01F4F00063B
:104F70003843002101F03EF88004217C000C0A181F
:104F8000B24227D8301A154A401A121F891880B227
:104F90005432101805E00A68091F04C0227C121F51
:104FA0002274227C002AF6D12078002100063843A2
:104FB00001F020F8FFF7EBFE3BE0032061680006FC
:104FC0000843A16801F016F88004070C207CC01982
:104FD000B04213D9072530E07C8000204C6B0020C4
:104FE00008D80000488000202C800020986C002009
:104FF000F010FFFF78900020709000206846FFF7C7
:10500000F6FE6846FFF7D1FE6068227CC119FE48B3
:10501000FDF7CDFB217C814200D006252078616818
:1050200000060843A16800F0E5FFFFF7B0FE022D7F
:1050300003D1FFF716FEFFF7DFFD2846FFF700FE5E
:10504000FEBD70B502460020160BC04336030C0BA4
:10505000090500D0641C002C01D000250BE00124C0
:10506000002520213046FDF73CFB0121090376187D
:10507000002802D16D1CA542F3D370BD0021FF288A
:1050800002D0401CC0B2704708467047FF2802D0CB
:10509000FF2905D006E0FF2908D0002906D001E04D
:1050A000002801D0884201D90220704701207047B2
:1050B00010B5D64C034600202478C043132C02D1EF
:1050C0001846FDF7B6FA10BDF7B598B000271A9844
:1050D0000C463E46402805D32078702802D16078DF
:1050E000512802D012201BB0F0BD6568C749284680
:1050F00040300862EF210C2209026846FFF7D8FF12
:105100000C2847D168460078702803D1684640785B
:10511000522801D01420E6E70198119002981290CD
:10512000002D03D01199401AA84201D21320DAE7CA
:10513000684640221090FFF7BBFF40282AD16846FE
:10514000C07814906846817803A8169020460C30E9
:105150001590AA2907D168460078702803D16846BF
:105160004078512803D00127002014900BE0102232
:105170001699159800F072FE002804D1E06907998D
:10518000884200D10227402212991098FFF790FF21
:10519000402801D01620A6E76846C07813906846DC
:1051A0008078AA2807D168460078702803D168461D
:1051B0004078512803D00126002013900BE01022E4
:1051C0001699159800F04AFE002804D1E069079965
:1051D000884200D102261898002801D0022807D959
:1051E000012F11D0012E1CD013991498FFF74EFFF8
:1051F0001590FF224021684600F00EFF1598022806
:1052000015D0022F24D004E0FF224021684600F090
:1052100003FF7E4911984860002E1BD0022E19D042
:105220000EE0FF224021684600F0F6FE01E0022E6B
:105230000ED0764912984860002F07D0022F05D073
:105240000126724F3878132809D00FE0149802E035
:10525000152048E71398FFF711FF0646F1E74035A0
:10526000A9B27868FFF7EDFE00282CD16846C67019
:1052700060680190A0680290E16863692269A06992
:1052800003AD0EC50690E06907902178684601706D
:10529000617841702020015D08A8017038781328DA
:1052A00013D11A9A7968403A204640311546403069
:1052B000FDF77DFAA84206D1402279681098FDF7E3
:1052C00076FA402801D006200DE700200BE77CB5D8
:1052D0004E4C4D4A022600205032616904E0237F83
:1052E000155C6B402377401C8142F8D82078132846
:1052F00004D00826F0B2FFF7A3FC7CBD6846FFF798
:1053000076FD6846FFF751FD6269002A02D0A06968
:10531000002818D0A169206A8A18431C9A4220D814
:10532000824201D9401A60616068254641183648BA
:1053300062695030FDF73BFA6969814211D1A86971
:105340004018A8610EE03049607C5031FFF7BCFE88
:10535000002801D086B205E06269A1698918A161BF
:1053600000E0062600206061A069FFF710FDC1E79C
:1053700070B5274C274D2146284600F03BFE01041E
:10538000090C06D0204A83B250322146284600F04C
:1053900049FE70BDF8B504461C481F4F017A002530
:1053A0000906090FA170017AED430907090FE170A1
:1053B00001890904090F217002891205130F637016
:1053C0008068000C606028204143CA199900505839
:1053D000002801D0284600E001205050267862784D
:1053E000C11700F013FE320100F010FE0B4E3268C0
:1053F00073681043194330607160A07828214843D6
:10540000C119E07880000BE04C6B00207C8000200C
:10541000000306050028000378900020709000200B
:105420000A58002A00D101250D502846A778E278B5
:10543000E91700F0EBFD3A0100F0E8FD336872680F
:105440001843114330607160002500956178207821
:1054500009232A4600F0FEFD0095E178A0780A2392
:10546000002200F0F7FDF8BDFEB510460D4600F035
:1054700035FC01287ED12878002879D10E233222EC
:105480001C21434800F090FC0446002020700B27AC
:1054900067703A463FA1A01C00F0D8FB204600F000
:1054A00095FC0A2332221C21394800F07DFC044679
:1054B0000120207007206070024639A1A01C00F076
:1054C000C5FB204600F082FC0B2332221C21304811
:1054D00000F06AFC044606202070082666703246FA
:1054E00031A1A01C00F0B2FB204600F06FFC0E239F
:1054F00032221C21264800F057FC0446052020706B
:1055000067703A462BA1A01C00F0A0FB204600F0DB
:105510005DFC09270C2332221C211D4800F044FCAD
:1055200004460420207067703A4625A1A01C00F0B4
:105530008DFB204600F04AFC0A2332221C2114482D
:1055400000F032FC04460670072060700120A07055
:10555000D221684601800B21C901418071018180FF
:1055600006226946E01C00F071FB204600F02EFC8C
:10557000012300E008E032221146900200F014FC02
:105580002978017000F022FC0020FEBD0020704749
:10559000027000004469616C6F672053656D69009B
:1055A0004441313435383000123456FFFE9ABCDEA7
:1055B00000000000765F332E35302E312E3534005A
:1055C000765F332E302E362E30000000704710B537
:1055D0001C2102233222880200F0E6FBFF217431F5
:1055E000018000F0F3FB10BD10B504460423322205
:1055F0001C21054800F0D8FB0480012181700021A6
:10560000C17000F0E3FB10BD03700000024670B5EE
:105610004A40D30FDB0740002DD04A002AD0010EAC
:10562000140E091900021202400A520A8418E501F8
:1056300004465443000A120A2E045043A419421986
:10564000200CC543AA18120C01257F39521CAD034A
:1056500052191204240400D0521C104301D44000FB
:10566000491EC2B20C06C0092018401C4008802AFE
:1056700002D003E0002070BD40084000002900DA9D
:105680000020184370BD70B502464A40D50F400057
:105690004A00ED0740085208002814D0002A12D012
:1056A000C40DD30D41020120C0055202490A520A1D
:1056B000E41A091812187D34914201D3641C00E0E9
:1056C0004900002C01DA002070BD0023914201D373
:1056D000891A0343400849000028F7D100290AD05D
:1056E000914202D10121C90705E0914201D2012175
:1056F00001E00121C943E005C018401900F0B5F9E7
:1057000070BD420005D04200120E52428A4201DBB7
:1057100000207047C905081870470000F0B507461B
:105720000846584087B0C00F049048000E46590004
:1057300040084908BC1A884105D2384631461E4601
:1057400017460B46024658004008104303D138461E
:10575000314607B0F0BD300D039040055900400DB3
:10576000490D0590401A029040286DDA1803012176
:10577000000B09050843019004980092002805D009
:1057800001995242002088410092019002984021E4
:105790000A1A0199009800F039FC05460C46684643
:1057A00007C800F04FF9C0197141039A0E0D00238C
:1057B000D71756401A467A40164340D0049A002A1A
:1057C00029D0029A012A039A11DC1205C01A9141CC
:1057D00001263605001C7141D20F059ED2070093A9
:1057E000019202962A46234600F022FCB1E71605F4
:1057F000224A0F46B218C01AB74101210905001C00
:105800004F4100187F41114618187941E20F1043AB
:105810006D19644113E0E2076D0815436408C2077F
:105820001443039A01261205C01A91413605001C43
:105830007141CE07400830434908C01851412A46FB
:10584000234600F0FBFB84E7049801224000C117C7
:10585000121A00238B4104983146C417381AA1410B
:10586000EFE730B40124E407634030BC56E730B4BE
:105870000124E407614030BC50E700000000E0FF75
:10588000F0B50C465C4085B0E40FE40703944C008F
:1058900000266408590094464908024602962243AD
:1058A00021D062460A431ED06200570D4A000E0303
:1058B0002303550D012402462C492405781B1B0B9C
:1058C000360B401823432643614600901C46501A6D
:1058D000B44103D30098401C009002E09218009855
:1058E0005B41002803DA0020014605B0F0BD00202E
:1058F000012109050746864611E064461D46141B32
:10590000B54106D36546521BB341744607430C4369
:10591000A646CD0740084908284392185B41054632
:105920000D43EAD11046184313D060461946504043
:105930007140084303D100220123DB0709E06046E0
:10594000101AB34102D20122002302E00122D24305
:105950005310009874460105381C6141029C039D58
:105960000019694100F06AFBBFE70000FD03000079
:1059700010B500229623114600F07FF810BD4100BB
:1059800040020122400AD205090E80187F2901DA5F
:1059900000207047962903DC9622511AC8407047B0
:1059A00096398840704700004A0009030123090B1B
:1059B0001B051943094B10B5520D9A4201DA00201C
:1059C00010BD064B34339A4203DC9A1A00F03CFBBC
:1059D00010BD03495118884010BD0000FF030000AE
:1059E000CDFBFFFFC20FD207400040080BD0C10D16
:1059F0000723DB01C91840020905400A1143C20808
:105A0000400711437047002001467047CB0FDB076A
:105A1000490010B5490802460A4307D00A0D072479
:105A20000903E401090B121B002A01DC002010BD50
:105A3000C900440F0C43C100E018D205801800F0E3
:105A400014F810BD10B5202A06DBCB170846203A03
:105A50001041C1170B4306E00B461341D0402024F0
:105A6000A21A91400843194610BD002904DA401CCF
:105A7000490001D140084000704770B40024050C73
:105A800005D11024000402D1002922D01124050ED2
:105A900001D108340002050F01D1241D0001850F3A
:105AA00001D1A41C8000002801DB641C40000029F7
:105AB00008D020252E1B0D46F540A14000D0012125
:105AC000294308431B1B0106DB1D000A002B02DAD9
:105AD000002070BC7047DB05181880180029F8DA20
:105AE000401C4900F5D170BC4008400070470000E0
:105AF000064C0125064E05E02046E36807C82B4307
:105B000098471034B442F7D3FAF79EFC746A002029
:105B1000B46A002003B40148019001BD551B020086
:105B200003B40148019001BD0F3B030003B40148D9
:105B3000019001BDCF2B030003B40148019001BDCA
:105B4000CB2C030003B40148019001BD0990020071
:105B500003B40148019001BD1F21020003B40148B4
:105B6000019001BDC12D030003B40148019001BDA6
:105B70000921030003B40148019001BDC92D0300B0
:105B800003B40148019001BD2B69020003B4014830
:105B9000019001BDEB31030003B40148019001BD48
:105BA0003D32030003B40148019001BDD721030039
:105BB00003B40148019001BD893C030003B40148CE
:105BC000019001BD913B030003B40148019001BD68
:105BD000A73A030003B40148019001BDD33A030082
:105BE00003B40148019001BD6D9B020003B401485C
