:020000042000DA
:1000000000980020A9040020B1040020C9040020A9
:1000100000000000000000000000000000000000E0
:10002000000000000000000000000000E1040020CB
:100030000000000000000000F9040020FB04002084
:10004000FB330020053103000D3103008134002013
:100050008D3400208D310300E3340020EB34002088
:10006000CF210020FD04002003350020AD31030026
:1000700023210020FD0400204B1B02004B1B02002B
:100080004B1B0200FD0400204B1B02001920002026
:100090001D200020392000203D200020412000208C
:020000042000DA
:10016000320000006F080020371E00201F360020DC
:10017000000000000000000063800200BD8002005B
:10018000811C0020FB8002001981020035810200E1
:100190005D810200CD330020FF050020511C0020AE
:1001A000691C002000000000000000003F0000006B
:1001B000F48B002000040000740B080048010000CC
:1001C0006807080000040000C80C080020050000B3
:1001D000000000002000000048000000580000005F
:1001E0006800000004010000160100002801000062
:1001F0002E010000202A00008E2E000001000000C9
:1002000088130000C11E0020E9600200FD93020077
:100210008729002019280300A5740200D52F00208B
:1002200003000000D52002002F360020040000004B
:10023000D74902000F490200831D020063910200AA
:10024000B7910200BF910200078202007182020092
:10025000BC650020AD83020093840200418502004A
:1002600015860200378602005F860200758602004E
:10027000F9870200258902005D8A0200D38C020002
:10028000098D02000F900200438D0200278E0200AC
:10029000F98E0200478F0200C31B0020D58F020099
:1002A00049510200775102002F5202001000000055
:1002B00020030000803E000000000000000000005D
:020000042000DA
:1002C000504600030003983A6400F401B80B000C98
:1002D000B80B120030003000CD009A01120024004B
:1002E00030006400B0001800280012001200D0078F
:1002F0000000FFFF00000000000000000000000000
:100300001F000002444131343538302D30310000B7
:1003100000000000000000000000000000000000DD
:0403200000000000D9
:020000042000DA
:10034000FFFF010000C201000000000000000000EB
:100350000000F4010100011B0A071AFFD200021578
:10036000585CDE931B0142CC9A1325009BEDC65EC0
:1003700000000000C5000000000009FF00605257A7
:100380002D424C450000000000000000000000006D
:100390000000000000000000000044413134353806
:1003A000330000000000000000000000000000001A
:1003B000000000000000000000000000000000003D
:1003C000000000000000000000000000000000002D
:1003D0000000000000000000000000000000D00746
:0403E000064064323D
:020000042000DA
:100440000348854605F020FB00480047C72002000E
:100450000098002010B5114906200880FF2010499F
:10046000013008600F4988683E2290432E30886032
:100470000021052000070180028A0F231B021A4376
:1004800002820122D204032308461B038418216040
:10049000001D9842FADB62B610BD00000034005027
:1004A00080E100E0003300501548804715480047C0
:1004B00004207146084203D0EFF30980124908472F
:1004C000EFF308801049084704207146084203D022
:1004D000EFF309800D490847EFF308800B490847FF
:1004E00004207146084203D0EFF309800849084709
:1004F000EFF3088006490847FEE7FEE7FEE7000045
:100500005504002041040020691300201505002037
:100510008705002005221207518A80231943518242
:10052000114903680B6043684B6083688B60C36844
:10053000CB6003690B6143694B6183698B61C0695F
:10054000C8610A48836A0B62C36A4B62036B8B62A1
:10055000C36BCB62436B0B63806B4863908A8006EE
:1005600001D500BE7047FEE70018080000ED00E06E
:1005700002890889FF49101A80B2884201D90120F6
:1005800070470020704781692039897F082904D28B
:10059000F94A8900515881617047FEE7F848F749E8
:1005A0000161F8494161F8498161F849C161F8493F
:1005B0000162F8494162F8498162F849C162F8492B
:1005C0000163F8494163F8498163F849C163F64919
:1005D000EB485C3140300160F5494160F54981608C
:1005E000F549C1600120F549C0060860F449CA69AF
:1005F0001202120ACA61F14980390860704710B5C9
:10060000F0490020086001F0C7FA01208007016B63
:1006100049004908016310BD10B50221084605F0E4
:1006200041FE00220123E84900280BD0CA70C88A85
:10063000E64CA0420DD2C88A00280AD0C87800280B
:1006400005D006E0C88A401CC882CB70EFE78B72E9
:10065000CA82C88ADE4CA04201D9CB72CA82C87B4A
:10066000052801D98B73CA7310BDF8B50026FFF7B2
:10067000D3FFD54F0024B87A0125012848D1D548A9
:10068000BC724178002943D102210171002005F09C
:1006900079FE0021084605F097FE022000F0CCFE0E
:1006A0000021012005F06EFEC948C83800F0CDFEDB
:1006B0000021012005F088FE0021012005F062FEE6
:1006C000142000F0B9FE0021012005F07DFE142069
:1006D00000F0B2FE761CF6B2642EEDD3002108467F
:1006E00005F050FE01F0FFF8BB48BE490480BB484E
:1006F0000580BB4804800320C870B6484570B248E6
:100700003C731830048044800221002005F05CFE18
:10071000AD48C07A012859D1AB4EAE4FF47278780B
:1007200001287CD030468474AF4802210480002028
:1007300005F028FE0021084605F046FE022000F0E4
:100740007BFE0021012005F01DFEA148C83800F005
:100750007CFE0021012005F037FE0026002101204B
:1007600005F010FE142000F067FE0021012005F0C6
:100770002BFE142000F060FE761CF6B2642EEDD342
:100780000021084605F0FEFD01F0ADF819204001FA
:1007900000F052FEFF20913000F04EFE01F0A3F871
:1007A000022038718C4804808D4804808F48048072
:1007B000BB20B8717D7084480473057282480221A1
:1007C000183004804480002005F0FEFD7E4EB07B92
:1007D000012822D1B47301F086F823242401204695
:1007E00000F02AFE01F07FF8204600F025FE01F01F
:1007F0007AF801F0C9F83574204600F01DFE022198
:10080000002005F0BFFD734D00240C35285D01F07C
:1008100047FC641CE4B2052CF8D3F8BDFFE70221C5
:10082000002005F0AFFD01F05EF84B20000100F064
:1008300003FE01F058F8F07B401CF0736A48048016
:100840006A480480B474BB20B8713572B6E710B53D
:100850005D4C85B0032100206B461C34625C5A5409
:10086000491C5040C9B21329F8D905B010BD94B045
:1008700000200D900E905E48012505705D4808240B
:100880000F27048005F012F905F0E4FD00F0E4FF05
:100890000221002005F076FD4B4805700078012804
:1008A00002D1032105F06EFD01F023FF0B0E6A4615
:1008B00013700A020C93130E6A4653700A040B93CA
:1008C000130E6A4693701293CBB2D3700A930B0245
:1008D000020E1A43D3B26A46137109930B04020C39
:1008E0001A43D3B26A4653710A06010A1143C9B2C8
:1008F0006A46109391711191C0B2D0710F2101908D
:10090000062209033C4801F05AFE00260322334622
:10091000120231463046009605F068FB37490868F8
:10092000002801D0701E00E00120354A08601368DD
:10093000C117556818432943106051600A2000F020
:100940007BFD0021084605F03FFD0021012005F058
:1009500019FD1F48C83800F078FD0021012005F07E
:1009600033FD0021084605F00DFD00F0BCFF0C2012
:1009700048E00000307500009C65002094270300CB
:100980000084004062B600DF28A30200704701DF48
:100990001CCA0200F8BD02DF40CB0200F5E703DF0E
:1009A00084D4020004DF89B0BC330200F8BD05DF47
:1009B000F8BD06DFEC0C030070BD07DF80E100E04E
:1009C00000ED00E08C03080020900020B80B000030
:1009D000AC0D00004C6A00207E9100208491002024
:1009E000809100208C910020829100206C9000204A
:1009F0000A80002000330050D803002078900020A7
:100A00007090002000F018FD00F06DFF0C2000F049
:100A100013FD00F068FF0C2000F00EFD00F063FFF6
:100A200000F0A5FF0221002005F0CEFCFE480221C7
:100A30000171FE4801780170FD48017801700120C4
:100A400005F03AF8FF2501350D202946800105F013
:100A500039F802F0D1FB01F057F900F0EDFF042066
:100A600000F0C5FB072000F0C2FB0A2000F0BFFB2E
:100A7000062000F0BCFB0B2000F0B9FB012000F0C9
:100A8000B6FB022000F0B3FB002000F0B0FBE94809
:100A9000006805F01DF8A80501682943016000F011
:100AA000DBFBE5480068AA2805D1142001F032F8E4
:100AB000142001F03DF803F079FAFFF7A0FDA22021
:100AC00005252D07E882DD484188E0229143A031C9
:100AD0004180012005F002F805F006F8022803D055
:100AE00005F002F8012808D1D5480480A88A8006BC
:100AF000FCD4688A802188436882052424072089E1
:100B000000061FD5A000006B00041BD404F0F2FF08
:100B1000C00717D1042004F0F3FF054604F0F6FFE8
:100B2000002D0FD0C44800960068AA2802D11420D6
:100B300000F0FEFF0421684604F0EEFF002801D01B
:100B400001F04DF872B602F07FFB69460877042881
:100B500006D002280AD0032808D001286BD06BE009
:100B6000B848007801280DD003200877208A042592
:100B700028432082B448C0690128087F17D9032878
:100B800002D010E00220F0E704F0CCFF00280AD0E9
:100B900004F0CEFF002806D0032004F0CFFF002889
:100BA00001D002210AE002206946087708E0032804
:100BB000F9D104F0C3FF0028F5D00121A34801704A
:100BC000A348016929430161608A2021884360822A
:100BD000218A0220014321826846007F0228608A20
:100BE00022D0284360827F222088920180210843FE
:100BF00020800020401CC0B20A28FBD3608A10234A
:100C0000184360829348521E4261208888432080A6
:100C10008A484188FF2201329143418030BF8C488D
:100C20000169A943016107E028436082608A1021BD
:100C300088436082ECE730BF62B67B4D287800289D
:100C400009D10321012005F0BFFB0221002005F09E
:100C5000BBFB81480670FFF708FD00F0A2FE0521EE
:100C6000022005F01FFB002803D07B49012088707B
:100C70002870794CA07801280AD17848008801288A
:100C800003D077480088072812D2A67075480680DE
:100C90007348008807280BD2724801883C2907D185
:100CA000A17C002904D1A178012901D006802E70F1
:100CB000A078012802D1687801280CD0102F63D9C0
:100CC000694800880D285FD30E285DD867480078F2
:100CD000C00747D058E00120A87063480680A07C78
:100CE000EE280FD15E48008806280BD960480E21F7
:100CF000008804F029FF002904D100F0F4FD5C49CC
:100D000001200880594814210088009004F01CFF3D
:100D1000002910D1DD20A074AA20A871E8790D90D7
:100D20004B2100984901884200D92E70607B002831
:100D300001D10120E071E079012812D1607B002807
:100D40000FD14C490098884201D200F0CCFD062119
:100D5000E87904F0F9FE42490A8880180880AA2040
:100D600068719FE03E48008806280DD300F0BBFD67
:100D70004B20C00000F060FB00F0B5FD3320A074F4
:100D8000AA2068713C48068037480088B8427BD367
:100D900033480088062877D9207B002803D13749BB
:100DA0001820C870AE70A878002807D132221146EA
:100DB000334803F070F90120A870207326481830DA
:100DC0000188002902D11421018041802248183075
:100DD00041880088421F914205D0921F914202D063
:100DE0001138814201D100F0A0FD1B481830018864
:100DF0001D480088401A142104F0ACFE002902D0DE
:100E00002879002844D0A07A012841D01B4903202A
:100E1000C8705520A074AA20A87100200D90012050
:100E2000E0711848067030E04C6A002000000800AD
:100E3000202A080004900020148000202000005088
:100E40000033005054020800E0010020C4060800EE
:100E500000ED00E000800040209000206A9000201B
:100E60006C900020829100207E91002084910020CF
:100E70007C91002056090000809100208C91002078
:100E800004C800005C9000200CE02879401E287106
:100E90006878002806D1D948D9490088C01B884203
:100EA00000DD2E70D748018801297DD10680D64803
:100EB000267400883C2807D80221002005F062FA39
:100EC0004B20C00000F0B8FAA879BB2806D1CE4864
:100ED0000088032802D80120607000E06670607806
:100EE000002801D1AA20A871C848C4490680012061
:100EF0000880C748C749068011200870C6480521E8
:100F00000670022005F0CEF900280DD0BE480088FA
:100F1000062801D9EE20A074C0480188FF20D730F0
:100F2000814203D2FF2005E0A674F5E7BC4804F037
:100F30000BFE80B20E99C0B2491CC9B202AA0E9132
:100F400050546946887308906079012800D1A071D7
:100F50000E98052803D100200E9001206071607961
:100F600001280846497A807A36D009186846C27A3C
:100F7000007B101809186846407B08180E9904F089
:100F8000E3FD0D906846417A807A09186846C27A76
:100F9000007B101809186846407B09180898081A41
:100FA000C117890F081800E06EE08005000EE87197
:100FB0000D99002923D0FF2921D80A46617A521AB7
:100FC000052A03DA0D9A891A052910DB01212171FE
:100FD000944A1821117112E009186846C27A007B00
:100FE000101809186846407B08180521C7E78D4985
:100FF0000A79052A03D20122227118220A710146B8
:101000000B39BD2913D88049098806290FD904F066
:10101000A7FD02460B460020834904F0FDFB002299
:10102000824B04F0A3FD04F08BFCC7B20CE00A284D
:1010300007D8002808D074490988062901D9B4279F
:1010400002E0C82800D90727A6706F480188052943
:1010500001D201222271022907D2E978012904D1A3
:101060000680EE70267100200E902079012807D1AD
:1010700026710D986072607B00280CD05520687135
:101080000221002005F0A0F9A07C332805D060786B
:10109000012802D008E0AA20F1E765480188152957
:1010A00002D1AA21697106805E48C078022802D167
:1010B000607B002806D06879AA2805D0207A01280C
:1010C00002D085E0AA206871207C01287DD000F044
:1010D0005BFC1920400100F0AFF94C480088B84291
:1010E00006D3002002A90E54401CC0B20528FAD332
:1010F000454800883C2803D90221002005F042F928
:101100004D4D4C4AA868110A02704170A97981704E
:10111000A28AC270120A02713B4A142112884271DB
:10112000120A8271C1714549097801720D994172A3
:10113000A17C81720C99C1720B9901731299417350
:101140000A9981730999C1731099017411994174B5
:1011500001998174FFF77BFBA968C8743C2000F0FB
:101160006BF900253648405D00F09AFF6D1CEDB22A
:10117000142DF7D301252B486574062141713148A0
:10118000007801280FD130482D4A40891421801D54
:1011900080B204F0F1FC2C4800214089801D82B20D
:1011A000294802F006FAA08A2849401C80B2A08291
:1011B000884200D9A582E671022060731E4855213D
:1011C000417126720221002000E001E005F0FCF8E8
:1011D000607C012800D090E4207C0128FBD01148DD
:1011E00040790528F7D200F0C2FB667485E4C10699
:1011F000C90E01208840164908607047849100207C
:10120000650900006A9000206C9000207E9100200B
:10121000829100205D6A00205C9000206890002090
:10122000C0D401008C91002000004E4000003E40E0
:10123000809100201B0300004C6A0020D291002006
:101240003C90002009800020A8910020FEFF0000B3
:1012500080E200E0704700003E480178002902D09B
:101260008021417070473C49002008703B49C8709C
:10127000704738480178002902D0812141707047B9
:101280003549012008703549C870704731480178E8
:10129000002902D08221417070472F490220087036
:1012A0002E490120C87070472A488178002904D04F
:1012B000491E0906090E817017D142780021002AC3
:1012C00004D09207920F0270417004E00278002A65
:1012D00001D0521E02701206120E017005D0012AB2
:1012E00002D0022A01D1D1E7C3E7704710B5194CEB
:1012F000A078401CA0702078002805D104F0F4FBF1
:10130000421CFFF7A9FF227010BD12490120C870CE
:10131000704710490020C87070470E48C078704769
:101320000020EFF31081012282F3108805221207BA
:101330001289120605D40A48028901231A43028140
:101340001846002900D0012181F310887047054814
:10135000007870470B80002054020800C606080081
:10136000003300502A80002005221207118A04232E
:1013700019431182118A02231943118211894023D2
:1013800019431181174B01211960174B082119804E
:10139000518A802319435182144903680B614368C1
:1013A0004B6183688B61C368CB6103690B624369DE
:1013B0004B6283698B62C069C8620D48836A0B63A4
:1013C000C36A4B63036B8B63C36BCB63436B07498C
:1013D00040310B60806B4860908A800601D500BE6A
:1013E0007047FEE780E200E000330050401808003C
:1013F00000ED00E010B5012005F092F8032005F0A3
:1014000083F800221146012000F0B2FE2A220121B9
:10141000002000F01DFF142005F0AEF8002005F0BC
:10142000B1F800221146642000F0C1FE00F0C4FEB5
:1014300005F082F810BD70475021484380B2014644
:10144000401E80B20029FAD1704700227D23DB00C4
:1014500006E00021491C89B29942FBD3521C92B28A
:101460008242F6D3704770B5F64900208A68C043BF
:10147000002A01D0024600E00122D317940F9B00FE
:10148000234394008A60F04A156856682C4333431E
:10149000146053608B6D002B01D0034600E00123E4
:1014A0008B6514689B00556814602B435360CB6DAB
:1014B000002B01D0034600E00123CB651468DB005C
:1014C000556814602B4353600B6E002B01D003460C
:1014D00000E001230B6614681B01556814602B4360
:1014E00053600B68002B01D0034600E001230B6022
:1014F0001568DC1756682B433443136054608B69BE
:10150000002B01D0044600E00124E317A50E9B0147
:101510002B438C611568A40156682C433343146037
:101520005360CB68002B01D0044600E00124E31790
:10153000650FDB002B43CC601568E40056682C4334
:101540003343146053604B69002B01D0044600E024
:101550000124E317E50E5B012B434C611568640120
:1015600056682C433343146053604B68002B01D002
:10157000044600E001244C60E317241915685B4120
:1015800056682C43334314605360CB69002B01D061
:10159000044600E00124E317650EDB012B43CC6118
:1015A0001568E40156682C433343146053600B6B99
:1015B000002B01D0044600E00124E317A50B9B0497
:1015C0002B430C631568A40456682C433343146002
:1015D00053600B69002B01D0044600E00124E3179F
:1015E000250F1B012B430C611568240156682C4301
:1015F0003343146053608B6A002B01D0044600E033
:101600000124E317250C1B042B438C62156824046A
:1016100056682C43334314605360CB6A002B01D0CF
:10162000044600E00124E317E50B5B042B43CC6286
:101630001568640456682C433343146053604B6B45
:10164000002B01D0044600E00124E317650BDB0406
:101650002B434C631568E40456682C4333431460F1
:1016600053604B6D002B01D0034600E001234B6516
:1016700014685B00556814602B4353604B6E002B5D
:1016800001D0034600E001234B6614685B015568F6
:1016900014602B4353608B6E002B01D0034600E097
:1016A00001238B6614689B01556814602B435360BB
:1016B0000B6F002B01D0034600E001230B67146879
:1016C0001B02556814602B4353604B6F002B00D1F5
:1016D0000120486711684002536811601843506048
:1016E00070BDF8B5032601250023360232460221DB
:1016F0001846009504F07AFC002402212346224675
:101700000846009404F072FC002107233246084684
:10171000009404F06BFC0623324619460020009426
:1017200004F064FC0823324603210020009504F0F5
:101730005DFC0523002219461046009504F056FC76
:101740000223324603211846009404F04FFC012383
:10175000002204210220009404F048FC00233246B9
:1017600004211846009504F041FC00220F230121BA
:101770001046009404F03AFC17233246072100205B
:10178000009504F033FC002332460221012000952D
:1017900004F02CFC0023324619460120009404F08A
:1017A00025FC0121002332460846009404F01EFC6B
:1017B0000023324603210120009404F017FC00238B
:1017C0001A4601210220009404F010FC00231A465E
:1017D00005210220009404F009FC00233246062172
:1017E0000220009404F002FC00233246082102206B
:1017F000009504F0FBFB00233246092102200095EE
:1018000004F0F4FBF8BD38B510A00068104C00904F
:1018100060896A46801D80B2032104F0ADF96089B9
:101820000021801D82B2204601F0C3FE0021082263
:10183000084601F0FCFE01223221064802F02BFC92
:1018400038BD70477890002070900020A1A2A300BE
:10185000A8910020033800003EB505242407208A03
:10186000022188432082A08A0007FCD5FEF796FE5D
:10187000FFF737FF00F0ECFBFFF7BCFD0120002174
:10188000C00200F003FD012000F00DFD1421012035
:101890000A460191009001460023022004F0D0FB8B
:1018A0005D490320487000200870009001900346B5
:1018B000024601460290584800F026FD00F0F3FD74
:1018C0005549091F4870401C04D1FF21013108020D
:1018D00000F0B0FD00F00AFD00F00FFD608A20214D
:1018E000084360823EBD10B500240621022004F0AA
:1018F00049FD0520FFF7A0FD0621022004F064FD4C
:101900000520FFF799FD641CC82CEEDB10BD0346D3
:1019100010B50020024602E09C5C2018521C8A424E
:10192000FADB04F017F9C0B210BD10B53B4C2078BB
:10193000222805D0442803D0662801D0882801D168
:10194000FFF7D1FF36488178002906D12178882910
:1019500004D0052282701131217010BD6421817084
:10196000112020702C490120091F087010BD10B5EE
:101970000821022004F028FD2420FFF75DFD082146
:10198000022004F0FFFC10BD10B50921022004F074
:101990001BFD2420FFF750FD0921022004F0F2FC7A
:1019A00010BD70B51F480178012934D1002505709C
:1019B0001D491948CA78801ED12A02D0DA2A28D1B6
:1019C00012E01949154E20310A7A0270497A761CC4
:1019D0004170327171710024305D00F061FB641C54
:1019E000E4B2092CF8D314E0097A002911D10B4E86
:1019F00001780A363171407870710024305D00F052
:101A00004FFB641CE4B2092CF8D37D20C000FFF723
:101A10001CFD0648057070BD609000205D6A0020C6
:101A20008C9100202C9100202E9100202D910020DF
:101A3000A54900204860704770B50521090708894D
:101A40003022904308810889802210430881088948
:101A500080088000401C08810889082318430881F9
:101A60009A480488144304804C8A9C434C820D8914
:101A7000402425430D810D8A0426B5430D828D8AAD
:101A8000AD07FCD5904E00257560058801263543CD
:101A900005804589AE058E4D068801D52E4300E0B0
:101AA000AE43068005887826B5432835058005882D
:101AB0000626354305804D8A1D434D820388934396
:101AC00003800A89A2430A814089800503D57F49A2
:101AD00005206031888001208007016882159143CC
:101AE00001607C4801683F225202914342148918E8
:101AF0000160016802031143016070BD0321764853
:101B000009028181082242800021491C9629FCD3C8
:101B100082807047714948800888032210430880FA
:101B20000888042210430880674901200870704724
:101B30007CB5654C217800292DD068490A88520768
:101B4000FCD4CA880092898801911104019A8918ED
:101B5000009163494843009903F0F6FF009000208C
:101B600020700098A060009803F0CEFE054629463C
:101B70005C4803F054FD0A2103F08FFD03F0CBFE17
:101B8000E060284603F0FAFE574A584B03F0EEFF98
:101B900003F008FF20617CBD10B54B484168AA29BD
:101BA00006D07C205249081880B203F0EBFF10BD2C
:101BB000C06819210903884200D900BEFF20EB301C
:101BC000F0E770B5414C6088C006050F03F0E0FFF8
:101BD00061881E2291436A001143618070BD10B577
:101BE00044490120C863C86B0028FCD1012080074C
:101BF000C16941480268914201D200220260192362
:101C00008A1ADB019A4212D3016003F0C7FF3B4AF4
:101C10001188884201D9411A00E0091A89B21829AD
:101C200005D31080012003F0BFFF03F0C3FF10BDF8
:101C300008B5254989684843314903F085FF00907C
:101C400008BD08B52049C9684843800A009008BD0E
:101C500008B51D494968002903D0FFF7E9FF009046
:101C600008BD03F0ADFFFAE708B517494968002938
:101C700003D0FFF7E6FF009008BD03F0A7FFFAE7E7
:101C800008B5204901204A695206D20F13D04A698B
:101C90009206D20F0FD000220A610092FF225F321B
:101CA000009B5B1C00939342FAD34969C907C90F93
:101CB00002D003F091FF002008BD40183721C0007A
:101CC00009014018704700001080002020000050DB
:101CD00000100000000200402030005000160050AC
:101CE0000024F400002474497B14AE47E17A443F99
:101CF00001120000C00000407C04080078040800C5
:101D000040420F000010005030B58D4A8D49D0057B
:101D1000048880231C4304808B4C65892D0701D4E3
:101D2000521EFAD2894C01222260894C0A882280F4
:101D3000884A4988118001889943018030BD00207C
:101D4000704770477047704700207047012189072E
:101D5000086B0722104308637047704710B57F492E
:101D60007D4808607E494C2008807D4B7D4A203BA1
:101D70001A827E497C4848807E487D4901807C49A2
:101D800019314180222141818121890001827A49D2
:101D900041827A49018378491131418375497848F4
:101DA0002031888041217748090181807649C180AE
:101DB000754C1034C48101824182891C8182611F6B
:101DC000C182FF2146310183704941837049592006
:101DD00008806F486F4C20300480432444806E4C50
:101DE0004C82D5218180FF21D33101816B49418112
:101DF0006B4981816C496B48088059486B49603850
:101E00004180C18810242143C18062490A3901817F
:101E1000534C6749403C61805A82082141814D48BA
:101E20005B49008840390882494862490088088037
:101E300010BD4008704700B58BB05F4A42625F4AF0
:101E400082625F4A42615F4AC2625F4A02605F4AE1
:101E500002625F4A42605F4AC261404A3E480021D6
:101E600010603E484038026B03129A430263426B93
:101E70001F231B049A4303231B04D21842635648B2
:101E80000268C3129A430260026803139A43026015
:101E900068464154491CC9B22829FAD30146282270
:101EA0004E4803F09FFEFFF759FF03F077FE4C49C1
:101EB0000880002003F078FE03F07CFE0BB000BD2C
:101EC00010B5264A0F2124480902106023484038E3
:101ED000426B1F231B049A4303231B04D218426343
:101EE00000060268D208D2000260052000070289BD
:101EF00092089200521C0281028908231A4302812F
:101F0000028A0A43028237480068002808D10E4836
:101F10004189890504D501887822914308310180DF
:101F2000FFF71CFF3048006B0078002804D02F48D2
:101F300000880B496039C880012003F0CFFD10BD37
:101F4000A0860100087F04002000005000800040AF
:101F5000560208004A0308004C0554078000004060
:101F6000602C00507F7F0000AC2900000022005050
:101F700009090000002400502204000030D00000B5
:101F8000EE110000002500502E0200004420000049
:101F9000402800500D95000002420000E4DC0000E3
:101FA0001092000053780000002A00508B100000AF
:101FB0009DD50000002600503F1D0020431D00203D
:101FC000491D00204D1D0020451D00205B1D0020E7
:101FD000471D0020331E00200002004020000800A2
:101FE0007804080014800020200200205204080019
:101FF00010B5044604F07AF91249A0004018803860
:10200000406B002801D0804710BDE106C90E0120B9
:1020100088400D49086010BD1320E9E70B490948C5
:102020000A88B038028000220A800121418081881C
:10203000491C81801420DBE71520D9E71620D7E75B
:102040001720D5E71891002080E200E07A91002067
:1020500005200007828880210A43828040488181D0
:10206000002181800921018003218181028A402190
:102070008A43028201220281838813438380394884
:102080000268120A12020A43026088013649086097
:1020900070473348818AC907FCD00088C0B27047B6
:1020A0002F498A8A9206FCD50880704700B50346FE
:1020B00002E0FFF7F5FF5B1C18780028F9D100BD9E
:1020C0000346000600B5000F0A2801D2302100E0C7
:1020D00037210818FFF7E4FF1807000F0A2801D27C
:1020E000302100E037210818FFF7DAFF00BD10B5F6
:1020F0000446000AFFF7E4FFE0B2FFF7E1FF10BD7E
:1021000010B50446000EFFF7DBFF2002000EFFF7BC
:10211000D7FF2004000EFFF7D3FFE0B2FFF7D0FF98
:1021200010BD10B50E4801890907090F042910D107
:1021300003880E4A901E41785354491CC9B241701D
:10214000D47800220123D12C04D0DA2C01D1092922
:1021500002D010BD4A29FCD10370427010BD0000AE
:10216000001000500CE400E000E100E02E9100209F
:1021700030B53F4B1C680825C907AC43090F0C4319
:102180001C6019680424D207A143520F114319603F
:1021900019680222C0079143800F01431960354836
:1021A00001688022090A09021143016030BD324BE7
:1021B00058809980DA807047FF20304901300860EC
:1021C0007047FF202D4901308031086070472C484E
:1021D00000224188491C41800178491CCBB201464C
:1021E00014310370142B08D302700B785B1C0B7036
:1021F0008B78002B01D05B1E8B700B78322B26D195
:1022000083885B1C83800A708289521C8281C28809
:10221000521CC2800289521C02814289521C428196
:10222000C878401EC8700879012801D9401E08717D
:10223000144A5088022801D9401E5080124A107852
:10224000002801D0401E10704879401E4871704728
:1022500070B5054614460E46012004F075F928466F
:1022600004F07EF9304604F08DF90348C48170BD56
:102270000034005008E400E00034005000E100E0C9
:1022800078910020389000202D90002008430121F3
:10229000890302460A4312490A80124A1043088001
:1022A0000B20488070470E490A880F239B010007C6
:1022B0009A43800D02430A80704709490020088034
:1022C000704707480849028802231A430280491EC2
:1022D00002D302889207FAD4002101814089704715
:1022E0000015005001400000A086010010B54F48C5
:1022F0004178007804F068F810BD10B54B4841787B
:10230000007804F03FF810BDF8B50E461546474971
:102310000278079F0A7040781C464870FFF7EDFF6F
:102320000520000781880122D202114381804048A4
:1023300001884908490001800188FF2281329143C8
:10234000F20111430180018840229143AA01114307
:102350000180018804229143A20011430180018879
:1023600002229143069A5200114301800188012202
:1023700092039143BA0311430180018818229143CB
:10238000089AD20011430180018801221143018083
:10239000F8BD27490A88520852000A800A88FF239C
:1023A00081339A43C00102430A8008880122104306
:1023B0000880704710B51E4801884908490001800F
:1023C0000520000781880122D202914381801748AD
:1023D0004178007803F0D6FF10BD15480188490800
:1023E00049000180704710B5114900230A88D205C1
:1023F000920F012A01D9040C8C804880088880043F
:10240000FCD50120C880012A01D9888803044888A6
:10241000C01810BD10B50446FFF768FF2046FFF74F
:10242000E2FF0446FFF769FF204610BD0080002050
:1024300000120050F94AD1609060704710B5012039
:10244000FFF7A7FF05200002FFF7E4FFC0B210BDB1
:1024500070B50024F24DFFF7F1FFC00704D0641CF3
:10246000AC42F8D30020C04370BD70B5FFF7F0FF59
:10247000002817D1FFF78DFFFFF738FF9F20FFF7E8
:10248000B2FF0020FFF7AFFF05040020FFF7ABFF0E
:1024900004022C430020FFF7A6FF20430546FFF768
:1024A0002CFF284670BD70B5FFF7DFFFDB4CDD4A1F
:1024B000002114234B43D5589B185B681D400340F3
:1024C0009D420ED1142308B24B4320809B189D6877
:1024D000A560DB68E360142358438018606048B24D
:1024E00070BD491C89B20429E3D300206060401EFE
:1024F00070BD70B5FFF7ACFF002815D1FFF749FF9D
:10250000C74E00250620FFF785FF0024FFF796FF42
:10251000C10703D1800701D5002070BD641CB442FF
:10252000F4D36D1C322DEDD30020C04370BD70B5C7
:10253000FFF78EFF002815D1FFF72BFFB84E0025BF
:102540005020FFF767FF0024FFF778FFC10703D192
:10255000800701D5002070BD641CB442F4D36D1C0B
:10256000322DEDD30020C04370BD70B5FFF770FF72
:10257000002811D1FFF70DFFA94E00250420FFF719
:1025800049FF0024FFF75AFF800707D0641CB442BC
:10259000F8D36D1C322DF1D30020C04370BD10B5AF
:1025A0000446FFF755FF002808D10120FFF7F1FE90
:1025B000E01DF930FFF72EFFFFF74AFF10BD70B5A1
:1025C000064696480D4680685119814201D9441B40
:1025D00000E01446FFF73CFF00281AD10220FFF765
:1025E000D8FEFFF783FE0321284609060843FFF7BC
:1025F000FAFE0020FFF7CDFE002505E00020FFF7E2
:10260000F2FE3070761C6D1CA542F7D3FFF775FE05
:10261000204670BD70B5054680480E46C068144619
:10262000824200D984B2FFF713FF00281ED1FFF7C2
:1026300060FF00281AD10220FFF7ABFEFFF756FE1D
:102640000121304649060843FFF7CDFE0020FFF781
:10265000A0FE05E028786D1CFFF7C5FE641EA4B23D
:10266000002CF7D1FFF749FEFFF7F2FE70BD70B501
:102670000D460446FFF73DFF002802D00020C0436E
:1026800070BD0220FFF785FE28062043FFF7C2FE3B
:10269000FFF7DEFE70BD10B5FFF72BFF002802D05C
:1026A0000020C04310BD0020FFF773FEC720FFF7D6
:1026B000B1FEFFF7CDFE40B210BD0020C043704711
:1026C00010B5FFF7C5FE002812D10120FFF761FE0B
:1026D000FFF70CFE09200003FFF785FE0020FFF73F
:1026E00082FE0020FFF77FFE0446FFF706FE20B2C1
:1026F00010BD70B5FFF7ACFE002801D0C11770BD4A
:102700000020FFF746FEFFF7F1FD4B20FFF76BFEC1
:102710000220FFF73EFE0020FFF765FE0020FFF7D6
:1027200062FE002504462846FFF75DFE06462E435E
:10273000FFF7E3FD3046214670BDF7B582B0374F55
:102740000E460091F96814460D46304603F0FCF938
:10275000401C6843451E0020FFF71BFEB868801B25
:10276000A04200D204462646002719E000988019AE
:10277000A84202D900982E1A761C0298B2B2C0194B
:102780000099FFF747FF002803D00020C04305B0A1
:10279000F0BD681C00902148BF19C0682D18E61BC9
:1027A000A742E3D33846F2E710B5FFF751FE002801
:1027B00005D1FFF7EEFDB920FFF72CFE002010BD7C
:1027C00010B50020FFF7E5FDAB20FFF723FE00204A
:1027D00010BD70B5114C05466068002806D0FFF7A3
:1027E00088FE002805D00020C04370BD0520C043EE
:1027F00070BDFFF723FE6168097C884329400843C8
:10280000FFF7CDFE70BD10B504484068407CFFF76F
:10281000E0FF002808D040B210BD000098910020D1
:10282000400D0300DC650020FFF735FFF4E770B5CD
:1028300005462F480E46C0681446824200D984B22D
:10284000FFF706FE00281DD1FFF753FE002819D11F
:102850000220FFF79EFDFFF749FD012130464906A2
:102860000843FFF7C0FD0020FFF793FD04E0284672
:10287000FFF7B9FD641EA4B2002CF8D1FFF73DFDAF
:10288000FFF7E6FD70BDF7B582B0194F0E46009117
:10289000F96814460D46304603F056F9401C68436B
:1028A000451E0020FFF775FDB868801BA04200D2CE
:1028B00004462646002717E000988019A84202D94E
:1028C00000982E1A761CB2B200990298FFF7AFFF5B
:1028D000002802D00020C04359E7681C009004483B
:1028E000BF19C0682D18E61BA742E5D338464EE74E
:1028F0009891002070B5EFF31085012080F31088C7
:10290000264803F075F90446002D1DD0012080F300
:102910001088002C23D020462038C08B20498842C4
:102920001DD16189208903F069F905000ED0214687
:102930001031A38962892089A847002806D0012880
:102940000DD002280BD105E00020E0E7204603F07F
:102950005BF904E0114821460C3003F05BF9EFF31A
:102960001084012080F310880C480068002802D1F0
:10297000012003F055F9002C03D0012080F31088CA
:1029800070BD0020FAE710B5BC21064803F04EF9EF
:102990000549012003F050F910BD0000A80508000A
:1029A0003883000004060800F5280020F8B50D461D
:1029B000064681002B48EA884458521C20686B89DF
:1029C000018F294F51430091014640314A89C989FD
:1029D000511A8AB2991A89B2B94214D29A4212D0C3
:1029E000294603F02FF92D892049009803F0ACF80F
:1029F0002818801C4034E0823002401C80B2042140
:102A000003F026F9F8BD2821304603F027F9F8BD78
:102A1000F8B50546870013480C46C059C9880068B8
:102A2000114E024640325389D2899A1A92B28B1AB9
:102A30009BB2B34211D20B4E8A420ED003F014F96E
:102A4000F05905225F30611C03F0CCF82802401CCD
:102A500080B2052103F0FCF8F8BD2821284603F0D8
:102A6000FDF8F8BD4C030800FF7F000010270000B0
:102A700070B516460D46104603F0FCF8002869D0E4
:102A8000340A304603F0F6F8012812D0A87A1E283E
:102A900011D029460A310E2845D019DC801E0300CA
:102AA00003F0EEF80B255829582D58315839583D68
:102AB0005800022070BD3146274803F0E7F8002196
:102AC000204603F0E9F80221304603F0C1F841E066
:102AD00018283CD006DC102819D012282BD0162834
:102AE00038D130E0522822D0D22833D127E02046F6
:102AF00003F0D8F82EE0204603F0DAF82AE020466A
:102B000003F0DCF826E0204603F0DEF822E0204661
:102B100003F0E0F81EE0204603F0E2F81AE0204659
:102B200003F0E4F816E0204603F0E6F812E0204651
:102B300003F0E8F80EE0204603F0EAF80AE0204649
:102B400003F0ECF806E0204603F0EEF802E0204641
:102B500003F0F0F8002070BD01280000F3B581B04B
:102B600001980C460102CA1D0E310223344803F0BD
:102B7000E7F8047001990546022732488E00002CC0
:102B800006D0042C16D0062C10D0072C3FD108E01C
:102B9000815905224968897C114069708059C77341
:102BA00035E0084603F0D2F8687030E080590F2114
:102BB000C1732CE0044680594068417C012902D150
:102BC000007E01280FD0019803F0C6F801210028EB
:102BD000A0590BD04268D07D00281CD001281AD003
:102BE00004280DD00FE0002068700DE04068C27D21
:102BF000022A01D0042A06D1007C02280BD102E06F
:102C0000107C022807D06F70A1590320C873284692
:102C100003F0A8F8FEBD6970F6E701460A780120C6
:102C2000042A01D9002070474A78002A01D0012ADD
:102C3000F8D10A79082AF5D849790829F2D87047D5
:102C4000021C000028050800FFB589B00D460020D1
:102C50006946059008720B98000A009003F07CF812
:102C600007460B9803F006F800287DD00B982978CA
:102C7000000A8400764E01295ED0042904D006297A
:102C800043D0072963D120E0687800281BD0305951
:102C900010224068A91C02F0A5FF002F06D0315970
:102CA000C87B032807D0042808D050E03059C07BE7
:102CB000032803D04BE00B20C87348E0052100989F
:102CC00003F056F843E00120B6E03059C07B0E28EF
:102CD0003DD1009803F03AF8002103E02A18401C87
:102CE0009170C0B21028F9D3688A694608832946D2
:102CF00006A808221431023002F074FF06ABAA1CA9
:102D00003946009803F03AF821E03059C07B0F288B
:102D10001DD1AA1C0A21009803F036F8002F04D018
:102D20003946009803F036F811E000231A46394678
:102D3000009803F035F80AE0012F08D10B9802F053
:102D400099FF01281CD0002801D002200590684678
:102D5000007A002811D002AA0521009803F014F887
:102D60006846027A602000E007E00243684602728B
:102D700001233946009803F013F805980DB0F0BD13
:102D80003059C07B0228E2D16878002851D0022156
:102D90000B9802F05DFF305907224068A91C1730DC
:102DA00002F020FFE878002804D130594068407CC8
:102DB00001283AD0009802F0F9FF002837D0297A8C
:102DC000009802F0F9FF002833D0009802F0FAFFD3
:102DD0000121009802F0FCFF00282CD030594068F7
:102DE000417E00292BD0042929D0C17E027D1140CB
:102DF000C17630594068017F427D114001776846B5
:102E0000007A0028A7D13059022142680098173271
:102E100002F0BAFF305941684031897B002913D054
:102E200004210098FFF79AFE91E7022004E00620B3
:102E300002E0082000E00320694608728BE70021C9
:102E4000C17630594068D9E70B21C1737FE7000094
:102E50002805080070B50446007800250D2801D02B
:102E60000A2200E002225A494B7A002B06D00D2894
:102E700004D0637C032B01D0432551E0097A8A43B7
:102E800039D10D2809D00E2802D00F2803D134E003
:102E9000607C032804D3402542E0607C0328FAD8F4
:102EA000A07C0428F7D20A2908D0607C012822D00F
:102EB000022820D06078032809D811E002F08EFFA4
:102EC000012806D16078032803D0002801D04925C5
:102ED00026E002F083FF002802D160780228F6D8AD
:102EE0003020035D22462046E17C3132143000F070
:102EF00019F8054614E0422512E002F06FFF0128A0
:102F000007D16078052804D1A01D02F06DFF0028CC
:102F1000DDD002F063FF002802D160780228D6D805
:102F2000284670BDFFB5002086B001216A461170A9
:102F3000044605910021002C06D0089D099A1F2304
:102F40009A4234D9402032E01C23069D079AF7E7C5
:102F50006B185E78330002F093FE1D2610101010DF
:102F6000101010101026262626262626262626266F
:102F700026261010101010102600059B03E06F4647
:102F8000FF5CB74204D05B1E5BB2002BF7DA03E0B4
:102F9000002B01DB4A2006E0059B6F46FE54059B93
:102FA0005B1CDBB205936B5C491C5918C9B291429A
:102FB00001D20028CCD0914202D04A200AB0F0BD04
:102FC000641CE4B2022CF9D20028B3D0F6E700006A
:102FD00098050800F8B50C4694491646096801257D
:102FE000002702228B1C312873D012DC0C2874D0ED
:102FF00008DC012821D0022840D007284FD00B2818
:1030000069D156E010287FD0112876D01228F7D148
:103010008DE00123412871D008DC32286FD035289B
:103020006ED036286DD04028EAD1B1E0422869D070
:10303000432868D04428E3D1CFE006227C497D486C
:1030400002F0D8FE002808D006227A49304602F065
:10305000C9FD062020700020F8BD7448016808787A
:10306000C00738D02078062801D22770C2E0062297
:103070009831304602F0B6FD06200EE00A786B4823
:10308000920728D522783E2AEFD305464A7E5A3148
:10309000304602F0A7FD2868407E2070A7E008783F
:1030A000400718D520780228DFD3887C3070587C00
:1030B00078E00A785D4812070DD52278202AD4D30B
:1030C0000546CA7D1A31304602F08CFD2868C07D65
:1030D000E3E735E001E077E016E00A785348D206EE
:1030E00072D52278202AC0D305460A7E9831304610
:1030F00002F078FD2868007ECFE70EE054E028E07B
:1031000034E03BE058E060E00878800670D5207835
:103110000428AAD30422091D23E00878400667D5B5
:103120002078002866D0087D08E022705FE00878EB
:1031300000065DD5207800285CD0487D3070F4E72B
:103140000888C00554D5207804288ED304220C3179
:1031500007E0088880054BD52078042885D3042211
:103160000831304602F03EFD042096E7088840050D
:103170003ED5207800283DD0887D36E008880005BF
:1031800036D5207802288FD3087C3070487C09E03F
:103190000888C0042CD52078022885D38231087F86
:1031A0003070487F7070C0E70888800420D5207890
:1031B00000281FD0A03117E00888400418D52078D7
:1031C000002817D0A1310FE012E0088800040FD5C5
:1031D000207800280ED0A23106E00868C00307D589
:1031E0002078002806D0A33108783070237000259D
:1031F0002846F8BD0425FBE770B50F480F49C40504
:10320000228880252A4322800D4A53891B0701D436
:10321000401EFAD20B4A012010600622054802F037
:10322000E1FC2088A843208070BD0000C006080093
:10323000383E030024800020A0860100D47F0400D3
:103240002000005000800040F0B5554D85B00026AC
:10325000686937460190FEF760F80021514C00285C
:1032600002D12079022800D101914F4802684F48CD
:10327000002A0FD10278002A0DD04D4B0122DA63CB
:10328000DA6B002AFCD101229207D2691923DB01F3
:103290009A420ED3017002F0B3FD00287DD0E07891
:1032A0000126002879D005200007808AC00701D0B8
:1032B000042672E002F01EFC00286ED13D48006832
:1032C0003F2804D12079002801D128690190A178F4
:1032D00001A802F09BFD00285FD0A17801A802F0B0
:1032E0001BFC002859D0334800683F2803D102F066
:1032F00093FD002851D02C480068AA281DD09720A3
:1033000007210125AD07EA6B920A92027F1C3A431E
:10331000EA63EA6B284B80021A400243EA63E86BD7
:10332000C002C00A49050843E8631F480426006834
:10333000002807D0AA280ED01CE02048FEF788FC01
:103340000321DEE701986421C00202F0FDFB401E6C
:103350000BE001210CE0019802F0D6FA1849096847
:1033600002F020F902F0D7FA009021790029F0D17B
:1033700002F058FD1348C06A8047286B0004C00F54
:10338000FBD011480168C905FCD502F051FD0520AC
:1033900000070189802291430181304605B0F0BDCC
:1033A000A0020020C6060800148000200A80002029
:1033B000C000004060010020FF03E0FF0112000098
:1033C000208000201C0708000002004010B50124E6
:1033D000A407A06BFEF748FC5F4902F0B5FB27226B
:1033E0001201511A00D101215C4A50601160206B1A
:1033F000082188430843206310BD38B500200090A1
:1034000057490820088005242407218830200143DB
:103410002180218803221143218002E000BF00BFE8
:1034200000BFA18A0906F9D56189890889006181EF
:103430004C494A88520852004A80218881432180A1
:103440002088800880002080A08A400701D5FEF7F0
:1034500003FA2089802108432081208A042188439F
:103460002082A08A8007FCD53F4841050268D2022D
:1034700002D40A69520702D4009A002AF6D038BD55
:1034800010B502F0DBFC02F0DFFC10BD10B502F05D
:10349000E1FC05200007418A8022914341823048A7
:1034A0000189490849000181304800683F2801D15D
:1034B00002F0D6FC0120800781690422114381615A
:1034C00002F0D4FC02F0D8FC02F0DCFC28480068D2
:1034D000AA2802D11420FEF71DFB264900200870FF
:1034E00010BD10B502F0D4FC10BD10B5012080074E
:1034F000008A000704D502F0D1FC1E4903200870A1
:1035000010BD70B51C48008885061748AD0E44688C
:103510001648C030006B0078002802D1284602F01F
:10352000C3FC16480089134EC00507D520060BD5ED
:10353000E00709D0284602F0BDFC03E0200603D5D1
:10354000E00701D002203070200403D5E00501D54A
:103550000120307070BD000071020000400000408A
:1035600000330050200000500002004060010020A5
:10357000148000202A80002000200050002C0050E1
:10358000F8B505461E4614460F4648A0FEF78EFDC8
:103590006A8829880623204602F0D2FB044628794F
:1035A00002F08EFC208027716680204602F0DAFB54
:1035B000F8BD70B51446428800790D4601020C3101
:1035C0000423414802F0BCFB002D01D0132100E090
:1035D00012210170448002F0C5FB70BD0A880270A0
:1035E000120A42708A788270CA78C2700A790271AF
:1035F0004A7942718979817107207047427803784E
:1036000012021A430A8082788A70C278CA700279DC
:103610000A7142794A71807988710720704710B524
:1036200000F072FC00F070F800F0B2FB10BD70B555
:10363000064615460C4625A0FEF738FD2849002011
:10364000087028A0FEF732FD3046FEF739FD28A0AD
:10365000FEF72CFD2046FEF74AFD28A0FEF726FDCA
:103660002846FEF72DFD372002F004FB022805D185
:10367000E2B237232946304602F028FC362002F019
:10368000F9FA022805D1E2B236232946304602F083
:103690001DFC1C2002F0EEFA022805D1E2B21C2328
:1036A0002946304602F012FC70BD00007072665F61
:1036B0007365727665725F6572726F725F696E6450
:1036C0005F73656E640A0D000D3000007072665FF6
:1036D000636C65616E75705F66756E630A0D0000E0
:1036E00009800020636F6E6964783A0A0D0000005B
:1036F000636F6E68646C3A0A0D0000007265617356
:103700006F6E3A0A0D00000010B52821054802F03E
:10371000E3FB0549372002F0E5FB0021372002F0EA
:1037200097FA10BDA89100202C6600203EB500201D
:10373000C0436D4C0290E380088860816B48019023
:10374000009220460023092202A90A3002F0D0FB91
:1037500005466089002102F0D1FB002D03D1012133
:10376000372002F075FAE18801233722604802F021
:10377000E7FA057002F0F6FA00203EBDF8B5002524
:103780006846594C058062802380E3800E46488855
:1037900002F0BAFB207170882081E581A581258225
:1037A00060896A46801C80B2022102F0E5F96089D6
:1037B0006A46C01D80B2022102F0DEF96089012153
:1037C00002F09CFB0221372002F042FA0020F8BDF3
:1037D00010B548A0FEF76AFC0121372002F038FA44
:1037E000002010BDF0B587B00C46142101A802F0EE
:1037F0001DFA23460833A288618820881D4602F0FE
:1038000089FB3948218842898A1A022A04D0062A6B
:1038100067D0072A65D160E0007A002202F080FBC1
:103820006288294601A802F0DDF968460079AA28D5
:1038300057D168464079BB2853D1694636488979C3
:1038400041716946C97901716946097AC170694651
:10385000497A81706946897A41706946C97A0170EE
:1038600000200322072312020146009002F0BEFB53
:103870002A4D00242868E443002801D0204600E0B7
:103880000120274E28603268C1177368104319431E
:10389000306071600F273F0320213846FEF7E7FEB6
:1038A000062239461C48FEF7B5FE1EA0FEF7FEFBB9
:1038B00000200322034612020146009002F096FB0C
:1038C0002868002800D101242C603268E017716854
:1038D000144308433460706003E0007A002202F071
:1038E0001FFB002007B0F0BDA891002068660020F3
:1038F00006DC000073747265616D64617461645FFD
:1039000064697361626C655F7265715F68616E6442
:103910006C65720A0D000000028000207890002083
:103920007090002073746F726167655F6F6B0A0D32
:1039300000000000FFB58BB00521C90268468182F6
:10394000C91C0182FA490183FA4C362161800621A3
:10395000992500910822002301953621A01D02F02F
:10396000E5FA05007ED1A01D0125009501900222F7
:10397000E08805AB114602F0DFFAE088EE4A02214A
:1039800002F0FAF803AE01960095E08804AB02223B
:10399000132102F0D1FA02AF092001970090E088CC
:1039A000E64B1022042102F0C7FAE5496846007A86
:1039B00048706846407A88700A46684613218089B4
:1039C00002F0DAF801960095E08804AB0222132198
:1039D00002F0B2FA092001970090E088D94B10223A
:1039E000042102F0A9FAD8496846007A487068466E
:1039F000407A88700A4668461321808902F0BCF834
:103A000001960095E08804AB0222132102F094FA9B
:103A100001970095E088CD4B1022042102F08CFA2A
:103A2000CB496846007A48706846407A88700A46F2
:103A300068461321808902F09FF801960095E0887E
:103A400004AB0222132102F077FA092001970090BB
:103A5000E088C04B1022022102F06EFA6846BE498F
:103A6000007A00E058E048706846407A88700A465C
:103A700068461321808902F07FF801960095E0885E
:103A800004AB0222132102F057FA0920019700909B
:103A9000E088B24B1022142102F04EFAB049684679
:103AA000007A48706846407A88700A466846132152
:103AB000808902F061F8AB4D01960095E08804AB77
:103AC0000222132102F038FA01970095E088A64BF4
:103AD0001022012102F030FAA4496846007A4870A9
:103AE0006846407A88700A4668461321808902F049
:103AF00043F809A90920019100900222E08806AB51
:103B0000114602F019FA0546E088002102F0F6F9A4
:103B10000121362002F09CF80123362294480E99A8
:103B200002F00EF9057002F01DF900200FB0F0BD93
:103B30003EB5804C0D46E08802AA0C3080B2694642
:103B400002F000FAE08801AA0D3080B2694602F066
:103B5000F9F9E088AA1C0C3080B2012102F00CF8BF
:103B600001980088002806D0E08800210C3082B23D
:103B70002046FFF71EFD00203EBD10B56D480A46E9
:103B8000C0880421801D80B201F0F6FF002010BD26
:103B900038B50D4600206946664C08802380288889
:103BA00002F0B2F92071FF2817D0E0886A460D3084
:103BB00080B2022101F0E0FFE0886A460C3080B25A
:103BC000012101F0D9FFA978E08802F097F90221DC
:103BD000362002F03DF8002038BD654A1B23DB0289
:103BE000521C89215348FFF7CBFCF4E7F8B5514D3F
:103BF0000C4629798022180A88427DD1E9882088DC
:103C000026468B1C0027083698420ED101210091D0
:103C10006188324601F0B0FFE079002875D0544841
:103C2000082336222988C01F10E00B1D984229D195
:103C3000022100916188324601F09EFFE079002860
:103C400063D04B48298808233622801F02F078F879
:103C50000646287902F034F930807760E07A010670
:103C60007160A07A000401437160607A0002014330
:103C70007160207A014371600098B070304602F0A4
:103C800071F842E00B460A3398421BD104200090A1
:103C9000E079002839D03648298818233622001FB9
:103CA00002F04EF80746287902F00AF93880628857
:103CB0003146381D01F096FFA078F8700098B87072
:103CC0003846DCE70B460833984220D103210091A7
:103CD0006188324601F050FFE079002815D0244871
:103CE000298806233622401F02F02AF80646287942
:103CF00002F0E6F8308000E018E0B780607A010258
:103D0000B180207A0143B180B6E7002207E00D318F
:103D1000884204D16188324601F02EFFF5E7A07990
:103D2000012803D12188287902F0FAF80020F8BD93
:103D3000022900002C8000206467002066670020B4
:103D4000706A002076670020836A00208667002062
:103D5000966A002096670020A96A0020A6670020C6
:103D6000BC6A002001020000B6670020CF6A002074
:103D700009D8000010B5054A180A1279904202D1FC
:103D8000088800F026F8002010BD00002C800020DC
:103D900010B508211A4802F09FF81A49362002F09F
:103DA000A1F80021362001F053FF10BD70B5144D6D
:103DB0000646298818233622134801F0C1FF04461D
:103DC000287902F07DF82080A670204601F0CAFF15
:103DD00070BD70B50A4D0446E888002102F08EF8E7
:103DE0000948298804233622001F01F0A9FF048016
:103DF00001F0B8FF0121362001F02AFF70BD00005C
:103E00002C800020C867002005D80000FEB53B4E7E
:103E10001C2070801D4617463446088800F082F842
:103E200002903748334601900833132202A90097C5
:103E3000A01D02F05DF8040008D1F088002102F016
:103E40005DF8044601211C2001F002FF01231C2221
:103E500029462C4801F074FF047001F083FF002014
:103E6000FEBD70B50C4625490B802078082814D873
:103E7000CA880831415C51188DB2822D0BD061780F
:103E800000F063F8010009D16D1C6178A8B2A21C92
:103E900001F072FE08E0822100E08121194B1748F1
:103EA0005B1CDA1CFFF76CFB002070BD70B51D4673
:103EB0000C46088802F028F8104AFF281071158077
:103EC00009D0A178D08802F019F802211C2001F055
:103ED000BFFE002070BD0B4B89219B1C9A1C07481C
:103EE000FFF74EFBF5E710B5044A180A1279904225
:103EF00002D1088800F03EF8002010BD3680002076
:103F0000186800200170000010B51221244801F04B
:103F1000E3FF24491C2001F0E5FF00211C2001F0F3
:103F200097FE10BD30B503460120002103241A4638
:103F3000CA40D20704D04D006D1C2246AA4010434F
:103F4000491CC9B20929F2D330BD0246002012290A
:103F500001D98D207047062A06D0072A07D0082AE3
:103F6000F8D10729F5D170470829F2D17047062901
:103F7000EFD3704770B50A4C0546218802231C22F6
:103F8000094801F0DDFE058001F0ECFEE08800212B
:103F900001F0B4FF01211C2001F05AFE70BD0000A9
:103FA000368000202C6900200470000038B5012400
:103FB000684604700C214F4801F08EFF4D4D694654
:103FC000EC702A1D352001F0C3FF002800D02C71B1
:103FD00000F02CFB4849322001F084FF0021322000
:103FE00001F036FE00F0DAF838BD10B500F0D6FB6F
:103FF00010BD10B541A0FEF759F83E480223807865
:10400000322201020E31424801F09AFE0121017074
:104010001321417001F0A6FE10BD10B504463548CD
:104020002C2380783222010239480E31801E01F0A3
:1040300087FE01462030047200224272084601F0D9
:1040400091FE34490120087010BD10B55023322272
:104050000D21314801F074FE044600F013FB2046A8
:1040600001F080FE0221322001F0F2FD10BD10B5FA
:104070002AA0FEF71BF82848012332220D210B3815
:1040800001F05EFE0221017001F06CFE10BD10B562
:1040900000F0A3FB10BD254B10B59A4201D91A467A
:1040A00002E0002A00D1012201F058FF10BDF8B54E
:1040B000064615460F461EA0FDF7F8FF16482523B5
:1040C00032220D21C01C01F03BFE04460120207766
:1040D0002046062239461D3001F084FD2320065576
:1040E00065822582204600F09DFB204601F03AFEC5
:1040F000F8BD0000488000203C6900206170705FBE
:10410000646973636F6E6E6563740A0D000000006E
:1041100004380000098000200E3400006170705FD8
:104120006164765F73746F700A0D00003075000073
:104130006170705F636F6E6E6563740A0D000000DE
:1041400010B501F011FF254901F004FD24480818BD
:1041500010BDF8B5234D0646A876002401F004FFF3
:104160002919641CE4B20874082CF7D30024102722
:10417000381BB04201DD002007E001F0F5FEC11759
:10418000090E0918090A0902401A2855641CE4B2EC
:10419000102CEDD301F0E8FE2883F8BD10B52421E2
:1041A000104801F099FE00F047FA10BD10B50E4816
:1041B00002238078322201020E310C4801F0C0FD4A
:1041C0000D210170074920318978417001F0CAFD45
:1041D0000321322001F03CFD10BD0000A0BB0D000A
:1041E000A086010054800020488000201A3800007A
:1041F00010B5084609781C460B0001F041FD080582
:1042000020202008181B1E2000F01BFB17E041781F
:10421000012904D0002902D0022903D00FE000F0C8
:1042200011FB0CE01146204600F015FB07E000F002
:104230000AFB04E000F008FB01E000F006FB0020B0
:1042400010BD10B50878304C801E030001F018FD39
:10425000020214188878A070C0070AD02B492A4A95
:104260004879203AD07628480622891D001F01F09F
:10427000B9FC00F0EBFA03E0FFF7BBFE0020A070F2
:10428000002010BDF8B518460D46014612232048FF
:1042900001F056FD0446284600F0D9FA0027002810
:1042A00021D0194EB078C0071DD030460822A91C75
:1042B000103801F09FFD002815D130462038018BC1
:1042C0002A8891420FD101212170807E607431468D
:1042D00010222039601C01F085FCB078FFF79DFEAC
:1042E00000F0B8FA00E02770204601F03BFD20788E
:1042F000002801D1FFF77DFE0020F8BD10B500F0C9
:10430000A8FA002010BD0000748000204880002022
:104310001838000010B5104601F0ACFC002809D197
:10432000012332220D214F4801F00AFD01210170C5
:1043300001F018FD002010BD70B5087815460F2853
:104340002DD008DC01280DD002282CD003281CD049
:104350000E2830D11FE0102825D0112823D0122894
:1043600029D123E04878002825D13E482223322253
:104370000D21801C01F0E4FC04460146284600F0B3
:104380002DFA204601F0EEFC15E04878002812D105
:1043900000F02FFA0FE0487800F039FA0BE0487887
:1043A00000F036FA07E000F038FA04E048784428D4
:1043B00001D100F041FA002070BD70B51C461046D6
:1043C0000D4601F057FC022805D12749200A8870C4
:1043D000284600F032F9002070BD70B515460C4635
:1043E00022A0FDF763FE20780A2810D1284601F0AC
:1043F00041FC04280BD16078002802D000F005FAB7
:1044000005E00521284601F023FC00F0FFF900201B
:1044100070BD70B514460D4614A0FDF747FE294641
:10442000204600F0A6F9002070BD10B510460C46DD
:1044300001F020FC012808D12078002805D1FFF7E1
:10444000D4FD002801D000F0E4F9002010BD10B523
:104450000C460CA0FDF72AFE204600F0E8F90020EB
:1044600010BD0000023400004880002067617063C6
:104470005F636D705F6576745F68616E646C6572B2
:104480000A0D00006761706D5F6164765F72657030
:104490006F72745F696E645F68616E646C65720AE6
:1044A0000D000000F8B5FDF70CFF8005800D01F050
:1044B00057FB0022F64B01F0AFF9F64AF64B01F03C
:1044C00055FB01F06FFAF54CE06001F057FAF44D3E
:1044D000F44E2A46334601F090F90746F24AF34B70
:1044E000009101F099F90022F14B01F03FFB01F03E
:1044F00027FAC0B22146607010310870E1780029B7
:1045000000D1A0703846EB4AEB4B009901F032FD28
:1045100035D2E06800274100090E00292FD001F0B4
:104520002DFA2A46334601F068F90022134601F0BD
:1045300021FD00D8A770E1480078C00718D00221FB
:10454000002001F041FFE06801F018FA2A463346E6
:1045500001F053F9DA4ADB4B01F00CFD0FD23222A5
:104560001146D948FFF797FD2079052805D006E0C8
:104570000221002001F006FFE5E7D4480770D24889
:1045800032221146801EFFF786FD0020F8BD10B5CF
:10459000C2484179CC48401E002904D0642232210F
:1045A000FFF779FD02E0322101F070FB002010BD21
:1045B00070B5BA4CC44E2079052811D000210846A8
:1045C00001F002FF0121084601F0DCFE3222114613
:1045D0003046FFF760FD2079401C2071002070BD3F
:1045E0000121084601F0F0FE0025A57101210846D1
:1045F00001F0C8FE0A20FCF71FFF0121084601F068
:10460000E3FE1420FCF718FFA079401CC0B2A07193
:104610009628EBD30021084601F0B4FEAC48257182
:1046200005703221304601F031FBD7E710B500F0BC
:1046300099FF00F0A1FA10BD704710B5A54CA07805
:10464000FF281CD0A0483221401C01F01FFB9E48CF
:104650003221C01E01F01AFB90490020087005218C
:10466000322001F0F5FA208800F08AFF00F0A2FA6B
:1046700000F0AAF998488078FFF7CFFC10BDFFF74B
:10468000E4FC10BDF0B504468F4893B014223221EB
:10469000C01EFFF700FD8C4832221146801EFFF736
:1046A000FAFC7E48012101700E20207000276770FF
:1046B0009620A081E0810720207461741C20E074A2
:1046C000254622461F202035143228741646511ED6
:1046D0000B2001F03DFC002805D00A22E2747FA1E6
:1046E000304601F07FFA22463132511E0C201192E1
:1046F00001F02EFC002805D02F743A467AA11198BB
:1047000001F070FAE07C1A21081A45B2002D2EDD66
:104710003E206946087001AA022001F019FC002819
:1047200006D00D226846027070A101A801F028FC95
:104730006846007800281AD0A84200D2054669468B
:104740000D70E07C6D1C8555E27C204609211530FA
:104750001154E17C401C081869460A7801A901F04F
:1047600041FA69460878E27C801C1018E07413B0A6
:10477000F0BD10B5044661A0FDF798FC204601F09D
:1047800079FA032803D0052801D0042805D1022195
:10479000322001F05DFAFFF758FC10BD70B500241F
:1047A0003E49042008724B4DE878042812D20128B3
:1047B00007D0022802D0032808D105E000F0F8F85D
:1047C00004E000F0D0FE01E000F0E8F9E878401CD9
:1047D000E87000E00124204670BD70470320087097
:1047E0000A20487000204882087548751720C88242
:1047F000704710B50121322001F02AFAFFF7F5FBCE
:10480000002801D0FFF721FC10BD704770477047AA
:10481000704710B5FFF719FC10BD10B53DA0FDF7AE
:1048200045FC10BD10B543A0FDF740FC10BD10B510
:1048300047A0FDF73BFC10BD10B54CA0FDF736FCC2
:1048400010BD704770477047704770477047012030
:10485000704770477047704710B54BA0FDF726FCB6
:10486000322001F007FA10BD10B50C48C1790029BB
:1048700001D0002100E00121C17101781248C01E61
:10488000002904D014223221FFF705FC8DE089E0D5
:1048900000F88F40CDCCCCCCCCCC0C40D0910020BB
:1048A000F6285C8FC2F5004050B81E85EB51D83F0A
:1048B000000059407B14AE47E17AA43F809100206C
:1048C000A4703D0AD7A3C0BF04C800004C6A0020F2
:1048D0004D6A0020488000207480002009030318DE
:1048E00002180418F5FE000002FF000044413134B4
:1048F0003538302054454D504C0000006170705FD9
:10490000646973636F6E6E6563745F66756E630A68
:104910000D0000006170705F7363616E6E696E6799
:104920005F636F6D706C657465645F66756E630A56
:104930000D0000006761706D5F73746172745F6376
:104940006F6E6E656374696F6E5F636D640A0D00F0
:104950006170705F6164765F7265706F72745F69B9
:104960006E645F66756E630A0D0000006170705FB3
:10497000636F6E6E6563745F6661696C65645F66C4
:10498000756E630A0D0000006170705F6578745F7A
:1049900073746174735F7265706F72745F73656E48
:1049A000640A0D00322101F071F9002010BD0000F1
:1049B00010B50223322237210B4801F0C1F9002142
:1049C000018001F0CFF910BD10B537210423322248
:1049D000880201F0B5F9322101800449098841803B
:1049E00001F0C0F910BD000005DC00004880002087
:1049F00010B510460C4601F03DF9012809D13222CC
:104A000001231146900201F09BF92178017001F019
:104A1000A9F9002010BD000010B510460C4601F0A9
:104A200029F9012809D1322201231146900201F00F
:104A300087F92178017001F095F9002010BD70B55B
:104A40004A4C0D46207814283DD2A97800293CD044
:104A5000E168002933D0C00618D4207CEA78811898
:104A600050292ED842494018291D01F0BBF8207C5E
:104A7000E9784018C0B22074E168814201D100F0A9
:104A800034FA207C18E000F0A7F81EE0EA786069AC
:104A9000FF2381180133994213D836494018291D44
:104AA00001F0A0F8E978606940186061E16881422E
:104AB00001D100F0D8FB6069E168884205D9052082
:104AC000E1E70720DFE70820DDE7002070BD08B53B
:104AD0008878002806D04868694600F0BEF800983B
:104AE00000F021F9002008BD10B5887800280ED00C
:104AF0001E4A49689160107802280AD0032808D01D
:104B0000122804D0132802D0082000F065F80020F5
:104B100010BD52680006104301F038FA00F003F9A6
:104B2000F5E770B588780D4600281DD0A8880028C4
:104B300005D00E4C2178CA0603D4820701D0052087
:104B40000EE0142910D2C90605D4502807D800F069
:104B50001FF8A88807E0FF210131884203D9072008
:104B600000F03AF800E0E060002070BD7C8000209A
:104B7000E46A0020346B0020FD480021017441618B
:104B80008161C160FB4A0177116514210170704792
:104B9000F748002101744161C160704710B50123DD
:104BA00032223621F44801F0CBF80021017001F0E7
:104BB000D9F810BD10B5362110233222880201F039
:104BC000BFF8EE4909880180012181700021416010
:104BD000816001F0C7F810BD10B50446E848042311
:104BE0000288E5483621401E01F0AAF8E349098809
:104BF0000180847001F0B6F810BD10B5DC4C20784F
:104C0000032801D1FDF7D6FB1420207010BD08B594
:104C1000AA2069460870D648017813290AD141684C
:104C20000122891C6846FDF788FD40B2012801D0A9
:104C3000062008BD022008BD10B5CD4C2078C00666
:104C400001D4012000E01020FFF7C6FF00202074EF
:104C50006061A061E060207710BDF8B50F460021CB
:104C6000060EC34C35463960142E17D2257080B21B
:104C70006060002D01D0012D07D1C24928060843EC
:104C80006160002101F082F938602078122801D09B
:104C9000132803D1606802280BD86074112E26D027
:104CA0000EDC022E20D006DC002E1DD0012E13D1EA
:104CB0001AE0112022E0032E16D0102E0CD116E09F
:104CC000FD2E2CD004DC122E0ED0132E04D10BE0BE
:104CD000FE2E16D0FF2E0CD00820FFF77DFF1420EB
:104CE000207000203860F8BDFFF7A6FFF8BD08204F
:104CF00004E0FFF782FFFFF74BFF0320FFF76CFF95
:104D0000F8BD207F002801D0042001E0FFF77FFFDD
:104D1000FFF762FFFFF771FFFFF73AFFF8BD0020D2
:104D200001F03AF9F8BD10B504469548042302880D
:104D300091483621801E01F003F8046001F012F85A
:104D400010BDFEB506460020012424040090019009
:104D5000034602460146029025123046FDF7D4FA7A
:104D6000FDF7AEFC884980B2401802D0012805D179
:104D700002E00124640401E00124A4042946204641
:104D8000FDF758FBFEBDF8B5044679487F4E017A21
:104D900000270906090FA171027AFF4313071B0FB1
:104DA000E37102891204120F227002891205120F98
:104DB000627082681202120FA27082681203120FD0
:104DC000E2708268120F227180680001000F60712A
:104DD000282041438A1999005058002801D03846AC
:104DE00000E001205050A579E279C11701F0DAF80E
:104DF0002A0101F0D7F8664A136855681843294319
:104E000010605160A078282148438219E078810021
:104E10005058002801D0384600E001205050A578B5
:104E2000E278C11701F0BEF82A0101F0BBF8584D35
:104E30002A686B681043194328606960207928212B
:104E400048438219607981005058002801D03846C3
:104E500000E00120505026796279C11701F0A2F8D4
:104E6000320101F09FF82A686B68104319432860EB
:104E700069602078282148434449411860788000BF
:104E80000A58002A00D101270F5038462678627848
:104E9000F91701F087F8320101F084F82B686A688D
:104EA00018431143286069600120009003263602F0
:104EB000617820780823324601F098F800250095A3
:104EC000E179A0790723324601F090F80095E17866
:104ED000A0780623324601F089F80095617920799F
:104EE0000523002201F082F8F8BDFEB5204C022512
:104EF0002078EE01002805D0012803D0032828D00F
:104F0000082566E01F4F00063843002101F03EF8F7
:104F10008004217C000C0A18B24227D8301A154AA6
:104F2000401A121F891880B25432101805E00A681E
:104F3000091F04C0227C121F2274227C002AF6D191
:104F4000207800210006384301F020F8FFF7EBFE3F
:104F50003BE00320616800060843A16801F016F8F1
:104F60008004070C207CC019B04213D9072530E01B
:104F70007C800020E46A002008D8000048800020DF
:104F80002C800020306C0020F010FFFF7890002073
:104F9000709000206846FFF7F6FE6846FFF7D1FEE6
:104FA0006068227CC119FE48FDF7C7FB217C814265
:104FB00000D006252078616800060843A16800F04B
:104FC000E5FFFFF7B0FE022D03D1FFF716FEFFF756
:104FD000DFFD2846FFF700FEFEBD70B5024600204B
:104FE000160BC04336030C0B090500D0641C002CC3
:104FF00001D000250BE00124002520213046FDF7DB
:1050000036FB012109037618002802D16D1CA54248
:10501000F3D370BD0021FF2802D0401CC0B27047FE
:1050200008467047FF2802D0FF2905D006E0FF2977
:1050300008D0002906D001E0002801D0884201D91B
:10504000022070470120704710B5D64C034600205F
:105050002478C043132C02D11846FDF7B0FA10BDD6
:10506000F7B598B000271A980C463E46402805D35D
:105070002078702802D16078512802D012201BB00D
:10508000F0BD6568C7492846403008621F210C22E0
:1050900009036846FFF7D8FF0C2847D16846007817
:1050A000702803D168464078522801D01420E6E7E2
:1050B0000198119002981290002D03D01199401A76
:1050C000A84201D21320DAE7684640221090FFF789
:1050D000BBFF40282AD16846C07814906846817882
:1050E00003A8169020460C301590AA2907D16846CF
:1050F0000078702803D168464078512803D00127F2
:10510000002014900BE010221699159800F072FE02
:10511000002804D1E0690799884200D10227402283
:1051200012991098FFF790FF402801D01620A6E7AB
:105130006846C078139068468078AA2807D16846E8
:105140000078702803D168464078512803D00126A2
:10515000002013900BE010221699159800F04AFEDB
:10516000002804D1E0690799884200D102261898E6
:10517000002801D0022807D9012F11D0012E1CD000
:1051800013991498FFF74EFF1590FF2240216846AF
:1051900000F00EFF1598022815D0022F24D004E04D
:1051A000FF224021684600F003FF7E4911984860C5
:1051B000002E1BD0022E19D00EE0FF22402168469F
:1051C00000F0F6FE01E0022E0ED0764912984860FB
:1051D000002F07D0022F05D00126724F38781328F0
:1051E00009D00FE0149802E0152048E71398FFF764
:1051F00011FF0646F1E74035A9B27868FFF7EDFEEA
:1052000000282CD16846C67060680190A0680290A2
:10521000E16863692269A06903AD0EC50690E06983
:105220000790217868460170617841702020015D07
:1052300008A801703878132813D11A9A7968403A6F
:105240002046403115464030FDF777FAA84206D196
:10525000402279681098FDF770FA402801D00620A6
:105260000DE700200BE77CB54E4C4D4A022600208E
:105270005032616904E0237F155C6B402377401C4A
:105280008142F8D82078132804D00826F0B2FFF71E
:10529000A3FC7CBD6846FFF776FD6846FFF751FD2D
:1052A0006269002A02D0A069002818D0A169206A8A
:1052B0008A18431C9A4220D8824201D9401A606160
:1052C000606825464118364862695030FDF735FA66
:1052D0006969814211D1A8694018A8610EE030497E
:1052E000607C5031FFF7BCFE002801D086B205E09B
:1052F0006269A1698918A16100E006260020606149
:10530000A069FFF710FDC1E770B5274C274D214676
:10531000284600F03BFE0104090C06D0204A83B267
:1053200050322146284600F049FE70BDF8B50446CB
:105330001C481F4F017A00250906090FA170017A48
:10534000ED430907090FE17001890904090F217074
:1053500002891205130F63708068000C60602820BA
:105360004143CA1999005058002801D0284600E04E
:105370000120505026786278C11700F013FE3201E8
:1053800000F010FE0B4E3268736810431943306012
:105390007160A07828214843C119E07880000BE0B3
:1053A000E46A00207C80002000030605002800033A
:1053B00078900020709000200A58002A00D1012522
:1053C0000D502846A778E278E91700F0EBFD3A0186
:1053D00000F0E8FD33687268184311433060716073
:1053E000002500956178207809232A4600F0FEFD0B
:1053F0000095E178A0780A23002200F0F7FDF8BDBF
:10540000FEB510460D4600F035FC01287ED1287807
:10541000002879D10E2332221C21434800F090FC51
:105420000446002020700B2767703A463FA1A01C5D
:1054300000F0D8FB204600F095FC0A2332221C2104
:10544000394800F07DFC0446012020700720607080
:10545000024639A1A01C00F0C5FB204600F082FCEA
:105460000B2332221C21304800F06AFC044606203F
:10547000207008266670324631A1A01C00F0B2FBF5
:10548000204600F06FFC0E2332221C21264800F03B
:1054900057FC04460520207067703A462BA1A01CDB
:1054A00000F0A0FB204600F05DFC09270C2332220F
:1054B0001C211D4800F044FC044604202070677045
:1054C0003A4625A1A01C00F08DFB204600F04AFCC6
:1054D0000A2332221C21144800F032FC04460670D4
:1054E000072060700120A070D221684601800B2146
:1054F000C90141807101818006226946E01C00F0EB
:1055000071FB204600F02EFC012300E008E032226F
:105510001146900200F014FC2978017000F022FC82
:105520000020FEBD00207047027000004469616CDD
:105530006F672053656D6900444131343538300060
:10554000123456FFFE9ABCDE00000000765F332E58
:1055500035302E312E353400765F332E302E362EF8
:1055600032000000704710B51C210223322288024D
:1055700000F0E6FBFF217431018000F0F3FB10BD69
:1055800010B50446042332221C21054800F0D8FB44
:105590000480012181700021C17000F0E3FB10BD87
:1055A00003700000024670B54A40D30FDB0740008D
:1055B0002DD04A002AD0010E140E09190002120241
:1055C000400A520A8418E50104465443000A120AAC
:1055D0002E045043A4194219200CC543AA18120CDA
:1055E00001257F39521CAD0352191204240400D046
:1055F000521C104301D44000491EC2B20C06C0091F
:105600002018401C4008802A02D003E0002070BD12
:1056100040084000002900DA0020184370BD70B532
:1056200002464A40D50F40004A00ED0740085208A4
:10563000002814D0002A12D0C40DD30D410201203D
:10564000C0055202490A520AE41A091812187D3498
:10565000914201D3641C00E04900002C01DA0020D3
:1056600070BD0023914201D3891A034340084900C9
:105670000028F7D100290AD0914202D10121C9079F
:1056800005E0914201D2012101E00121C943E00579
:10569000C018401900F0B5F970BD420005D04200B5
:1056A000120E52428A4201DB00207047C9050818D9
:1056B00070470000F0B507460846584087B0C00F55
:1056C000049048000E46590040084908BC1A884119
:1056D00005D2384631461E4617460B46024658004C
:1056E0004008104303D13846314607B0F0BD300DB5
:1056F000039040055900400D490D0590401A029055
:1057000040286DDA18030121000B090508430190B8
:1057100004980092002805D0019952420020884147
:1057200000920190029840210A1A0199009800F015
:1057300039FC05460C46684607C800F04FF9C01909
:105740007141039A0E0D0023D71756401A467A402E
:10575000164340D0049A002A29D0029A012A039ABB
:1057600011DC1205C01A914101263605001C714159
:10577000D20F059ED2070093019202962A46234635
:1057800000F022FCB1E71605224A0F46B218C01AF3
:10579000B74101210905001C4F4100187F41114606
:1057A00018187941E20F10436D19644113E0E207C4
:1057B0006D0815436408C2071443039A01261205B5
:1057C000C01A91413605001C7141CE074008304394
:1057D0004908C01851412A46234600F0FBFB84E7E4
:1057E000049801224000C117121A00238B4104982B
:1057F0003146C417381AA141EFE730B40124E40759
:10580000634030BC56E730B40124E407614030BC4B
:1058100050E700000000E0FFF0B50C465C4085B0AA
:10582000E40FE40703944C000026640859009446F2
:10583000490802460296224321D062460A431ED0FE
:105840006200570D4A000E032303550D0124024642
:105850002C492405781B1B0B360B40182343264389
:10586000614600901C46501AB44103D30098401C76
:10587000009002E0921800985B41002803DA0020B3
:10588000014605B0F0BD0020012109050746864606
:1058900011E064461D46141BB54106D36546521BF4
:1058A000B341744607430C43A646CD074008490858
:1058B000284392185B4105460D43EAD11046184330
:1058C00013D06046194650407140084303D100226E
:1058D0000123DB0709E06046101AB34102D201221E
:1058E000002302E00122D2435310009874460105C0
:1058F000381C6141029C039D0019694100F06AFB5C
:10590000BFE70000FD03000010B5002296231146FA
:1059100000F07FF810BD410040020122400AD2058C
:10592000090E80187F2901DA00207047962903DCD0
:105930009622511AC8407047963988407047000037
:105940004A0009030123090B1B051943094B10B534
:10595000520D9A4201DA002010BD064B34339A42B0
:1059600003DC9A1A00F03CFB10BD03495118884033
:1059700010BD0000FF030000CDFBFFFFC20FD207E8
:10598000400040080BD0C10D0723DB01C9184002BD
:105990000905400A1143C20840071143704700201F
:1059A00001467047CB0FDB07490010B54908024696
:1059B0000A4307D00A0D07240903E401090B121B4F
:1059C000002A01DC002010BDC900440F0C43C100B7
:1059D000E018D205801800F014F810BD10B5202A88
:1059E00006DBCB170846203A1041C1170B4306E0EF
:1059F0000B461341D0402024A21A91400843194677
:105A000010BD002904DA401C490001D140084000C3
:105A1000704770B40024050C05D11024000402D195
:105A2000002922D01124050E01D108340002050FEF
:105A300001D1241D0001850F01D1A41C8000002884
:105A400001DB641C4000002908D020252E1B0D46D8
:105A5000F540A14000D00121294308431B1B01064A
:105A6000DB1D000A002B02DA002070BC7047DB054A
:105A7000181880180029F8DA401C4900F5D170BCCC
:105A80004008400070470000064C0125064E05E026
:105A90002046E36807C82B4398471034B442F7D335
:105AA000FAF7D2FC0C6A00204C6A002003B40148CB
:105AB000019001BD551B020003B40148019001BDD6
:105AC0000F3B030003B40148019001BDCF2B03003D
:105AD00003B40148019001BDCB2C030003B401487D
:105AE000019001BD0990020003B40148019001BD7D
:105AF0001F21020003B40148019001BDC12D030024
:105B000003B40148019001BD0921030003B4014819
:105B1000019001BDC92D030003B40148019001BDEE
:105B20002B69020003B40148019001BDEB31030071
:105B300003B40148019001BD3D32030003B40148A4
:105B4000019001BDD721030003B40148019001BDBC
:105B5000A73A030003B40148019001BDD33A030002
:105B600003B40148019001BD893C030003B401481E
:105B7000019001BD913B030003B40148019001BDB8
:105B80006D9B020003B40148019001BD2F2F03005B
:105B900003B40148019001BD998F020003B401488C
:105BA000019001BD938F020003B40148019001BD33
:105BB000CD8C020003B40148019001BD418F020069
:105BC00003B40148019001BD2768020003B40148F5
:105BD000019001BD3968020003B40148019001BD84
:105BE000B780020003B40148019001BD213B0300CE
