:020000040000FA
:10000000D01D0800B5000000BD000000BF000000CA
:1000100000000000000000000000000000000000E0
:10002000000000000000000000000000C10000000F
:100030000000000000000000C3000000C500000038
:10004000C7000000C7000000C7000000C700000094
:10005000C7000000C7000000C7000000C700000084
:10006000790208005B020800C7000000C70000001A
:10007000C7000000C7000000C7000000C700000064
:10008000C7000000C7000000C7000000E10808002A
:10009000E5080800E9080800ED080800F108080074
:1000A0000348854600F03EF800480047F10B080081
:1000B000D01D08000448804704480047FEE7FEE7DB
:1000C000FEE7FEE7FEE7FEE7D1000000A10000002A
:1000D000052000074189090609D4818A0906FCD553
:1000E000418989088900418141890906FCD500219F
:1000F000018009498A683E239A430E328A60018A48
:100100000F2212021143018205490448086070471A
:100110000349024808607047003300500024F4008F
:10012000A0190800064C0125064E05E02046E368AC
:1001300007C82B4398471034B442F7D3FFF7B4FFF6
:10014000680100009801000002E008C8121F08C101
:10015000002AFAD170477047002001E001C1121F48
:10016000002AFBD170470000980100000000080041
:10017000A019000048010000381B0000A019080069
:1001800024000000480100005C1B0000C4190800A6
:100190000C04000058010000024801688D464268C6
:1001A000104700000000002010B57D4A04461146AB
:1001B000002310397B4800F097FE7A4800F028FFB2
:1001C000002223461146774801F04EF810BDF0B5E5
:1001D000002099B01490044613901690159007468D
:1001E0000646054617901F2168460C22090300F0B9
:1001F000D2F868460078702878D16846407852284E
:1002000074D1019811900298109068464022129083
:10021000119900F0C0F868468078AA2811D1684684
:10022000007870280DD168464078512809D101988E
:1002300014906846C07816900298179008A806781F
:10024000012440221099129800F0A5F868468078A1
:10025000AA2810D16846007870280CD168464078EA
:10026000512808D16846C07815900198139008A8C5
:100270000578029FA41C032C04D0012C0ED0022C64
:1002800035D05FE016991598FF2901D100282ED0AE
:10029000FF2801D1002901D0814228D311990020E3
:1002A0004031149A00F077F8002E02D01498FFF72E
:1002B0007BFF00210846149A00F004FE179988423B
:1002C00040D0032C3ED1109900204031139A00F009
:1002D00062F8002D02D01398FFF766FF0021084650
:1002E000139A00F0EFFDB84228D12BE026E01099D8
:1002F00000204031139A00F04EF8002D02D01398E0
:10030000FFF752FF00210846139A00F0DBFDB842C8
:1003100018D0032C16D1119900204031149A00F006
:100320003AF8002E02D01498FFF73EFF002108464D
:10033000149A00F0C7FD1799884203D00020C043EB
:1003400019B0F0BD0020FBE738B500240923224690
:1003500002212046009401F029F800220A230321FB
:100360001046009401F022F838BD10B500F028FDC9
:1003700000F030FA00F059FDFFF729FF10BD10B56D
:10038000FFF7E2FF012300220221502000F082FB50
:10039000FFF71DFF10BD10B500F01BF9002010BDC8
:1003A00034130800C4190800052109078A880823A6
:1003B0001A438A801E4A022151801E4900220A6087
:1003C0001D490A807D2212028A80CA801B4A106061
:1003D000072008801A49580108607047164906200E
:1003E0000880FF20174901300860154980310860F6
:1003F000704712480168002903D00168491E016056
:1004000070470C49012008600B490620088070479E
:100410000A480168002903D00168491E016070473D
:100420000449012008600449062008807047000044
:1004300000330050BC19080000340050B8190800FF
:1004400000E100E080E200E0F94AD160906070478E
:1004500010B5012000F0ABFA0520000200F0E8FA28
:10046000C0B210BD70B50024F24DFFF7F1FFC00718
:1004700004D0641CAC42F8D30020C04370BD70B5FA
:10048000FFF7F0FF002817D100F091FA00F03CFAD6
:100490009F2000F0B6FA002000F0B3FA0504002017
:1004A00000F0AFFA04022C43002000F0AAFA204327
:1004B000054600F030FA284670BD70B5FFF7DFFF43
:1004C000DB4CDD4A002114234B43D5589B185B6855
:1004D0001D4003409D420ED1142308B24B4320809F
:1004E0009B189D68A560DB68E3601423584380185F
:1004F000606048B270BD491C89B20329E3D3002073
:100500006060401E70BD70B5FFF7ACFF002815D1CC
:1005100000F04DFAC74E0025062000F089FA0024AD
:10052000FFF796FFC10703D1800701D5002070BDFA
:10053000641CB442F4D36D1C322DEDD30020C043B3
:1005400070BD70B5FFF78EFF002815D100F02FFAAF
:10055000B84E0025502000F06BFA0024FFF778FF1A
:10056000C10703D1800701D5002070BD641CB442CF
:10057000F4D36D1C322DEDD30020C04370BD70B597
:10058000FFF770FF002811D100F011FAA94E0025E5
:10059000042000F04DFA0024FFF75AFF800707D02F
:1005A000641CB442F8D36D1C322DF1D30020C0433B
:1005B00070BD10B50446FFF755FF002808D1012093
:1005C00000F0F5F9E01DF93000F032FAFFF74AFFCC
:1005D00010BD70B5064696480D4680685119814297
:1005E00001D9441B00E01446FFF73CFF00281AD154
:1005F000022000F0DCF900F087F903212846090603
:10060000084300F0FEF9002000F0D1F9002505E0D4
:10061000002000F0F6F93070761C6D1CA542F7D36F
:1006200000F079F9204670BD70B5054680480E4649
:10063000C0681446824200D984B2FFF713FF002835
:100640001ED1FFF760FF00281AD1022000F0AFF999
:1006500000F05AF9012130464906084300F0D1F96B
:10066000002000F0A4F905E028786D1C00F0C9F91D
:10067000641EA4B2002CF7D100F04DF9FFF7F2FE92
:1006800070BD70B50D460446FFF73DFF002802D04F
:100690000020C04370BD022000F089F928062043E5
:1006A00000F0C6F9FFF7DEFE70BD10B5FFF72BFFB7
:1006B000002802D00020C04310BD002000F077F9D0
:1006C000C72000F0B5F9FFF7CDFE40B210BD002005
:1006D000C043704710B5FFF7C5FE002812D10120B6
:1006E00000F065F900F010F90920000300F089F925
:1006F000002000F086F9002000F083F9044600F0A5
:100700000AF920B210BD70B5FFF7ACFE002801D089
:10071000C11770BD002000F04AF900F0F5F84B2039
:1007200000F06FF9022000F042F9002000F069F9B2
:10073000002000F066F900250446284600F061F923
:1007400006462E4300F0E7F83046214670BDF7B567
:1007500082B0374F0E460091F96814460D46304678
:1007600000F0E8FD401C6843451E002000F01FF922
:10077000B868801BA04200D204462646002719E034
:1007800000988019A84202D900982E1A761C029867
:10079000B2B2C0190099FFF747FF002803D000202C
:1007A000C04305B0F0BD681C00902148BF19C06867
:1007B0002D18E61BA742E3D33846F2E710B5FFF742
:1007C00051FE002805D100F0F2F8B92000F030F910
:1007D000002010BD10B5002000F0E9F8AB2000F0BB
:1007E00027F9002010BD70B5114C0546606800283F
:1007F00006D0FFF788FE002805D00020C04370BD5A
:100800000520C04370BDFFF723FE6168097C884363
:1008100029400843FFF7CDFE70BD10B5044840687D
:10082000407CFFF7E0FF002808D040B210BD000078
:10083000A4190800400D030044130800FFF735FF1A
:10084000F4E770B505462F480E46C068144682424C
:1008500000D984B2FFF706FE00281DD1FFF753FE32
:10086000002819D1022000F0A2F800F04DF8012173
:1008700030464906084300F0C4F8002000F097F81D
:1008800004E0284600F0BDF8641EA4B2002CF8D1A4
:1008900000F041F8FFF7E6FD70BDF7B582B0194FE3
:1008A0000E460091F96814460D46304600F042FDB0
:1008B000401C6843451E002000F079F8B868801B92
:1008C000A04200D204462646002717E0009880196F
:1008D000A84202D900982E1A761CB2B2009902984A
:1008E000FFF7AFFF002802D00020C04359E7681C83
:1008F00000900448BF19C0682D18E61BA742E5D335
:1009000038464EE7A419080010B54F4841780078E2
:1009100000F0BAFD10BD10B54B484178007800F0EA
:10092000A7FD10BDF8B50E46154647490278079F4A
:100930000A7040781C464870FFF7EDFF052000075D
:1009400081880122D20211438180404801884908F0
:10095000490001800188FF2281329143F201114355
:100960000180018840229143AA011143018001883E
:1009700004229143A2001143018001880222914385
:10098000069A52001143018001880122920391438B
:10099000BA0311430180018818229143089AD200BA
:1009A000114301800188012211430180F8BD2749CC
:1009B0000A88520852000A800A88FF2381339A432A
:1009C000C00102430A800888012210430880704752
:1009D00010B51E480188490849000180052000071C
:1009E00081880122D20291438180174841780078A2
:1009F00000F03EFD10BD15480188490849000180FE
:100A0000704710B5114900230A88D205920F012AB8
:100A100001D9040C8C80488008888004FCD5012012
:100A2000C880012A01D9888803044888C01810BDED
:100A300010B50446FFF768FF2046FFF7E2FF0446C3
:100A4000FFF769FF204610BDB419080000120050DE
:100A500010B5044600F0C0FC0C49A00040188038D6
:100A6000406B002801D0804710BDE106C90E01206F
:100A700088400749086010BD1320E9E71420E7E724
:100A80001520E5E71620E3E71720E1E7B81B08008B
:100A900080E200E0F0B59B4D2B7005231B079C887E
:100AA000202634439C80984C0023A381964B6126DA
:100AB000603B1E801E880627BE4349000E431E80F1
:100AC00019881026B1431201114319808105890D3F
:100AD00099800121A181218A8906FCD46870F0BD2A
:100AE00089490020888105200007818820229143C0
:100AF0008180704770B5844B834C834D0822603BE6
:100B000081482034203D1A82018A4907FCD5018A98
:100B10008906FCD42188AE8AC907F4D170BD30B5EE
:100B20000104784C0B0E784922786039012A02D0F2
:100B3000022A0ED110E0744A00259581C50364781D
:100B4000ED0F25438D8001249481148AA406FCD4E2
:100B50000B82C0B2088230BD0202120E0A82F7E791
:100B600010B50446FFF7C6FF2046FFF7D8FF6648DA
:100B7000018A8907FCD5FF226349013260390A8264
:100B8000028A5207FCD5028B002AFCD0088AC0B228
:100B900010BDF0B5044615460846FFF7C0FF5A4998
:100BA00000226039FF235848013304E0068AB60763
:100BB000FCD50B82521CAA42F8D3EFF3108301221A
:100BC00082F31088002209E0068B002EFCD00E8AEA
:100BD00027683E702668761C521C2660AA42F3D312
:100BE000002B03D0012080F31088F0BD0020FAE72D
:100BF000F7B50E46002A09D001204004841B944218
:100C000000D314462546FFF775FF08E00020FEBD1F
:100C1000202231466846FFF7BCFF2036203C202CBE
:100C2000F6D2002C04D0224631466846FFF7B1FFC9
:100C30002846FEBD30B50C460546FFF75BFF28464B
:100C4000FFF76DFF3048018A8907FCD52E496039CE
:100C50000C82018A4907FCD5018A8906FCD430BD83
:100C6000F0B506468C4608460121002549048C450E
:100C700029D2C0B249120C1AA24200D21446FFF780
:100C800039FFEFF31087012080F310886046FFF7EB
:100C900046FF1D491C486039028A9207FCD532780C
:100CA000761C0A82641E6D1CA4B2ADB2002CF3D176
:100CB000002F0AD0012181F31088018A4907FCD551
:100CC000018A8906FCD42846F0BD0021F3E7F0B57F
:100CD0000646012040040D46814201D30020F0BDAC
:100CE000401B904200D202461446002706E0A2B202
:100CF000E919F019FFF7B4FF3F18241A002CF6D1B8
:100D00003846F0BDB61908006013005010B5002237
:100D100030230520000701881401994321430180F5
:100D200000210488A408A4000C430480491CC9B213
:100D30000429F6D3521CD2B2042AECD3002101803C
:100D400010BD38B5FFF744FEFFF755FE0120400700
:100D50000068184C80000BD5618A684601800088C5
:100D6000810889006846018000886082FFF714FAD4
:100D7000618A6846018001880120C00301436846FA
:100D800001800088608238BD0B4D08242C80094802
:100D9000018A022291430182818A0907FCD5C82673
:100DA000064FFFF7E2FA0028FBD13E806C80FFF788
:100DB000C8FFF6E70000005000330050003100503B
:100DC0003EB5012003252D02009008232A46032169
:100DD000002000F0EBFA002407232A462146204693
:100DE000009400F0E3FA06232A46194600200094F6
:100DF00000F0DCFA0523002219461046009400F0AA
:100E0000D5FA2A4803214170FF21047001314802BC
:100E1000FFF71AFB02200023029000941A4619469D
:100E200001942248FFF77EFD3EBD10B5FFF752FC4E
:100E30001F4980B242181F481F4902D0012A00D121
:100E40004000FFF701FB10BD1C4948800888800462
:100E5000FCD50120C88048887047F0B5184D08249B
:100E60000B460646AC800320FFF7EEFF1802000E8B
:100E7000FFF7EAFF1804000EFFF7E6FFD8B2FFF70E
:100E8000E3FF0E4B00275F8000BF00BF002109E099
:100E90005F8000BF00BF00BF00BF00BF00BF588819
:100EA0007054491C9142F3D36C80F0BDC019080006
:100EB000F010FFFF000002000001000000120050CF
:100EC0000030005010B5C043064B07E00C78491CB9
:100ED00044402406A40D1C59000A6040521EF5D25D
:100EE000C04310BD80130800FFB583B0002B4AD06B
:100EF000012B7DD10E200825039A10800398458090
:100F0000039F00203F1D002D27DD0B781A464B78EC
:100F10001B021A438B781B041A43CB781B061A4317
:100F200012BA120ACB7812021A438300FA500C79D3
:100F3000DB1922464C79801C240222438C7924043C
:100F40002243CC792406224312BA120ACC79120227
:100F5000224308315A60A842D7DBF048009003983A
:100F60002E4600888000001D0190854247DAB000BF
:100F70000290C0194038C46B2946304600F0F0F9A1
:100F80000B0003D01AE00A200425B5E7E448E1B2DB
:100F9000415C0A022104090E415C0904114322024A
:100FA000120E825C12060A43210E405C0099104327
:100FB00009780C0644400098401C0090082D12D17E
:100FC000042B10D1D6482204120EE1B2825C415C9F
:100FD00012020A432102090E415C09041143220E48
:100FE000805C04060C43701B80003958614000E0AF
:100FF0000CE00298761C395001988642B7DB0398C2
:101000001022FF30E530059900F0BEF907B0F0BDC1
:10101000F0B40546008814358000042833DD2C68C0
:10102000C049C14B22460A40E609DF433E40921BBD
:10103000BE4E6100194032405140FA010E46164042
:10104000F709F61BB94F4A001A403E407240B54EB0
:10105000570016401F40F309F31AB44E33405F4067
:101060000B467C405340614018267B40F14159407B
:1010700062401023DA414A400821CC41544010C557
:10108000401E0428CBDCF0BC7047F0B597B0028856
:1010900008921201161814360C46103430460222FB
:1010A000119423460746403B403FDD6BFF6B0838F9
:1010B0007D40DD639D6B0768083C7D409D63521E4B
:1010C000EFD100200590103E0898139600286EDDA1
:1010D000401E129010A814900422941CA407240F00
:1010E0000C59934B2402240E1D5D541CD01CA407E4
:1010F0008007240F000F0C5B085896072404360F56
:10110000000E240E8E5D185C1C5D9B5D129F059E7B
:10111000BE4278DA06466E400396370603D576005F
:101120001B277E4000E07600F6B2654007962F460A
:101130002E0603D57D001B26754000E07D00EDB234
:10114000049525465D402E0603D56D001B2675408F
:1011500000E06D00EDB209951D4645402E0603D511
:101160006D001B26754000E06D00EDB21595049EE4
:10117000079D75402E0603D56D001B26754000E0C7
:101180006D00EDB2AC46099E049D75402E0603D558
:101190006D001B26754000E06D00EDB26646AE4660
:1011A0006E40350604D575001B26754001E059E0F8
:1011B0007500EEB23D465D4067467D40079F754035
:1011C0007D406040584077467840049F70407840AA
:1011D000039F00045F4063465F40099B77405F4088
:1011E000039B634074466340159C734063402C0628
:1011F0000443380204431C4393000CA818184038D9
:10120000C4630BE0FFE700062D04284324022043BB
:10121000184394000CABE318403BD863521E00D037
:101220005BE7139B119A1498022504461E46403C26
:10123000403EE46BF66B083874401646403EF4635B
:10124000083B04681E68083A744014606D1EECD1B7
:101250001398089A103813900598401C05909042F6
:1012600000DA39E717B0F0BDFFB59BB01B98FF302F
:1012700081300090446E826EC16E006F25BA00BA54
:101280001C4616BA0FBA0390103C3BD4102212A889
:101290001C9900F079F81C9810301C90129800BA34
:1012A00016900A90139801BA149802910B9101BA02
:1012B0001598189100BA0C9104900D900AA91B98EA
:1012C000FFF7E3FE0A980D99684000BA0E900B985C
:1012D000169D704000BA0F900C98029E784000BA9C
:1012E00010900398189F41400498039008BA1190F9
:1012F00010220EA91D9800F047F81D9810301D907F
:10130000103CC3D5039A009C3BBA12BAE36631BACB
:10131000226728BAA16660661FB0F0BD8019080078
:101320008017080080808080FEFEFEFE1B1B1B1BBA
:101330008018080030B50B46014600202022012409
:1013400009E00D46D5409D4205D31D469540491BF9
:101350002546954040191546521E002DF1DC30BD42
:1013600070B500242546002801DA012440420029F6
:1013700001DA01254942FFF7DDFFAC4200D04042CF
:10138000002C00D0494270BD03460B439B0703D09D
:1013900009E008C9121F08C0042AFAD203E00B783A
:1013A000491C0370401C521EF9D27047F8B507461D
:1013B00006981C46002815460E46384602D000F016
:1013C00057F801E000F060F823462A4631463846D7
:1013D00000F066F8F8BD000010B5244CE389012246
:1013E0001338114681408B43C80701D0002038E0F4
:1013F000880701D5012034E0480701D5022030E0FC
:10140000080701D503202CE0C80601D5042028E0F8
:10141000880601D5052024E0480601D5062020E0F5
:10142000080601D507201CE0C80501D5082018E0F2
:10143000880501D5092014E0480501D50A2010E0EF
:10144000080501D50B200CE0C80401D50C2008E0EC
:10145000880401D50D2004E0480401D50E2000E0E9
:101460000F2082401343E38110BD000000140050A0
:10147000032800D10420034A4001801801228A4039
:101480004280704700300050032800D10420034AF6
:101490004001801801228A4082807047003000504D
:1014A00010B5032800D10420034C40010019490065
:1014B00008181A43C28010BD0030005006A9214010
:1014C00036B8A15B512E03D5341200063DAFBA42A7
:1014D0009D9EB430B422DA802C9FAC411130EF00D5
:1014E000FFFFFF0000000200000100002C000000D0
:1014F0001230EF00FFFFFF000000040000010000B9
:101500002C00000000421F0000FFFF00000002004E
:101510000001000004000000000000009630077782
:101520002C610EEEBA51099919C46D078FF46A70D7
:1015300035A563E9A395649E3288DB0EA4B8DC79F7
:101540001EE9D5E088D9D2972B4CB609BD7CB17E77
:10155000072DB8E7911DBF906410B71DF220B06A47
:101560004871B9F3DE41BE847DD4DA1AEBE4DD6D57
:1015700051B5D4F4C785D38356986C13C0A86B6457
:101580007AF962FDECC9658A4F5C0114D96C066377
:10159000633D0FFAF50D088DC8206E3B5E10694C57
:1015A000E44160D5727167A2D1E4033C47D4044B97
:1015B000FD850DD26BB50AA5FAA8B5356C98B24277
:1015C000D6C9BBDB40F9BCACE36CD832755CDF45F7
:1015D000CF0DD6DC593DD1ABAC30D9263A00DE5127
:1015E0008051D7C81661D0BFB5F4B42123C4B35617
:1015F0009995BACF0FA5BDB89EB802280888055F97
:10160000B2D90CC624E90BB1877C6F2F114C6858F6
:10161000AB1D61C13D2D66B69041DC760671DB01E4
:10162000BC20D2982A10D5EF8985B1711FB5B606B6
:10163000A5E4BF9F33D4B8E8A2C9077834F9000FF6
:101640008EA8099618980EE1BB0D6A7F2D3D6D0896
:10165000976C6491015C63E6F4516B6B62616C1C86
:10166000D83065854E0062F2ED95066C7BA5011BB6
:10167000C1F4088257C40FF5C6D9B06550E9B71256
:10168000EAB8BE8B7C88B9FCDF1DDD62492DDA1516
:10169000F37CD38C654CD4FB5861B24DCE51B53A36
:1016A0007400BCA3E230BBD441A5DF4AD795D83D36
:1016B0006DC4D1A4FBF4D6D36AE96943FCD96E3476
:1016C000468867ADD0B860DA732D0444E51D033356
:1016D0005F4C0AAAC97C0DDD3C710550AA41022766
:1016E00010100BBE86200CC925B56857B3856F2036
:1016F00009D466B99FE461CE0EF9DE5E98C9D92996
:101700002298D0B0B4A8D7C7173DB359810DB42ED5
:101710003B5CBDB7AD6CBAC02083B8EDB6B3BF9A21
:101720000CE2B6039AD2B1743947D5EAAF77D29DAD
:101730001526DB048316DC73120B63E3843B64948D
:101740003E6A6D0DA85A6A7A0BCF0EE49DFF09938D
:1017500027AE000AB19E077D44930FF0D2A30887FD
:1017600068F2011EFEC206695D5762F7CB676580AD
:1017700071366C19E7066B6E761BD4FEE02BD389AD
:101780005A7ADA10CC4ADD676FDFB9F9F9EFBE8E0D
:1017900043BEB717D58EB060E8A3D6D67E93D1A14D
:1017A000C4C2D83852F2DF4FF167BBD16757BCA62D
:1017B000DD06B53F4B36B248DA2B0DD84C1B0AAFCD
:1017C000F64A0336607A0441C3EF60DF55DF67A84D
:1017D000EF8E6E3179BE69468CB361CB1A8366BCDD
:1017E000A0D26F2536E2685295770CCC03470BBB2D
:1017F000B91602222F260555BE3BBAC5280BBDB22D
:10180000925AB42B046AB35CA7FFD7C231CFD0B5CC
:101810008B9ED92C1DAEDE5BB0C2649B26F263ECBE
:101820009CA36A750A936D02A906099C3F360EEBCC
:101830008567077213570005824ABF95147AB8E28C
:10184000AE2BB17B381BB60C9B8ED2920DBED5E56C
:10185000B7EFDC7C21DFDB0BD4D2D38642E2D4F1BC
:10186000F8B3DD686E83DA1FCD16BE815B26B9F64C
:10187000E177B06F7747B718E65A0888706A0FFFAC
:10188000CA3B06665C0B0111FF9E658F69AE62F86C
:10189000D3FF6B6145CF6C1678E20AA0EED20DD76C
:1018A0005483044EC2B30339612667A7F71660D08C
:1018B0004D476949DB776E3E4A6AD1AEDC5AD6D9CC
:1018C000660BDF40F03BD83753AEBCA9C59EBBDEEC
:1018D0007FCFB247E9FFB5301CF2BDBD8AC2BACA9C
:1018E0003093B353A6A3B4240536D0BA9306D7CD0C
:1018F0002957DE54BF67D9232E7A66B3B84A61C42C
:10190000021B685D942B6F2A37BE0BB4A18E0CC3EB
:101910001BDF055A8DEF022D637C777BF26B6FC561
:101920003001672BFED7AB76CA82C97DFA5947F0E2
:10193000ADD4A2AF9CA472C0B7FD9326363FF7CCBE
:1019400034A5E5F171D8311504C723C31896059A5B
:10195000071280E2EB27B27509832C1A1B6E5AA07E
:10196000523BD6B329E32F8453D100ED20FCB15B69
:101970006ACBBE394A4C58CFD0EFAAFB434D3385D2
:1019800045F9027F503C9FA851A3408F929D38F5A6
:10199000BCB6DA2110FFF3D2CD0C13EC5F974417DD
:1019A000C4A77E3D645D197360814FDC222A908854
:1019B00046EEB814DE5E0BDBE0323A0A4906245CE0
:1019C000C2D3AC629195E479E7C8376D8DD54EA945
:1019D0006C56F4EA657AAE08BA78252E1CA6B4C611
:1019E000E8DD741F4BBD8B8A703EB5664803F60E6A
:1019F000613557B986C11D9EE1F8981169D98E9459
:101A00009B1E87E9CE5528DF8CA1890DBFE6426871
:101A100041992D0FB054BB1652096AD53036A538FE
:101A2000BF40A39E81F3D7FB7CE339829B2FFF87C6
:101A3000348E4344C4DEE9CB547B9432A6C2233DAA
:101A4000EE4C950B42FAC34E082EA16628D924B25B
:101A5000765BA2496D8BD12572F8F664866898167C
:101A6000D4A45CCC5D65B6926C704850FDEDB9DADB
:101A70005E154657A78D9D8490D8AB008CBCD30AC9
:101A8000F7E45805B8B34506D02C1E8FCA3F0F02A5
:101A9000C1AFBD0301138A6B3A9111414F67DCEA74
:101AA00097F2CFCEF0B4E67396AC7422E7AD3585ED
:101AB000E2F937E81C75DF6E47F11A711D29C589F7
:101AC0006FB7620EAA18BE1BFC563E4BC6D27920D9
:101AD0009ADBC0FE78CD5AF41FDDA8338807C731E2
:101AE000B11210592780EC5F60517FA919B54A0DDA
:101AF0002DE57A9F93C99CEFA0E03B4DAE2AF5B04F
:101B0000C8EBBB3C83539961172B047EBA77D6266A
:101B1000E169146355210C7D010204081020408006
:101B20001B366CD8AB4D9A2F5EBC63C697356AD412
:101B3000B37DFAEFC59100000024F400000000001E
:101B40000000000000000000000000000000000095
:0C1B500000000000000000000000000089
:04000005000000A156
:00000001FF
